{
	"contracts/1_Storage.sol": {
		"twitter": {
			"abi": [
				{
					"inputs": [
						{
							"internalType": "string",
							"name": "",
							"type": "string"
						},
						{
							"internalType": "string",
							"name": "",
							"type": "string"
						},
						{
							"internalType": "uint256",
							"name": "",
							"type": "uint256"
						}
					],
					"name": "Reports",
					"outputs": [
						{
							"internalType": "string",
							"name": "date",
							"type": "string"
						},
						{
							"internalType": "string",
							"name": "doctername",
							"type": "string"
						},
						{
							"internalType": "string",
							"name": "docspecilist",
							"type": "string"
						}
					],
					"stateMutability": "view",
					"type": "function"
				},
				{
					"inputs": [
						{
							"internalType": "string",
							"name": "name",
							"type": "string"
						},
						{
							"internalType": "uint104",
							"name": "age",
							"type": "uint104"
						},
						{
							"internalType": "string",
							"name": "hospitalname",
							"type": "string"
						},
						{
							"internalType": "string",
							"name": "datereportedd",
							"type": "string"
						},
						{
							"internalType": "string",
							"name": "doctername",
							"type": "string"
						},
						{
							"internalType": "string",
							"name": "docterspecilist",
							"type": "string"
						}
					],
					"name": "addpatient",
					"outputs": [],
					"stateMutability": "nonpayable",
					"type": "function"
				},
				{
					"inputs": [
						{
							"internalType": "string",
							"name": "",
							"type": "string"
						},
						{
							"internalType": "uint256",
							"name": "",
							"type": "uint256"
						}
					],
					"name": "allpatientshospital",
					"outputs": [
						{
							"internalType": "string",
							"name": "name",
							"type": "string"
						},
						{
							"internalType": "uint104",
							"name": "age",
							"type": "uint104"
						}
					],
					"stateMutability": "view",
					"type": "function"
				},
				{
					"inputs": [
						{
							"internalType": "string",
							"name": "name",
							"type": "string"
						},
						{
							"internalType": "string",
							"name": "hospitalname",
							"type": "string"
						},
						{
							"internalType": "string",
							"name": "email",
							"type": "string"
						},
						{
							"internalType": "uint168",
							"name": "phnum",
							"type": "uint168"
						},
						{
							"internalType": "uint256",
							"name": "age",
							"type": "uint256"
						}
					],
					"name": "createpatientaccount",
					"outputs": [],
					"stateMutability": "nonpayable",
					"type": "function"
				},
				{
					"inputs": [
						{
							"internalType": "string",
							"name": "hospitalname",
							"type": "string"
						}
					],
					"name": "getallpatientsinhospital",
					"outputs": [
						{
							"components": [
								{
									"internalType": "string",
									"name": "name",
									"type": "string"
								},
								{
									"internalType": "uint104",
									"name": "age",
									"type": "uint104"
								}
							],
							"internalType": "struct twitter.Host[]",
							"name": "",
							"type": "tuple[]"
						}
					],
					"stateMutability": "nonpayable",
					"type": "function"
				},
				{
					"inputs": [
						{
							"internalType": "string",
							"name": "hospitalname",
							"type": "string"
						},
						{
							"internalType": "string",
							"name": "name",
							"type": "string"
						}
					],
					"name": "getreports",
					"outputs": [
						{
							"components": [
								{
									"internalType": "string",
									"name": "date",
									"type": "string"
								},
								{
									"internalType": "string",
									"name": "doctername",
									"type": "string"
								},
								{
									"internalType": "string",
									"name": "docspecilist",
									"type": "string"
								}
							],
							"internalType": "struct twitter.Datereported[]",
							"name": "",
							"type": "tuple[]"
						}
					],
					"stateMutability": "nonpayable",
					"type": "function"
				},
				{
					"inputs": [
						{
							"internalType": "string",
							"name": "hospitalname",
							"type": "string"
						},
						{
							"internalType": "string",
							"name": "name",
							"type": "string"
						}
					],
					"name": "getuser",
					"outputs": [
						{
							"components": [
								{
									"internalType": "string",
									"name": "name",
									"type": "string"
								},
								{
									"internalType": "uint104",
									"name": "age",
									"type": "uint104"
								}
							],
							"internalType": "struct twitter.Host",
							"name": "",
							"type": "tuple"
						}
					],
					"stateMutability": "nonpayable",
					"type": "function"
				},
				{
					"inputs": [
						{
							"internalType": "string",
							"name": "uname",
							"type": "string"
						}
					],
					"name": "getuseremial",
					"outputs": [
						{
							"internalType": "string",
							"name": "",
							"type": "string"
						}
					],
					"stateMutability": "view",
					"type": "function"
				},
				{
					"inputs": [
						{
							"internalType": "string",
							"name": "",
							"type": "string"
						},
						{
							"internalType": "string",
							"name": "",
							"type": "string"
						}
					],
					"name": "patients",
					"outputs": [
						{
							"internalType": "string",
							"name": "name",
							"type": "string"
						},
						{
							"internalType": "uint104",
							"name": "age",
							"type": "uint104"
						}
					],
					"stateMutability": "view",
					"type": "function"
				},
				{
					"inputs": [
						{
							"internalType": "string",
							"name": "",
							"type": "string"
						}
					],
					"name": "users",
					"outputs": [
						{
							"internalType": "string",
							"name": "name",
							"type": "string"
						},
						{
							"internalType": "string",
							"name": "email",
							"type": "string"
						},
						{
							"internalType": "uint168",
							"name": "phnum",
							"type": "uint168"
						},
						{
							"internalType": "string",
							"name": "hospitalname",
							"type": "string"
						}
					],
					"stateMutability": "view",
					"type": "function"
				}
			],
			"devdoc": {
				"custom:dev-run-script": "./scripts/deploy_with_ethers.ts",
				"details": "Store & retrieve value in a variable",
				"kind": "dev",
				"methods": {},
				"title": "Storage",
				"version": 1
			},
			"evm": {
				"assembly": "    /* \"contracts/1_Storage.sol\":199:2290  contract twitter {... */\n  mstore(0x40, 0x80)\n  callvalue\n  dup1\n  iszero\n  tag_1\n  jumpi\n  revert(0x00, 0x00)\ntag_1:\n  pop\n  dataSize(sub_0)\n  dup1\n  dataOffset(sub_0)\n  0x00\n  codecopy\n  0x00\n  return\nstop\n\nsub_0: assembly {\n        /* \"contracts/1_Storage.sol\":199:2290  contract twitter {... */\n      mstore(0x40, 0x80)\n      callvalue\n      dup1\n      iszero\n      tag_1\n      jumpi\n      revert(0x00, 0x00)\n    tag_1:\n      pop\n      jumpi(tag_2, lt(calldatasize, 0x04))\n      shr(0xe0, calldataload(0x00))\n      dup1\n      0x53b7fe35\n      gt\n      tag_13\n      jumpi\n      dup1\n      0x53b7fe35\n      eq\n      tag_8\n      jumpi\n      dup1\n      0x629014d7\n      eq\n      tag_9\n      jumpi\n      dup1\n      0x689e1c03\n      eq\n      tag_10\n      jumpi\n      dup1\n      0x80672e8c\n      eq\n      tag_11\n      jumpi\n      dup1\n      0xcae17979\n      eq\n      tag_12\n      jumpi\n      jump(tag_2)\n    tag_13:\n      dup1\n      0x26b60286\n      eq\n      tag_3\n      jumpi\n      dup1\n      0x341fde55\n      eq\n      tag_4\n      jumpi\n      dup1\n      0x3a110d0d\n      eq\n      tag_5\n      jumpi\n      dup1\n      0x42b5d283\n      eq\n      tag_6\n      jumpi\n      dup1\n      0x45c3c6c2\n      eq\n      tag_7\n      jumpi\n    tag_2:\n      revert(0x00, 0x00)\n        /* \"contracts/1_Storage.sol\":1025:1144  function getuseremial( string  memory uname)  public  view returns(string memory ){... */\n    tag_3:\n      tag_14\n      0x04\n      dup1\n      calldatasize\n      sub\n      dup2\n      add\n      swap1\n      tag_15\n      swap2\n      swap1\n      tag_16\n      jump\t// in\n    tag_15:\n      tag_17\n      jump\t// in\n    tag_14:\n      mload(0x40)\n      tag_18\n      swap2\n      swap1\n      tag_19\n      jump\t// in\n    tag_18:\n      mload(0x40)\n      dup1\n      swap2\n      sub\n      swap1\n      return\n        /* \"contracts/1_Storage.sol\":747:1021  function createpatientaccount(string  memory name,string memory  hospitalname,string  memory email,uint168 phnum,uint age ) public {... */\n    tag_4:\n      tag_20\n      0x04\n      dup1\n      calldatasize\n      sub\n      dup2\n      add\n      swap1\n      tag_21\n      swap2\n      swap1\n      tag_22\n      jump\t// in\n    tag_21:\n      tag_23\n      jump\t// in\n    tag_20:\n      stop\n        /* \"contracts/1_Storage.sol\":691:745  mapping  (string =>Host[]) public  allpatientshospital */\n    tag_5:\n      tag_24\n      0x04\n      dup1\n      calldatasize\n      sub\n      dup2\n      add\n      swap1\n      tag_25\n      swap2\n      swap1\n      tag_26\n      jump\t// in\n    tag_25:\n      tag_27\n      jump\t// in\n    tag_24:\n      mload(0x40)\n      tag_28\n      swap3\n      swap2\n      swap1\n      tag_29\n      jump\t// in\n    tag_28:\n      mload(0x40)\n      dup1\n      swap2\n      sub\n      swap1\n      return\n        /* \"contracts/1_Storage.sol\":2136:2285  function getreports(string  memory  hospitalname,string memory name) public  returns(Datereported  [] memory){... */\n    tag_6:\n      tag_30\n      0x04\n      dup1\n      calldatasize\n      sub\n      dup2\n      add\n      swap1\n      tag_31\n      swap2\n      swap1\n      tag_32\n      jump\t// in\n    tag_31:\n      tag_33\n      jump\t// in\n    tag_30:\n      mload(0x40)\n      tag_34\n      swap2\n      swap1\n      tag_35\n      jump\t// in\n    tag_34:\n      mload(0x40)\n      dup1\n      swap2\n      sub\n      swap1\n      return\n        /* \"contracts/1_Storage.sol\":1987:2135  function getallpatientsinhospital( string memory hospitalname) public  returns (Host[] memory) {... */\n    tag_7:\n      tag_36\n      0x04\n      dup1\n      calldatasize\n      sub\n      dup2\n      add\n      swap1\n      tag_37\n      swap2\n      swap1\n      tag_16\n      jump\t// in\n    tag_37:\n      tag_38\n      jump\t// in\n    tag_36:\n      mload(0x40)\n      tag_39\n      swap2\n      swap1\n      tag_40\n      jump\t// in\n    tag_39:\n      mload(0x40)\n      dup1\n      swap2\n      sub\n      swap1\n      return\n        /* \"contracts/1_Storage.sol\":1159:1825  function addpatient( string memory name,uint104 age, string memory hospitalname,string  memory datereportedd,string memory doctername,string memory docterspecilist) public   {... */\n    tag_8:\n      tag_41\n      0x04\n      dup1\n      calldatasize\n      sub\n      dup2\n      add\n      swap1\n      tag_42\n      swap2\n      swap1\n      tag_43\n      jump\t// in\n    tag_42:\n      tag_44\n      jump\t// in\n    tag_41:\n      stop\n        /* \"contracts/1_Storage.sol\":1829:1983  function getuser(string  memory hospitalname, string memory name)  public  returns (Host memory)   {... */\n    tag_9:\n      tag_45\n      0x04\n      dup1\n      calldatasize\n      sub\n      dup2\n      add\n      swap1\n      tag_46\n      swap2\n      swap1\n      tag_32\n      jump\t// in\n    tag_46:\n      tag_47\n      jump\t// in\n    tag_45:\n      mload(0x40)\n      tag_48\n      swap2\n      swap1\n      tag_49\n      jump\t// in\n    tag_48:\n      mload(0x40)\n      dup1\n      swap2\n      sub\n      swap1\n      return\n        /* \"contracts/1_Storage.sol\":648:689  mapping  ( string => User ) public  users */\n    tag_10:\n      tag_50\n      0x04\n      dup1\n      calldatasize\n      sub\n      dup2\n      add\n      swap1\n      tag_51\n      swap2\n      swap1\n      tag_16\n      jump\t// in\n    tag_51:\n      tag_52\n      jump\t// in\n    tag_50:\n      mload(0x40)\n      tag_53\n      swap5\n      swap4\n      swap3\n      swap2\n      swap1\n      tag_54\n      jump\t// in\n    tag_53:\n      mload(0x40)\n      dup1\n      swap2\n      sub\n      swap1\n      return\n        /* \"contracts/1_Storage.sol\":375:442  mapping(string => mapping(string => Datereported[])) public Reports */\n    tag_11:\n      tag_55\n      0x04\n      dup1\n      calldatasize\n      sub\n      dup2\n      add\n      swap1\n      tag_56\n      swap2\n      swap1\n      tag_57\n      jump\t// in\n    tag_56:\n      tag_58\n      jump\t// in\n    tag_55:\n      mload(0x40)\n      tag_59\n      swap4\n      swap3\n      swap2\n      swap1\n      tag_60\n      jump\t// in\n    tag_59:\n      mload(0x40)\n      dup1\n      swap2\n      sub\n      swap1\n      return\n        /* \"contracts/1_Storage.sol\":584:642  mapping(string => mapping(string => Host)) public patients */\n    tag_12:\n      tag_61\n      0x04\n      dup1\n      calldatasize\n      sub\n      dup2\n      add\n      swap1\n      tag_62\n      swap2\n      swap1\n      tag_32\n      jump\t// in\n    tag_62:\n      tag_63\n      jump\t// in\n    tag_61:\n      mload(0x40)\n      tag_64\n      swap3\n      swap2\n      swap1\n      tag_29\n      jump\t// in\n    tag_64:\n      mload(0x40)\n      dup1\n      swap2\n      sub\n      swap1\n      return\n        /* \"contracts/1_Storage.sol\":1025:1144  function getuseremial( string  memory uname)  public  view returns(string memory ){... */\n    tag_17:\n        /* \"contracts/1_Storage.sol\":1092:1105  string memory */\n      0x60\n        /* \"contracts/1_Storage.sol\":1121:1126  users */\n      0x02\n        /* \"contracts/1_Storage.sol\":1127:1132  uname */\n      dup3\n        /* \"contracts/1_Storage.sol\":1121:1133  users[uname] */\n      mload(0x40)\n      tag_66\n      swap2\n      swap1\n      tag_67\n      jump\t// in\n    tag_66:\n      swap1\n      dup2\n      mstore\n      0x20\n      add\n      mload(0x40)\n      dup1\n      swap2\n      sub\n      swap1\n      keccak256\n        /* \"contracts/1_Storage.sol\":1121:1139  users[uname].email */\n      0x01\n      add\n        /* \"contracts/1_Storage.sol\":1112:1139  return   users[uname].email */\n      dup1\n      sload\n      tag_68\n      swap1\n      tag_69\n      jump\t// in\n    tag_68:\n      dup1\n      0x1f\n      add\n      0x20\n      dup1\n      swap2\n      div\n      mul\n      0x20\n      add\n      mload(0x40)\n      swap1\n      dup2\n      add\n      0x40\n      mstore\n      dup1\n      swap3\n      swap2\n      swap1\n      dup2\n      dup2\n      mstore\n      0x20\n      add\n      dup3\n      dup1\n      sload\n      tag_70\n      swap1\n      tag_69\n      jump\t// in\n    tag_70:\n      dup1\n      iszero\n      tag_71\n      jumpi\n      dup1\n      0x1f\n      lt\n      tag_72\n      jumpi\n      0x0100\n      dup1\n      dup4\n      sload\n      div\n      mul\n      dup4\n      mstore\n      swap2\n      0x20\n      add\n      swap2\n      jump(tag_71)\n    tag_72:\n      dup3\n      add\n      swap2\n      swap1\n      0x00\n      mstore\n      keccak256(0x00, 0x20)\n      swap1\n    tag_73:\n      dup2\n      sload\n      dup2\n      mstore\n      swap1\n      0x01\n      add\n      swap1\n      0x20\n      add\n      dup1\n      dup4\n      gt\n      tag_73\n      jumpi\n      dup3\n      swap1\n      sub\n      0x1f\n      and\n      dup3\n      add\n      swap2\n    tag_71:\n      pop\n      pop\n      pop\n      pop\n      pop\n      swap1\n      pop\n        /* \"contracts/1_Storage.sol\":1025:1144  function getuseremial( string  memory uname)  public  view returns(string memory ){... */\n      swap2\n      swap1\n      pop\n      jump\t// out\n        /* \"contracts/1_Storage.sol\":747:1021  function createpatientaccount(string  memory name,string memory  hospitalname,string  memory email,uint168 phnum,uint age ) public {... */\n    tag_23:\n        /* \"contracts/1_Storage.sol\":882:905  User   storage  current */\n      0x00\n        /* \"contracts/1_Storage.sol\":907:912  users */\n      0x02\n        /* \"contracts/1_Storage.sol\":913:917  name */\n      dup7\n        /* \"contracts/1_Storage.sol\":907:918  users[name] */\n      mload(0x40)\n      tag_75\n      swap2\n      swap1\n      tag_67\n      jump\t// in\n    tag_75:\n      swap1\n      dup2\n      mstore\n      0x20\n      add\n      mload(0x40)\n      dup1\n      swap2\n      sub\n      swap1\n      keccak256\n        /* \"contracts/1_Storage.sol\":882:918  User   storage  current =users[name] */\n      swap1\n      pop\n        /* \"contracts/1_Storage.sol\":933:937  name */\n      dup6\n        /* \"contracts/1_Storage.sol\":920:927  current */\n      dup2\n        /* \"contracts/1_Storage.sol\":920:932  current.name */\n      0x00\n      add\n        /* \"contracts/1_Storage.sol\":920:937  current.name=name */\n      swap1\n      dup2\n      tag_76\n      swap2\n      swap1\n      tag_77\n      jump\t// in\n    tag_76:\n      pop\n        /* \"contracts/1_Storage.sol\":953:958  email */\n      dup4\n        /* \"contracts/1_Storage.sol\":939:946  current */\n      dup2\n        /* \"contracts/1_Storage.sol\":939:952  current.email */\n      0x01\n      add\n        /* \"contracts/1_Storage.sol\":939:958  current.email=email */\n      swap1\n      dup2\n      tag_78\n      swap2\n      swap1\n      tag_77\n      jump\t// in\n    tag_78:\n      pop\n        /* \"contracts/1_Storage.sol\":974:979  phnum */\n      dup3\n        /* \"contracts/1_Storage.sol\":960:967  current */\n      dup2\n        /* \"contracts/1_Storage.sol\":960:973  current.phnum */\n      0x02\n      add\n      0x00\n        /* \"contracts/1_Storage.sol\":960:979  current.phnum=phnum */\n      0x0100\n      exp\n      dup2\n      sload\n      dup2\n      0xffffffffffffffffffffffffffffffffffffffffff\n      mul\n      not\n      and\n      swap1\n      dup4\n      0xffffffffffffffffffffffffffffffffffffffffff\n      and\n      mul\n      or\n      swap1\n      sstore\n      pop\n        /* \"contracts/1_Storage.sol\":1002:1014  hospitalname */\n      dup5\n        /* \"contracts/1_Storage.sol\":981:988  current */\n      dup2\n        /* \"contracts/1_Storage.sol\":981:1001  current.hospitalname */\n      0x03\n      add\n        /* \"contracts/1_Storage.sol\":981:1014  current.hospitalname=hospitalname */\n      swap1\n      dup2\n      tag_79\n      swap2\n      swap1\n      tag_77\n      jump\t// in\n    tag_79:\n      pop\n        /* \"contracts/1_Storage.sol\":878:1021  {... */\n      pop\n        /* \"contracts/1_Storage.sol\":747:1021  function createpatientaccount(string  memory name,string memory  hospitalname,string  memory email,uint168 phnum,uint age ) public {... */\n      pop\n      pop\n      pop\n      pop\n      pop\n      jump\t// out\n        /* \"contracts/1_Storage.sol\":691:745  mapping  (string =>Host[]) public  allpatientshospital */\n    tag_27:\n      0x03\n      dup3\n      dup1\n      mload\n      0x20\n      dup2\n      add\n      dup3\n      add\n      dup1\n      mload\n      dup5\n      dup3\n      mstore\n      0x20\n      dup4\n      add\n      0x20\n      dup6\n      add\n      keccak256\n      dup2\n      dup4\n      mstore\n      dup1\n      swap6\n      pop\n      pop\n      pop\n      pop\n      pop\n      pop\n      dup2\n      dup2\n      sload\n      dup2\n      lt\n      tag_80\n      jumpi\n      0x00\n      dup1\n      revert\n    tag_80:\n      swap1\n      0x00\n      mstore\n      keccak256(0x00, 0x20)\n      swap1\n      0x02\n      mul\n      add\n      0x00\n      swap2\n      pop\n      swap2\n      pop\n      pop\n      dup1\n      0x00\n      add\n      dup1\n      sload\n      tag_82\n      swap1\n      tag_69\n      jump\t// in\n    tag_82:\n      dup1\n      0x1f\n      add\n      0x20\n      dup1\n      swap2\n      div\n      mul\n      0x20\n      add\n      mload(0x40)\n      swap1\n      dup2\n      add\n      0x40\n      mstore\n      dup1\n      swap3\n      swap2\n      swap1\n      dup2\n      dup2\n      mstore\n      0x20\n      add\n      dup3\n      dup1\n      sload\n      tag_83\n      swap1\n      tag_69\n      jump\t// in\n    tag_83:\n      dup1\n      iszero\n      tag_84\n      jumpi\n      dup1\n      0x1f\n      lt\n      tag_85\n      jumpi\n      0x0100\n      dup1\n      dup4\n      sload\n      div\n      mul\n      dup4\n      mstore\n      swap2\n      0x20\n      add\n      swap2\n      jump(tag_84)\n    tag_85:\n      dup3\n      add\n      swap2\n      swap1\n      0x00\n      mstore\n      keccak256(0x00, 0x20)\n      swap1\n    tag_86:\n      dup2\n      sload\n      dup2\n      mstore\n      swap1\n      0x01\n      add\n      swap1\n      0x20\n      add\n      dup1\n      dup4\n      gt\n      tag_86\n      jumpi\n      dup3\n      swap1\n      sub\n      0x1f\n      and\n      dup3\n      add\n      swap2\n    tag_84:\n      pop\n      pop\n      pop\n      pop\n      pop\n      swap1\n      dup1\n      0x01\n      add\n      0x00\n      swap1\n      sload\n      swap1\n      0x0100\n      exp\n      swap1\n      div\n      0xffffffffffffffffffffffffff\n      and\n      swap1\n      pop\n      dup3\n      jump\t// out\n        /* \"contracts/1_Storage.sol\":2136:2285  function getreports(string  memory  hospitalname,string memory name) public  returns(Datereported  [] memory){... */\n    tag_33:\n        /* \"contracts/1_Storage.sol\":2221:2244  Datereported  [] memory */\n      0x60\n        /* \"contracts/1_Storage.sol\":2255:2262  Reports */\n      0x00\n        /* \"contracts/1_Storage.sol\":2263:2275  hospitalname */\n      dup4\n        /* \"contracts/1_Storage.sol\":2255:2276  Reports[hospitalname] */\n      mload(0x40)\n      tag_88\n      swap2\n      swap1\n      tag_67\n      jump\t// in\n    tag_88:\n      swap1\n      dup2\n      mstore\n      0x20\n      add\n      mload(0x40)\n      dup1\n      swap2\n      sub\n      swap1\n      keccak256\n        /* \"contracts/1_Storage.sol\":2277:2281  name */\n      dup3\n        /* \"contracts/1_Storage.sol\":2255:2282  Reports[hospitalname][name] */\n      mload(0x40)\n      tag_89\n      swap2\n      swap1\n      tag_67\n      jump\t// in\n    tag_89:\n      swap1\n      dup2\n      mstore\n      0x20\n      add\n      mload(0x40)\n      dup1\n      swap2\n      sub\n      swap1\n      keccak256\n        /* \"contracts/1_Storage.sol\":2247:2282  return  Reports[hospitalname][name] */\n      dup1\n      sload\n      dup1\n      0x20\n      mul\n      0x20\n      add\n      mload(0x40)\n      swap1\n      dup2\n      add\n      0x40\n      mstore\n      dup1\n      swap3\n      swap2\n      swap1\n      dup2\n      dup2\n      mstore\n      0x20\n      add\n      0x00\n      swap1\n    tag_90:\n      dup3\n      dup3\n      lt\n      iszero\n      tag_91\n      jumpi\n      dup4\n      dup3\n      swap1\n      0x00\n      mstore\n      keccak256(0x00, 0x20)\n      swap1\n      0x03\n      mul\n      add\n      mload(0x40)\n      dup1\n      0x60\n      add\n      0x40\n      mstore\n      swap1\n      dup2\n      0x00\n      dup3\n      add\n      dup1\n      sload\n      tag_93\n      swap1\n      tag_69\n      jump\t// in\n    tag_93:\n      dup1\n      0x1f\n      add\n      0x20\n      dup1\n      swap2\n      div\n      mul\n      0x20\n      add\n      mload(0x40)\n      swap1\n      dup2\n      add\n      0x40\n      mstore\n      dup1\n      swap3\n      swap2\n      swap1\n      dup2\n      dup2\n      mstore\n      0x20\n      add\n      dup3\n      dup1\n      sload\n      tag_94\n      swap1\n      tag_69\n      jump\t// in\n    tag_94:\n      dup1\n      iszero\n      tag_95\n      jumpi\n      dup1\n      0x1f\n      lt\n      tag_96\n      jumpi\n      0x0100\n      dup1\n      dup4\n      sload\n      div\n      mul\n      dup4\n      mstore\n      swap2\n      0x20\n      add\n      swap2\n      jump(tag_95)\n    tag_96:\n      dup3\n      add\n      swap2\n      swap1\n      0x00\n      mstore\n      keccak256(0x00, 0x20)\n      swap1\n    tag_97:\n      dup2\n      sload\n      dup2\n      mstore\n      swap1\n      0x01\n      add\n      swap1\n      0x20\n      add\n      dup1\n      dup4\n      gt\n      tag_97\n      jumpi\n      dup3\n      swap1\n      sub\n      0x1f\n      and\n      dup3\n      add\n      swap2\n    tag_95:\n      pop\n      pop\n      pop\n      pop\n      pop\n      dup2\n      mstore\n      0x20\n      add\n      0x01\n      dup3\n      add\n      dup1\n      sload\n      tag_98\n      swap1\n      tag_69\n      jump\t// in\n    tag_98:\n      dup1\n      0x1f\n      add\n      0x20\n      dup1\n      swap2\n      div\n      mul\n      0x20\n      add\n      mload(0x40)\n      swap1\n      dup2\n      add\n      0x40\n      mstore\n      dup1\n      swap3\n      swap2\n      swap1\n      dup2\n      dup2\n      mstore\n      0x20\n      add\n      dup3\n      dup1\n      sload\n      tag_99\n      swap1\n      tag_69\n      jump\t// in\n    tag_99:\n      dup1\n      iszero\n      tag_100\n      jumpi\n      dup1\n      0x1f\n      lt\n      tag_101\n      jumpi\n      0x0100\n      dup1\n      dup4\n      sload\n      div\n      mul\n      dup4\n      mstore\n      swap2\n      0x20\n      add\n      swap2\n      jump(tag_100)\n    tag_101:\n      dup3\n      add\n      swap2\n      swap1\n      0x00\n      mstore\n      keccak256(0x00, 0x20)\n      swap1\n    tag_102:\n      dup2\n      sload\n      dup2\n      mstore\n      swap1\n      0x01\n      add\n      swap1\n      0x20\n      add\n      dup1\n      dup4\n      gt\n      tag_102\n      jumpi\n      dup3\n      swap1\n      sub\n      0x1f\n      and\n      dup3\n      add\n      swap2\n    tag_100:\n      pop\n      pop\n      pop\n      pop\n      pop\n      dup2\n      mstore\n      0x20\n      add\n      0x02\n      dup3\n      add\n      dup1\n      sload\n      tag_103\n      swap1\n      tag_69\n      jump\t// in\n    tag_103:\n      dup1\n      0x1f\n      add\n      0x20\n      dup1\n      swap2\n      div\n      mul\n      0x20\n      add\n      mload(0x40)\n      swap1\n      dup2\n      add\n      0x40\n      mstore\n      dup1\n      swap3\n      swap2\n      swap1\n      dup2\n      dup2\n      mstore\n      0x20\n      add\n      dup3\n      dup1\n      sload\n      tag_104\n      swap1\n      tag_69\n      jump\t// in\n    tag_104:\n      dup1\n      iszero\n      tag_105\n      jumpi\n      dup1\n      0x1f\n      lt\n      tag_106\n      jumpi\n      0x0100\n      dup1\n      dup4\n      sload\n      div\n      mul\n      dup4\n      mstore\n      swap2\n      0x20\n      add\n      swap2\n      jump(tag_105)\n    tag_106:\n      dup3\n      add\n      swap2\n      swap1\n      0x00\n      mstore\n      keccak256(0x00, 0x20)\n      swap1\n    tag_107:\n      dup2\n      sload\n      dup2\n      mstore\n      swap1\n      0x01\n      add\n      swap1\n      0x20\n      add\n      dup1\n      dup4\n      gt\n      tag_107\n      jumpi\n      dup3\n      swap1\n      sub\n      0x1f\n      and\n      dup3\n      add\n      swap2\n    tag_105:\n      pop\n      pop\n      pop\n      pop\n      pop\n      dup2\n      mstore\n      pop\n      pop\n      dup2\n      mstore\n      0x20\n      add\n      swap1\n      0x01\n      add\n      swap1\n      jump(tag_90)\n    tag_91:\n      pop\n      pop\n      pop\n      pop\n      swap1\n      pop\n        /* \"contracts/1_Storage.sol\":2136:2285  function getreports(string  memory  hospitalname,string memory name) public  returns(Datereported  [] memory){... */\n      swap3\n      swap2\n      pop\n      pop\n      jump\t// out\n        /* \"contracts/1_Storage.sol\":1987:2135  function getallpatientsinhospital( string memory hospitalname) public  returns (Host[] memory) {... */\n    tag_38:\n        /* \"contracts/1_Storage.sol\":2067:2080  Host[] memory */\n      0x60\n        /* \"contracts/1_Storage.sol\":2097:2116  allpatientshospital */\n      0x03\n        /* \"contracts/1_Storage.sol\":2117:2129  hospitalname */\n      dup3\n        /* \"contracts/1_Storage.sol\":2097:2130  allpatientshospital[hospitalname] */\n      mload(0x40)\n      tag_109\n      swap2\n      swap1\n      tag_67\n      jump\t// in\n    tag_109:\n      swap1\n      dup2\n      mstore\n      0x20\n      add\n      mload(0x40)\n      dup1\n      swap2\n      sub\n      swap1\n      keccak256\n        /* \"contracts/1_Storage.sol\":2089:2130  return  allpatientshospital[hospitalname] */\n      dup1\n      sload\n      dup1\n      0x20\n      mul\n      0x20\n      add\n      mload(0x40)\n      swap1\n      dup2\n      add\n      0x40\n      mstore\n      dup1\n      swap3\n      swap2\n      swap1\n      dup2\n      dup2\n      mstore\n      0x20\n      add\n      0x00\n      swap1\n    tag_110:\n      dup3\n      dup3\n      lt\n      iszero\n      tag_111\n      jumpi\n      dup4\n      dup3\n      swap1\n      0x00\n      mstore\n      keccak256(0x00, 0x20)\n      swap1\n      0x02\n      mul\n      add\n      mload(0x40)\n      dup1\n      0x40\n      add\n      0x40\n      mstore\n      swap1\n      dup2\n      0x00\n      dup3\n      add\n      dup1\n      sload\n      tag_113\n      swap1\n      tag_69\n      jump\t// in\n    tag_113:\n      dup1\n      0x1f\n      add\n      0x20\n      dup1\n      swap2\n      div\n      mul\n      0x20\n      add\n      mload(0x40)\n      swap1\n      dup2\n      add\n      0x40\n      mstore\n      dup1\n      swap3\n      swap2\n      swap1\n      dup2\n      dup2\n      mstore\n      0x20\n      add\n      dup3\n      dup1\n      sload\n      tag_114\n      swap1\n      tag_69\n      jump\t// in\n    tag_114:\n      dup1\n      iszero\n      tag_115\n      jumpi\n      dup1\n      0x1f\n      lt\n      tag_116\n      jumpi\n      0x0100\n      dup1\n      dup4\n      sload\n      div\n      mul\n      dup4\n      mstore\n      swap2\n      0x20\n      add\n      swap2\n      jump(tag_115)\n    tag_116:\n      dup3\n      add\n      swap2\n      swap1\n      0x00\n      mstore\n      keccak256(0x00, 0x20)\n      swap1\n    tag_117:\n      dup2\n      sload\n      dup2\n      mstore\n      swap1\n      0x01\n      add\n      swap1\n      0x20\n      add\n      dup1\n      dup4\n      gt\n      tag_117\n      jumpi\n      dup3\n      swap1\n      sub\n      0x1f\n      and\n      dup3\n      add\n      swap2\n    tag_115:\n      pop\n      pop\n      pop\n      pop\n      pop\n      dup2\n      mstore\n      0x20\n      add\n      0x01\n      dup3\n      add\n      0x00\n      swap1\n      sload\n      swap1\n      0x0100\n      exp\n      swap1\n      div\n      0xffffffffffffffffffffffffff\n      and\n      0xffffffffffffffffffffffffff\n      and\n      0xffffffffffffffffffffffffff\n      and\n      dup2\n      mstore\n      pop\n      pop\n      dup2\n      mstore\n      0x20\n      add\n      swap1\n      0x01\n      add\n      swap1\n      jump(tag_110)\n    tag_111:\n      pop\n      pop\n      pop\n      pop\n      swap1\n      pop\n        /* \"contracts/1_Storage.sol\":1987:2135  function getallpatientsinhospital( string memory hospitalname) public  returns (Host[] memory) {... */\n      swap2\n      swap1\n      pop\n      jump\t// out\n        /* \"contracts/1_Storage.sol\":1159:1825  function addpatient( string memory name,uint104 age, string memory hospitalname,string  memory datereportedd,string memory doctername,string memory docterspecilist) public   {... */\n    tag_44:\n        /* \"contracts/1_Storage.sol\":1368:1396  Datereported memory reported */\n      0x00\n        /* \"contracts/1_Storage.sol\":1397:1451  Datereported(datereportedd,doctername,docterspecilist) */\n      mload(0x40)\n      dup1\n      0x60\n      add\n      0x40\n      mstore\n      dup1\n        /* \"contracts/1_Storage.sol\":1410:1423  datereportedd */\n      dup6\n        /* \"contracts/1_Storage.sol\":1397:1451  Datereported(datereportedd,doctername,docterspecilist) */\n      dup2\n      mstore\n      0x20\n      add\n        /* \"contracts/1_Storage.sol\":1424:1434  doctername */\n      dup5\n        /* \"contracts/1_Storage.sol\":1397:1451  Datereported(datereportedd,doctername,docterspecilist) */\n      dup2\n      mstore\n      0x20\n      add\n        /* \"contracts/1_Storage.sol\":1435:1450  docterspecilist */\n      dup4\n        /* \"contracts/1_Storage.sol\":1397:1451  Datereported(datereportedd,doctername,docterspecilist) */\n      dup2\n      mstore\n      pop\n        /* \"contracts/1_Storage.sol\":1368:1451  Datereported memory reported=Datereported(datereportedd,doctername,docterspecilist) */\n      swap1\n      pop\n        /* \"contracts/1_Storage.sol\":1594:1621  Host storage patientdetails */\n      0x00\n        /* \"contracts/1_Storage.sol\":1622:1630  patients */\n      0x01\n        /* \"contracts/1_Storage.sol\":1631:1643  hospitalname */\n      dup7\n        /* \"contracts/1_Storage.sol\":1622:1644  patients[hospitalname] */\n      mload(0x40)\n      tag_119\n      swap2\n      swap1\n      tag_67\n      jump\t// in\n    tag_119:\n      swap1\n      dup2\n      mstore\n      0x20\n      add\n      mload(0x40)\n      dup1\n      swap2\n      sub\n      swap1\n      keccak256\n        /* \"contracts/1_Storage.sol\":1645:1649  name */\n      dup9\n        /* \"contracts/1_Storage.sol\":1622:1650  patients[hospitalname][name] */\n      mload(0x40)\n      tag_120\n      swap2\n      swap1\n      tag_67\n      jump\t// in\n    tag_120:\n      swap1\n      dup2\n      mstore\n      0x20\n      add\n      mload(0x40)\n      dup1\n      swap2\n      sub\n      swap1\n      keccak256\n        /* \"contracts/1_Storage.sol\":1594:1650  Host storage patientdetails=patients[hospitalname][name] */\n      swap1\n      pop\n        /* \"contracts/1_Storage.sol\":1673:1677  name */\n      dup8\n        /* \"contracts/1_Storage.sol\":1653:1667  patientdetails */\n      dup2\n        /* \"contracts/1_Storage.sol\":1653:1672  patientdetails.name */\n      0x00\n      add\n        /* \"contracts/1_Storage.sol\":1653:1677  patientdetails.name=name */\n      swap1\n      dup2\n      tag_121\n      swap2\n      swap1\n      tag_77\n      jump\t// in\n    tag_121:\n      pop\n        /* \"contracts/1_Storage.sol\":1698:1701  age */\n      dup7\n        /* \"contracts/1_Storage.sol\":1679:1693  patientdetails */\n      dup2\n        /* \"contracts/1_Storage.sol\":1679:1697  patientdetails.age */\n      0x01\n      add\n      0x00\n        /* \"contracts/1_Storage.sol\":1679:1701  patientdetails.age=age */\n      0x0100\n      exp\n      dup2\n      sload\n      dup2\n      0xffffffffffffffffffffffffff\n      mul\n      not\n      and\n      swap1\n      dup4\n      0xffffffffffffffffffffffffff\n      and\n      mul\n      or\n      swap1\n      sstore\n      pop\n        /* \"contracts/1_Storage.sol\":1708:1727  allpatientshospital */\n      0x03\n        /* \"contracts/1_Storage.sol\":1728:1740  hospitalname */\n      dup7\n        /* \"contracts/1_Storage.sol\":1708:1741  allpatientshospital[hospitalname] */\n      mload(0x40)\n      tag_122\n      swap2\n      swap1\n      tag_67\n      jump\t// in\n    tag_122:\n      swap1\n      dup2\n      mstore\n      0x20\n      add\n      mload(0x40)\n      dup1\n      swap2\n      sub\n      swap1\n      keccak256\n        /* \"contracts/1_Storage.sol\":1749:1763  patientdetails */\n      dup2\n        /* \"contracts/1_Storage.sol\":1708:1764  allpatientshospital[hospitalname].push(  patientdetails) */\n      swap1\n      dup1\n      0x01\n      dup2\n      sload\n      add\n      dup1\n      dup3\n      sstore\n      dup1\n      swap2\n      pop\n      pop\n      0x01\n      swap1\n      sub\n      swap1\n      0x00\n      mstore\n      keccak256(0x00, 0x20)\n      swap1\n      0x02\n      mul\n      add\n      0x00\n      swap1\n      swap2\n      swap1\n      swap2\n      swap1\n      swap2\n      pop\n      0x00\n      dup3\n      add\n      dup2\n      0x00\n      add\n      swap1\n      dup2\n      tag_124\n      swap2\n      swap1\n      tag_125\n      jump\t// in\n    tag_124:\n      pop\n      0x01\n      dup3\n      add\n      0x00\n      swap1\n      sload\n      swap1\n      0x0100\n      exp\n      swap1\n      div\n      0xffffffffffffffffffffffffff\n      and\n      dup2\n      0x01\n      add\n      exp(0x0100, 0x00)\n      dup2\n      sload\n      dup2\n      0xffffffffffffffffffffffffff\n      mul\n      not\n      and\n      swap1\n      dup4\n      0xffffffffffffffffffffffffff\n      and\n      mul\n      or\n      swap1\n      sstore\n      pop\n      pop\n      pop\n        /* \"contracts/1_Storage.sol\":1767:1774  Reports */\n      0x00\n        /* \"contracts/1_Storage.sol\":1775:1787  hospitalname */\n      dup7\n        /* \"contracts/1_Storage.sol\":1767:1788  Reports[hospitalname] */\n      mload(0x40)\n      tag_126\n      swap2\n      swap1\n      tag_67\n      jump\t// in\n    tag_126:\n      swap1\n      dup2\n      mstore\n      0x20\n      add\n      mload(0x40)\n      dup1\n      swap2\n      sub\n      swap1\n      keccak256\n        /* \"contracts/1_Storage.sol\":1789:1793  name */\n      dup9\n        /* \"contracts/1_Storage.sol\":1767:1794  Reports[hospitalname][name] */\n      mload(0x40)\n      tag_127\n      swap2\n      swap1\n      tag_67\n      jump\t// in\n    tag_127:\n      swap1\n      dup2\n      mstore\n      0x20\n      add\n      mload(0x40)\n      dup1\n      swap2\n      sub\n      swap1\n      keccak256\n        /* \"contracts/1_Storage.sol\":1800:1808  reported */\n      dup3\n        /* \"contracts/1_Storage.sol\":1767:1809  Reports[hospitalname][name].push(reported) */\n      swap1\n      dup1\n      0x01\n      dup2\n      sload\n      add\n      dup1\n      dup3\n      sstore\n      dup1\n      swap2\n      pop\n      pop\n      0x01\n      swap1\n      sub\n      swap1\n      0x00\n      mstore\n      keccak256(0x00, 0x20)\n      swap1\n      0x03\n      mul\n      add\n      0x00\n      swap1\n      swap2\n      swap1\n      swap2\n      swap1\n      swap2\n      pop\n      0x00\n      dup3\n      add\n      mload\n      dup2\n      0x00\n      add\n      swap1\n      dup2\n      tag_129\n      swap2\n      swap1\n      tag_77\n      jump\t// in\n    tag_129:\n      pop\n      0x20\n      dup3\n      add\n      mload\n      dup2\n      0x01\n      add\n      swap1\n      dup2\n      tag_130\n      swap2\n      swap1\n      tag_77\n      jump\t// in\n    tag_130:\n      pop\n      0x40\n      dup3\n      add\n      mload\n      dup2\n      0x02\n      add\n      swap1\n      dup2\n      tag_131\n      swap2\n      swap1\n      tag_77\n      jump\t// in\n    tag_131:\n      pop\n      pop\n      pop\n        /* \"contracts/1_Storage.sol\":1333:1825  {... */\n      pop\n      pop\n        /* \"contracts/1_Storage.sol\":1159:1825  function addpatient( string memory name,uint104 age, string memory hospitalname,string  memory datereportedd,string memory doctername,string memory docterspecilist) public   {... */\n      pop\n      pop\n      pop\n      pop\n      pop\n      pop\n      jump\t// out\n        /* \"contracts/1_Storage.sol\":1829:1983  function getuser(string  memory hospitalname, string memory name)  public  returns (Host memory)   {... */\n    tag_47:\n        /* \"contracts/1_Storage.sol\":1913:1924  Host memory */\n      tag_132\n      tag_133\n      jump\t// in\n    tag_132:\n        /* \"contracts/1_Storage.sol\":1946:1954  patients */\n      0x01\n        /* \"contracts/1_Storage.sol\":1955:1967  hospitalname */\n      dup4\n        /* \"contracts/1_Storage.sol\":1946:1968  patients[hospitalname] */\n      mload(0x40)\n      tag_135\n      swap2\n      swap1\n      tag_67\n      jump\t// in\n    tag_135:\n      swap1\n      dup2\n      mstore\n      0x20\n      add\n      mload(0x40)\n      dup1\n      swap2\n      sub\n      swap1\n      keccak256\n        /* \"contracts/1_Storage.sol\":1969:1973  name */\n      dup3\n        /* \"contracts/1_Storage.sol\":1946:1974  patients[hospitalname][name] */\n      mload(0x40)\n      tag_136\n      swap2\n      swap1\n      tag_67\n      jump\t// in\n    tag_136:\n      swap1\n      dup2\n      mstore\n      0x20\n      add\n      mload(0x40)\n      dup1\n      swap2\n      sub\n      swap1\n      keccak256\n        /* \"contracts/1_Storage.sol\":1938:1974  return  patients[hospitalname][name] */\n      mload(0x40)\n      dup1\n      0x40\n      add\n      0x40\n      mstore\n      swap1\n      dup2\n      0x00\n      dup3\n      add\n      dup1\n      sload\n      tag_137\n      swap1\n      tag_69\n      jump\t// in\n    tag_137:\n      dup1\n      0x1f\n      add\n      0x20\n      dup1\n      swap2\n      div\n      mul\n      0x20\n      add\n      mload(0x40)\n      swap1\n      dup2\n      add\n      0x40\n      mstore\n      dup1\n      swap3\n      swap2\n      swap1\n      dup2\n      dup2\n      mstore\n      0x20\n      add\n      dup3\n      dup1\n      sload\n      tag_138\n      swap1\n      tag_69\n      jump\t// in\n    tag_138:\n      dup1\n      iszero\n      tag_139\n      jumpi\n      dup1\n      0x1f\n      lt\n      tag_140\n      jumpi\n      0x0100\n      dup1\n      dup4\n      sload\n      div\n      mul\n      dup4\n      mstore\n      swap2\n      0x20\n      add\n      swap2\n      jump(tag_139)\n    tag_140:\n      dup3\n      add\n      swap2\n      swap1\n      0x00\n      mstore\n      keccak256(0x00, 0x20)\n      swap1\n    tag_141:\n      dup2\n      sload\n      dup2\n      mstore\n      swap1\n      0x01\n      add\n      swap1\n      0x20\n      add\n      dup1\n      dup4\n      gt\n      tag_141\n      jumpi\n      dup3\n      swap1\n      sub\n      0x1f\n      and\n      dup3\n      add\n      swap2\n    tag_139:\n      pop\n      pop\n      pop\n      pop\n      pop\n      dup2\n      mstore\n      0x20\n      add\n      0x01\n      dup3\n      add\n      0x00\n      swap1\n      sload\n      swap1\n      0x0100\n      exp\n      swap1\n      div\n      0xffffffffffffffffffffffffff\n      and\n      0xffffffffffffffffffffffffff\n      and\n      0xffffffffffffffffffffffffff\n      and\n      dup2\n      mstore\n      pop\n      pop\n      swap1\n      pop\n        /* \"contracts/1_Storage.sol\":1829:1983  function getuser(string  memory hospitalname, string memory name)  public  returns (Host memory)   {... */\n      swap3\n      swap2\n      pop\n      pop\n      jump\t// out\n        /* \"contracts/1_Storage.sol\":648:689  mapping  ( string => User ) public  users */\n    tag_52:\n      0x02\n      dup2\n      dup1\n      mload\n      0x20\n      dup2\n      add\n      dup3\n      add\n      dup1\n      mload\n      dup5\n      dup3\n      mstore\n      0x20\n      dup4\n      add\n      0x20\n      dup6\n      add\n      keccak256\n      dup2\n      dup4\n      mstore\n      dup1\n      swap6\n      pop\n      pop\n      pop\n      pop\n      pop\n      pop\n      0x00\n      swap2\n      pop\n      swap1\n      pop\n      dup1\n      0x00\n      add\n      dup1\n      sload\n      tag_142\n      swap1\n      tag_69\n      jump\t// in\n    tag_142:\n      dup1\n      0x1f\n      add\n      0x20\n      dup1\n      swap2\n      div\n      mul\n      0x20\n      add\n      mload(0x40)\n      swap1\n      dup2\n      add\n      0x40\n      mstore\n      dup1\n      swap3\n      swap2\n      swap1\n      dup2\n      dup2\n      mstore\n      0x20\n      add\n      dup3\n      dup1\n      sload\n      tag_143\n      swap1\n      tag_69\n      jump\t// in\n    tag_143:\n      dup1\n      iszero\n      tag_144\n      jumpi\n      dup1\n      0x1f\n      lt\n      tag_145\n      jumpi\n      0x0100\n      dup1\n      dup4\n      sload\n      div\n      mul\n      dup4\n      mstore\n      swap2\n      0x20\n      add\n      swap2\n      jump(tag_144)\n    tag_145:\n      dup3\n      add\n      swap2\n      swap1\n      0x00\n      mstore\n      keccak256(0x00, 0x20)\n      swap1\n    tag_146:\n      dup2\n      sload\n      dup2\n      mstore\n      swap1\n      0x01\n      add\n      swap1\n      0x20\n      add\n      dup1\n      dup4\n      gt\n      tag_146\n      jumpi\n      dup3\n      swap1\n      sub\n      0x1f\n      and\n      dup3\n      add\n      swap2\n    tag_144:\n      pop\n      pop\n      pop\n      pop\n      pop\n      swap1\n      dup1\n      0x01\n      add\n      dup1\n      sload\n      tag_147\n      swap1\n      tag_69\n      jump\t// in\n    tag_147:\n      dup1\n      0x1f\n      add\n      0x20\n      dup1\n      swap2\n      div\n      mul\n      0x20\n      add\n      mload(0x40)\n      swap1\n      dup2\n      add\n      0x40\n      mstore\n      dup1\n      swap3\n      swap2\n      swap1\n      dup2\n      dup2\n      mstore\n      0x20\n      add\n      dup3\n      dup1\n      sload\n      tag_148\n      swap1\n      tag_69\n      jump\t// in\n    tag_148:\n      dup1\n      iszero\n      tag_149\n      jumpi\n      dup1\n      0x1f\n      lt\n      tag_150\n      jumpi\n      0x0100\n      dup1\n      dup4\n      sload\n      div\n      mul\n      dup4\n      mstore\n      swap2\n      0x20\n      add\n      swap2\n      jump(tag_149)\n    tag_150:\n      dup3\n      add\n      swap2\n      swap1\n      0x00\n      mstore\n      keccak256(0x00, 0x20)\n      swap1\n    tag_151:\n      dup2\n      sload\n      dup2\n      mstore\n      swap1\n      0x01\n      add\n      swap1\n      0x20\n      add\n      dup1\n      dup4\n      gt\n      tag_151\n      jumpi\n      dup3\n      swap1\n      sub\n      0x1f\n      and\n      dup3\n      add\n      swap2\n    tag_149:\n      pop\n      pop\n      pop\n      pop\n      pop\n      swap1\n      dup1\n      0x02\n      add\n      0x00\n      swap1\n      sload\n      swap1\n      0x0100\n      exp\n      swap1\n      div\n      0xffffffffffffffffffffffffffffffffffffffffff\n      and\n      swap1\n      dup1\n      0x03\n      add\n      dup1\n      sload\n      tag_152\n      swap1\n      tag_69\n      jump\t// in\n    tag_152:\n      dup1\n      0x1f\n      add\n      0x20\n      dup1\n      swap2\n      div\n      mul\n      0x20\n      add\n      mload(0x40)\n      swap1\n      dup2\n      add\n      0x40\n      mstore\n      dup1\n      swap3\n      swap2\n      swap1\n      dup2\n      dup2\n      mstore\n      0x20\n      add\n      dup3\n      dup1\n      sload\n      tag_153\n      swap1\n      tag_69\n      jump\t// in\n    tag_153:\n      dup1\n      iszero\n      tag_154\n      jumpi\n      dup1\n      0x1f\n      lt\n      tag_155\n      jumpi\n      0x0100\n      dup1\n      dup4\n      sload\n      div\n      mul\n      dup4\n      mstore\n      swap2\n      0x20\n      add\n      swap2\n      jump(tag_154)\n    tag_155:\n      dup3\n      add\n      swap2\n      swap1\n      0x00\n      mstore\n      keccak256(0x00, 0x20)\n      swap1\n    tag_156:\n      dup2\n      sload\n      dup2\n      mstore\n      swap1\n      0x01\n      add\n      swap1\n      0x20\n      add\n      dup1\n      dup4\n      gt\n      tag_156\n      jumpi\n      dup3\n      swap1\n      sub\n      0x1f\n      and\n      dup3\n      add\n      swap2\n    tag_154:\n      pop\n      pop\n      pop\n      pop\n      pop\n      swap1\n      pop\n      dup5\n      jump\t// out\n        /* \"contracts/1_Storage.sol\":375:442  mapping(string => mapping(string => Datereported[])) public Reports */\n    tag_58:\n      0x00\n      dup4\n      dup1\n      mload\n      0x20\n      dup2\n      add\n      dup3\n      add\n      dup1\n      mload\n      dup5\n      dup3\n      mstore\n      0x20\n      dup4\n      add\n      0x20\n      dup6\n      add\n      keccak256\n      dup2\n      dup4\n      mstore\n      dup1\n      swap6\n      pop\n      pop\n      pop\n      pop\n      pop\n      pop\n      dup3\n      dup1\n      mload\n      0x20\n      dup2\n      add\n      dup3\n      add\n      dup1\n      mload\n      dup5\n      dup3\n      mstore\n      0x20\n      dup4\n      add\n      0x20\n      dup6\n      add\n      keccak256\n      dup2\n      dup4\n      mstore\n      dup1\n      swap6\n      pop\n      pop\n      pop\n      pop\n      pop\n      pop\n      dup2\n      dup2\n      sload\n      dup2\n      lt\n      tag_157\n      jumpi\n      0x00\n      dup1\n      revert\n    tag_157:\n      swap1\n      0x00\n      mstore\n      keccak256(0x00, 0x20)\n      swap1\n      0x03\n      mul\n      add\n      0x00\n      swap3\n      pop\n      swap3\n      pop\n      pop\n      pop\n      dup1\n      0x00\n      add\n      dup1\n      sload\n      tag_159\n      swap1\n      tag_69\n      jump\t// in\n    tag_159:\n      dup1\n      0x1f\n      add\n      0x20\n      dup1\n      swap2\n      div\n      mul\n      0x20\n      add\n      mload(0x40)\n      swap1\n      dup2\n      add\n      0x40\n      mstore\n      dup1\n      swap3\n      swap2\n      swap1\n      dup2\n      dup2\n      mstore\n      0x20\n      add\n      dup3\n      dup1\n      sload\n      tag_160\n      swap1\n      tag_69\n      jump\t// in\n    tag_160:\n      dup1\n      iszero\n      tag_161\n      jumpi\n      dup1\n      0x1f\n      lt\n      tag_162\n      jumpi\n      0x0100\n      dup1\n      dup4\n      sload\n      div\n      mul\n      dup4\n      mstore\n      swap2\n      0x20\n      add\n      swap2\n      jump(tag_161)\n    tag_162:\n      dup3\n      add\n      swap2\n      swap1\n      0x00\n      mstore\n      keccak256(0x00, 0x20)\n      swap1\n    tag_163:\n      dup2\n      sload\n      dup2\n      mstore\n      swap1\n      0x01\n      add\n      swap1\n      0x20\n      add\n      dup1\n      dup4\n      gt\n      tag_163\n      jumpi\n      dup3\n      swap1\n      sub\n      0x1f\n      and\n      dup3\n      add\n      swap2\n    tag_161:\n      pop\n      pop\n      pop\n      pop\n      pop\n      swap1\n      dup1\n      0x01\n      add\n      dup1\n      sload\n      tag_164\n      swap1\n      tag_69\n      jump\t// in\n    tag_164:\n      dup1\n      0x1f\n      add\n      0x20\n      dup1\n      swap2\n      div\n      mul\n      0x20\n      add\n      mload(0x40)\n      swap1\n      dup2\n      add\n      0x40\n      mstore\n      dup1\n      swap3\n      swap2\n      swap1\n      dup2\n      dup2\n      mstore\n      0x20\n      add\n      dup3\n      dup1\n      sload\n      tag_165\n      swap1\n      tag_69\n      jump\t// in\n    tag_165:\n      dup1\n      iszero\n      tag_166\n      jumpi\n      dup1\n      0x1f\n      lt\n      tag_167\n      jumpi\n      0x0100\n      dup1\n      dup4\n      sload\n      div\n      mul\n      dup4\n      mstore\n      swap2\n      0x20\n      add\n      swap2\n      jump(tag_166)\n    tag_167:\n      dup3\n      add\n      swap2\n      swap1\n      0x00\n      mstore\n      keccak256(0x00, 0x20)\n      swap1\n    tag_168:\n      dup2\n      sload\n      dup2\n      mstore\n      swap1\n      0x01\n      add\n      swap1\n      0x20\n      add\n      dup1\n      dup4\n      gt\n      tag_168\n      jumpi\n      dup3\n      swap1\n      sub\n      0x1f\n      and\n      dup3\n      add\n      swap2\n    tag_166:\n      pop\n      pop\n      pop\n      pop\n      pop\n      swap1\n      dup1\n      0x02\n      add\n      dup1\n      sload\n      tag_169\n      swap1\n      tag_69\n      jump\t// in\n    tag_169:\n      dup1\n      0x1f\n      add\n      0x20\n      dup1\n      swap2\n      div\n      mul\n      0x20\n      add\n      mload(0x40)\n      swap1\n      dup2\n      add\n      0x40\n      mstore\n      dup1\n      swap3\n      swap2\n      swap1\n      dup2\n      dup2\n      mstore\n      0x20\n      add\n      dup3\n      dup1\n      sload\n      tag_170\n      swap1\n      tag_69\n      jump\t// in\n    tag_170:\n      dup1\n      iszero\n      tag_171\n      jumpi\n      dup1\n      0x1f\n      lt\n      tag_172\n      jumpi\n      0x0100\n      dup1\n      dup4\n      sload\n      div\n      mul\n      dup4\n      mstore\n      swap2\n      0x20\n      add\n      swap2\n      jump(tag_171)\n    tag_172:\n      dup3\n      add\n      swap2\n      swap1\n      0x00\n      mstore\n      keccak256(0x00, 0x20)\n      swap1\n    tag_173:\n      dup2\n      sload\n      dup2\n      mstore\n      swap1\n      0x01\n      add\n      swap1\n      0x20\n      add\n      dup1\n      dup4\n      gt\n      tag_173\n      jumpi\n      dup3\n      swap1\n      sub\n      0x1f\n      and\n      dup3\n      add\n      swap2\n    tag_171:\n      pop\n      pop\n      pop\n      pop\n      pop\n      swap1\n      pop\n      dup4\n      jump\t// out\n        /* \"contracts/1_Storage.sol\":584:642  mapping(string => mapping(string => Host)) public patients */\n    tag_63:\n      0x01\n      dup3\n      dup1\n      mload\n      0x20\n      dup2\n      add\n      dup3\n      add\n      dup1\n      mload\n      dup5\n      dup3\n      mstore\n      0x20\n      dup4\n      add\n      0x20\n      dup6\n      add\n      keccak256\n      dup2\n      dup4\n      mstore\n      dup1\n      swap6\n      pop\n      pop\n      pop\n      pop\n      pop\n      pop\n      dup2\n      dup1\n      mload\n      0x20\n      dup2\n      add\n      dup3\n      add\n      dup1\n      mload\n      dup5\n      dup3\n      mstore\n      0x20\n      dup4\n      add\n      0x20\n      dup6\n      add\n      keccak256\n      dup2\n      dup4\n      mstore\n      dup1\n      swap6\n      pop\n      pop\n      pop\n      pop\n      pop\n      pop\n      0x00\n      swap2\n      pop\n      swap2\n      pop\n      pop\n      dup1\n      0x00\n      add\n      dup1\n      sload\n      tag_174\n      swap1\n      tag_69\n      jump\t// in\n    tag_174:\n      dup1\n      0x1f\n      add\n      0x20\n      dup1\n      swap2\n      div\n      mul\n      0x20\n      add\n      mload(0x40)\n      swap1\n      dup2\n      add\n      0x40\n      mstore\n      dup1\n      swap3\n      swap2\n      swap1\n      dup2\n      dup2\n      mstore\n      0x20\n      add\n      dup3\n      dup1\n      sload\n      tag_175\n      swap1\n      tag_69\n      jump\t// in\n    tag_175:\n      dup1\n      iszero\n      tag_176\n      jumpi\n      dup1\n      0x1f\n      lt\n      tag_177\n      jumpi\n      0x0100\n      dup1\n      dup4\n      sload\n      div\n      mul\n      dup4\n      mstore\n      swap2\n      0x20\n      add\n      swap2\n      jump(tag_176)\n    tag_177:\n      dup3\n      add\n      swap2\n      swap1\n      0x00\n      mstore\n      keccak256(0x00, 0x20)\n      swap1\n    tag_178:\n      dup2\n      sload\n      dup2\n      mstore\n      swap1\n      0x01\n      add\n      swap1\n      0x20\n      add\n      dup1\n      dup4\n      gt\n      tag_178\n      jumpi\n      dup3\n      swap1\n      sub\n      0x1f\n      and\n      dup3\n      add\n      swap2\n    tag_176:\n      pop\n      pop\n      pop\n      pop\n      pop\n      swap1\n      dup1\n      0x01\n      add\n      0x00\n      swap1\n      sload\n      swap1\n      0x0100\n      exp\n      swap1\n      div\n      0xffffffffffffffffffffffffff\n      and\n      swap1\n      pop\n      dup3\n      jump\t// out\n    tag_133:\n      mload(0x40)\n      dup1\n      0x40\n      add\n      0x40\n      mstore\n      dup1\n      0x60\n      dup2\n      mstore\n      0x20\n      add\n      and(0xffffffffffffffffffffffffff, 0x00)\n      dup2\n      mstore\n      pop\n      swap1\n      jump\t// out\n        /* \"#utility.yul\":7:82   */\n    tag_179:\n        /* \"#utility.yul\":40:46   */\n      0x00\n        /* \"#utility.yul\":73:75   */\n      0x40\n        /* \"#utility.yul\":67:76   */\n      mload\n        /* \"#utility.yul\":57:76   */\n      swap1\n      pop\n        /* \"#utility.yul\":7:82   */\n      swap1\n      jump\t// out\n        /* \"#utility.yul\":88:205   */\n    tag_180:\n        /* \"#utility.yul\":197:198   */\n      0x00\n        /* \"#utility.yul\":194:195   */\n      0x00\n        /* \"#utility.yul\":187:199   */\n      revert\n        /* \"#utility.yul\":211:328   */\n    tag_181:\n        /* \"#utility.yul\":320:321   */\n      0x00\n        /* \"#utility.yul\":317:318   */\n      0x00\n        /* \"#utility.yul\":310:322   */\n      revert\n        /* \"#utility.yul\":334:451   */\n    tag_182:\n        /* \"#utility.yul\":443:444   */\n      0x00\n        /* \"#utility.yul\":440:441   */\n      0x00\n        /* \"#utility.yul\":433:445   */\n      revert\n        /* \"#utility.yul\":457:574   */\n    tag_183:\n        /* \"#utility.yul\":566:567   */\n      0x00\n        /* \"#utility.yul\":563:564   */\n      0x00\n        /* \"#utility.yul\":556:568   */\n      revert\n        /* \"#utility.yul\":580:682   */\n    tag_184:\n        /* \"#utility.yul\":621:627   */\n      0x00\n        /* \"#utility.yul\":672:674   */\n      0x1f\n        /* \"#utility.yul\":668:675   */\n      not\n        /* \"#utility.yul\":663:665   */\n      0x1f\n        /* \"#utility.yul\":656:661   */\n      dup4\n        /* \"#utility.yul\":652:666   */\n      add\n        /* \"#utility.yul\":648:676   */\n      and\n        /* \"#utility.yul\":638:676   */\n      swap1\n      pop\n        /* \"#utility.yul\":580:682   */\n      swap2\n      swap1\n      pop\n      jump\t// out\n        /* \"#utility.yul\":688:868   */\n    tag_185:\n        /* \"#utility.yul\":736:813   */\n      0x4e487b7100000000000000000000000000000000000000000000000000000000\n        /* \"#utility.yul\":733:734   */\n      0x00\n        /* \"#utility.yul\":726:814   */\n      mstore\n        /* \"#utility.yul\":833:837   */\n      0x41\n        /* \"#utility.yul\":830:831   */\n      0x04\n        /* \"#utility.yul\":823:838   */\n      mstore\n        /* \"#utility.yul\":857:861   */\n      0x24\n        /* \"#utility.yul\":854:855   */\n      0x00\n        /* \"#utility.yul\":847:862   */\n      revert\n        /* \"#utility.yul\":874:1155   */\n    tag_186:\n        /* \"#utility.yul\":957:984   */\n      tag_253\n        /* \"#utility.yul\":979:983   */\n      dup3\n        /* \"#utility.yul\":957:984   */\n      tag_184\n      jump\t// in\n    tag_253:\n        /* \"#utility.yul\":949:955   */\n      dup2\n        /* \"#utility.yul\":945:985   */\n      add\n        /* \"#utility.yul\":1087:1093   */\n      dup2\n        /* \"#utility.yul\":1075:1085   */\n      dup2\n        /* \"#utility.yul\":1072:1094   */\n      lt\n        /* \"#utility.yul\":1051:1069   */\n      0xffffffffffffffff\n        /* \"#utility.yul\":1039:1049   */\n      dup3\n        /* \"#utility.yul\":1036:1070   */\n      gt\n        /* \"#utility.yul\":1033:1095   */\n      or\n        /* \"#utility.yul\":1030:1118   */\n      iszero\n      tag_254\n      jumpi\n        /* \"#utility.yul\":1098:1116   */\n      tag_255\n      tag_185\n      jump\t// in\n    tag_255:\n        /* \"#utility.yul\":1030:1118   */\n    tag_254:\n        /* \"#utility.yul\":1138:1148   */\n      dup1\n        /* \"#utility.yul\":1134:1136   */\n      0x40\n        /* \"#utility.yul\":1127:1149   */\n      mstore\n        /* \"#utility.yul\":917:1155   */\n      pop\n        /* \"#utility.yul\":874:1155   */\n      pop\n      pop\n      jump\t// out\n        /* \"#utility.yul\":1161:1290   */\n    tag_187:\n        /* \"#utility.yul\":1195:1201   */\n      0x00\n        /* \"#utility.yul\":1222:1242   */\n      tag_257\n      tag_179\n      jump\t// in\n    tag_257:\n        /* \"#utility.yul\":1212:1242   */\n      swap1\n      pop\n        /* \"#utility.yul\":1251:1284   */\n      tag_258\n        /* \"#utility.yul\":1279:1283   */\n      dup3\n        /* \"#utility.yul\":1271:1277   */\n      dup3\n        /* \"#utility.yul\":1251:1284   */\n      tag_186\n      jump\t// in\n    tag_258:\n        /* \"#utility.yul\":1161:1290   */\n      swap2\n      swap1\n      pop\n      jump\t// out\n        /* \"#utility.yul\":1296:1604   */\n    tag_188:\n        /* \"#utility.yul\":1358:1362   */\n      0x00\n        /* \"#utility.yul\":1448:1466   */\n      0xffffffffffffffff\n        /* \"#utility.yul\":1440:1446   */\n      dup3\n        /* \"#utility.yul\":1437:1467   */\n      gt\n        /* \"#utility.yul\":1434:1490   */\n      iszero\n      tag_260\n      jumpi\n        /* \"#utility.yul\":1470:1488   */\n      tag_261\n      tag_185\n      jump\t// in\n    tag_261:\n        /* \"#utility.yul\":1434:1490   */\n    tag_260:\n        /* \"#utility.yul\":1508:1537   */\n      tag_262\n        /* \"#utility.yul\":1530:1536   */\n      dup3\n        /* \"#utility.yul\":1508:1537   */\n      tag_184\n      jump\t// in\n    tag_262:\n        /* \"#utility.yul\":1500:1537   */\n      swap1\n      pop\n        /* \"#utility.yul\":1592:1596   */\n      0x20\n        /* \"#utility.yul\":1586:1590   */\n      dup2\n        /* \"#utility.yul\":1582:1597   */\n      add\n        /* \"#utility.yul\":1574:1597   */\n      swap1\n      pop\n        /* \"#utility.yul\":1296:1604   */\n      swap2\n      swap1\n      pop\n      jump\t// out\n        /* \"#utility.yul\":1610:1758   */\n    tag_189:\n        /* \"#utility.yul\":1708:1714   */\n      dup3\n        /* \"#utility.yul\":1703:1706   */\n      dup2\n        /* \"#utility.yul\":1698:1701   */\n      dup4\n        /* \"#utility.yul\":1685:1715   */\n      calldatacopy\n        /* \"#utility.yul\":1749:1750   */\n      0x00\n        /* \"#utility.yul\":1740:1746   */\n      dup4\n        /* \"#utility.yul\":1735:1738   */\n      dup4\n        /* \"#utility.yul\":1731:1747   */\n      add\n        /* \"#utility.yul\":1724:1751   */\n      mstore\n        /* \"#utility.yul\":1610:1758   */\n      pop\n      pop\n      pop\n      jump\t// out\n        /* \"#utility.yul\":1764:2189   */\n    tag_190:\n        /* \"#utility.yul\":1842:1847   */\n      0x00\n        /* \"#utility.yul\":1867:1933   */\n      tag_265\n        /* \"#utility.yul\":1883:1932   */\n      tag_266\n        /* \"#utility.yul\":1925:1931   */\n      dup5\n        /* \"#utility.yul\":1883:1932   */\n      tag_188\n      jump\t// in\n    tag_266:\n        /* \"#utility.yul\":1867:1933   */\n      tag_187\n      jump\t// in\n    tag_265:\n        /* \"#utility.yul\":1858:1933   */\n      swap1\n      pop\n        /* \"#utility.yul\":1956:1962   */\n      dup3\n        /* \"#utility.yul\":1949:1954   */\n      dup2\n        /* \"#utility.yul\":1942:1963   */\n      mstore\n        /* \"#utility.yul\":1994:1998   */\n      0x20\n        /* \"#utility.yul\":1987:1992   */\n      dup2\n        /* \"#utility.yul\":1983:1999   */\n      add\n        /* \"#utility.yul\":2032:2035   */\n      dup5\n        /* \"#utility.yul\":2023:2029   */\n      dup5\n        /* \"#utility.yul\":2018:2021   */\n      dup5\n        /* \"#utility.yul\":2014:2030   */\n      add\n        /* \"#utility.yul\":2011:2036   */\n      gt\n        /* \"#utility.yul\":2008:2120   */\n      iszero\n      tag_267\n      jumpi\n        /* \"#utility.yul\":2039:2118   */\n      tag_268\n      tag_183\n      jump\t// in\n    tag_268:\n        /* \"#utility.yul\":2008:2120   */\n    tag_267:\n        /* \"#utility.yul\":2129:2183   */\n      tag_269\n        /* \"#utility.yul\":2176:2182   */\n      dup5\n        /* \"#utility.yul\":2171:2174   */\n      dup3\n        /* \"#utility.yul\":2166:2169   */\n      dup6\n        /* \"#utility.yul\":2129:2183   */\n      tag_189\n      jump\t// in\n    tag_269:\n        /* \"#utility.yul\":1848:2189   */\n      pop\n        /* \"#utility.yul\":1764:2189   */\n      swap4\n      swap3\n      pop\n      pop\n      pop\n      jump\t// out\n        /* \"#utility.yul\":2209:2549   */\n    tag_191:\n        /* \"#utility.yul\":2265:2270   */\n      0x00\n        /* \"#utility.yul\":2314:2317   */\n      dup3\n        /* \"#utility.yul\":2307:2311   */\n      0x1f\n        /* \"#utility.yul\":2299:2305   */\n      dup4\n        /* \"#utility.yul\":2295:2312   */\n      add\n        /* \"#utility.yul\":2291:2318   */\n      slt\n        /* \"#utility.yul\":2281:2403   */\n      tag_271\n      jumpi\n        /* \"#utility.yul\":2322:2401   */\n      tag_272\n      tag_182\n      jump\t// in\n    tag_272:\n        /* \"#utility.yul\":2281:2403   */\n    tag_271:\n        /* \"#utility.yul\":2439:2445   */\n      dup2\n        /* \"#utility.yul\":2426:2446   */\n      calldataload\n        /* \"#utility.yul\":2464:2543   */\n      tag_273\n        /* \"#utility.yul\":2539:2542   */\n      dup5\n        /* \"#utility.yul\":2531:2537   */\n      dup3\n        /* \"#utility.yul\":2524:2528   */\n      0x20\n        /* \"#utility.yul\":2516:2522   */\n      dup7\n        /* \"#utility.yul\":2512:2529   */\n      add\n        /* \"#utility.yul\":2464:2543   */\n      tag_190\n      jump\t// in\n    tag_273:\n        /* \"#utility.yul\":2455:2543   */\n      swap2\n      pop\n        /* \"#utility.yul\":2271:2549   */\n      pop\n        /* \"#utility.yul\":2209:2549   */\n      swap3\n      swap2\n      pop\n      pop\n      jump\t// out\n        /* \"#utility.yul\":2555:3064   */\n    tag_16:\n        /* \"#utility.yul\":2624:2630   */\n      0x00\n        /* \"#utility.yul\":2673:2675   */\n      0x20\n        /* \"#utility.yul\":2661:2670   */\n      dup3\n        /* \"#utility.yul\":2652:2659   */\n      dup5\n        /* \"#utility.yul\":2648:2671   */\n      sub\n        /* \"#utility.yul\":2644:2676   */\n      slt\n        /* \"#utility.yul\":2641:2760   */\n      iszero\n      tag_275\n      jumpi\n        /* \"#utility.yul\":2679:2758   */\n      tag_276\n      tag_180\n      jump\t// in\n    tag_276:\n        /* \"#utility.yul\":2641:2760   */\n    tag_275:\n        /* \"#utility.yul\":2827:2828   */\n      0x00\n        /* \"#utility.yul\":2816:2825   */\n      dup3\n        /* \"#utility.yul\":2812:2829   */\n      add\n        /* \"#utility.yul\":2799:2830   */\n      calldataload\n        /* \"#utility.yul\":2857:2875   */\n      0xffffffffffffffff\n        /* \"#utility.yul\":2849:2855   */\n      dup2\n        /* \"#utility.yul\":2846:2876   */\n      gt\n        /* \"#utility.yul\":2843:2960   */\n      iszero\n      tag_277\n      jumpi\n        /* \"#utility.yul\":2879:2958   */\n      tag_278\n      tag_181\n      jump\t// in\n    tag_278:\n        /* \"#utility.yul\":2843:2960   */\n    tag_277:\n        /* \"#utility.yul\":2984:3047   */\n      tag_279\n        /* \"#utility.yul\":3039:3046   */\n      dup5\n        /* \"#utility.yul\":3030:3036   */\n      dup3\n        /* \"#utility.yul\":3019:3028   */\n      dup6\n        /* \"#utility.yul\":3015:3037   */\n      add\n        /* \"#utility.yul\":2984:3047   */\n      tag_191\n      jump\t// in\n    tag_279:\n        /* \"#utility.yul\":2974:3047   */\n      swap2\n      pop\n        /* \"#utility.yul\":2770:3057   */\n      pop\n        /* \"#utility.yul\":2555:3064   */\n      swap3\n      swap2\n      pop\n      pop\n      jump\t// out\n        /* \"#utility.yul\":3070:3169   */\n    tag_192:\n        /* \"#utility.yul\":3122:3128   */\n      0x00\n        /* \"#utility.yul\":3156:3161   */\n      dup2\n        /* \"#utility.yul\":3150:3162   */\n      mload\n        /* \"#utility.yul\":3140:3162   */\n      swap1\n      pop\n        /* \"#utility.yul\":3070:3169   */\n      swap2\n      swap1\n      pop\n      jump\t// out\n        /* \"#utility.yul\":3175:3344   */\n    tag_193:\n        /* \"#utility.yul\":3259:3270   */\n      0x00\n        /* \"#utility.yul\":3293:3299   */\n      dup3\n        /* \"#utility.yul\":3288:3291   */\n      dup3\n        /* \"#utility.yul\":3281:3300   */\n      mstore\n        /* \"#utility.yul\":3333:3337   */\n      0x20\n        /* \"#utility.yul\":3328:3331   */\n      dup3\n        /* \"#utility.yul\":3324:3338   */\n      add\n        /* \"#utility.yul\":3309:3338   */\n      swap1\n      pop\n        /* \"#utility.yul\":3175:3344   */\n      swap3\n      swap2\n      pop\n      pop\n      jump\t// out\n        /* \"#utility.yul\":3350:3489   */\n    tag_194:\n        /* \"#utility.yul\":3439:3445   */\n      dup3\n        /* \"#utility.yul\":3434:3437   */\n      dup2\n        /* \"#utility.yul\":3429:3432   */\n      dup4\n        /* \"#utility.yul\":3423:3446   */\n      mcopy\n        /* \"#utility.yul\":3480:3481   */\n      0x00\n        /* \"#utility.yul\":3471:3477   */\n      dup4\n        /* \"#utility.yul\":3466:3469   */\n      dup4\n        /* \"#utility.yul\":3462:3478   */\n      add\n        /* \"#utility.yul\":3455:3482   */\n      mstore\n        /* \"#utility.yul\":3350:3489   */\n      pop\n      pop\n      pop\n      jump\t// out\n        /* \"#utility.yul\":3495:3872   */\n    tag_195:\n        /* \"#utility.yul\":3583:3586   */\n      0x00\n        /* \"#utility.yul\":3611:3650   */\n      tag_284\n        /* \"#utility.yul\":3644:3649   */\n      dup3\n        /* \"#utility.yul\":3611:3650   */\n      tag_192\n      jump\t// in\n    tag_284:\n        /* \"#utility.yul\":3666:3737   */\n      tag_285\n        /* \"#utility.yul\":3730:3736   */\n      dup2\n        /* \"#utility.yul\":3725:3728   */\n      dup6\n        /* \"#utility.yul\":3666:3737   */\n      tag_193\n      jump\t// in\n    tag_285:\n        /* \"#utility.yul\":3659:3737   */\n      swap4\n      pop\n        /* \"#utility.yul\":3746:3811   */\n      tag_286\n        /* \"#utility.yul\":3804:3810   */\n      dup2\n        /* \"#utility.yul\":3799:3802   */\n      dup6\n        /* \"#utility.yul\":3792:3796   */\n      0x20\n        /* \"#utility.yul\":3785:3790   */\n      dup7\n        /* \"#utility.yul\":3781:3797   */\n      add\n        /* \"#utility.yul\":3746:3811   */\n      tag_194\n      jump\t// in\n    tag_286:\n        /* \"#utility.yul\":3836:3865   */\n      tag_287\n        /* \"#utility.yul\":3858:3864   */\n      dup2\n        /* \"#utility.yul\":3836:3865   */\n      tag_184\n      jump\t// in\n    tag_287:\n        /* \"#utility.yul\":3831:3834   */\n      dup5\n        /* \"#utility.yul\":3827:3866   */\n      add\n        /* \"#utility.yul\":3820:3866   */\n      swap2\n      pop\n        /* \"#utility.yul\":3587:3872   */\n      pop\n        /* \"#utility.yul\":3495:3872   */\n      swap3\n      swap2\n      pop\n      pop\n      jump\t// out\n        /* \"#utility.yul\":3878:4191   */\n    tag_19:\n        /* \"#utility.yul\":3991:3995   */\n      0x00\n        /* \"#utility.yul\":4029:4031   */\n      0x20\n        /* \"#utility.yul\":4018:4027   */\n      dup3\n        /* \"#utility.yul\":4014:4032   */\n      add\n        /* \"#utility.yul\":4006:4032   */\n      swap1\n      pop\n        /* \"#utility.yul\":4078:4087   */\n      dup2\n        /* \"#utility.yul\":4072:4076   */\n      dup2\n        /* \"#utility.yul\":4068:4088   */\n      sub\n        /* \"#utility.yul\":4064:4065   */\n      0x00\n        /* \"#utility.yul\":4053:4062   */\n      dup4\n        /* \"#utility.yul\":4049:4066   */\n      add\n        /* \"#utility.yul\":4042:4089   */\n      mstore\n        /* \"#utility.yul\":4106:4184   */\n      tag_289\n        /* \"#utility.yul\":4179:4183   */\n      dup2\n        /* \"#utility.yul\":4170:4176   */\n      dup5\n        /* \"#utility.yul\":4106:4184   */\n      tag_195\n      jump\t// in\n    tag_289:\n        /* \"#utility.yul\":4098:4184   */\n      swap1\n      pop\n        /* \"#utility.yul\":3878:4191   */\n      swap3\n      swap2\n      pop\n      pop\n      jump\t// out\n        /* \"#utility.yul\":4197:4325   */\n    tag_196:\n        /* \"#utility.yul\":4234:4241   */\n      0x00\n        /* \"#utility.yul\":4274:4318   */\n      0xffffffffffffffffffffffffffffffffffffffffff\n        /* \"#utility.yul\":4267:4272   */\n      dup3\n        /* \"#utility.yul\":4263:4319   */\n      and\n        /* \"#utility.yul\":4252:4319   */\n      swap1\n      pop\n        /* \"#utility.yul\":4197:4325   */\n      swap2\n      swap1\n      pop\n      jump\t// out\n        /* \"#utility.yul\":4331:4453   */\n    tag_197:\n        /* \"#utility.yul\":4404:4428   */\n      tag_292\n        /* \"#utility.yul\":4422:4427   */\n      dup2\n        /* \"#utility.yul\":4404:4428   */\n      tag_196\n      jump\t// in\n    tag_292:\n        /* \"#utility.yul\":4397:4402   */\n      dup2\n        /* \"#utility.yul\":4394:4429   */\n      eq\n        /* \"#utility.yul\":4384:4447   */\n      tag_293\n      jumpi\n        /* \"#utility.yul\":4443:4444   */\n      0x00\n        /* \"#utility.yul\":4440:4441   */\n      0x00\n        /* \"#utility.yul\":4433:4445   */\n      revert\n        /* \"#utility.yul\":4384:4447   */\n    tag_293:\n        /* \"#utility.yul\":4331:4453   */\n      pop\n      jump\t// out\n        /* \"#utility.yul\":4459:4598   */\n    tag_198:\n        /* \"#utility.yul\":4505:4510   */\n      0x00\n        /* \"#utility.yul\":4543:4549   */\n      dup2\n        /* \"#utility.yul\":4530:4550   */\n      calldataload\n        /* \"#utility.yul\":4521:4550   */\n      swap1\n      pop\n        /* \"#utility.yul\":4559:4592   */\n      tag_295\n        /* \"#utility.yul\":4586:4591   */\n      dup2\n        /* \"#utility.yul\":4559:4592   */\n      tag_197\n      jump\t// in\n    tag_295:\n        /* \"#utility.yul\":4459:4598   */\n      swap3\n      swap2\n      pop\n      pop\n      jump\t// out\n        /* \"#utility.yul\":4604:4681   */\n    tag_199:\n        /* \"#utility.yul\":4641:4648   */\n      0x00\n        /* \"#utility.yul\":4670:4675   */\n      dup2\n        /* \"#utility.yul\":4659:4675   */\n      swap1\n      pop\n        /* \"#utility.yul\":4604:4681   */\n      swap2\n      swap1\n      pop\n      jump\t// out\n        /* \"#utility.yul\":4687:4809   */\n    tag_200:\n        /* \"#utility.yul\":4760:4784   */\n      tag_298\n        /* \"#utility.yul\":4778:4783   */\n      dup2\n        /* \"#utility.yul\":4760:4784   */\n      tag_199\n      jump\t// in\n    tag_298:\n        /* \"#utility.yul\":4753:4758   */\n      dup2\n        /* \"#utility.yul\":4750:4785   */\n      eq\n        /* \"#utility.yul\":4740:4803   */\n      tag_299\n      jumpi\n        /* \"#utility.yul\":4799:4800   */\n      0x00\n        /* \"#utility.yul\":4796:4797   */\n      0x00\n        /* \"#utility.yul\":4789:4801   */\n      revert\n        /* \"#utility.yul\":4740:4803   */\n    tag_299:\n        /* \"#utility.yul\":4687:4809   */\n      pop\n      jump\t// out\n        /* \"#utility.yul\":4815:4954   */\n    tag_201:\n        /* \"#utility.yul\":4861:4866   */\n      0x00\n        /* \"#utility.yul\":4899:4905   */\n      dup2\n        /* \"#utility.yul\":4886:4906   */\n      calldataload\n        /* \"#utility.yul\":4877:4906   */\n      swap1\n      pop\n        /* \"#utility.yul\":4915:4948   */\n      tag_301\n        /* \"#utility.yul\":4942:4947   */\n      dup2\n        /* \"#utility.yul\":4915:4948   */\n      tag_200\n      jump\t// in\n    tag_301:\n        /* \"#utility.yul\":4815:4954   */\n      swap3\n      swap2\n      pop\n      pop\n      jump\t// out\n        /* \"#utility.yul\":4960:6411   */\n    tag_22:\n        /* \"#utility.yul\":5085:5091   */\n      0x00\n        /* \"#utility.yul\":5093:5099   */\n      0x00\n        /* \"#utility.yul\":5101:5107   */\n      0x00\n        /* \"#utility.yul\":5109:5115   */\n      0x00\n        /* \"#utility.yul\":5117:5123   */\n      0x00\n        /* \"#utility.yul\":5166:5169   */\n      0xa0\n        /* \"#utility.yul\":5154:5163   */\n      dup7\n        /* \"#utility.yul\":5145:5152   */\n      dup9\n        /* \"#utility.yul\":5141:5164   */\n      sub\n        /* \"#utility.yul\":5137:5170   */\n      slt\n        /* \"#utility.yul\":5134:5254   */\n      iszero\n      tag_303\n      jumpi\n        /* \"#utility.yul\":5173:5252   */\n      tag_304\n      tag_180\n      jump\t// in\n    tag_304:\n        /* \"#utility.yul\":5134:5254   */\n    tag_303:\n        /* \"#utility.yul\":5321:5322   */\n      0x00\n        /* \"#utility.yul\":5310:5319   */\n      dup7\n        /* \"#utility.yul\":5306:5323   */\n      add\n        /* \"#utility.yul\":5293:5324   */\n      calldataload\n        /* \"#utility.yul\":5351:5369   */\n      0xffffffffffffffff\n        /* \"#utility.yul\":5343:5349   */\n      dup2\n        /* \"#utility.yul\":5340:5370   */\n      gt\n        /* \"#utility.yul\":5337:5454   */\n      iszero\n      tag_305\n      jumpi\n        /* \"#utility.yul\":5373:5452   */\n      tag_306\n      tag_181\n      jump\t// in\n    tag_306:\n        /* \"#utility.yul\":5337:5454   */\n    tag_305:\n        /* \"#utility.yul\":5478:5541   */\n      tag_307\n        /* \"#utility.yul\":5533:5540   */\n      dup9\n        /* \"#utility.yul\":5524:5530   */\n      dup3\n        /* \"#utility.yul\":5513:5522   */\n      dup10\n        /* \"#utility.yul\":5509:5531   */\n      add\n        /* \"#utility.yul\":5478:5541   */\n      tag_191\n      jump\t// in\n    tag_307:\n        /* \"#utility.yul\":5468:5541   */\n      swap6\n      pop\n        /* \"#utility.yul\":5264:5551   */\n      pop\n        /* \"#utility.yul\":5618:5620   */\n      0x20\n        /* \"#utility.yul\":5607:5616   */\n      dup7\n        /* \"#utility.yul\":5603:5621   */\n      add\n        /* \"#utility.yul\":5590:5622   */\n      calldataload\n        /* \"#utility.yul\":5649:5667   */\n      0xffffffffffffffff\n        /* \"#utility.yul\":5641:5647   */\n      dup2\n        /* \"#utility.yul\":5638:5668   */\n      gt\n        /* \"#utility.yul\":5635:5752   */\n      iszero\n      tag_308\n      jumpi\n        /* \"#utility.yul\":5671:5750   */\n      tag_309\n      tag_181\n      jump\t// in\n    tag_309:\n        /* \"#utility.yul\":5635:5752   */\n    tag_308:\n        /* \"#utility.yul\":5776:5839   */\n      tag_310\n        /* \"#utility.yul\":5831:5838   */\n      dup9\n        /* \"#utility.yul\":5822:5828   */\n      dup3\n        /* \"#utility.yul\":5811:5820   */\n      dup10\n        /* \"#utility.yul\":5807:5829   */\n      add\n        /* \"#utility.yul\":5776:5839   */\n      tag_191\n      jump\t// in\n    tag_310:\n        /* \"#utility.yul\":5766:5839   */\n      swap5\n      pop\n        /* \"#utility.yul\":5561:5849   */\n      pop\n        /* \"#utility.yul\":5916:5918   */\n      0x40\n        /* \"#utility.yul\":5905:5914   */\n      dup7\n        /* \"#utility.yul\":5901:5919   */\n      add\n        /* \"#utility.yul\":5888:5920   */\n      calldataload\n        /* \"#utility.yul\":5947:5965   */\n      0xffffffffffffffff\n        /* \"#utility.yul\":5939:5945   */\n      dup2\n        /* \"#utility.yul\":5936:5966   */\n      gt\n        /* \"#utility.yul\":5933:6050   */\n      iszero\n      tag_311\n      jumpi\n        /* \"#utility.yul\":5969:6048   */\n      tag_312\n      tag_181\n      jump\t// in\n    tag_312:\n        /* \"#utility.yul\":5933:6050   */\n    tag_311:\n        /* \"#utility.yul\":6074:6137   */\n      tag_313\n        /* \"#utility.yul\":6129:6136   */\n      dup9\n        /* \"#utility.yul\":6120:6126   */\n      dup3\n        /* \"#utility.yul\":6109:6118   */\n      dup10\n        /* \"#utility.yul\":6105:6127   */\n      add\n        /* \"#utility.yul\":6074:6137   */\n      tag_191\n      jump\t// in\n    tag_313:\n        /* \"#utility.yul\":6064:6137   */\n      swap4\n      pop\n        /* \"#utility.yul\":5859:6147   */\n      pop\n        /* \"#utility.yul\":6186:6188   */\n      0x60\n        /* \"#utility.yul\":6212:6265   */\n      tag_314\n        /* \"#utility.yul\":6257:6264   */\n      dup9\n        /* \"#utility.yul\":6248:6254   */\n      dup3\n        /* \"#utility.yul\":6237:6246   */\n      dup10\n        /* \"#utility.yul\":6233:6255   */\n      add\n        /* \"#utility.yul\":6212:6265   */\n      tag_198\n      jump\t// in\n    tag_314:\n        /* \"#utility.yul\":6202:6265   */\n      swap3\n      pop\n        /* \"#utility.yul\":6157:6275   */\n      pop\n        /* \"#utility.yul\":6314:6317   */\n      0x80\n        /* \"#utility.yul\":6341:6394   */\n      tag_315\n        /* \"#utility.yul\":6386:6393   */\n      dup9\n        /* \"#utility.yul\":6377:6383   */\n      dup3\n        /* \"#utility.yul\":6366:6375   */\n      dup10\n        /* \"#utility.yul\":6362:6384   */\n      add\n        /* \"#utility.yul\":6341:6394   */\n      tag_201\n      jump\t// in\n    tag_315:\n        /* \"#utility.yul\":6331:6394   */\n      swap2\n      pop\n        /* \"#utility.yul\":6285:6404   */\n      pop\n        /* \"#utility.yul\":4960:6411   */\n      swap3\n      swap6\n      pop\n      swap3\n      swap6\n      swap1\n      swap4\n      pop\n      jump\t// out\n        /* \"#utility.yul\":6417:7071   */\n    tag_26:\n        /* \"#utility.yul\":6495:6501   */\n      0x00\n        /* \"#utility.yul\":6503:6509   */\n      0x00\n        /* \"#utility.yul\":6552:6554   */\n      0x40\n        /* \"#utility.yul\":6540:6549   */\n      dup4\n        /* \"#utility.yul\":6531:6538   */\n      dup6\n        /* \"#utility.yul\":6527:6550   */\n      sub\n        /* \"#utility.yul\":6523:6555   */\n      slt\n        /* \"#utility.yul\":6520:6639   */\n      iszero\n      tag_317\n      jumpi\n        /* \"#utility.yul\":6558:6637   */\n      tag_318\n      tag_180\n      jump\t// in\n    tag_318:\n        /* \"#utility.yul\":6520:6639   */\n    tag_317:\n        /* \"#utility.yul\":6706:6707   */\n      0x00\n        /* \"#utility.yul\":6695:6704   */\n      dup4\n        /* \"#utility.yul\":6691:6708   */\n      add\n        /* \"#utility.yul\":6678:6709   */\n      calldataload\n        /* \"#utility.yul\":6736:6754   */\n      0xffffffffffffffff\n        /* \"#utility.yul\":6728:6734   */\n      dup2\n        /* \"#utility.yul\":6725:6755   */\n      gt\n        /* \"#utility.yul\":6722:6839   */\n      iszero\n      tag_319\n      jumpi\n        /* \"#utility.yul\":6758:6837   */\n      tag_320\n      tag_181\n      jump\t// in\n    tag_320:\n        /* \"#utility.yul\":6722:6839   */\n    tag_319:\n        /* \"#utility.yul\":6863:6926   */\n      tag_321\n        /* \"#utility.yul\":6918:6925   */\n      dup6\n        /* \"#utility.yul\":6909:6915   */\n      dup3\n        /* \"#utility.yul\":6898:6907   */\n      dup7\n        /* \"#utility.yul\":6894:6916   */\n      add\n        /* \"#utility.yul\":6863:6926   */\n      tag_191\n      jump\t// in\n    tag_321:\n        /* \"#utility.yul\":6853:6926   */\n      swap3\n      pop\n        /* \"#utility.yul\":6649:6936   */\n      pop\n        /* \"#utility.yul\":6975:6977   */\n      0x20\n        /* \"#utility.yul\":7001:7054   */\n      tag_322\n        /* \"#utility.yul\":7046:7053   */\n      dup6\n        /* \"#utility.yul\":7037:7043   */\n      dup3\n        /* \"#utility.yul\":7026:7035   */\n      dup7\n        /* \"#utility.yul\":7022:7044   */\n      add\n        /* \"#utility.yul\":7001:7054   */\n      tag_201\n      jump\t// in\n    tag_322:\n        /* \"#utility.yul\":6991:7054   */\n      swap2\n      pop\n        /* \"#utility.yul\":6946:7064   */\n      pop\n        /* \"#utility.yul\":6417:7071   */\n      swap3\n      pop\n      swap3\n      swap1\n      pop\n      jump\t// out\n        /* \"#utility.yul\":7077:7189   */\n    tag_202:\n        /* \"#utility.yul\":7114:7121   */\n      0x00\n        /* \"#utility.yul\":7154:7182   */\n      0xffffffffffffffffffffffffff\n        /* \"#utility.yul\":7147:7152   */\n      dup3\n        /* \"#utility.yul\":7143:7183   */\n      and\n        /* \"#utility.yul\":7132:7183   */\n      swap1\n      pop\n        /* \"#utility.yul\":7077:7189   */\n      swap2\n      swap1\n      pop\n      jump\t// out\n        /* \"#utility.yul\":7195:7313   */\n    tag_203:\n        /* \"#utility.yul\":7282:7306   */\n      tag_325\n        /* \"#utility.yul\":7300:7305   */\n      dup2\n        /* \"#utility.yul\":7282:7306   */\n      tag_202\n      jump\t// in\n    tag_325:\n        /* \"#utility.yul\":7277:7280   */\n      dup3\n        /* \"#utility.yul\":7270:7307   */\n      mstore\n        /* \"#utility.yul\":7195:7313   */\n      pop\n      pop\n      jump\t// out\n        /* \"#utility.yul\":7319:7742   */\n    tag_29:\n        /* \"#utility.yul\":7460:7464   */\n      0x00\n        /* \"#utility.yul\":7498:7500   */\n      0x40\n        /* \"#utility.yul\":7487:7496   */\n      dup3\n        /* \"#utility.yul\":7483:7501   */\n      add\n        /* \"#utility.yul\":7475:7501   */\n      swap1\n      pop\n        /* \"#utility.yul\":7547:7556   */\n      dup2\n        /* \"#utility.yul\":7541:7545   */\n      dup2\n        /* \"#utility.yul\":7537:7557   */\n      sub\n        /* \"#utility.yul\":7533:7534   */\n      0x00\n        /* \"#utility.yul\":7522:7531   */\n      dup4\n        /* \"#utility.yul\":7518:7535   */\n      add\n        /* \"#utility.yul\":7511:7558   */\n      mstore\n        /* \"#utility.yul\":7575:7653   */\n      tag_327\n        /* \"#utility.yul\":7648:7652   */\n      dup2\n        /* \"#utility.yul\":7639:7645   */\n      dup6\n        /* \"#utility.yul\":7575:7653   */\n      tag_195\n      jump\t// in\n    tag_327:\n        /* \"#utility.yul\":7567:7653   */\n      swap1\n      pop\n        /* \"#utility.yul\":7663:7735   */\n      tag_328\n        /* \"#utility.yul\":7731:7733   */\n      0x20\n        /* \"#utility.yul\":7720:7729   */\n      dup4\n        /* \"#utility.yul\":7716:7734   */\n      add\n        /* \"#utility.yul\":7707:7713   */\n      dup5\n        /* \"#utility.yul\":7663:7735   */\n      tag_203\n      jump\t// in\n    tag_328:\n        /* \"#utility.yul\":7319:7742   */\n      swap4\n      swap3\n      pop\n      pop\n      pop\n      jump\t// out\n        /* \"#utility.yul\":7748:8582   */\n    tag_32:\n        /* \"#utility.yul\":7836:7842   */\n      0x00\n        /* \"#utility.yul\":7844:7850   */\n      0x00\n        /* \"#utility.yul\":7893:7895   */\n      0x40\n        /* \"#utility.yul\":7881:7890   */\n      dup4\n        /* \"#utility.yul\":7872:7879   */\n      dup6\n        /* \"#utility.yul\":7868:7891   */\n      sub\n        /* \"#utility.yul\":7864:7896   */\n      slt\n        /* \"#utility.yul\":7861:7980   */\n      iszero\n      tag_330\n      jumpi\n        /* \"#utility.yul\":7899:7978   */\n      tag_331\n      tag_180\n      jump\t// in\n    tag_331:\n        /* \"#utility.yul\":7861:7980   */\n    tag_330:\n        /* \"#utility.yul\":8047:8048   */\n      0x00\n        /* \"#utility.yul\":8036:8045   */\n      dup4\n        /* \"#utility.yul\":8032:8049   */\n      add\n        /* \"#utility.yul\":8019:8050   */\n      calldataload\n        /* \"#utility.yul\":8077:8095   */\n      0xffffffffffffffff\n        /* \"#utility.yul\":8069:8075   */\n      dup2\n        /* \"#utility.yul\":8066:8096   */\n      gt\n        /* \"#utility.yul\":8063:8180   */\n      iszero\n      tag_332\n      jumpi\n        /* \"#utility.yul\":8099:8178   */\n      tag_333\n      tag_181\n      jump\t// in\n    tag_333:\n        /* \"#utility.yul\":8063:8180   */\n    tag_332:\n        /* \"#utility.yul\":8204:8267   */\n      tag_334\n        /* \"#utility.yul\":8259:8266   */\n      dup6\n        /* \"#utility.yul\":8250:8256   */\n      dup3\n        /* \"#utility.yul\":8239:8248   */\n      dup7\n        /* \"#utility.yul\":8235:8257   */\n      add\n        /* \"#utility.yul\":8204:8267   */\n      tag_191\n      jump\t// in\n    tag_334:\n        /* \"#utility.yul\":8194:8267   */\n      swap3\n      pop\n        /* \"#utility.yul\":7990:8277   */\n      pop\n        /* \"#utility.yul\":8344:8346   */\n      0x20\n        /* \"#utility.yul\":8333:8342   */\n      dup4\n        /* \"#utility.yul\":8329:8347   */\n      add\n        /* \"#utility.yul\":8316:8348   */\n      calldataload\n        /* \"#utility.yul\":8375:8393   */\n      0xffffffffffffffff\n        /* \"#utility.yul\":8367:8373   */\n      dup2\n        /* \"#utility.yul\":8364:8394   */\n      gt\n        /* \"#utility.yul\":8361:8478   */\n      iszero\n      tag_335\n      jumpi\n        /* \"#utility.yul\":8397:8476   */\n      tag_336\n      tag_181\n      jump\t// in\n    tag_336:\n        /* \"#utility.yul\":8361:8478   */\n    tag_335:\n        /* \"#utility.yul\":8502:8565   */\n      tag_337\n        /* \"#utility.yul\":8557:8564   */\n      dup6\n        /* \"#utility.yul\":8548:8554   */\n      dup3\n        /* \"#utility.yul\":8537:8546   */\n      dup7\n        /* \"#utility.yul\":8533:8555   */\n      add\n        /* \"#utility.yul\":8502:8565   */\n      tag_191\n      jump\t// in\n    tag_337:\n        /* \"#utility.yul\":8492:8565   */\n      swap2\n      pop\n        /* \"#utility.yul\":8287:8575   */\n      pop\n        /* \"#utility.yul\":7748:8582   */\n      swap3\n      pop\n      swap3\n      swap1\n      pop\n      jump\t// out\n        /* \"#utility.yul\":8588:8729   */\n    tag_204:\n        /* \"#utility.yul\":8682:8688   */\n      0x00\n        /* \"#utility.yul\":8716:8721   */\n      dup2\n        /* \"#utility.yul\":8710:8722   */\n      mload\n        /* \"#utility.yul\":8700:8722   */\n      swap1\n      pop\n        /* \"#utility.yul\":8588:8729   */\n      swap2\n      swap1\n      pop\n      jump\t// out\n        /* \"#utility.yul\":8735:8946   */\n    tag_205:\n        /* \"#utility.yul\":8861:8872   */\n      0x00\n        /* \"#utility.yul\":8895:8901   */\n      dup3\n        /* \"#utility.yul\":8890:8893   */\n      dup3\n        /* \"#utility.yul\":8883:8902   */\n      mstore\n        /* \"#utility.yul\":8935:8939   */\n      0x20\n        /* \"#utility.yul\":8930:8933   */\n      dup3\n        /* \"#utility.yul\":8926:8940   */\n      add\n        /* \"#utility.yul\":8911:8940   */\n      swap1\n      pop\n        /* \"#utility.yul\":8735:8946   */\n      swap3\n      swap2\n      pop\n      pop\n      jump\t// out\n        /* \"#utility.yul\":8952:9111   */\n    tag_206:\n        /* \"#utility.yul\":9046:9050   */\n      0x00\n        /* \"#utility.yul\":9069:9072   */\n      dup2\n        /* \"#utility.yul\":9061:9072   */\n      swap1\n      pop\n        /* \"#utility.yul\":9099:9103   */\n      0x20\n        /* \"#utility.yul\":9094:9097   */\n      dup3\n        /* \"#utility.yul\":9090:9104   */\n      add\n        /* \"#utility.yul\":9082:9104   */\n      swap1\n      pop\n        /* \"#utility.yul\":8952:9111   */\n      swap2\n      swap1\n      pop\n      jump\t// out\n        /* \"#utility.yul\":9117:9276   */\n    tag_207:\n        /* \"#utility.yul\":9191:9202   */\n      0x00\n        /* \"#utility.yul\":9225:9231   */\n      dup3\n        /* \"#utility.yul\":9220:9223   */\n      dup3\n        /* \"#utility.yul\":9213:9232   */\n      mstore\n        /* \"#utility.yul\":9265:9269   */\n      0x20\n        /* \"#utility.yul\":9260:9263   */\n      dup3\n        /* \"#utility.yul\":9256:9270   */\n      add\n        /* \"#utility.yul\":9241:9270   */\n      swap1\n      pop\n        /* \"#utility.yul\":9117:9276   */\n      swap3\n      swap2\n      pop\n      pop\n      jump\t// out\n        /* \"#utility.yul\":9282:9639   */\n    tag_208:\n        /* \"#utility.yul\":9360:9363   */\n      0x00\n        /* \"#utility.yul\":9388:9427   */\n      tag_343\n        /* \"#utility.yul\":9421:9426   */\n      dup3\n        /* \"#utility.yul\":9388:9427   */\n      tag_192\n      jump\t// in\n    tag_343:\n        /* \"#utility.yul\":9443:9504   */\n      tag_344\n        /* \"#utility.yul\":9497:9503   */\n      dup2\n        /* \"#utility.yul\":9492:9495   */\n      dup6\n        /* \"#utility.yul\":9443:9504   */\n      tag_207\n      jump\t// in\n    tag_344:\n        /* \"#utility.yul\":9436:9504   */\n      swap4\n      pop\n        /* \"#utility.yul\":9513:9578   */\n      tag_345\n        /* \"#utility.yul\":9571:9577   */\n      dup2\n        /* \"#utility.yul\":9566:9569   */\n      dup6\n        /* \"#utility.yul\":9559:9563   */\n      0x20\n        /* \"#utility.yul\":9552:9557   */\n      dup7\n        /* \"#utility.yul\":9548:9564   */\n      add\n        /* \"#utility.yul\":9513:9578   */\n      tag_194\n      jump\t// in\n    tag_345:\n        /* \"#utility.yul\":9603:9632   */\n      tag_346\n        /* \"#utility.yul\":9625:9631   */\n      dup2\n        /* \"#utility.yul\":9603:9632   */\n      tag_184\n      jump\t// in\n    tag_346:\n        /* \"#utility.yul\":9598:9601   */\n      dup5\n        /* \"#utility.yul\":9594:9633   */\n      add\n        /* \"#utility.yul\":9587:9633   */\n      swap2\n      pop\n        /* \"#utility.yul\":9364:9639   */\n      pop\n        /* \"#utility.yul\":9282:9639   */\n      swap3\n      swap2\n      pop\n      pop\n      jump\t// out\n        /* \"#utility.yul\":9711:10641   */\n    tag_209:\n        /* \"#utility.yul\":9824:9827   */\n      0x00\n        /* \"#utility.yul\":9860:9864   */\n      0x60\n        /* \"#utility.yul\":9855:9858   */\n      dup4\n        /* \"#utility.yul\":9851:9865   */\n      add\n        /* \"#utility.yul\":9947:9951   */\n      0x00\n        /* \"#utility.yul\":9940:9945   */\n      dup4\n        /* \"#utility.yul\":9936:9952   */\n      add\n        /* \"#utility.yul\":9930:9953   */\n      mload\n        /* \"#utility.yul\":10000:10003   */\n      dup5\n        /* \"#utility.yul\":9994:9998   */\n      dup3\n        /* \"#utility.yul\":9990:10004   */\n      sub\n        /* \"#utility.yul\":9983:9987   */\n      0x00\n        /* \"#utility.yul\":9978:9981   */\n      dup7\n        /* \"#utility.yul\":9974:9988   */\n      add\n        /* \"#utility.yul\":9967:10005   */\n      mstore\n        /* \"#utility.yul\":10026:10099   */\n      tag_348\n        /* \"#utility.yul\":10094:10098   */\n      dup3\n        /* \"#utility.yul\":10080:10092   */\n      dup3\n        /* \"#utility.yul\":10026:10099   */\n      tag_208\n      jump\t// in\n    tag_348:\n        /* \"#utility.yul\":10018:10099   */\n      swap2\n      pop\n        /* \"#utility.yul\":9875:10110   */\n      pop\n        /* \"#utility.yul\":10198:10202   */\n      0x20\n        /* \"#utility.yul\":10191:10196   */\n      dup4\n        /* \"#utility.yul\":10187:10203   */\n      add\n        /* \"#utility.yul\":10181:10204   */\n      mload\n        /* \"#utility.yul\":10251:10254   */\n      dup5\n        /* \"#utility.yul\":10245:10249   */\n      dup3\n        /* \"#utility.yul\":10241:10255   */\n      sub\n        /* \"#utility.yul\":10234:10238   */\n      0x20\n        /* \"#utility.yul\":10229:10232   */\n      dup7\n        /* \"#utility.yul\":10225:10239   */\n      add\n        /* \"#utility.yul\":10218:10256   */\n      mstore\n        /* \"#utility.yul\":10277:10350   */\n      tag_349\n        /* \"#utility.yul\":10345:10349   */\n      dup3\n        /* \"#utility.yul\":10331:10343   */\n      dup3\n        /* \"#utility.yul\":10277:10350   */\n      tag_208\n      jump\t// in\n    tag_349:\n        /* \"#utility.yul\":10269:10350   */\n      swap2\n      pop\n        /* \"#utility.yul\":10120:10361   */\n      pop\n        /* \"#utility.yul\":10451:10455   */\n      0x40\n        /* \"#utility.yul\":10444:10449   */\n      dup4\n        /* \"#utility.yul\":10440:10456   */\n      add\n        /* \"#utility.yul\":10434:10457   */\n      mload\n        /* \"#utility.yul\":10504:10507   */\n      dup5\n        /* \"#utility.yul\":10498:10502   */\n      dup3\n        /* \"#utility.yul\":10494:10508   */\n      sub\n        /* \"#utility.yul\":10487:10491   */\n      0x40\n        /* \"#utility.yul\":10482:10485   */\n      dup7\n        /* \"#utility.yul\":10478:10492   */\n      add\n        /* \"#utility.yul\":10471:10509   */\n      mstore\n        /* \"#utility.yul\":10530:10603   */\n      tag_350\n        /* \"#utility.yul\":10598:10602   */\n      dup3\n        /* \"#utility.yul\":10584:10596   */\n      dup3\n        /* \"#utility.yul\":10530:10603   */\n      tag_208\n      jump\t// in\n    tag_350:\n        /* \"#utility.yul\":10522:10603   */\n      swap2\n      pop\n        /* \"#utility.yul\":10371:10614   */\n      pop\n        /* \"#utility.yul\":10631:10635   */\n      dup1\n        /* \"#utility.yul\":10624:10635   */\n      swap2\n      pop\n        /* \"#utility.yul\":9829:10641   */\n      pop\n        /* \"#utility.yul\":9711:10641   */\n      swap3\n      swap2\n      pop\n      pop\n      jump\t// out\n        /* \"#utility.yul\":10647:10911   */\n    tag_210:\n        /* \"#utility.yul\":10770:10780   */\n      0x00\n        /* \"#utility.yul\":10805:10905   */\n      tag_352\n        /* \"#utility.yul\":10901:10904   */\n      dup4\n        /* \"#utility.yul\":10893:10899   */\n      dup4\n        /* \"#utility.yul\":10805:10905   */\n      tag_209\n      jump\t// in\n    tag_352:\n        /* \"#utility.yul\":10791:10905   */\n      swap1\n      pop\n        /* \"#utility.yul\":10647:10911   */\n      swap3\n      swap2\n      pop\n      pop\n      jump\t// out\n        /* \"#utility.yul\":10917:11057   */\n    tag_211:\n        /* \"#utility.yul\":11014:11018   */\n      0x00\n        /* \"#utility.yul\":11046:11050   */\n      0x20\n        /* \"#utility.yul\":11041:11044   */\n      dup3\n        /* \"#utility.yul\":11037:11051   */\n      add\n        /* \"#utility.yul\":11029:11051   */\n      swap1\n      pop\n        /* \"#utility.yul\":10917:11057   */\n      swap2\n      swap1\n      pop\n      jump\t// out\n        /* \"#utility.yul\":11133:12260   */\n    tag_212:\n        /* \"#utility.yul\":11306:11309   */\n      0x00\n        /* \"#utility.yul\":11335:11416   */\n      tag_355\n        /* \"#utility.yul\":11410:11415   */\n      dup3\n        /* \"#utility.yul\":11335:11416   */\n      tag_204\n      jump\t// in\n    tag_355:\n        /* \"#utility.yul\":11432:11545   */\n      tag_356\n        /* \"#utility.yul\":11538:11544   */\n      dup2\n        /* \"#utility.yul\":11533:11536   */\n      dup6\n        /* \"#utility.yul\":11432:11545   */\n      tag_205\n      jump\t// in\n    tag_356:\n        /* \"#utility.yul\":11425:11545   */\n      swap4\n      pop\n        /* \"#utility.yul\":11571:11574   */\n      dup4\n        /* \"#utility.yul\":11616:11620   */\n      0x20\n        /* \"#utility.yul\":11608:11614   */\n      dup3\n        /* \"#utility.yul\":11604:11621   */\n      mul\n        /* \"#utility.yul\":11599:11602   */\n      dup6\n        /* \"#utility.yul\":11595:11622   */\n      add\n        /* \"#utility.yul\":11646:11729   */\n      tag_357\n        /* \"#utility.yul\":11723:11728   */\n      dup6\n        /* \"#utility.yul\":11646:11729   */\n      tag_206\n      jump\t// in\n    tag_357:\n        /* \"#utility.yul\":11752:11759   */\n      dup1\n        /* \"#utility.yul\":11783:11784   */\n      0x00\n        /* \"#utility.yul\":11768:12215   */\n    tag_358:\n        /* \"#utility.yul\":11793:11799   */\n      dup6\n        /* \"#utility.yul\":11790:11791   */\n      dup2\n        /* \"#utility.yul\":11787:11800   */\n      lt\n        /* \"#utility.yul\":11768:12215   */\n      iszero\n      tag_360\n      jumpi\n        /* \"#utility.yul\":11864:11873   */\n      dup5\n        /* \"#utility.yul\":11858:11862   */\n      dup5\n        /* \"#utility.yul\":11854:11874   */\n      sub\n        /* \"#utility.yul\":11849:11852   */\n      dup10\n        /* \"#utility.yul\":11842:11875   */\n      mstore\n        /* \"#utility.yul\":11915:11921   */\n      dup2\n        /* \"#utility.yul\":11909:11922   */\n      mload\n        /* \"#utility.yul\":11943:12061   */\n      tag_361\n        /* \"#utility.yul\":12056:12060   */\n      dup6\n        /* \"#utility.yul\":12041:12054   */\n      dup3\n        /* \"#utility.yul\":11943:12061   */\n      tag_210\n      jump\t// in\n    tag_361:\n        /* \"#utility.yul\":11935:12061   */\n      swap5\n      pop\n        /* \"#utility.yul\":12084:12171   */\n      tag_362\n        /* \"#utility.yul\":12164:12170   */\n      dup4\n        /* \"#utility.yul\":12084:12171   */\n      tag_211\n      jump\t// in\n    tag_362:\n        /* \"#utility.yul\":12074:12171   */\n      swap3\n      pop\n        /* \"#utility.yul\":12200:12204   */\n      0x20\n        /* \"#utility.yul\":12195:12198   */\n      dup11\n        /* \"#utility.yul\":12191:12205   */\n      add\n        /* \"#utility.yul\":12184:12205   */\n      swap10\n      pop\n        /* \"#utility.yul\":11828:12215   */\n      pop\n        /* \"#utility.yul\":11815:11816   */\n      0x01\n        /* \"#utility.yul\":11812:11813   */\n      dup2\n        /* \"#utility.yul\":11808:11817   */\n      add\n        /* \"#utility.yul\":11803:11817   */\n      swap1\n      pop\n        /* \"#utility.yul\":11768:12215   */\n      jump(tag_358)\n    tag_360:\n        /* \"#utility.yul\":11772:11786   */\n      pop\n        /* \"#utility.yul\":12231:12235   */\n      dup3\n        /* \"#utility.yul\":12224:12235   */\n      swap8\n      pop\n        /* \"#utility.yul\":12251:12254   */\n      dup8\n        /* \"#utility.yul\":12244:12254   */\n      swap6\n      pop\n        /* \"#utility.yul\":11311:12260   */\n      pop\n      pop\n      pop\n      pop\n      pop\n        /* \"#utility.yul\":11133:12260   */\n      swap3\n      swap2\n      pop\n      pop\n      jump\t// out\n        /* \"#utility.yul\":12266:12747   */\n    tag_35:\n        /* \"#utility.yul\":12463:12467   */\n      0x00\n        /* \"#utility.yul\":12501:12503   */\n      0x20\n        /* \"#utility.yul\":12490:12499   */\n      dup3\n        /* \"#utility.yul\":12486:12504   */\n      add\n        /* \"#utility.yul\":12478:12504   */\n      swap1\n      pop\n        /* \"#utility.yul\":12550:12559   */\n      dup2\n        /* \"#utility.yul\":12544:12548   */\n      dup2\n        /* \"#utility.yul\":12540:12560   */\n      sub\n        /* \"#utility.yul\":12536:12537   */\n      0x00\n        /* \"#utility.yul\":12525:12534   */\n      dup4\n        /* \"#utility.yul\":12521:12538   */\n      add\n        /* \"#utility.yul\":12514:12561   */\n      mstore\n        /* \"#utility.yul\":12578:12740   */\n      tag_364\n        /* \"#utility.yul\":12735:12739   */\n      dup2\n        /* \"#utility.yul\":12726:12732   */\n      dup5\n        /* \"#utility.yul\":12578:12740   */\n      tag_212\n      jump\t// in\n    tag_364:\n        /* \"#utility.yul\":12570:12740   */\n      swap1\n      pop\n        /* \"#utility.yul\":12266:12747   */\n      swap3\n      swap2\n      pop\n      pop\n      jump\t// out\n        /* \"#utility.yul\":12753:12887   */\n    tag_213:\n        /* \"#utility.yul\":12840:12846   */\n      0x00\n        /* \"#utility.yul\":12874:12879   */\n      dup2\n        /* \"#utility.yul\":12868:12880   */\n      mload\n        /* \"#utility.yul\":12858:12880   */\n      swap1\n      pop\n        /* \"#utility.yul\":12753:12887   */\n      swap2\n      swap1\n      pop\n      jump\t// out\n        /* \"#utility.yul\":12893:13097   */\n    tag_214:\n        /* \"#utility.yul\":13012:13023   */\n      0x00\n        /* \"#utility.yul\":13046:13052   */\n      dup3\n        /* \"#utility.yul\":13041:13044   */\n      dup3\n        /* \"#utility.yul\":13034:13053   */\n      mstore\n        /* \"#utility.yul\":13086:13090   */\n      0x20\n        /* \"#utility.yul\":13081:13084   */\n      dup3\n        /* \"#utility.yul\":13077:13091   */\n      add\n        /* \"#utility.yul\":13062:13091   */\n      swap1\n      pop\n        /* \"#utility.yul\":12893:13097   */\n      swap3\n      swap2\n      pop\n      pop\n      jump\t// out\n        /* \"#utility.yul\":13103:13255   */\n    tag_215:\n        /* \"#utility.yul\":13190:13194   */\n      0x00\n        /* \"#utility.yul\":13213:13216   */\n      dup2\n        /* \"#utility.yul\":13205:13216   */\n      swap1\n      pop\n        /* \"#utility.yul\":13243:13247   */\n      0x20\n        /* \"#utility.yul\":13238:13241   */\n      dup3\n        /* \"#utility.yul\":13234:13248   */\n      add\n        /* \"#utility.yul\":13226:13248   */\n      swap1\n      pop\n        /* \"#utility.yul\":13103:13255   */\n      swap2\n      swap1\n      pop\n      jump\t// out\n        /* \"#utility.yul\":13261:13369   */\n    tag_216:\n        /* \"#utility.yul\":13338:13362   */\n      tag_369\n        /* \"#utility.yul\":13356:13361   */\n      dup2\n        /* \"#utility.yul\":13338:13362   */\n      tag_202\n      jump\t// in\n    tag_369:\n        /* \"#utility.yul\":13333:13336   */\n      dup3\n        /* \"#utility.yul\":13326:13363   */\n      mstore\n        /* \"#utility.yul\":13261:13369   */\n      pop\n      pop\n      jump\t// out\n        /* \"#utility.yul\":13425:14010   */\n    tag_217:\n        /* \"#utility.yul\":13524:13527   */\n      0x00\n        /* \"#utility.yul\":13560:13564   */\n      0x40\n        /* \"#utility.yul\":13555:13558   */\n      dup4\n        /* \"#utility.yul\":13551:13565   */\n      add\n        /* \"#utility.yul\":13647:13651   */\n      0x00\n        /* \"#utility.yul\":13640:13645   */\n      dup4\n        /* \"#utility.yul\":13636:13652   */\n      add\n        /* \"#utility.yul\":13630:13653   */\n      mload\n        /* \"#utility.yul\":13700:13703   */\n      dup5\n        /* \"#utility.yul\":13694:13698   */\n      dup3\n        /* \"#utility.yul\":13690:13704   */\n      sub\n        /* \"#utility.yul\":13683:13687   */\n      0x00\n        /* \"#utility.yul\":13678:13681   */\n      dup7\n        /* \"#utility.yul\":13674:13688   */\n      add\n        /* \"#utility.yul\":13667:13705   */\n      mstore\n        /* \"#utility.yul\":13726:13799   */\n      tag_371\n        /* \"#utility.yul\":13794:13798   */\n      dup3\n        /* \"#utility.yul\":13780:13792   */\n      dup3\n        /* \"#utility.yul\":13726:13799   */\n      tag_208\n      jump\t// in\n    tag_371:\n        /* \"#utility.yul\":13718:13799   */\n      swap2\n      pop\n        /* \"#utility.yul\":13575:13810   */\n      pop\n        /* \"#utility.yul\":13891:13895   */\n      0x20\n        /* \"#utility.yul\":13884:13889   */\n      dup4\n        /* \"#utility.yul\":13880:13896   */\n      add\n        /* \"#utility.yul\":13874:13897   */\n      mload\n        /* \"#utility.yul\":13910:13973   */\n      tag_372\n        /* \"#utility.yul\":13967:13971   */\n      0x20\n        /* \"#utility.yul\":13962:13965   */\n      dup7\n        /* \"#utility.yul\":13958:13972   */\n      add\n        /* \"#utility.yul\":13944:13956   */\n      dup3\n        /* \"#utility.yul\":13910:13973   */\n      tag_216\n      jump\t// in\n    tag_372:\n        /* \"#utility.yul\":13820:13983   */\n      pop\n        /* \"#utility.yul\":14000:14004   */\n      dup1\n        /* \"#utility.yul\":13993:14004   */\n      swap2\n      pop\n        /* \"#utility.yul\":13529:14010   */\n      pop\n        /* \"#utility.yul\":13425:14010   */\n      swap3\n      swap2\n      pop\n      pop\n      jump\t// out\n        /* \"#utility.yul\":14016:14252   */\n    tag_218:\n        /* \"#utility.yul\":14125:14135   */\n      0x00\n        /* \"#utility.yul\":14160:14246   */\n      tag_374\n        /* \"#utility.yul\":14242:14245   */\n      dup4\n        /* \"#utility.yul\":14234:14240   */\n      dup4\n        /* \"#utility.yul\":14160:14246   */\n      tag_217\n      jump\t// in\n    tag_374:\n        /* \"#utility.yul\":14146:14246   */\n      swap1\n      pop\n        /* \"#utility.yul\":14016:14252   */\n      swap3\n      swap2\n      pop\n      pop\n      jump\t// out\n        /* \"#utility.yul\":14258:14391   */\n    tag_219:\n        /* \"#utility.yul\":14348:14352   */\n      0x00\n        /* \"#utility.yul\":14380:14384   */\n      0x20\n        /* \"#utility.yul\":14375:14378   */\n      dup3\n        /* \"#utility.yul\":14371:14385   */\n      add\n        /* \"#utility.yul\":14363:14385   */\n      swap1\n      pop\n        /* \"#utility.yul\":14258:14391   */\n      swap2\n      swap1\n      pop\n      jump\t// out\n        /* \"#utility.yul\":14451:15522   */\n    tag_220:\n        /* \"#utility.yul\":14610:14613   */\n      0x00\n        /* \"#utility.yul\":14639:14713   */\n      tag_377\n        /* \"#utility.yul\":14707:14712   */\n      dup3\n        /* \"#utility.yul\":14639:14713   */\n      tag_213\n      jump\t// in\n    tag_377:\n        /* \"#utility.yul\":14729:14835   */\n      tag_378\n        /* \"#utility.yul\":14828:14834   */\n      dup2\n        /* \"#utility.yul\":14823:14826   */\n      dup6\n        /* \"#utility.yul\":14729:14835   */\n      tag_214\n      jump\t// in\n    tag_378:\n        /* \"#utility.yul\":14722:14835   */\n      swap4\n      pop\n        /* \"#utility.yul\":14861:14864   */\n      dup4\n        /* \"#utility.yul\":14906:14910   */\n      0x20\n        /* \"#utility.yul\":14898:14904   */\n      dup3\n        /* \"#utility.yul\":14894:14911   */\n      mul\n        /* \"#utility.yul\":14889:14892   */\n      dup6\n        /* \"#utility.yul\":14885:14912   */\n      add\n        /* \"#utility.yul\":14936:15012   */\n      tag_379\n        /* \"#utility.yul\":15006:15011   */\n      dup6\n        /* \"#utility.yul\":14936:15012   */\n      tag_215\n      jump\t// in\n    tag_379:\n        /* \"#utility.yul\":15035:15042   */\n      dup1\n        /* \"#utility.yul\":15066:15067   */\n      0x00\n        /* \"#utility.yul\":15051:15477   */\n    tag_380:\n        /* \"#utility.yul\":15076:15082   */\n      dup6\n        /* \"#utility.yul\":15073:15074   */\n      dup2\n        /* \"#utility.yul\":15070:15083   */\n      lt\n        /* \"#utility.yul\":15051:15477   */\n      iszero\n      tag_382\n      jumpi\n        /* \"#utility.yul\":15147:15156   */\n      dup5\n        /* \"#utility.yul\":15141:15145   */\n      dup5\n        /* \"#utility.yul\":15137:15157   */\n      sub\n        /* \"#utility.yul\":15132:15135   */\n      dup10\n        /* \"#utility.yul\":15125:15158   */\n      mstore\n        /* \"#utility.yul\":15198:15204   */\n      dup2\n        /* \"#utility.yul\":15192:15205   */\n      mload\n        /* \"#utility.yul\":15226:15330   */\n      tag_383\n        /* \"#utility.yul\":15325:15329   */\n      dup6\n        /* \"#utility.yul\":15310:15323   */\n      dup3\n        /* \"#utility.yul\":15226:15330   */\n      tag_218\n      jump\t// in\n    tag_383:\n        /* \"#utility.yul\":15218:15330   */\n      swap5\n      pop\n        /* \"#utility.yul\":15353:15433   */\n      tag_384\n        /* \"#utility.yul\":15426:15432   */\n      dup4\n        /* \"#utility.yul\":15353:15433   */\n      tag_219\n      jump\t// in\n    tag_384:\n        /* \"#utility.yul\":15343:15433   */\n      swap3\n      pop\n        /* \"#utility.yul\":15462:15466   */\n      0x20\n        /* \"#utility.yul\":15457:15460   */\n      dup11\n        /* \"#utility.yul\":15453:15467   */\n      add\n        /* \"#utility.yul\":15446:15467   */\n      swap10\n      pop\n        /* \"#utility.yul\":15111:15477   */\n      pop\n        /* \"#utility.yul\":15098:15099   */\n      0x01\n        /* \"#utility.yul\":15095:15096   */\n      dup2\n        /* \"#utility.yul\":15091:15100   */\n      add\n        /* \"#utility.yul\":15086:15100   */\n      swap1\n      pop\n        /* \"#utility.yul\":15051:15477   */\n      jump(tag_380)\n    tag_382:\n        /* \"#utility.yul\":15055:15069   */\n      pop\n        /* \"#utility.yul\":15493:15497   */\n      dup3\n        /* \"#utility.yul\":15486:15497   */\n      swap8\n      pop\n        /* \"#utility.yul\":15513:15516   */\n      dup8\n        /* \"#utility.yul\":15506:15516   */\n      swap6\n      pop\n        /* \"#utility.yul\":14615:15522   */\n      pop\n      pop\n      pop\n      pop\n      pop\n        /* \"#utility.yul\":14451:15522   */\n      swap3\n      swap2\n      pop\n      pop\n      jump\t// out\n        /* \"#utility.yul\":15528:15981   */\n    tag_40:\n        /* \"#utility.yul\":15711:15715   */\n      0x00\n        /* \"#utility.yul\":15749:15751   */\n      0x20\n        /* \"#utility.yul\":15738:15747   */\n      dup3\n        /* \"#utility.yul\":15734:15752   */\n      add\n        /* \"#utility.yul\":15726:15752   */\n      swap1\n      pop\n        /* \"#utility.yul\":15798:15807   */\n      dup2\n        /* \"#utility.yul\":15792:15796   */\n      dup2\n        /* \"#utility.yul\":15788:15808   */\n      sub\n        /* \"#utility.yul\":15784:15785   */\n      0x00\n        /* \"#utility.yul\":15773:15782   */\n      dup4\n        /* \"#utility.yul\":15769:15786   */\n      add\n        /* \"#utility.yul\":15762:15809   */\n      mstore\n        /* \"#utility.yul\":15826:15974   */\n      tag_386\n        /* \"#utility.yul\":15969:15973   */\n      dup2\n        /* \"#utility.yul\":15960:15966   */\n      dup5\n        /* \"#utility.yul\":15826:15974   */\n      tag_220\n      jump\t// in\n    tag_386:\n        /* \"#utility.yul\":15818:15974   */\n      swap1\n      pop\n        /* \"#utility.yul\":15528:15981   */\n      swap3\n      swap2\n      pop\n      pop\n      jump\t// out\n        /* \"#utility.yul\":15987:16109   */\n    tag_221:\n        /* \"#utility.yul\":16060:16084   */\n      tag_388\n        /* \"#utility.yul\":16078:16083   */\n      dup2\n        /* \"#utility.yul\":16060:16084   */\n      tag_202\n      jump\t// in\n    tag_388:\n        /* \"#utility.yul\":16053:16058   */\n      dup2\n        /* \"#utility.yul\":16050:16085   */\n      eq\n        /* \"#utility.yul\":16040:16103   */\n      tag_389\n      jumpi\n        /* \"#utility.yul\":16099:16100   */\n      0x00\n        /* \"#utility.yul\":16096:16097   */\n      0x00\n        /* \"#utility.yul\":16089:16101   */\n      revert\n        /* \"#utility.yul\":16040:16103   */\n    tag_389:\n        /* \"#utility.yul\":15987:16109   */\n      pop\n      jump\t// out\n        /* \"#utility.yul\":16115:16254   */\n    tag_222:\n        /* \"#utility.yul\":16161:16166   */\n      0x00\n        /* \"#utility.yul\":16199:16205   */\n      dup2\n        /* \"#utility.yul\":16186:16206   */\n      calldataload\n        /* \"#utility.yul\":16177:16206   */\n      swap1\n      pop\n        /* \"#utility.yul\":16215:16248   */\n      tag_391\n        /* \"#utility.yul\":16242:16247   */\n      dup2\n        /* \"#utility.yul\":16215:16248   */\n      tag_221\n      jump\t// in\n    tag_391:\n        /* \"#utility.yul\":16115:16254   */\n      swap3\n      swap2\n      pop\n      pop\n      jump\t// out\n        /* \"#utility.yul\":16260:18217   */\n    tag_43:\n        /* \"#utility.yul\":16414:16420   */\n      0x00\n        /* \"#utility.yul\":16422:16428   */\n      0x00\n        /* \"#utility.yul\":16430:16436   */\n      0x00\n        /* \"#utility.yul\":16438:16444   */\n      0x00\n        /* \"#utility.yul\":16446:16452   */\n      0x00\n        /* \"#utility.yul\":16454:16460   */\n      0x00\n        /* \"#utility.yul\":16503:16506   */\n      0xc0\n        /* \"#utility.yul\":16491:16500   */\n      dup8\n        /* \"#utility.yul\":16482:16489   */\n      dup10\n        /* \"#utility.yul\":16478:16501   */\n      sub\n        /* \"#utility.yul\":16474:16507   */\n      slt\n        /* \"#utility.yul\":16471:16591   */\n      iszero\n      tag_393\n      jumpi\n        /* \"#utility.yul\":16510:16589   */\n      tag_394\n      tag_180\n      jump\t// in\n    tag_394:\n        /* \"#utility.yul\":16471:16591   */\n    tag_393:\n        /* \"#utility.yul\":16658:16659   */\n      0x00\n        /* \"#utility.yul\":16647:16656   */\n      dup8\n        /* \"#utility.yul\":16643:16660   */\n      add\n        /* \"#utility.yul\":16630:16661   */\n      calldataload\n        /* \"#utility.yul\":16688:16706   */\n      0xffffffffffffffff\n        /* \"#utility.yul\":16680:16686   */\n      dup2\n        /* \"#utility.yul\":16677:16707   */\n      gt\n        /* \"#utility.yul\":16674:16791   */\n      iszero\n      tag_395\n      jumpi\n        /* \"#utility.yul\":16710:16789   */\n      tag_396\n      tag_181\n      jump\t// in\n    tag_396:\n        /* \"#utility.yul\":16674:16791   */\n    tag_395:\n        /* \"#utility.yul\":16815:16878   */\n      tag_397\n        /* \"#utility.yul\":16870:16877   */\n      dup10\n        /* \"#utility.yul\":16861:16867   */\n      dup3\n        /* \"#utility.yul\":16850:16859   */\n      dup11\n        /* \"#utility.yul\":16846:16868   */\n      add\n        /* \"#utility.yul\":16815:16878   */\n      tag_191\n      jump\t// in\n    tag_397:\n        /* \"#utility.yul\":16805:16878   */\n      swap7\n      pop\n        /* \"#utility.yul\":16601:16888   */\n      pop\n        /* \"#utility.yul\":16927:16929   */\n      0x20\n        /* \"#utility.yul\":16953:17006   */\n      tag_398\n        /* \"#utility.yul\":16998:17005   */\n      dup10\n        /* \"#utility.yul\":16989:16995   */\n      dup3\n        /* \"#utility.yul\":16978:16987   */\n      dup11\n        /* \"#utility.yul\":16974:16996   */\n      add\n        /* \"#utility.yul\":16953:17006   */\n      tag_222\n      jump\t// in\n    tag_398:\n        /* \"#utility.yul\":16943:17006   */\n      swap6\n      pop\n        /* \"#utility.yul\":16898:17016   */\n      pop\n        /* \"#utility.yul\":17083:17085   */\n      0x40\n        /* \"#utility.yul\":17072:17081   */\n      dup8\n        /* \"#utility.yul\":17068:17086   */\n      add\n        /* \"#utility.yul\":17055:17087   */\n      calldataload\n        /* \"#utility.yul\":17114:17132   */\n      0xffffffffffffffff\n        /* \"#utility.yul\":17106:17112   */\n      dup2\n        /* \"#utility.yul\":17103:17133   */\n      gt\n        /* \"#utility.yul\":17100:17217   */\n      iszero\n      tag_399\n      jumpi\n        /* \"#utility.yul\":17136:17215   */\n      tag_400\n      tag_181\n      jump\t// in\n    tag_400:\n        /* \"#utility.yul\":17100:17217   */\n    tag_399:\n        /* \"#utility.yul\":17241:17304   */\n      tag_401\n        /* \"#utility.yul\":17296:17303   */\n      dup10\n        /* \"#utility.yul\":17287:17293   */\n      dup3\n        /* \"#utility.yul\":17276:17285   */\n      dup11\n        /* \"#utility.yul\":17272:17294   */\n      add\n        /* \"#utility.yul\":17241:17304   */\n      tag_191\n      jump\t// in\n    tag_401:\n        /* \"#utility.yul\":17231:17304   */\n      swap5\n      pop\n        /* \"#utility.yul\":17026:17314   */\n      pop\n        /* \"#utility.yul\":17381:17383   */\n      0x60\n        /* \"#utility.yul\":17370:17379   */\n      dup8\n        /* \"#utility.yul\":17366:17384   */\n      add\n        /* \"#utility.yul\":17353:17385   */\n      calldataload\n        /* \"#utility.yul\":17412:17430   */\n      0xffffffffffffffff\n        /* \"#utility.yul\":17404:17410   */\n      dup2\n        /* \"#utility.yul\":17401:17431   */\n      gt\n        /* \"#utility.yul\":17398:17515   */\n      iszero\n      tag_402\n      jumpi\n        /* \"#utility.yul\":17434:17513   */\n      tag_403\n      tag_181\n      jump\t// in\n    tag_403:\n        /* \"#utility.yul\":17398:17515   */\n    tag_402:\n        /* \"#utility.yul\":17539:17602   */\n      tag_404\n        /* \"#utility.yul\":17594:17601   */\n      dup10\n        /* \"#utility.yul\":17585:17591   */\n      dup3\n        /* \"#utility.yul\":17574:17583   */\n      dup11\n        /* \"#utility.yul\":17570:17592   */\n      add\n        /* \"#utility.yul\":17539:17602   */\n      tag_191\n      jump\t// in\n    tag_404:\n        /* \"#utility.yul\":17529:17602   */\n      swap4\n      pop\n        /* \"#utility.yul\":17324:17612   */\n      pop\n        /* \"#utility.yul\":17679:17682   */\n      0x80\n        /* \"#utility.yul\":17668:17677   */\n      dup8\n        /* \"#utility.yul\":17664:17683   */\n      add\n        /* \"#utility.yul\":17651:17684   */\n      calldataload\n        /* \"#utility.yul\":17711:17729   */\n      0xffffffffffffffff\n        /* \"#utility.yul\":17703:17709   */\n      dup2\n        /* \"#utility.yul\":17700:17730   */\n      gt\n        /* \"#utility.yul\":17697:17814   */\n      iszero\n      tag_405\n      jumpi\n        /* \"#utility.yul\":17733:17812   */\n      tag_406\n      tag_181\n      jump\t// in\n    tag_406:\n        /* \"#utility.yul\":17697:17814   */\n    tag_405:\n        /* \"#utility.yul\":17838:17901   */\n      tag_407\n        /* \"#utility.yul\":17893:17900   */\n      dup10\n        /* \"#utility.yul\":17884:17890   */\n      dup3\n        /* \"#utility.yul\":17873:17882   */\n      dup11\n        /* \"#utility.yul\":17869:17891   */\n      add\n        /* \"#utility.yul\":17838:17901   */\n      tag_191\n      jump\t// in\n    tag_407:\n        /* \"#utility.yul\":17828:17901   */\n      swap3\n      pop\n        /* \"#utility.yul\":17622:17911   */\n      pop\n        /* \"#utility.yul\":17978:17981   */\n      0xa0\n        /* \"#utility.yul\":17967:17976   */\n      dup8\n        /* \"#utility.yul\":17963:17982   */\n      add\n        /* \"#utility.yul\":17950:17983   */\n      calldataload\n        /* \"#utility.yul\":18010:18028   */\n      0xffffffffffffffff\n        /* \"#utility.yul\":18002:18008   */\n      dup2\n        /* \"#utility.yul\":17999:18029   */\n      gt\n        /* \"#utility.yul\":17996:18113   */\n      iszero\n      tag_408\n      jumpi\n        /* \"#utility.yul\":18032:18111   */\n      tag_409\n      tag_181\n      jump\t// in\n    tag_409:\n        /* \"#utility.yul\":17996:18113   */\n    tag_408:\n        /* \"#utility.yul\":18137:18200   */\n      tag_410\n        /* \"#utility.yul\":18192:18199   */\n      dup10\n        /* \"#utility.yul\":18183:18189   */\n      dup3\n        /* \"#utility.yul\":18172:18181   */\n      dup11\n        /* \"#utility.yul\":18168:18190   */\n      add\n        /* \"#utility.yul\":18137:18200   */\n      tag_191\n      jump\t// in\n    tag_410:\n        /* \"#utility.yul\":18127:18200   */\n      swap2\n      pop\n        /* \"#utility.yul\":17921:18210   */\n      pop\n        /* \"#utility.yul\":16260:18217   */\n      swap3\n      swap6\n      pop\n      swap3\n      swap6\n      pop\n      swap3\n      swap6\n      jump\t// out\n        /* \"#utility.yul\":18273:18868   */\n    tag_223:\n        /* \"#utility.yul\":18382:18385   */\n      0x00\n        /* \"#utility.yul\":18418:18422   */\n      0x40\n        /* \"#utility.yul\":18413:18416   */\n      dup4\n        /* \"#utility.yul\":18409:18423   */\n      add\n        /* \"#utility.yul\":18505:18509   */\n      0x00\n        /* \"#utility.yul\":18498:18503   */\n      dup4\n        /* \"#utility.yul\":18494:18510   */\n      add\n        /* \"#utility.yul\":18488:18511   */\n      mload\n        /* \"#utility.yul\":18558:18561   */\n      dup5\n        /* \"#utility.yul\":18552:18556   */\n      dup3\n        /* \"#utility.yul\":18548:18562   */\n      sub\n        /* \"#utility.yul\":18541:18545   */\n      0x00\n        /* \"#utility.yul\":18536:18539   */\n      dup7\n        /* \"#utility.yul\":18532:18546   */\n      add\n        /* \"#utility.yul\":18525:18563   */\n      mstore\n        /* \"#utility.yul\":18584:18657   */\n      tag_412\n        /* \"#utility.yul\":18652:18656   */\n      dup3\n        /* \"#utility.yul\":18638:18650   */\n      dup3\n        /* \"#utility.yul\":18584:18657   */\n      tag_208\n      jump\t// in\n    tag_412:\n        /* \"#utility.yul\":18576:18657   */\n      swap2\n      pop\n        /* \"#utility.yul\":18433:18668   */\n      pop\n        /* \"#utility.yul\":18749:18753   */\n      0x20\n        /* \"#utility.yul\":18742:18747   */\n      dup4\n        /* \"#utility.yul\":18738:18754   */\n      add\n        /* \"#utility.yul\":18732:18755   */\n      mload\n        /* \"#utility.yul\":18768:18831   */\n      tag_413\n        /* \"#utility.yul\":18825:18829   */\n      0x20\n        /* \"#utility.yul\":18820:18823   */\n      dup7\n        /* \"#utility.yul\":18816:18830   */\n      add\n        /* \"#utility.yul\":18802:18814   */\n      dup3\n        /* \"#utility.yul\":18768:18831   */\n      tag_216\n      jump\t// in\n    tag_413:\n        /* \"#utility.yul\":18678:18841   */\n      pop\n        /* \"#utility.yul\":18858:18862   */\n      dup1\n        /* \"#utility.yul\":18851:18862   */\n      swap2\n      pop\n        /* \"#utility.yul\":18387:18868   */\n      pop\n        /* \"#utility.yul\":18273:18868   */\n      swap3\n      swap2\n      pop\n      pop\n      jump\t// out\n        /* \"#utility.yul\":18874:19227   */\n    tag_49:\n        /* \"#utility.yul\":19007:19011   */\n      0x00\n        /* \"#utility.yul\":19045:19047   */\n      0x20\n        /* \"#utility.yul\":19034:19043   */\n      dup3\n        /* \"#utility.yul\":19030:19048   */\n      add\n        /* \"#utility.yul\":19022:19048   */\n      swap1\n      pop\n        /* \"#utility.yul\":19094:19103   */\n      dup2\n        /* \"#utility.yul\":19088:19092   */\n      dup2\n        /* \"#utility.yul\":19084:19104   */\n      sub\n        /* \"#utility.yul\":19080:19081   */\n      0x00\n        /* \"#utility.yul\":19069:19078   */\n      dup4\n        /* \"#utility.yul\":19065:19082   */\n      add\n        /* \"#utility.yul\":19058:19105   */\n      mstore\n        /* \"#utility.yul\":19122:19220   */\n      tag_415\n        /* \"#utility.yul\":19215:19219   */\n      dup2\n        /* \"#utility.yul\":19206:19212   */\n      dup5\n        /* \"#utility.yul\":19122:19220   */\n      tag_223\n      jump\t// in\n    tag_415:\n        /* \"#utility.yul\":19114:19220   */\n      swap1\n      pop\n        /* \"#utility.yul\":18874:19227   */\n      swap3\n      swap2\n      pop\n      pop\n      jump\t// out\n        /* \"#utility.yul\":19233:19351   */\n    tag_224:\n        /* \"#utility.yul\":19320:19344   */\n      tag_417\n        /* \"#utility.yul\":19338:19343   */\n      dup2\n        /* \"#utility.yul\":19320:19344   */\n      tag_196\n      jump\t// in\n    tag_417:\n        /* \"#utility.yul\":19315:19318   */\n      dup3\n        /* \"#utility.yul\":19308:19345   */\n      mstore\n        /* \"#utility.yul\":19233:19351   */\n      pop\n      pop\n      jump\t// out\n        /* \"#utility.yul\":19357:20183   */\n    tag_54:\n        /* \"#utility.yul\":19594:19598   */\n      0x00\n        /* \"#utility.yul\":19632:19635   */\n      0x80\n        /* \"#utility.yul\":19621:19630   */\n      dup3\n        /* \"#utility.yul\":19617:19636   */\n      add\n        /* \"#utility.yul\":19609:19636   */\n      swap1\n      pop\n        /* \"#utility.yul\":19682:19691   */\n      dup2\n        /* \"#utility.yul\":19676:19680   */\n      dup2\n        /* \"#utility.yul\":19672:19692   */\n      sub\n        /* \"#utility.yul\":19668:19669   */\n      0x00\n        /* \"#utility.yul\":19657:19666   */\n      dup4\n        /* \"#utility.yul\":19653:19670   */\n      add\n        /* \"#utility.yul\":19646:19693   */\n      mstore\n        /* \"#utility.yul\":19710:19788   */\n      tag_419\n        /* \"#utility.yul\":19783:19787   */\n      dup2\n        /* \"#utility.yul\":19774:19780   */\n      dup8\n        /* \"#utility.yul\":19710:19788   */\n      tag_195\n      jump\t// in\n    tag_419:\n        /* \"#utility.yul\":19702:19788   */\n      swap1\n      pop\n        /* \"#utility.yul\":19835:19844   */\n      dup2\n        /* \"#utility.yul\":19829:19833   */\n      dup2\n        /* \"#utility.yul\":19825:19845   */\n      sub\n        /* \"#utility.yul\":19820:19822   */\n      0x20\n        /* \"#utility.yul\":19809:19818   */\n      dup4\n        /* \"#utility.yul\":19805:19823   */\n      add\n        /* \"#utility.yul\":19798:19846   */\n      mstore\n        /* \"#utility.yul\":19863:19941   */\n      tag_420\n        /* \"#utility.yul\":19936:19940   */\n      dup2\n        /* \"#utility.yul\":19927:19933   */\n      dup7\n        /* \"#utility.yul\":19863:19941   */\n      tag_195\n      jump\t// in\n    tag_420:\n        /* \"#utility.yul\":19855:19941   */\n      swap1\n      pop\n        /* \"#utility.yul\":19951:20023   */\n      tag_421\n        /* \"#utility.yul\":20019:20021   */\n      0x40\n        /* \"#utility.yul\":20008:20017   */\n      dup4\n        /* \"#utility.yul\":20004:20022   */\n      add\n        /* \"#utility.yul\":19995:20001   */\n      dup6\n        /* \"#utility.yul\":19951:20023   */\n      tag_224\n      jump\t// in\n    tag_421:\n        /* \"#utility.yul\":20070:20079   */\n      dup2\n        /* \"#utility.yul\":20064:20068   */\n      dup2\n        /* \"#utility.yul\":20060:20080   */\n      sub\n        /* \"#utility.yul\":20055:20057   */\n      0x60\n        /* \"#utility.yul\":20044:20053   */\n      dup4\n        /* \"#utility.yul\":20040:20058   */\n      add\n        /* \"#utility.yul\":20033:20081   */\n      mstore\n        /* \"#utility.yul\":20098:20176   */\n      tag_422\n        /* \"#utility.yul\":20171:20175   */\n      dup2\n        /* \"#utility.yul\":20162:20168   */\n      dup5\n        /* \"#utility.yul\":20098:20176   */\n      tag_195\n      jump\t// in\n    tag_422:\n        /* \"#utility.yul\":20090:20176   */\n      swap1\n      pop\n        /* \"#utility.yul\":19357:20183   */\n      swap6\n      swap5\n      pop\n      pop\n      pop\n      pop\n      pop\n      jump\t// out\n        /* \"#utility.yul\":20189:21168   */\n    tag_57:\n        /* \"#utility.yul\":20286:20292   */\n      0x00\n        /* \"#utility.yul\":20294:20300   */\n      0x00\n        /* \"#utility.yul\":20302:20308   */\n      0x00\n        /* \"#utility.yul\":20351:20353   */\n      0x60\n        /* \"#utility.yul\":20339:20348   */\n      dup5\n        /* \"#utility.yul\":20330:20337   */\n      dup7\n        /* \"#utility.yul\":20326:20349   */\n      sub\n        /* \"#utility.yul\":20322:20354   */\n      slt\n        /* \"#utility.yul\":20319:20438   */\n      iszero\n      tag_424\n      jumpi\n        /* \"#utility.yul\":20357:20436   */\n      tag_425\n      tag_180\n      jump\t// in\n    tag_425:\n        /* \"#utility.yul\":20319:20438   */\n    tag_424:\n        /* \"#utility.yul\":20505:20506   */\n      0x00\n        /* \"#utility.yul\":20494:20503   */\n      dup5\n        /* \"#utility.yul\":20490:20507   */\n      add\n        /* \"#utility.yul\":20477:20508   */\n      calldataload\n        /* \"#utility.yul\":20535:20553   */\n      0xffffffffffffffff\n        /* \"#utility.yul\":20527:20533   */\n      dup2\n        /* \"#utility.yul\":20524:20554   */\n      gt\n        /* \"#utility.yul\":20521:20638   */\n      iszero\n      tag_426\n      jumpi\n        /* \"#utility.yul\":20557:20636   */\n      tag_427\n      tag_181\n      jump\t// in\n    tag_427:\n        /* \"#utility.yul\":20521:20638   */\n    tag_426:\n        /* \"#utility.yul\":20662:20725   */\n      tag_428\n        /* \"#utility.yul\":20717:20724   */\n      dup7\n        /* \"#utility.yul\":20708:20714   */\n      dup3\n        /* \"#utility.yul\":20697:20706   */\n      dup8\n        /* \"#utility.yul\":20693:20715   */\n      add\n        /* \"#utility.yul\":20662:20725   */\n      tag_191\n      jump\t// in\n    tag_428:\n        /* \"#utility.yul\":20652:20725   */\n      swap4\n      pop\n        /* \"#utility.yul\":20448:20735   */\n      pop\n        /* \"#utility.yul\":20802:20804   */\n      0x20\n        /* \"#utility.yul\":20791:20800   */\n      dup5\n        /* \"#utility.yul\":20787:20805   */\n      add\n        /* \"#utility.yul\":20774:20806   */\n      calldataload\n        /* \"#utility.yul\":20833:20851   */\n      0xffffffffffffffff\n        /* \"#utility.yul\":20825:20831   */\n      dup2\n        /* \"#utility.yul\":20822:20852   */\n      gt\n        /* \"#utility.yul\":20819:20936   */\n      iszero\n      tag_429\n      jumpi\n        /* \"#utility.yul\":20855:20934   */\n      tag_430\n      tag_181\n      jump\t// in\n    tag_430:\n        /* \"#utility.yul\":20819:20936   */\n    tag_429:\n        /* \"#utility.yul\":20960:21023   */\n      tag_431\n        /* \"#utility.yul\":21015:21022   */\n      dup7\n        /* \"#utility.yul\":21006:21012   */\n      dup3\n        /* \"#utility.yul\":20995:21004   */\n      dup8\n        /* \"#utility.yul\":20991:21013   */\n      add\n        /* \"#utility.yul\":20960:21023   */\n      tag_191\n      jump\t// in\n    tag_431:\n        /* \"#utility.yul\":20950:21023   */\n      swap3\n      pop\n        /* \"#utility.yul\":20745:21033   */\n      pop\n        /* \"#utility.yul\":21072:21074   */\n      0x40\n        /* \"#utility.yul\":21098:21151   */\n      tag_432\n        /* \"#utility.yul\":21143:21150   */\n      dup7\n        /* \"#utility.yul\":21134:21140   */\n      dup3\n        /* \"#utility.yul\":21123:21132   */\n      dup8\n        /* \"#utility.yul\":21119:21141   */\n      add\n        /* \"#utility.yul\":21098:21151   */\n      tag_201\n      jump\t// in\n    tag_432:\n        /* \"#utility.yul\":21088:21151   */\n      swap2\n      pop\n        /* \"#utility.yul\":21043:21161   */\n      pop\n        /* \"#utility.yul\":20189:21168   */\n      swap3\n      pop\n      swap3\n      pop\n      swap3\n      jump\t// out\n        /* \"#utility.yul\":21174:21889   */\n    tag_60:\n        /* \"#utility.yul\":21383:21387   */\n      0x00\n        /* \"#utility.yul\":21421:21423   */\n      0x60\n        /* \"#utility.yul\":21410:21419   */\n      dup3\n        /* \"#utility.yul\":21406:21424   */\n      add\n        /* \"#utility.yul\":21398:21424   */\n      swap1\n      pop\n        /* \"#utility.yul\":21470:21479   */\n      dup2\n        /* \"#utility.yul\":21464:21468   */\n      dup2\n        /* \"#utility.yul\":21460:21480   */\n      sub\n        /* \"#utility.yul\":21456:21457   */\n      0x00\n        /* \"#utility.yul\":21445:21454   */\n      dup4\n        /* \"#utility.yul\":21441:21458   */\n      add\n        /* \"#utility.yul\":21434:21481   */\n      mstore\n        /* \"#utility.yul\":21498:21576   */\n      tag_434\n        /* \"#utility.yul\":21571:21575   */\n      dup2\n        /* \"#utility.yul\":21562:21568   */\n      dup7\n        /* \"#utility.yul\":21498:21576   */\n      tag_195\n      jump\t// in\n    tag_434:\n        /* \"#utility.yul\":21490:21576   */\n      swap1\n      pop\n        /* \"#utility.yul\":21623:21632   */\n      dup2\n        /* \"#utility.yul\":21617:21621   */\n      dup2\n        /* \"#utility.yul\":21613:21633   */\n      sub\n        /* \"#utility.yul\":21608:21610   */\n      0x20\n        /* \"#utility.yul\":21597:21606   */\n      dup4\n        /* \"#utility.yul\":21593:21611   */\n      add\n        /* \"#utility.yul\":21586:21634   */\n      mstore\n        /* \"#utility.yul\":21651:21729   */\n      tag_435\n        /* \"#utility.yul\":21724:21728   */\n      dup2\n        /* \"#utility.yul\":21715:21721   */\n      dup6\n        /* \"#utility.yul\":21651:21729   */\n      tag_195\n      jump\t// in\n    tag_435:\n        /* \"#utility.yul\":21643:21729   */\n      swap1\n      pop\n        /* \"#utility.yul\":21776:21785   */\n      dup2\n        /* \"#utility.yul\":21770:21774   */\n      dup2\n        /* \"#utility.yul\":21766:21786   */\n      sub\n        /* \"#utility.yul\":21761:21763   */\n      0x40\n        /* \"#utility.yul\":21750:21759   */\n      dup4\n        /* \"#utility.yul\":21746:21764   */\n      add\n        /* \"#utility.yul\":21739:21787   */\n      mstore\n        /* \"#utility.yul\":21804:21882   */\n      tag_436\n        /* \"#utility.yul\":21877:21881   */\n      dup2\n        /* \"#utility.yul\":21868:21874   */\n      dup5\n        /* \"#utility.yul\":21804:21882   */\n      tag_195\n      jump\t// in\n    tag_436:\n        /* \"#utility.yul\":21796:21882   */\n      swap1\n      pop\n        /* \"#utility.yul\":21174:21889   */\n      swap5\n      swap4\n      pop\n      pop\n      pop\n      pop\n      jump\t// out\n        /* \"#utility.yul\":21895:22043   */\n    tag_225:\n        /* \"#utility.yul\":21997:22008   */\n      0x00\n        /* \"#utility.yul\":22034:22037   */\n      dup2\n        /* \"#utility.yul\":22019:22037   */\n      swap1\n      pop\n        /* \"#utility.yul\":21895:22043   */\n      swap3\n      swap2\n      pop\n      pop\n      jump\t// out\n        /* \"#utility.yul\":22049:22439   */\n    tag_226:\n        /* \"#utility.yul\":22155:22158   */\n      0x00\n        /* \"#utility.yul\":22183:22222   */\n      tag_439\n        /* \"#utility.yul\":22216:22221   */\n      dup3\n        /* \"#utility.yul\":22183:22222   */\n      tag_192\n      jump\t// in\n    tag_439:\n        /* \"#utility.yul\":22238:22327   */\n      tag_440\n        /* \"#utility.yul\":22320:22326   */\n      dup2\n        /* \"#utility.yul\":22315:22318   */\n      dup6\n        /* \"#utility.yul\":22238:22327   */\n      tag_225\n      jump\t// in\n    tag_440:\n        /* \"#utility.yul\":22231:22327   */\n      swap4\n      pop\n        /* \"#utility.yul\":22336:22401   */\n      tag_441\n        /* \"#utility.yul\":22394:22400   */\n      dup2\n        /* \"#utility.yul\":22389:22392   */\n      dup6\n        /* \"#utility.yul\":22382:22386   */\n      0x20\n        /* \"#utility.yul\":22375:22380   */\n      dup7\n        /* \"#utility.yul\":22371:22387   */\n      add\n        /* \"#utility.yul\":22336:22401   */\n      tag_194\n      jump\t// in\n    tag_441:\n        /* \"#utility.yul\":22426:22432   */\n      dup1\n        /* \"#utility.yul\":22421:22424   */\n      dup5\n        /* \"#utility.yul\":22417:22433   */\n      add\n        /* \"#utility.yul\":22410:22433   */\n      swap2\n      pop\n        /* \"#utility.yul\":22159:22439   */\n      pop\n        /* \"#utility.yul\":22049:22439   */\n      swap3\n      swap2\n      pop\n      pop\n      jump\t// out\n        /* \"#utility.yul\":22445:22720   */\n    tag_67:\n        /* \"#utility.yul\":22577:22580   */\n      0x00\n        /* \"#utility.yul\":22599:22694   */\n      tag_443\n        /* \"#utility.yul\":22690:22693   */\n      dup3\n        /* \"#utility.yul\":22681:22687   */\n      dup5\n        /* \"#utility.yul\":22599:22694   */\n      tag_226\n      jump\t// in\n    tag_443:\n        /* \"#utility.yul\":22592:22694   */\n      swap2\n      pop\n        /* \"#utility.yul\":22711:22714   */\n      dup2\n        /* \"#utility.yul\":22704:22714   */\n      swap1\n      pop\n        /* \"#utility.yul\":22445:22720   */\n      swap3\n      swap2\n      pop\n      pop\n      jump\t// out\n        /* \"#utility.yul\":22726:22906   */\n    tag_227:\n        /* \"#utility.yul\":22774:22851   */\n      0x4e487b7100000000000000000000000000000000000000000000000000000000\n        /* \"#utility.yul\":22771:22772   */\n      0x00\n        /* \"#utility.yul\":22764:22852   */\n      mstore\n        /* \"#utility.yul\":22871:22875   */\n      0x22\n        /* \"#utility.yul\":22868:22869   */\n      0x04\n        /* \"#utility.yul\":22861:22876   */\n      mstore\n        /* \"#utility.yul\":22895:22899   */\n      0x24\n        /* \"#utility.yul\":22892:22893   */\n      0x00\n        /* \"#utility.yul\":22885:22900   */\n      revert\n        /* \"#utility.yul\":22912:23232   */\n    tag_69:\n        /* \"#utility.yul\":22956:22962   */\n      0x00\n        /* \"#utility.yul\":22993:22994   */\n      0x02\n        /* \"#utility.yul\":22987:22991   */\n      dup3\n        /* \"#utility.yul\":22983:22995   */\n      div\n        /* \"#utility.yul\":22973:22995   */\n      swap1\n      pop\n        /* \"#utility.yul\":23040:23041   */\n      0x01\n        /* \"#utility.yul\":23034:23038   */\n      dup3\n        /* \"#utility.yul\":23030:23042   */\n      and\n        /* \"#utility.yul\":23061:23079   */\n      dup1\n        /* \"#utility.yul\":23051:23132   */\n      tag_446\n      jumpi\n        /* \"#utility.yul\":23117:23121   */\n      0x7f\n        /* \"#utility.yul\":23109:23115   */\n      dup3\n        /* \"#utility.yul\":23105:23122   */\n      and\n        /* \"#utility.yul\":23095:23122   */\n      swap2\n      pop\n        /* \"#utility.yul\":23051:23132   */\n    tag_446:\n        /* \"#utility.yul\":23179:23181   */\n      0x20\n        /* \"#utility.yul\":23171:23177   */\n      dup3\n        /* \"#utility.yul\":23168:23182   */\n      lt\n        /* \"#utility.yul\":23148:23166   */\n      dup2\n        /* \"#utility.yul\":23145:23183   */\n      sub\n        /* \"#utility.yul\":23142:23226   */\n      tag_447\n      jumpi\n        /* \"#utility.yul\":23198:23216   */\n      tag_448\n      tag_227\n      jump\t// in\n    tag_448:\n        /* \"#utility.yul\":23142:23226   */\n    tag_447:\n        /* \"#utility.yul\":22963:23232   */\n      pop\n        /* \"#utility.yul\":22912:23232   */\n      swap2\n      swap1\n      pop\n      jump\t// out\n        /* \"#utility.yul\":23238:23379   */\n    tag_228:\n        /* \"#utility.yul\":23287:23291   */\n      0x00\n        /* \"#utility.yul\":23310:23313   */\n      dup2\n        /* \"#utility.yul\":23302:23313   */\n      swap1\n      pop\n        /* \"#utility.yul\":23333:23336   */\n      dup2\n        /* \"#utility.yul\":23330:23331   */\n      0x00\n        /* \"#utility.yul\":23323:23337   */\n      mstore\n        /* \"#utility.yul\":23367:23371   */\n      0x20\n        /* \"#utility.yul\":23364:23365   */\n      0x00\n        /* \"#utility.yul\":23354:23372   */\n      keccak256\n        /* \"#utility.yul\":23346:23372   */\n      swap1\n      pop\n        /* \"#utility.yul\":23238:23379   */\n      swap2\n      swap1\n      pop\n      jump\t// out\n        /* \"#utility.yul\":23385:23478   */\n    tag_229:\n        /* \"#utility.yul\":23422:23428   */\n      0x00\n        /* \"#utility.yul\":23469:23471   */\n      0x20\n        /* \"#utility.yul\":23464:23466   */\n      0x1f\n        /* \"#utility.yul\":23457:23462   */\n      dup4\n        /* \"#utility.yul\":23453:23467   */\n      add\n        /* \"#utility.yul\":23449:23472   */\n      div\n        /* \"#utility.yul\":23439:23472   */\n      swap1\n      pop\n        /* \"#utility.yul\":23385:23478   */\n      swap2\n      swap1\n      pop\n      jump\t// out\n        /* \"#utility.yul\":23484:23591   */\n    tag_230:\n        /* \"#utility.yul\":23528:23536   */\n      0x00\n        /* \"#utility.yul\":23578:23583   */\n      dup3\n        /* \"#utility.yul\":23572:23576   */\n      dup3\n        /* \"#utility.yul\":23568:23584   */\n      shl\n        /* \"#utility.yul\":23547:23584   */\n      swap1\n      pop\n        /* \"#utility.yul\":23484:23591   */\n      swap3\n      swap2\n      pop\n      pop\n      jump\t// out\n        /* \"#utility.yul\":23597:23990   */\n    tag_231:\n        /* \"#utility.yul\":23666:23672   */\n      0x00\n        /* \"#utility.yul\":23716:23717   */\n      0x08\n        /* \"#utility.yul\":23704:23714   */\n      dup4\n        /* \"#utility.yul\":23700:23718   */\n      mul\n        /* \"#utility.yul\":23739:23836   */\n      tag_453\n        /* \"#utility.yul\":23769:23835   */\n      0xffffffffffffffffffffffffffffffffffffffffffffffffffffffffffffffff\n        /* \"#utility.yul\":23758:23767   */\n      dup3\n        /* \"#utility.yul\":23739:23836   */\n      tag_230\n      jump\t// in\n    tag_453:\n        /* \"#utility.yul\":23857:23896   */\n      tag_454\n        /* \"#utility.yul\":23887:23895   */\n      dup7\n        /* \"#utility.yul\":23876:23885   */\n      dup4\n        /* \"#utility.yul\":23857:23896   */\n      tag_230\n      jump\t// in\n    tag_454:\n        /* \"#utility.yul\":23845:23896   */\n      swap6\n      pop\n        /* \"#utility.yul\":23929:23933   */\n      dup1\n        /* \"#utility.yul\":23925:23934   */\n      not\n        /* \"#utility.yul\":23918:23923   */\n      dup5\n        /* \"#utility.yul\":23914:23935   */\n      and\n        /* \"#utility.yul\":23905:23935   */\n      swap4\n      pop\n        /* \"#utility.yul\":23978:23982   */\n      dup1\n        /* \"#utility.yul\":23968:23976   */\n      dup7\n        /* \"#utility.yul\":23964:23983   */\n      and\n        /* \"#utility.yul\":23957:23962   */\n      dup5\n        /* \"#utility.yul\":23954:23984   */\n      or\n        /* \"#utility.yul\":23944:23984   */\n      swap3\n      pop\n        /* \"#utility.yul\":23673:23990   */\n      pop\n      pop\n        /* \"#utility.yul\":23597:23990   */\n      swap4\n      swap3\n      pop\n      pop\n      pop\n      jump\t// out\n        /* \"#utility.yul\":23996:24056   */\n    tag_232:\n        /* \"#utility.yul\":24024:24027   */\n      0x00\n        /* \"#utility.yul\":24045:24050   */\n      dup2\n        /* \"#utility.yul\":24038:24050   */\n      swap1\n      pop\n        /* \"#utility.yul\":23996:24056   */\n      swap2\n      swap1\n      pop\n      jump\t// out\n        /* \"#utility.yul\":24062:24204   */\n    tag_233:\n        /* \"#utility.yul\":24112:24121   */\n      0x00\n        /* \"#utility.yul\":24145:24198   */\n      tag_457\n        /* \"#utility.yul\":24163:24197   */\n      tag_458\n        /* \"#utility.yul\":24172:24196   */\n      tag_459\n        /* \"#utility.yul\":24190:24195   */\n      dup5\n        /* \"#utility.yul\":24172:24196   */\n      tag_199\n      jump\t// in\n    tag_459:\n        /* \"#utility.yul\":24163:24197   */\n      tag_232\n      jump\t// in\n    tag_458:\n        /* \"#utility.yul\":24145:24198   */\n      tag_199\n      jump\t// in\n    tag_457:\n        /* \"#utility.yul\":24132:24198   */\n      swap1\n      pop\n        /* \"#utility.yul\":24062:24204   */\n      swap2\n      swap1\n      pop\n      jump\t// out\n        /* \"#utility.yul\":24210:24285   */\n    tag_234:\n        /* \"#utility.yul\":24253:24256   */\n      0x00\n        /* \"#utility.yul\":24274:24279   */\n      dup2\n        /* \"#utility.yul\":24267:24279   */\n      swap1\n      pop\n        /* \"#utility.yul\":24210:24285   */\n      swap2\n      swap1\n      pop\n      jump\t// out\n        /* \"#utility.yul\":24291:24560   */\n    tag_235:\n        /* \"#utility.yul\":24401:24440   */\n      tag_462\n        /* \"#utility.yul\":24432:24439   */\n      dup4\n        /* \"#utility.yul\":24401:24440   */\n      tag_233\n      jump\t// in\n    tag_462:\n        /* \"#utility.yul\":24462:24553   */\n      tag_463\n        /* \"#utility.yul\":24511:24552   */\n      tag_464\n        /* \"#utility.yul\":24535:24551   */\n      dup3\n        /* \"#utility.yul\":24511:24552   */\n      tag_234\n      jump\t// in\n    tag_464:\n        /* \"#utility.yul\":24503:24509   */\n      dup5\n        /* \"#utility.yul\":24496:24500   */\n      dup5\n        /* \"#utility.yul\":24490:24501   */\n      sload\n        /* \"#utility.yul\":24462:24553   */\n      tag_231\n      jump\t// in\n    tag_463:\n        /* \"#utility.yul\":24456:24460   */\n      dup3\n        /* \"#utility.yul\":24449:24554   */\n      sstore\n        /* \"#utility.yul\":24367:24560   */\n      pop\n        /* \"#utility.yul\":24291:24560   */\n      pop\n      pop\n      pop\n      jump\t// out\n        /* \"#utility.yul\":24566:24639   */\n    tag_236:\n        /* \"#utility.yul\":24611:24614   */\n      0x00\n        /* \"#utility.yul\":24632:24633   */\n      0x00\n        /* \"#utility.yul\":24625:24633   */\n      swap1\n      pop\n        /* \"#utility.yul\":24566:24639   */\n      swap1\n      jump\t// out\n        /* \"#utility.yul\":24645:24834   */\n    tag_237:\n        /* \"#utility.yul\":24722:24754   */\n      tag_467\n      tag_236\n      jump\t// in\n    tag_467:\n        /* \"#utility.yul\":24763:24828   */\n      tag_468\n        /* \"#utility.yul\":24821:24827   */\n      dup2\n        /* \"#utility.yul\":24813:24819   */\n      dup5\n        /* \"#utility.yul\":24807:24811   */\n      dup5\n        /* \"#utility.yul\":24763:24828   */\n      tag_235\n      jump\t// in\n    tag_468:\n        /* \"#utility.yul\":24698:24834   */\n      pop\n        /* \"#utility.yul\":24645:24834   */\n      pop\n      pop\n      jump\t// out\n        /* \"#utility.yul\":24840:25026   */\n    tag_238:\n        /* \"#utility.yul\":24900:25020   */\n    tag_470:\n        /* \"#utility.yul\":24917:24920   */\n      dup2\n        /* \"#utility.yul\":24910:24915   */\n      dup2\n        /* \"#utility.yul\":24907:24921   */\n      lt\n        /* \"#utility.yul\":24900:25020   */\n      iszero\n      tag_472\n      jumpi\n        /* \"#utility.yul\":24971:25010   */\n      tag_473\n        /* \"#utility.yul\":25008:25009   */\n      0x00\n        /* \"#utility.yul\":25001:25006   */\n      dup3\n        /* \"#utility.yul\":24971:25010   */\n      tag_237\n      jump\t// in\n    tag_473:\n        /* \"#utility.yul\":24944:24945   */\n      0x01\n        /* \"#utility.yul\":24937:24942   */\n      dup2\n        /* \"#utility.yul\":24933:24946   */\n      add\n        /* \"#utility.yul\":24924:24946   */\n      swap1\n      pop\n        /* \"#utility.yul\":24900:25020   */\n      jump(tag_470)\n    tag_472:\n        /* \"#utility.yul\":24840:25026   */\n      pop\n      pop\n      jump\t// out\n        /* \"#utility.yul\":25032:25575   */\n    tag_239:\n        /* \"#utility.yul\":25133:25135   */\n      0x1f\n        /* \"#utility.yul\":25128:25131   */\n      dup3\n        /* \"#utility.yul\":25125:25136   */\n      gt\n        /* \"#utility.yul\":25122:25568   */\n      iszero\n      tag_475\n      jumpi\n        /* \"#utility.yul\":25167:25205   */\n      tag_476\n        /* \"#utility.yul\":25199:25204   */\n      dup2\n        /* \"#utility.yul\":25167:25205   */\n      tag_228\n      jump\t// in\n    tag_476:\n        /* \"#utility.yul\":25251:25280   */\n      tag_477\n        /* \"#utility.yul\":25269:25279   */\n      dup5\n        /* \"#utility.yul\":25251:25280   */\n      tag_229\n      jump\t// in\n    tag_477:\n        /* \"#utility.yul\":25241:25249   */\n      dup2\n        /* \"#utility.yul\":25237:25281   */\n      add\n        /* \"#utility.yul\":25434:25436   */\n      0x20\n        /* \"#utility.yul\":25422:25432   */\n      dup6\n        /* \"#utility.yul\":25419:25437   */\n      lt\n        /* \"#utility.yul\":25416:25465   */\n      iszero\n      tag_478\n      jumpi\n        /* \"#utility.yul\":25455:25463   */\n      dup2\n        /* \"#utility.yul\":25440:25463   */\n      swap1\n      pop\n        /* \"#utility.yul\":25416:25465   */\n    tag_478:\n        /* \"#utility.yul\":25478:25558   */\n      tag_479\n        /* \"#utility.yul\":25534:25556   */\n      tag_480\n        /* \"#utility.yul\":25552:25555   */\n      dup6\n        /* \"#utility.yul\":25534:25556   */\n      tag_229\n      jump\t// in\n    tag_480:\n        /* \"#utility.yul\":25524:25532   */\n      dup4\n        /* \"#utility.yul\":25520:25557   */\n      add\n        /* \"#utility.yul\":25507:25518   */\n      dup3\n        /* \"#utility.yul\":25478:25558   */\n      tag_238\n      jump\t// in\n    tag_479:\n        /* \"#utility.yul\":25137:25568   */\n      pop\n      pop\n        /* \"#utility.yul\":25122:25568   */\n    tag_475:\n        /* \"#utility.yul\":25032:25575   */\n      pop\n      pop\n      pop\n      jump\t// out\n        /* \"#utility.yul\":25581:25698   */\n    tag_240:\n        /* \"#utility.yul\":25635:25643   */\n      0x00\n        /* \"#utility.yul\":25685:25690   */\n      dup3\n        /* \"#utility.yul\":25679:25683   */\n      dup3\n        /* \"#utility.yul\":25675:25691   */\n      shr\n        /* \"#utility.yul\":25654:25691   */\n      swap1\n      pop\n        /* \"#utility.yul\":25581:25698   */\n      swap3\n      swap2\n      pop\n      pop\n      jump\t// out\n        /* \"#utility.yul\":25704:25873   */\n    tag_241:\n        /* \"#utility.yul\":25748:25754   */\n      0x00\n        /* \"#utility.yul\":25781:25832   */\n      tag_483\n        /* \"#utility.yul\":25829:25830   */\n      0x00\n        /* \"#utility.yul\":25825:25831   */\n      not\n        /* \"#utility.yul\":25817:25822   */\n      dup5\n        /* \"#utility.yul\":25814:25815   */\n      0x08\n        /* \"#utility.yul\":25810:25823   */\n      mul\n        /* \"#utility.yul\":25781:25832   */\n      tag_240\n      jump\t// in\n    tag_483:\n        /* \"#utility.yul\":25777:25833   */\n      not\n        /* \"#utility.yul\":25862:25866   */\n      dup1\n        /* \"#utility.yul\":25856:25860   */\n      dup4\n        /* \"#utility.yul\":25852:25867   */\n      and\n        /* \"#utility.yul\":25842:25867   */\n      swap2\n      pop\n        /* \"#utility.yul\":25755:25873   */\n      pop\n        /* \"#utility.yul\":25704:25873   */\n      swap3\n      swap2\n      pop\n      pop\n      jump\t// out\n        /* \"#utility.yul\":25878:26173   */\n    tag_242:\n        /* \"#utility.yul\":25954:25958   */\n      0x00\n        /* \"#utility.yul\":26100:26129   */\n      tag_485\n        /* \"#utility.yul\":26125:26128   */\n      dup4\n        /* \"#utility.yul\":26119:26123   */\n      dup4\n        /* \"#utility.yul\":26100:26129   */\n      tag_241\n      jump\t// in\n    tag_485:\n        /* \"#utility.yul\":26092:26129   */\n      swap2\n      pop\n        /* \"#utility.yul\":26162:26165   */\n      dup3\n        /* \"#utility.yul\":26159:26160   */\n      0x02\n        /* \"#utility.yul\":26155:26166   */\n      mul\n        /* \"#utility.yul\":26149:26153   */\n      dup3\n        /* \"#utility.yul\":26146:26167   */\n      or\n        /* \"#utility.yul\":26138:26167   */\n      swap1\n      pop\n        /* \"#utility.yul\":25878:26173   */\n      swap3\n      swap2\n      pop\n      pop\n      jump\t// out\n        /* \"#utility.yul\":26178:27573   */\n    tag_77:\n        /* \"#utility.yul\":26295:26332   */\n      tag_487\n        /* \"#utility.yul\":26328:26331   */\n      dup3\n        /* \"#utility.yul\":26295:26332   */\n      tag_192\n      jump\t// in\n    tag_487:\n        /* \"#utility.yul\":26397:26415   */\n      0xffffffffffffffff\n        /* \"#utility.yul\":26389:26395   */\n      dup2\n        /* \"#utility.yul\":26386:26416   */\n      gt\n        /* \"#utility.yul\":26383:26439   */\n      iszero\n      tag_488\n      jumpi\n        /* \"#utility.yul\":26419:26437   */\n      tag_489\n      tag_185\n      jump\t// in\n    tag_489:\n        /* \"#utility.yul\":26383:26439   */\n    tag_488:\n        /* \"#utility.yul\":26463:26501   */\n      tag_490\n        /* \"#utility.yul\":26495:26499   */\n      dup3\n        /* \"#utility.yul\":26489:26500   */\n      sload\n        /* \"#utility.yul\":26463:26501   */\n      tag_69\n      jump\t// in\n    tag_490:\n        /* \"#utility.yul\":26548:26615   */\n      tag_491\n        /* \"#utility.yul\":26608:26614   */\n      dup3\n        /* \"#utility.yul\":26600:26606   */\n      dup3\n        /* \"#utility.yul\":26594:26598   */\n      dup6\n        /* \"#utility.yul\":26548:26615   */\n      tag_239\n      jump\t// in\n    tag_491:\n        /* \"#utility.yul\":26642:26643   */\n      0x00\n        /* \"#utility.yul\":26666:26670   */\n      0x20\n        /* \"#utility.yul\":26653:26670   */\n      swap1\n      pop\n        /* \"#utility.yul\":26698:26700   */\n      0x1f\n        /* \"#utility.yul\":26690:26696   */\n      dup4\n        /* \"#utility.yul\":26687:26701   */\n      gt\n        /* \"#utility.yul\":26715:26716   */\n      0x01\n        /* \"#utility.yul\":26710:27328   */\n      dup2\n      eq\n      tag_493\n      jumpi\n        /* \"#utility.yul\":27372:27373   */\n      0x00\n        /* \"#utility.yul\":27389:27395   */\n      dup5\n        /* \"#utility.yul\":27386:27463   */\n      iszero\n      tag_494\n      jumpi\n        /* \"#utility.yul\":27438:27447   */\n      dup3\n        /* \"#utility.yul\":27433:27436   */\n      dup8\n        /* \"#utility.yul\":27429:27448   */\n      add\n        /* \"#utility.yul\":27423:27449   */\n      mload\n        /* \"#utility.yul\":27414:27449   */\n      swap1\n      pop\n        /* \"#utility.yul\":27386:27463   */\n    tag_494:\n        /* \"#utility.yul\":27489:27556   */\n      tag_495\n        /* \"#utility.yul\":27549:27555   */\n      dup6\n        /* \"#utility.yul\":27542:27547   */\n      dup3\n        /* \"#utility.yul\":27489:27556   */\n      tag_242\n      jump\t// in\n    tag_495:\n        /* \"#utility.yul\":27483:27487   */\n      dup7\n        /* \"#utility.yul\":27476:27557   */\n      sstore\n        /* \"#utility.yul\":27345:27567   */\n      pop\n        /* \"#utility.yul\":26680:27567   */\n      jump(tag_492)\n        /* \"#utility.yul\":26710:27328   */\n    tag_493:\n        /* \"#utility.yul\":26762:26766   */\n      0x1f\n        /* \"#utility.yul\":26758:26767   */\n      not\n        /* \"#utility.yul\":26750:26756   */\n      dup5\n        /* \"#utility.yul\":26746:26768   */\n      and\n        /* \"#utility.yul\":26796:26833   */\n      tag_496\n        /* \"#utility.yul\":26828:26832   */\n      dup7\n        /* \"#utility.yul\":26796:26833   */\n      tag_228\n      jump\t// in\n    tag_496:\n        /* \"#utility.yul\":26855:26856   */\n      0x00\n        /* \"#utility.yul\":26869:27077   */\n    tag_497:\n        /* \"#utility.yul\":26883:26890   */\n      dup3\n        /* \"#utility.yul\":26880:26881   */\n      dup2\n        /* \"#utility.yul\":26877:26891   */\n      lt\n        /* \"#utility.yul\":26869:27077   */\n      iszero\n      tag_499\n      jumpi\n        /* \"#utility.yul\":26962:26971   */\n      dup5\n        /* \"#utility.yul\":26957:26960   */\n      dup10\n        /* \"#utility.yul\":26953:26972   */\n      add\n        /* \"#utility.yul\":26947:26973   */\n      mload\n        /* \"#utility.yul\":26939:26945   */\n      dup3\n        /* \"#utility.yul\":26932:26974   */\n      sstore\n        /* \"#utility.yul\":27013:27014   */\n      0x01\n        /* \"#utility.yul\":27005:27011   */\n      dup3\n        /* \"#utility.yul\":27001:27015   */\n      add\n        /* \"#utility.yul\":26991:27015   */\n      swap2\n      pop\n        /* \"#utility.yul\":27060:27062   */\n      0x20\n        /* \"#utility.yul\":27049:27058   */\n      dup6\n        /* \"#utility.yul\":27045:27063   */\n      add\n        /* \"#utility.yul\":27032:27063   */\n      swap5\n      pop\n        /* \"#utility.yul\":26906:26910   */\n      0x20\n        /* \"#utility.yul\":26903:26904   */\n      dup2\n        /* \"#utility.yul\":26899:26911   */\n      add\n        /* \"#utility.yul\":26894:26911   */\n      swap1\n      pop\n        /* \"#utility.yul\":26869:27077   */\n      jump(tag_497)\n    tag_499:\n        /* \"#utility.yul\":27105:27111   */\n      dup7\n        /* \"#utility.yul\":27096:27103   */\n      dup4\n        /* \"#utility.yul\":27093:27112   */\n      lt\n        /* \"#utility.yul\":27090:27269   */\n      iszero\n      tag_500\n      jumpi\n        /* \"#utility.yul\":27163:27172   */\n      dup5\n        /* \"#utility.yul\":27158:27161   */\n      dup10\n        /* \"#utility.yul\":27154:27173   */\n      add\n        /* \"#utility.yul\":27148:27174   */\n      mload\n        /* \"#utility.yul\":27206:27254   */\n      tag_501\n        /* \"#utility.yul\":27248:27252   */\n      0x1f\n        /* \"#utility.yul\":27240:27246   */\n      dup10\n        /* \"#utility.yul\":27236:27253   */\n      and\n        /* \"#utility.yul\":27225:27234   */\n      dup3\n        /* \"#utility.yul\":27206:27254   */\n      tag_241\n      jump\t// in\n    tag_501:\n        /* \"#utility.yul\":27198:27204   */\n      dup4\n        /* \"#utility.yul\":27191:27255   */\n      sstore\n        /* \"#utility.yul\":27113:27269   */\n      pop\n        /* \"#utility.yul\":27090:27269   */\n    tag_500:\n        /* \"#utility.yul\":27315:27316   */\n      0x01\n        /* \"#utility.yul\":27311:27312   */\n      0x02\n        /* \"#utility.yul\":27303:27309   */\n      dup9\n        /* \"#utility.yul\":27299:27313   */\n      mul\n        /* \"#utility.yul\":27295:27317   */\n      add\n        /* \"#utility.yul\":27289:27293   */\n      dup9\n        /* \"#utility.yul\":27282:27318   */\n      sstore\n        /* \"#utility.yul\":26717:27328   */\n      pop\n      pop\n      pop\n        /* \"#utility.yul\":26680:27567   */\n    tag_492:\n      pop\n        /* \"#utility.yul\":26270:27573   */\n      pop\n      pop\n      pop\n        /* \"#utility.yul\":26178:27573   */\n      pop\n      pop\n      jump\t// out\n        /* \"#utility.yul\":27579:27728   */\n    tag_243:\n        /* \"#utility.yul\":27628:27634   */\n      0x00\n        /* \"#utility.yul\":27662:27667   */\n      dup2\n        /* \"#utility.yul\":27656:27668   */\n      sload\n        /* \"#utility.yul\":27646:27668   */\n      swap1\n      pop\n        /* \"#utility.yul\":27688:27721   */\n      tag_503\n        /* \"#utility.yul\":27714:27720   */\n      dup2\n        /* \"#utility.yul\":27688:27721   */\n      tag_69\n      jump\t// in\n    tag_503:\n        /* \"#utility.yul\":27678:27721   */\n      swap1\n      pop\n        /* \"#utility.yul\":27579:27728   */\n      swap2\n      swap1\n      pop\n      jump\t// out\n        /* \"#utility.yul\":27734:29185   */\n    tag_125:\n        /* \"#utility.yul\":27845:27848   */\n      dup2\n        /* \"#utility.yul\":27839:27843   */\n      dup2\n        /* \"#utility.yul\":27836:27849   */\n      sub\n        /* \"#utility.yul\":27833:27859   */\n      tag_505\n      jumpi\n        /* \"#utility.yul\":27852:27857   */\n      pop\n      pop\n      jump(tag_504)\n        /* \"#utility.yul\":27833:27859   */\n    tag_505:\n        /* \"#utility.yul\":27883:27917   */\n      tag_506\n        /* \"#utility.yul\":27913:27916   */\n      dup3\n        /* \"#utility.yul\":27883:27917   */\n      tag_243\n      jump\t// in\n    tag_506:\n        /* \"#utility.yul\":27982:28000   */\n      0xffffffffffffffff\n        /* \"#utility.yul\":27974:27980   */\n      dup2\n        /* \"#utility.yul\":27971:28001   */\n      gt\n        /* \"#utility.yul\":27968:28024   */\n      iszero\n      tag_507\n      jumpi\n        /* \"#utility.yul\":28004:28022   */\n      tag_508\n      tag_185\n      jump\t// in\n    tag_508:\n        /* \"#utility.yul\":27968:28024   */\n    tag_507:\n        /* \"#utility.yul\":28048:28086   */\n      tag_509\n        /* \"#utility.yul\":28080:28084   */\n      dup3\n        /* \"#utility.yul\":28074:28085   */\n      sload\n        /* \"#utility.yul\":28048:28086   */\n      tag_69\n      jump\t// in\n    tag_509:\n        /* \"#utility.yul\":28133:28200   */\n      tag_510\n        /* \"#utility.yul\":28193:28199   */\n      dup3\n        /* \"#utility.yul\":28185:28191   */\n      dup3\n        /* \"#utility.yul\":28179:28183   */\n      dup6\n        /* \"#utility.yul\":28133:28200   */\n      tag_239\n      jump\t// in\n    tag_510:\n        /* \"#utility.yul\":28227:28228   */\n      0x00\n        /* \"#utility.yul\":28256:28258   */\n      0x1f\n        /* \"#utility.yul\":28248:28254   */\n      dup4\n        /* \"#utility.yul\":28245:28259   */\n      gt\n        /* \"#utility.yul\":28273:28274   */\n      0x01\n        /* \"#utility.yul\":28268:28940   */\n      dup2\n      eq\n      tag_512\n      jumpi\n        /* \"#utility.yul\":28984:28985   */\n      0x00\n        /* \"#utility.yul\":29001:29007   */\n      dup5\n        /* \"#utility.yul\":28998:29075   */\n      iszero\n      tag_513\n      jumpi\n        /* \"#utility.yul\":29050:29059   */\n      dup3\n        /* \"#utility.yul\":29045:29048   */\n      dup8\n        /* \"#utility.yul\":29041:29060   */\n      add\n        /* \"#utility.yul\":29035:29061   */\n      sload\n        /* \"#utility.yul\":29026:29061   */\n      swap1\n      pop\n        /* \"#utility.yul\":28998:29075   */\n    tag_513:\n        /* \"#utility.yul\":29101:29168   */\n      tag_514\n        /* \"#utility.yul\":29161:29167   */\n      dup6\n        /* \"#utility.yul\":29154:29159   */\n      dup3\n        /* \"#utility.yul\":29101:29168   */\n      tag_242\n      jump\t// in\n    tag_514:\n        /* \"#utility.yul\":29095:29099   */\n      dup7\n        /* \"#utility.yul\":29088:29169   */\n      sstore\n        /* \"#utility.yul\":28957:29179   */\n      pop\n        /* \"#utility.yul\":28238:29179   */\n      jump(tag_511)\n        /* \"#utility.yul\":28268:28940   */\n    tag_512:\n        /* \"#utility.yul\":28320:28324   */\n      0x1f\n        /* \"#utility.yul\":28316:28325   */\n      not\n        /* \"#utility.yul\":28308:28314   */\n      dup5\n        /* \"#utility.yul\":28304:28326   */\n      and\n        /* \"#utility.yul\":28346:28382   */\n      tag_515\n        /* \"#utility.yul\":28378:28381   */\n      dup8\n        /* \"#utility.yul\":28346:28382   */\n      tag_228\n      jump\t// in\n    tag_515:\n        /* \"#utility.yul\":28339:28382   */\n      swap7\n      pop\n        /* \"#utility.yul\":28409:28446   */\n      tag_516\n        /* \"#utility.yul\":28441:28445   */\n      dup7\n        /* \"#utility.yul\":28409:28446   */\n      tag_228\n      jump\t// in\n    tag_516:\n        /* \"#utility.yul\":28468:28469   */\n      0x00\n        /* \"#utility.yul\":28482:28689   */\n    tag_517:\n        /* \"#utility.yul\":28496:28503   */\n      dup3\n        /* \"#utility.yul\":28493:28494   */\n      dup2\n        /* \"#utility.yul\":28490:28504   */\n      lt\n        /* \"#utility.yul\":28482:28689   */\n      iszero\n      tag_519\n      jumpi\n        /* \"#utility.yul\":28575:28584   */\n      dup5\n        /* \"#utility.yul\":28570:28573   */\n      dup10\n        /* \"#utility.yul\":28566:28585   */\n      add\n        /* \"#utility.yul\":28560:28586   */\n      sload\n        /* \"#utility.yul\":28552:28558   */\n      dup3\n        /* \"#utility.yul\":28545:28587   */\n      sstore\n        /* \"#utility.yul\":28626:28627   */\n      0x01\n        /* \"#utility.yul\":28618:28624   */\n      dup3\n        /* \"#utility.yul\":28614:28628   */\n      add\n        /* \"#utility.yul\":28604:28628   */\n      swap2\n      pop\n        /* \"#utility.yul\":28673:28674   */\n      0x01\n        /* \"#utility.yul\":28662:28671   */\n      dup6\n        /* \"#utility.yul\":28658:28675   */\n      add\n        /* \"#utility.yul\":28645:28675   */\n      swap5\n      pop\n        /* \"#utility.yul\":28519:28523   */\n      0x20\n        /* \"#utility.yul\":28516:28517   */\n      dup2\n        /* \"#utility.yul\":28512:28524   */\n      add\n        /* \"#utility.yul\":28507:28524   */\n      swap1\n      pop\n        /* \"#utility.yul\":28482:28689   */\n      jump(tag_517)\n    tag_519:\n        /* \"#utility.yul\":28717:28723   */\n      dup7\n        /* \"#utility.yul\":28708:28715   */\n      dup4\n        /* \"#utility.yul\":28705:28724   */\n      lt\n        /* \"#utility.yul\":28702:28881   */\n      iszero\n      tag_520\n      jumpi\n        /* \"#utility.yul\":28775:28784   */\n      dup5\n        /* \"#utility.yul\":28770:28773   */\n      dup10\n        /* \"#utility.yul\":28766:28785   */\n      add\n        /* \"#utility.yul\":28760:28786   */\n      sload\n        /* \"#utility.yul\":28818:28866   */\n      tag_521\n        /* \"#utility.yul\":28860:28864   */\n      0x1f\n        /* \"#utility.yul\":28852:28858   */\n      dup10\n        /* \"#utility.yul\":28848:28865   */\n      and\n        /* \"#utility.yul\":28837:28846   */\n      dup3\n        /* \"#utility.yul\":28818:28866   */\n      tag_241\n      jump\t// in\n    tag_521:\n        /* \"#utility.yul\":28810:28816   */\n      dup4\n        /* \"#utility.yul\":28803:28867   */\n      sstore\n        /* \"#utility.yul\":28725:28881   */\n      pop\n        /* \"#utility.yul\":28702:28881   */\n    tag_520:\n        /* \"#utility.yul\":28927:28928   */\n      0x01\n        /* \"#utility.yul\":28923:28924   */\n      0x02\n        /* \"#utility.yul\":28915:28921   */\n      dup9\n        /* \"#utility.yul\":28911:28925   */\n      mul\n        /* \"#utility.yul\":28907:28929   */\n      add\n        /* \"#utility.yul\":28901:28905   */\n      dup9\n        /* \"#utility.yul\":28894:28930   */\n      sstore\n        /* \"#utility.yul\":28275:28940   */\n      pop\n      pop\n      pop\n        /* \"#utility.yul\":28238:29179   */\n    tag_511:\n      pop\n        /* \"#utility.yul\":27823:29185   */\n      pop\n      pop\n      pop\n        /* \"#utility.yul\":27734:29185   */\n      pop\n      pop\n    tag_504:\n      jump\t// out\n\n    auxdata: 0xa26469706673582212208a6b0ad78097d0454eabaf3598f890e79fab2b3400ecfc083de8baa15b1d61fd64736f6c634300081e0033\n}\n",
				"bytecode": {
					"linkReferences": {},
					"object": "6080604052348015600e575f5ffd5b50611eae8061001c5f395ff3fe608060405234801561000f575f5ffd5b506004361061009c575f3560e01c806353b7fe351161006457806353b7fe351461017d578063629014d714610199578063689e1c03146101c957806380672e8c146101fc578063cae179791461022e5761009c565b806326b60286146100a0578063341fde55146100d05780633a110d0d146100ec57806342b5d2831461011d57806345c3c6c21461014d575b5f5ffd5b6100ba60048036038101906100b591906111ba565b61025f565b6040516100c79190611261565b60405180910390f35b6100ea60048036038101906100e591906112fe565b610310565b005b610106600480360381019061010191906113c9565b6103b2565b60405161011492919061144a565b60405180910390f35b61013760048036038101906101329190611478565b6104a2565b604051610144919061164c565b60405180910390f35b610167600480360381019061016291906111ba565b6106e7565b6040516101749190611770565b60405180910390f35b610197600480360381019061019291906117ba565b610830565b005b6101b360048036038101906101ae9190611478565b610a26565b6040516101c09190611909565b60405180910390f35b6101e360048036038101906101de91906111ba565b610b4a565b6040516101f39493929190611938565b60405180910390f35b61021660048036038101906102119190611990565b610d40565b60405161022593929190611a18565b60405180910390f35b61024860048036038101906102439190611478565b610f4c565b60405161025692919061144a565b60405180910390f35b60606002826040516102719190611a9c565b9081526020016040518091039020600101805461028d90611adf565b80601f01602080910402602001604051908101604052809291908181526020018280546102b990611adf565b80156103045780601f106102db57610100808354040283529160200191610304565b820191905f5260205f20905b8154815290600101906020018083116102e757829003601f168201915b50505050509050919050565b5f6002866040516103219190611a9c565b9081526020016040518091039020905085815f0190816103419190611caf565b50838160010190816103539190611caf565b5082816002015f6101000a81548174ffffffffffffffffffffffffffffffffffffffffff021916908374ffffffffffffffffffffffffffffffffffffffffff160217905550848160030190816103a99190611caf565b50505050505050565b60038280516020810182018051848252602083016020850120818352809550505050505081815481106103e3575f80fd5b905f5260205f2090600202015f9150915050805f01805461040390611adf565b80601f016020809104026020016040519081016040528092919081815260200182805461042f90611adf565b801561047a5780601f106104515761010080835404028352916020019161047a565b820191905f5260205f20905b81548152906001019060200180831161045d57829003601f168201915b505050505090806001015f9054906101000a90046cffffffffffffffffffffffffff16905082565b60605f836040516104b39190611a9c565b9081526020016040518091039020826040516104cf9190611a9c565b9081526020016040518091039020805480602002602001604051908101604052809291908181526020015f905b828210156106db578382905f5260205f2090600302016040518060600160405290815f8201805461052c90611adf565b80601f016020809104026020016040519081016040528092919081815260200182805461055890611adf565b80156105a35780601f1061057a576101008083540402835291602001916105a3565b820191905f5260205f20905b81548152906001019060200180831161058657829003601f168201915b505050505081526020016001820180546105bc90611adf565b80601f01602080910402602001604051908101604052809291908181526020018280546105e890611adf565b80156106335780601f1061060a57610100808354040283529160200191610633565b820191905f5260205f20905b81548152906001019060200180831161061657829003601f168201915b5050505050815260200160028201805461064c90611adf565b80601f016020809104026020016040519081016040528092919081815260200182805461067890611adf565b80156106c35780601f1061069a576101008083540402835291602001916106c3565b820191905f5260205f20905b8154815290600101906020018083116106a657829003601f168201915b505050505081525050815260200190600101906104fc565b50505050905092915050565b60606003826040516106f99190611a9c565b9081526020016040518091039020805480602002602001604051908101604052809291908181526020015f905b82821015610825578382905f5260205f2090600202016040518060400160405290815f8201805461075690611adf565b80601f016020809104026020016040519081016040528092919081815260200182805461078290611adf565b80156107cd5780601f106107a4576101008083540402835291602001916107cd565b820191905f5260205f20905b8154815290600101906020018083116107b057829003601f168201915b50505050508152602001600182015f9054906101000a90046cffffffffffffffffffffffffff166cffffffffffffffffffffffffff166cffffffffffffffffffffffffff168152505081526020019060010190610726565b505050509050919050565b5f60405180606001604052808581526020018481526020018381525090505f60018660405161085f9190611a9c565b90815260200160405180910390208860405161087b9190611a9c565b9081526020016040518091039020905087815f01908161089b9190611caf565b5086816001015f6101000a8154816cffffffffffffffffffffffffff02191690836cffffffffffffffffffffffffff1602179055506003866040516108e09190611a9c565b908152602001604051809103902081908060018154018082558091505060019003905f5260205f2090600202015f909190919091505f8201815f0190816109279190611d93565b50600182015f9054906101000a90046cffffffffffffffffffffffffff16816001015f6101000a8154816cffffffffffffffffffffffffff02191690836cffffffffffffffffffffffffff16021790555050505f866040516109899190611a9c565b9081526020016040518091039020886040516109a59190611a9c565b908152602001604051809103902082908060018154018082558091505060019003905f5260205f2090600302015f909190919091505f820151815f0190816109ed9190611caf565b506020820151816001019081610a039190611caf565b506040820151816002019081610a199190611caf565b5050505050505050505050565b610a2e611045565b600183604051610a3e9190611a9c565b908152602001604051809103902082604051610a5a9190611a9c565b90815260200160405180910390206040518060400160405290815f82018054610a8290611adf565b80601f0160208091040260200160405190810160405280929190818152602001828054610aae90611adf565b8015610af95780601f10610ad057610100808354040283529160200191610af9565b820191905f5260205f20905b815481529060010190602001808311610adc57829003601f168201915b50505050508152602001600182015f9054906101000a90046cffffffffffffffffffffffffff166cffffffffffffffffffffffffff166cffffffffffffffffffffffffff1681525050905092915050565b6002818051602081018201805184825260208301602085012081835280955050505050505f91509050805f018054610b8190611adf565b80601f0160208091040260200160405190810160405280929190818152602001828054610bad90611adf565b8015610bf85780601f10610bcf57610100808354040283529160200191610bf8565b820191905f5260205f20905b815481529060010190602001808311610bdb57829003601f168201915b505050505090806001018054610c0d90611adf565b80601f0160208091040260200160405190810160405280929190818152602001828054610c3990611adf565b8015610c845780601f10610c5b57610100808354040283529160200191610c84565b820191905f5260205f20905b815481529060010190602001808311610c6757829003601f168201915b505050505090806002015f9054906101000a900474ffffffffffffffffffffffffffffffffffffffffff1690806003018054610cbf90611adf565b80601f0160208091040260200160405190810160405280929190818152602001828054610ceb90611adf565b8015610d365780601f10610d0d57610100808354040283529160200191610d36565b820191905f5260205f20905b815481529060010190602001808311610d1957829003601f168201915b5050505050905084565b5f83805160208101820180518482526020830160208501208183528095505050505050828051602081018201805184825260208301602085012081835280955050505050508181548110610d92575f80fd5b905f5260205f2090600302015f925092505050805f018054610db390611adf565b80601f0160208091040260200160405190810160405280929190818152602001828054610ddf90611adf565b8015610e2a5780601f10610e0157610100808354040283529160200191610e2a565b820191905f5260205f20905b815481529060010190602001808311610e0d57829003601f168201915b505050505090806001018054610e3f90611adf565b80601f0160208091040260200160405190810160405280929190818152602001828054610e6b90611adf565b8015610eb65780601f10610e8d57610100808354040283529160200191610eb6565b820191905f5260205f20905b815481529060010190602001808311610e9957829003601f168201915b505050505090806002018054610ecb90611adf565b80601f0160208091040260200160405190810160405280929190818152602001828054610ef790611adf565b8015610f425780601f10610f1957610100808354040283529160200191610f42565b820191905f5260205f20905b815481529060010190602001808311610f2557829003601f168201915b5050505050905083565b600182805160208101820180518482526020830160208501208183528095505050505050818051602081018201805184825260208301602085012081835280955050505050505f9150915050805f018054610fa690611adf565b80601f0160208091040260200160405190810160405280929190818152602001828054610fd290611adf565b801561101d5780601f10610ff45761010080835404028352916020019161101d565b820191905f5260205f20905b81548152906001019060200180831161100057829003601f168201915b505050505090806001015f9054906101000a90046cffffffffffffffffffffffffff16905082565b6040518060400160405280606081526020015f6cffffffffffffffffffffffffff1681525090565b5f604051905090565b5f5ffd5b5f5ffd5b5f5ffd5b5f5ffd5b5f601f19601f8301169050919050565b7f4e487b71000000000000000000000000000000000000000000000000000000005f52604160045260245ffd5b6110cc82611086565b810181811067ffffffffffffffff821117156110eb576110ea611096565b5b80604052505050565b5f6110fd61106d565b905061110982826110c3565b919050565b5f67ffffffffffffffff82111561112857611127611096565b5b61113182611086565b9050602081019050919050565b828183375f83830152505050565b5f61115e6111598461110e565b6110f4565b90508281526020810184848401111561117a57611179611082565b5b61118584828561113e565b509392505050565b5f82601f8301126111a1576111a061107e565b5b81356111b184826020860161114c565b91505092915050565b5f602082840312156111cf576111ce611076565b5b5f82013567ffffffffffffffff8111156111ec576111eb61107a565b5b6111f88482850161118d565b91505092915050565b5f81519050919050565b5f82825260208201905092915050565b8281835e5f83830152505050565b5f61123382611201565b61123d818561120b565b935061124d81856020860161121b565b61125681611086565b840191505092915050565b5f6020820190508181035f8301526112798184611229565b905092915050565b5f74ffffffffffffffffffffffffffffffffffffffffff82169050919050565b6112aa81611281565b81146112b4575f5ffd5b50565b5f813590506112c5816112a1565b92915050565b5f819050919050565b6112dd816112cb565b81146112e7575f5ffd5b50565b5f813590506112f8816112d4565b92915050565b5f5f5f5f5f60a0868803121561131757611316611076565b5b5f86013567ffffffffffffffff8111156113345761133361107a565b5b6113408882890161118d565b955050602086013567ffffffffffffffff8111156113615761136061107a565b5b61136d8882890161118d565b945050604086013567ffffffffffffffff81111561138e5761138d61107a565b5b61139a8882890161118d565b93505060606113ab888289016112b7565b92505060806113bc888289016112ea565b9150509295509295909350565b5f5f604083850312156113df576113de611076565b5b5f83013567ffffffffffffffff8111156113fc576113fb61107a565b5b6114088582860161118d565b9250506020611419858286016112ea565b9150509250929050565b5f6cffffffffffffffffffffffffff82169050919050565b61144481611423565b82525050565b5f6040820190508181035f8301526114628185611229565b9050611471602083018461143b565b9392505050565b5f5f6040838503121561148e5761148d611076565b5b5f83013567ffffffffffffffff8111156114ab576114aa61107a565b5b6114b78582860161118d565b925050602083013567ffffffffffffffff8111156114d8576114d761107a565b5b6114e48582860161118d565b9150509250929050565b5f81519050919050565b5f82825260208201905092915050565b5f819050602082019050919050565b5f82825260208201905092915050565b5f61153182611201565b61153b8185611517565b935061154b81856020860161121b565b61155481611086565b840191505092915050565b5f606083015f8301518482035f8601526115798282611527565b915050602083015184820360208601526115938282611527565b915050604083015184820360408601526115ad8282611527565b9150508091505092915050565b5f6115c5838361155f565b905092915050565b5f602082019050919050565b5f6115e3826114ee565b6115ed81856114f8565b9350836020820285016115ff85611508565b805f5b8581101561163a578484038952815161161b85826115ba565b9450611626836115cd565b925060208a01995050600181019050611602565b50829750879550505050505092915050565b5f6020820190508181035f83015261166481846115d9565b905092915050565b5f81519050919050565b5f82825260208201905092915050565b5f819050602082019050919050565b61169e81611423565b82525050565b5f604083015f8301518482035f8601526116be8282611527565b91505060208301516116d36020860182611695565b508091505092915050565b5f6116e983836116a4565b905092915050565b5f602082019050919050565b5f6117078261166c565b6117118185611676565b93508360208202850161172385611686565b805f5b8581101561175e578484038952815161173f85826116de565b945061174a836116f1565b925060208a01995050600181019050611726565b50829750879550505050505092915050565b5f6020820190508181035f83015261178881846116fd565b905092915050565b61179981611423565b81146117a3575f5ffd5b50565b5f813590506117b481611790565b92915050565b5f5f5f5f5f5f60c087890312156117d4576117d3611076565b5b5f87013567ffffffffffffffff8111156117f1576117f061107a565b5b6117fd89828a0161118d565b965050602061180e89828a016117a6565b955050604087013567ffffffffffffffff81111561182f5761182e61107a565b5b61183b89828a0161118d565b945050606087013567ffffffffffffffff81111561185c5761185b61107a565b5b61186889828a0161118d565b935050608087013567ffffffffffffffff8111156118895761188861107a565b5b61189589828a0161118d565b92505060a087013567ffffffffffffffff8111156118b6576118b561107a565b5b6118c289828a0161118d565b9150509295509295509295565b5f604083015f8301518482035f8601526118e98282611527565b91505060208301516118fe6020860182611695565b508091505092915050565b5f6020820190508181035f83015261192181846118cf565b905092915050565b61193281611281565b82525050565b5f6080820190508181035f8301526119508187611229565b905081810360208301526119648186611229565b90506119736040830185611929565b81810360608301526119858184611229565b905095945050505050565b5f5f5f606084860312156119a7576119a6611076565b5b5f84013567ffffffffffffffff8111156119c4576119c361107a565b5b6119d08682870161118d565b935050602084013567ffffffffffffffff8111156119f1576119f061107a565b5b6119fd8682870161118d565b9250506040611a0e868287016112ea565b9150509250925092565b5f6060820190508181035f830152611a308186611229565b90508181036020830152611a448185611229565b90508181036040830152611a588184611229565b9050949350505050565b5f81905092915050565b5f611a7682611201565b611a808185611a62565b9350611a9081856020860161121b565b80840191505092915050565b5f611aa78284611a6c565b915081905092915050565b7f4e487b71000000000000000000000000000000000000000000000000000000005f52602260045260245ffd5b5f6002820490506001821680611af657607f821691505b602082108103611b0957611b08611ab2565b5b50919050565b5f819050815f5260205f209050919050565b5f6020601f8301049050919050565b5f82821b905092915050565b5f60088302611b6b7fffffffffffffffffffffffffffffffffffffffffffffffffffffffffffffffff82611b30565b611b758683611b30565b95508019841693508086168417925050509392505050565b5f819050919050565b5f611bb0611bab611ba6846112cb565b611b8d565b6112cb565b9050919050565b5f819050919050565b611bc983611b96565b611bdd611bd582611bb7565b848454611b3c565b825550505050565b5f5f905090565b611bf4611be5565b611bff818484611bc0565b505050565b5b81811015611c2257611c175f82611bec565b600181019050611c05565b5050565b601f821115611c6757611c3881611b0f565b611c4184611b21565b81016020851015611c50578190505b611c64611c5c85611b21565b830182611c04565b50505b505050565b5f82821c905092915050565b5f611c875f1984600802611c6c565b1980831691505092915050565b5f611c9f8383611c78565b9150826002028217905092915050565b611cb882611201565b67ffffffffffffffff811115611cd157611cd0611096565b5b611cdb8254611adf565b611ce6828285611c26565b5f60209050601f831160018114611d17575f8415611d05578287015190505b611d0f8582611c94565b865550611d76565b601f198416611d2586611b0f565b5f5b82811015611d4c57848901518255600182019150602085019450602081019050611d27565b86831015611d695784890151611d65601f891682611c78565b8355505b6001600288020188555050505b505050505050565b5f81549050611d8c81611adf565b9050919050565b818103611da1575050611e76565b611daa82611d7e565b67ffffffffffffffff811115611dc357611dc2611096565b5b611dcd8254611adf565b611dd8828285611c26565b5f601f831160018114611e05575f8415611df3578287015490505b611dfd8582611c94565b865550611e6f565b601f198416611e1387611b0f565b9650611e1e86611b0f565b5f5b82811015611e4557848901548255600182019150600185019450602081019050611e20565b86831015611e625784890154611e5e601f891682611c78565b8355505b6001600288020188555050505b5050505050505b56fea26469706673582212208a6b0ad78097d0454eabaf3598f890e79fab2b3400ecfc083de8baa15b1d61fd64736f6c634300081e0033",
					"opcodes": "PUSH1 0x80 PUSH1 0x40 MSTORE CALLVALUE DUP1 ISZERO PUSH1 0xE JUMPI PUSH0 PUSH0 REVERT JUMPDEST POP PUSH2 0x1EAE DUP1 PUSH2 0x1C PUSH0 CODECOPY PUSH0 RETURN INVALID PUSH1 0x80 PUSH1 0x40 MSTORE CALLVALUE DUP1 ISZERO PUSH2 0xF JUMPI PUSH0 PUSH0 REVERT JUMPDEST POP PUSH1 0x4 CALLDATASIZE LT PUSH2 0x9C JUMPI PUSH0 CALLDATALOAD PUSH1 0xE0 SHR DUP1 PUSH4 0x53B7FE35 GT PUSH2 0x64 JUMPI DUP1 PUSH4 0x53B7FE35 EQ PUSH2 0x17D JUMPI DUP1 PUSH4 0x629014D7 EQ PUSH2 0x199 JUMPI DUP1 PUSH4 0x689E1C03 EQ PUSH2 0x1C9 JUMPI DUP1 PUSH4 0x80672E8C EQ PUSH2 0x1FC JUMPI DUP1 PUSH4 0xCAE17979 EQ PUSH2 0x22E JUMPI PUSH2 0x9C JUMP JUMPDEST DUP1 PUSH4 0x26B60286 EQ PUSH2 0xA0 JUMPI DUP1 PUSH4 0x341FDE55 EQ PUSH2 0xD0 JUMPI DUP1 PUSH4 0x3A110D0D EQ PUSH2 0xEC JUMPI DUP1 PUSH4 0x42B5D283 EQ PUSH2 0x11D JUMPI DUP1 PUSH4 0x45C3C6C2 EQ PUSH2 0x14D JUMPI JUMPDEST PUSH0 PUSH0 REVERT JUMPDEST PUSH2 0xBA PUSH1 0x4 DUP1 CALLDATASIZE SUB DUP2 ADD SWAP1 PUSH2 0xB5 SWAP2 SWAP1 PUSH2 0x11BA JUMP JUMPDEST PUSH2 0x25F JUMP JUMPDEST PUSH1 0x40 MLOAD PUSH2 0xC7 SWAP2 SWAP1 PUSH2 0x1261 JUMP JUMPDEST PUSH1 0x40 MLOAD DUP1 SWAP2 SUB SWAP1 RETURN JUMPDEST PUSH2 0xEA PUSH1 0x4 DUP1 CALLDATASIZE SUB DUP2 ADD SWAP1 PUSH2 0xE5 SWAP2 SWAP1 PUSH2 0x12FE JUMP JUMPDEST PUSH2 0x310 JUMP JUMPDEST STOP JUMPDEST PUSH2 0x106 PUSH1 0x4 DUP1 CALLDATASIZE SUB DUP2 ADD SWAP1 PUSH2 0x101 SWAP2 SWAP1 PUSH2 0x13C9 JUMP JUMPDEST PUSH2 0x3B2 JUMP JUMPDEST PUSH1 0x40 MLOAD PUSH2 0x114 SWAP3 SWAP2 SWAP1 PUSH2 0x144A JUMP JUMPDEST PUSH1 0x40 MLOAD DUP1 SWAP2 SUB SWAP1 RETURN JUMPDEST PUSH2 0x137 PUSH1 0x4 DUP1 CALLDATASIZE SUB DUP2 ADD SWAP1 PUSH2 0x132 SWAP2 SWAP1 PUSH2 0x1478 JUMP JUMPDEST PUSH2 0x4A2 JUMP JUMPDEST PUSH1 0x40 MLOAD PUSH2 0x144 SWAP2 SWAP1 PUSH2 0x164C JUMP JUMPDEST PUSH1 0x40 MLOAD DUP1 SWAP2 SUB SWAP1 RETURN JUMPDEST PUSH2 0x167 PUSH1 0x4 DUP1 CALLDATASIZE SUB DUP2 ADD SWAP1 PUSH2 0x162 SWAP2 SWAP1 PUSH2 0x11BA JUMP JUMPDEST PUSH2 0x6E7 JUMP JUMPDEST PUSH1 0x40 MLOAD PUSH2 0x174 SWAP2 SWAP1 PUSH2 0x1770 JUMP JUMPDEST PUSH1 0x40 MLOAD DUP1 SWAP2 SUB SWAP1 RETURN JUMPDEST PUSH2 0x197 PUSH1 0x4 DUP1 CALLDATASIZE SUB DUP2 ADD SWAP1 PUSH2 0x192 SWAP2 SWAP1 PUSH2 0x17BA JUMP JUMPDEST PUSH2 0x830 JUMP JUMPDEST STOP JUMPDEST PUSH2 0x1B3 PUSH1 0x4 DUP1 CALLDATASIZE SUB DUP2 ADD SWAP1 PUSH2 0x1AE SWAP2 SWAP1 PUSH2 0x1478 JUMP JUMPDEST PUSH2 0xA26 JUMP JUMPDEST PUSH1 0x40 MLOAD PUSH2 0x1C0 SWAP2 SWAP1 PUSH2 0x1909 JUMP JUMPDEST PUSH1 0x40 MLOAD DUP1 SWAP2 SUB SWAP1 RETURN JUMPDEST PUSH2 0x1E3 PUSH1 0x4 DUP1 CALLDATASIZE SUB DUP2 ADD SWAP1 PUSH2 0x1DE SWAP2 SWAP1 PUSH2 0x11BA JUMP JUMPDEST PUSH2 0xB4A JUMP JUMPDEST PUSH1 0x40 MLOAD PUSH2 0x1F3 SWAP5 SWAP4 SWAP3 SWAP2 SWAP1 PUSH2 0x1938 JUMP JUMPDEST PUSH1 0x40 MLOAD DUP1 SWAP2 SUB SWAP1 RETURN JUMPDEST PUSH2 0x216 PUSH1 0x4 DUP1 CALLDATASIZE SUB DUP2 ADD SWAP1 PUSH2 0x211 SWAP2 SWAP1 PUSH2 0x1990 JUMP JUMPDEST PUSH2 0xD40 JUMP JUMPDEST PUSH1 0x40 MLOAD PUSH2 0x225 SWAP4 SWAP3 SWAP2 SWAP1 PUSH2 0x1A18 JUMP JUMPDEST PUSH1 0x40 MLOAD DUP1 SWAP2 SUB SWAP1 RETURN JUMPDEST PUSH2 0x248 PUSH1 0x4 DUP1 CALLDATASIZE SUB DUP2 ADD SWAP1 PUSH2 0x243 SWAP2 SWAP1 PUSH2 0x1478 JUMP JUMPDEST PUSH2 0xF4C JUMP JUMPDEST PUSH1 0x40 MLOAD PUSH2 0x256 SWAP3 SWAP2 SWAP1 PUSH2 0x144A JUMP JUMPDEST PUSH1 0x40 MLOAD DUP1 SWAP2 SUB SWAP1 RETURN JUMPDEST PUSH1 0x60 PUSH1 0x2 DUP3 PUSH1 0x40 MLOAD PUSH2 0x271 SWAP2 SWAP1 PUSH2 0x1A9C JUMP JUMPDEST SWAP1 DUP2 MSTORE PUSH1 0x20 ADD PUSH1 0x40 MLOAD DUP1 SWAP2 SUB SWAP1 KECCAK256 PUSH1 0x1 ADD DUP1 SLOAD PUSH2 0x28D SWAP1 PUSH2 0x1ADF JUMP JUMPDEST DUP1 PUSH1 0x1F ADD PUSH1 0x20 DUP1 SWAP2 DIV MUL PUSH1 0x20 ADD PUSH1 0x40 MLOAD SWAP1 DUP2 ADD PUSH1 0x40 MSTORE DUP1 SWAP3 SWAP2 SWAP1 DUP2 DUP2 MSTORE PUSH1 0x20 ADD DUP3 DUP1 SLOAD PUSH2 0x2B9 SWAP1 PUSH2 0x1ADF JUMP JUMPDEST DUP1 ISZERO PUSH2 0x304 JUMPI DUP1 PUSH1 0x1F LT PUSH2 0x2DB JUMPI PUSH2 0x100 DUP1 DUP4 SLOAD DIV MUL DUP4 MSTORE SWAP2 PUSH1 0x20 ADD SWAP2 PUSH2 0x304 JUMP JUMPDEST DUP3 ADD SWAP2 SWAP1 PUSH0 MSTORE PUSH1 0x20 PUSH0 KECCAK256 SWAP1 JUMPDEST DUP2 SLOAD DUP2 MSTORE SWAP1 PUSH1 0x1 ADD SWAP1 PUSH1 0x20 ADD DUP1 DUP4 GT PUSH2 0x2E7 JUMPI DUP3 SWAP1 SUB PUSH1 0x1F AND DUP3 ADD SWAP2 JUMPDEST POP POP POP POP POP SWAP1 POP SWAP2 SWAP1 POP JUMP JUMPDEST PUSH0 PUSH1 0x2 DUP7 PUSH1 0x40 MLOAD PUSH2 0x321 SWAP2 SWAP1 PUSH2 0x1A9C JUMP JUMPDEST SWAP1 DUP2 MSTORE PUSH1 0x20 ADD PUSH1 0x40 MLOAD DUP1 SWAP2 SUB SWAP1 KECCAK256 SWAP1 POP DUP6 DUP2 PUSH0 ADD SWAP1 DUP2 PUSH2 0x341 SWAP2 SWAP1 PUSH2 0x1CAF JUMP JUMPDEST POP DUP4 DUP2 PUSH1 0x1 ADD SWAP1 DUP2 PUSH2 0x353 SWAP2 SWAP1 PUSH2 0x1CAF JUMP JUMPDEST POP DUP3 DUP2 PUSH1 0x2 ADD PUSH0 PUSH2 0x100 EXP DUP2 SLOAD DUP2 PUSH21 0xFFFFFFFFFFFFFFFFFFFFFFFFFFFFFFFFFFFFFFFFFF MUL NOT AND SWAP1 DUP4 PUSH21 0xFFFFFFFFFFFFFFFFFFFFFFFFFFFFFFFFFFFFFFFFFF AND MUL OR SWAP1 SSTORE POP DUP5 DUP2 PUSH1 0x3 ADD SWAP1 DUP2 PUSH2 0x3A9 SWAP2 SWAP1 PUSH2 0x1CAF JUMP JUMPDEST POP POP POP POP POP POP POP JUMP JUMPDEST PUSH1 0x3 DUP3 DUP1 MLOAD PUSH1 0x20 DUP2 ADD DUP3 ADD DUP1 MLOAD DUP5 DUP3 MSTORE PUSH1 0x20 DUP4 ADD PUSH1 0x20 DUP6 ADD KECCAK256 DUP2 DUP4 MSTORE DUP1 SWAP6 POP POP POP POP POP POP DUP2 DUP2 SLOAD DUP2 LT PUSH2 0x3E3 JUMPI PUSH0 DUP1 REVERT JUMPDEST SWAP1 PUSH0 MSTORE PUSH1 0x20 PUSH0 KECCAK256 SWAP1 PUSH1 0x2 MUL ADD PUSH0 SWAP2 POP SWAP2 POP POP DUP1 PUSH0 ADD DUP1 SLOAD PUSH2 0x403 SWAP1 PUSH2 0x1ADF JUMP JUMPDEST DUP1 PUSH1 0x1F ADD PUSH1 0x20 DUP1 SWAP2 DIV MUL PUSH1 0x20 ADD PUSH1 0x40 MLOAD SWAP1 DUP2 ADD PUSH1 0x40 MSTORE DUP1 SWAP3 SWAP2 SWAP1 DUP2 DUP2 MSTORE PUSH1 0x20 ADD DUP3 DUP1 SLOAD PUSH2 0x42F SWAP1 PUSH2 0x1ADF JUMP JUMPDEST DUP1 ISZERO PUSH2 0x47A JUMPI DUP1 PUSH1 0x1F LT PUSH2 0x451 JUMPI PUSH2 0x100 DUP1 DUP4 SLOAD DIV MUL DUP4 MSTORE SWAP2 PUSH1 0x20 ADD SWAP2 PUSH2 0x47A JUMP JUMPDEST DUP3 ADD SWAP2 SWAP1 PUSH0 MSTORE PUSH1 0x20 PUSH0 KECCAK256 SWAP1 JUMPDEST DUP2 SLOAD DUP2 MSTORE SWAP1 PUSH1 0x1 ADD SWAP1 PUSH1 0x20 ADD DUP1 DUP4 GT PUSH2 0x45D JUMPI DUP3 SWAP1 SUB PUSH1 0x1F AND DUP3 ADD SWAP2 JUMPDEST POP POP POP POP POP SWAP1 DUP1 PUSH1 0x1 ADD PUSH0 SWAP1 SLOAD SWAP1 PUSH2 0x100 EXP SWAP1 DIV PUSH13 0xFFFFFFFFFFFFFFFFFFFFFFFFFF AND SWAP1 POP DUP3 JUMP JUMPDEST PUSH1 0x60 PUSH0 DUP4 PUSH1 0x40 MLOAD PUSH2 0x4B3 SWAP2 SWAP1 PUSH2 0x1A9C JUMP JUMPDEST SWAP1 DUP2 MSTORE PUSH1 0x20 ADD PUSH1 0x40 MLOAD DUP1 SWAP2 SUB SWAP1 KECCAK256 DUP3 PUSH1 0x40 MLOAD PUSH2 0x4CF SWAP2 SWAP1 PUSH2 0x1A9C JUMP JUMPDEST SWAP1 DUP2 MSTORE PUSH1 0x20 ADD PUSH1 0x40 MLOAD DUP1 SWAP2 SUB SWAP1 KECCAK256 DUP1 SLOAD DUP1 PUSH1 0x20 MUL PUSH1 0x20 ADD PUSH1 0x40 MLOAD SWAP1 DUP2 ADD PUSH1 0x40 MSTORE DUP1 SWAP3 SWAP2 SWAP1 DUP2 DUP2 MSTORE PUSH1 0x20 ADD PUSH0 SWAP1 JUMPDEST DUP3 DUP3 LT ISZERO PUSH2 0x6DB JUMPI DUP4 DUP3 SWAP1 PUSH0 MSTORE PUSH1 0x20 PUSH0 KECCAK256 SWAP1 PUSH1 0x3 MUL ADD PUSH1 0x40 MLOAD DUP1 PUSH1 0x60 ADD PUSH1 0x40 MSTORE SWAP1 DUP2 PUSH0 DUP3 ADD DUP1 SLOAD PUSH2 0x52C SWAP1 PUSH2 0x1ADF JUMP JUMPDEST DUP1 PUSH1 0x1F ADD PUSH1 0x20 DUP1 SWAP2 DIV MUL PUSH1 0x20 ADD PUSH1 0x40 MLOAD SWAP1 DUP2 ADD PUSH1 0x40 MSTORE DUP1 SWAP3 SWAP2 SWAP1 DUP2 DUP2 MSTORE PUSH1 0x20 ADD DUP3 DUP1 SLOAD PUSH2 0x558 SWAP1 PUSH2 0x1ADF JUMP JUMPDEST DUP1 ISZERO PUSH2 0x5A3 JUMPI DUP1 PUSH1 0x1F LT PUSH2 0x57A JUMPI PUSH2 0x100 DUP1 DUP4 SLOAD DIV MUL DUP4 MSTORE SWAP2 PUSH1 0x20 ADD SWAP2 PUSH2 0x5A3 JUMP JUMPDEST DUP3 ADD SWAP2 SWAP1 PUSH0 MSTORE PUSH1 0x20 PUSH0 KECCAK256 SWAP1 JUMPDEST DUP2 SLOAD DUP2 MSTORE SWAP1 PUSH1 0x1 ADD SWAP1 PUSH1 0x20 ADD DUP1 DUP4 GT PUSH2 0x586 JUMPI DUP3 SWAP1 SUB PUSH1 0x1F AND DUP3 ADD SWAP2 JUMPDEST POP POP POP POP POP DUP2 MSTORE PUSH1 0x20 ADD PUSH1 0x1 DUP3 ADD DUP1 SLOAD PUSH2 0x5BC SWAP1 PUSH2 0x1ADF JUMP JUMPDEST DUP1 PUSH1 0x1F ADD PUSH1 0x20 DUP1 SWAP2 DIV MUL PUSH1 0x20 ADD PUSH1 0x40 MLOAD SWAP1 DUP2 ADD PUSH1 0x40 MSTORE DUP1 SWAP3 SWAP2 SWAP1 DUP2 DUP2 MSTORE PUSH1 0x20 ADD DUP3 DUP1 SLOAD PUSH2 0x5E8 SWAP1 PUSH2 0x1ADF JUMP JUMPDEST DUP1 ISZERO PUSH2 0x633 JUMPI DUP1 PUSH1 0x1F LT PUSH2 0x60A JUMPI PUSH2 0x100 DUP1 DUP4 SLOAD DIV MUL DUP4 MSTORE SWAP2 PUSH1 0x20 ADD SWAP2 PUSH2 0x633 JUMP JUMPDEST DUP3 ADD SWAP2 SWAP1 PUSH0 MSTORE PUSH1 0x20 PUSH0 KECCAK256 SWAP1 JUMPDEST DUP2 SLOAD DUP2 MSTORE SWAP1 PUSH1 0x1 ADD SWAP1 PUSH1 0x20 ADD DUP1 DUP4 GT PUSH2 0x616 JUMPI DUP3 SWAP1 SUB PUSH1 0x1F AND DUP3 ADD SWAP2 JUMPDEST POP POP POP POP POP DUP2 MSTORE PUSH1 0x20 ADD PUSH1 0x2 DUP3 ADD DUP1 SLOAD PUSH2 0x64C SWAP1 PUSH2 0x1ADF JUMP JUMPDEST DUP1 PUSH1 0x1F ADD PUSH1 0x20 DUP1 SWAP2 DIV MUL PUSH1 0x20 ADD PUSH1 0x40 MLOAD SWAP1 DUP2 ADD PUSH1 0x40 MSTORE DUP1 SWAP3 SWAP2 SWAP1 DUP2 DUP2 MSTORE PUSH1 0x20 ADD DUP3 DUP1 SLOAD PUSH2 0x678 SWAP1 PUSH2 0x1ADF JUMP JUMPDEST DUP1 ISZERO PUSH2 0x6C3 JUMPI DUP1 PUSH1 0x1F LT PUSH2 0x69A JUMPI PUSH2 0x100 DUP1 DUP4 SLOAD DIV MUL DUP4 MSTORE SWAP2 PUSH1 0x20 ADD SWAP2 PUSH2 0x6C3 JUMP JUMPDEST DUP3 ADD SWAP2 SWAP1 PUSH0 MSTORE PUSH1 0x20 PUSH0 KECCAK256 SWAP1 JUMPDEST DUP2 SLOAD DUP2 MSTORE SWAP1 PUSH1 0x1 ADD SWAP1 PUSH1 0x20 ADD DUP1 DUP4 GT PUSH2 0x6A6 JUMPI DUP3 SWAP1 SUB PUSH1 0x1F AND DUP3 ADD SWAP2 JUMPDEST POP POP POP POP POP DUP2 MSTORE POP POP DUP2 MSTORE PUSH1 0x20 ADD SWAP1 PUSH1 0x1 ADD SWAP1 PUSH2 0x4FC JUMP JUMPDEST POP POP POP POP SWAP1 POP SWAP3 SWAP2 POP POP JUMP JUMPDEST PUSH1 0x60 PUSH1 0x3 DUP3 PUSH1 0x40 MLOAD PUSH2 0x6F9 SWAP2 SWAP1 PUSH2 0x1A9C JUMP JUMPDEST SWAP1 DUP2 MSTORE PUSH1 0x20 ADD PUSH1 0x40 MLOAD DUP1 SWAP2 SUB SWAP1 KECCAK256 DUP1 SLOAD DUP1 PUSH1 0x20 MUL PUSH1 0x20 ADD PUSH1 0x40 MLOAD SWAP1 DUP2 ADD PUSH1 0x40 MSTORE DUP1 SWAP3 SWAP2 SWAP1 DUP2 DUP2 MSTORE PUSH1 0x20 ADD PUSH0 SWAP1 JUMPDEST DUP3 DUP3 LT ISZERO PUSH2 0x825 JUMPI DUP4 DUP3 SWAP1 PUSH0 MSTORE PUSH1 0x20 PUSH0 KECCAK256 SWAP1 PUSH1 0x2 MUL ADD PUSH1 0x40 MLOAD DUP1 PUSH1 0x40 ADD PUSH1 0x40 MSTORE SWAP1 DUP2 PUSH0 DUP3 ADD DUP1 SLOAD PUSH2 0x756 SWAP1 PUSH2 0x1ADF JUMP JUMPDEST DUP1 PUSH1 0x1F ADD PUSH1 0x20 DUP1 SWAP2 DIV MUL PUSH1 0x20 ADD PUSH1 0x40 MLOAD SWAP1 DUP2 ADD PUSH1 0x40 MSTORE DUP1 SWAP3 SWAP2 SWAP1 DUP2 DUP2 MSTORE PUSH1 0x20 ADD DUP3 DUP1 SLOAD PUSH2 0x782 SWAP1 PUSH2 0x1ADF JUMP JUMPDEST DUP1 ISZERO PUSH2 0x7CD JUMPI DUP1 PUSH1 0x1F LT PUSH2 0x7A4 JUMPI PUSH2 0x100 DUP1 DUP4 SLOAD DIV MUL DUP4 MSTORE SWAP2 PUSH1 0x20 ADD SWAP2 PUSH2 0x7CD JUMP JUMPDEST DUP3 ADD SWAP2 SWAP1 PUSH0 MSTORE PUSH1 0x20 PUSH0 KECCAK256 SWAP1 JUMPDEST DUP2 SLOAD DUP2 MSTORE SWAP1 PUSH1 0x1 ADD SWAP1 PUSH1 0x20 ADD DUP1 DUP4 GT PUSH2 0x7B0 JUMPI DUP3 SWAP1 SUB PUSH1 0x1F AND DUP3 ADD SWAP2 JUMPDEST POP POP POP POP POP DUP2 MSTORE PUSH1 0x20 ADD PUSH1 0x1 DUP3 ADD PUSH0 SWAP1 SLOAD SWAP1 PUSH2 0x100 EXP SWAP1 DIV PUSH13 0xFFFFFFFFFFFFFFFFFFFFFFFFFF AND PUSH13 0xFFFFFFFFFFFFFFFFFFFFFFFFFF AND PUSH13 0xFFFFFFFFFFFFFFFFFFFFFFFFFF AND DUP2 MSTORE POP POP DUP2 MSTORE PUSH1 0x20 ADD SWAP1 PUSH1 0x1 ADD SWAP1 PUSH2 0x726 JUMP JUMPDEST POP POP POP POP SWAP1 POP SWAP2 SWAP1 POP JUMP JUMPDEST PUSH0 PUSH1 0x40 MLOAD DUP1 PUSH1 0x60 ADD PUSH1 0x40 MSTORE DUP1 DUP6 DUP2 MSTORE PUSH1 0x20 ADD DUP5 DUP2 MSTORE PUSH1 0x20 ADD DUP4 DUP2 MSTORE POP SWAP1 POP PUSH0 PUSH1 0x1 DUP7 PUSH1 0x40 MLOAD PUSH2 0x85F SWAP2 SWAP1 PUSH2 0x1A9C JUMP JUMPDEST SWAP1 DUP2 MSTORE PUSH1 0x20 ADD PUSH1 0x40 MLOAD DUP1 SWAP2 SUB SWAP1 KECCAK256 DUP9 PUSH1 0x40 MLOAD PUSH2 0x87B SWAP2 SWAP1 PUSH2 0x1A9C JUMP JUMPDEST SWAP1 DUP2 MSTORE PUSH1 0x20 ADD PUSH1 0x40 MLOAD DUP1 SWAP2 SUB SWAP1 KECCAK256 SWAP1 POP DUP8 DUP2 PUSH0 ADD SWAP1 DUP2 PUSH2 0x89B SWAP2 SWAP1 PUSH2 0x1CAF JUMP JUMPDEST POP DUP7 DUP2 PUSH1 0x1 ADD PUSH0 PUSH2 0x100 EXP DUP2 SLOAD DUP2 PUSH13 0xFFFFFFFFFFFFFFFFFFFFFFFFFF MUL NOT AND SWAP1 DUP4 PUSH13 0xFFFFFFFFFFFFFFFFFFFFFFFFFF AND MUL OR SWAP1 SSTORE POP PUSH1 0x3 DUP7 PUSH1 0x40 MLOAD PUSH2 0x8E0 SWAP2 SWAP1 PUSH2 0x1A9C JUMP JUMPDEST SWAP1 DUP2 MSTORE PUSH1 0x20 ADD PUSH1 0x40 MLOAD DUP1 SWAP2 SUB SWAP1 KECCAK256 DUP2 SWAP1 DUP1 PUSH1 0x1 DUP2 SLOAD ADD DUP1 DUP3 SSTORE DUP1 SWAP2 POP POP PUSH1 0x1 SWAP1 SUB SWAP1 PUSH0 MSTORE PUSH1 0x20 PUSH0 KECCAK256 SWAP1 PUSH1 0x2 MUL ADD PUSH0 SWAP1 SWAP2 SWAP1 SWAP2 SWAP1 SWAP2 POP PUSH0 DUP3 ADD DUP2 PUSH0 ADD SWAP1 DUP2 PUSH2 0x927 SWAP2 SWAP1 PUSH2 0x1D93 JUMP JUMPDEST POP PUSH1 0x1 DUP3 ADD PUSH0 SWAP1 SLOAD SWAP1 PUSH2 0x100 EXP SWAP1 DIV PUSH13 0xFFFFFFFFFFFFFFFFFFFFFFFFFF AND DUP2 PUSH1 0x1 ADD PUSH0 PUSH2 0x100 EXP DUP2 SLOAD DUP2 PUSH13 0xFFFFFFFFFFFFFFFFFFFFFFFFFF MUL NOT AND SWAP1 DUP4 PUSH13 0xFFFFFFFFFFFFFFFFFFFFFFFFFF AND MUL OR SWAP1 SSTORE POP POP POP PUSH0 DUP7 PUSH1 0x40 MLOAD PUSH2 0x989 SWAP2 SWAP1 PUSH2 0x1A9C JUMP JUMPDEST SWAP1 DUP2 MSTORE PUSH1 0x20 ADD PUSH1 0x40 MLOAD DUP1 SWAP2 SUB SWAP1 KECCAK256 DUP9 PUSH1 0x40 MLOAD PUSH2 0x9A5 SWAP2 SWAP1 PUSH2 0x1A9C JUMP JUMPDEST SWAP1 DUP2 MSTORE PUSH1 0x20 ADD PUSH1 0x40 MLOAD DUP1 SWAP2 SUB SWAP1 KECCAK256 DUP3 SWAP1 DUP1 PUSH1 0x1 DUP2 SLOAD ADD DUP1 DUP3 SSTORE DUP1 SWAP2 POP POP PUSH1 0x1 SWAP1 SUB SWAP1 PUSH0 MSTORE PUSH1 0x20 PUSH0 KECCAK256 SWAP1 PUSH1 0x3 MUL ADD PUSH0 SWAP1 SWAP2 SWAP1 SWAP2 SWAP1 SWAP2 POP PUSH0 DUP3 ADD MLOAD DUP2 PUSH0 ADD SWAP1 DUP2 PUSH2 0x9ED SWAP2 SWAP1 PUSH2 0x1CAF JUMP JUMPDEST POP PUSH1 0x20 DUP3 ADD MLOAD DUP2 PUSH1 0x1 ADD SWAP1 DUP2 PUSH2 0xA03 SWAP2 SWAP1 PUSH2 0x1CAF JUMP JUMPDEST POP PUSH1 0x40 DUP3 ADD MLOAD DUP2 PUSH1 0x2 ADD SWAP1 DUP2 PUSH2 0xA19 SWAP2 SWAP1 PUSH2 0x1CAF JUMP JUMPDEST POP POP POP POP POP POP POP POP POP POP POP JUMP JUMPDEST PUSH2 0xA2E PUSH2 0x1045 JUMP JUMPDEST PUSH1 0x1 DUP4 PUSH1 0x40 MLOAD PUSH2 0xA3E SWAP2 SWAP1 PUSH2 0x1A9C JUMP JUMPDEST SWAP1 DUP2 MSTORE PUSH1 0x20 ADD PUSH1 0x40 MLOAD DUP1 SWAP2 SUB SWAP1 KECCAK256 DUP3 PUSH1 0x40 MLOAD PUSH2 0xA5A SWAP2 SWAP1 PUSH2 0x1A9C JUMP JUMPDEST SWAP1 DUP2 MSTORE PUSH1 0x20 ADD PUSH1 0x40 MLOAD DUP1 SWAP2 SUB SWAP1 KECCAK256 PUSH1 0x40 MLOAD DUP1 PUSH1 0x40 ADD PUSH1 0x40 MSTORE SWAP1 DUP2 PUSH0 DUP3 ADD DUP1 SLOAD PUSH2 0xA82 SWAP1 PUSH2 0x1ADF JUMP JUMPDEST DUP1 PUSH1 0x1F ADD PUSH1 0x20 DUP1 SWAP2 DIV MUL PUSH1 0x20 ADD PUSH1 0x40 MLOAD SWAP1 DUP2 ADD PUSH1 0x40 MSTORE DUP1 SWAP3 SWAP2 SWAP1 DUP2 DUP2 MSTORE PUSH1 0x20 ADD DUP3 DUP1 SLOAD PUSH2 0xAAE SWAP1 PUSH2 0x1ADF JUMP JUMPDEST DUP1 ISZERO PUSH2 0xAF9 JUMPI DUP1 PUSH1 0x1F LT PUSH2 0xAD0 JUMPI PUSH2 0x100 DUP1 DUP4 SLOAD DIV MUL DUP4 MSTORE SWAP2 PUSH1 0x20 ADD SWAP2 PUSH2 0xAF9 JUMP JUMPDEST DUP3 ADD SWAP2 SWAP1 PUSH0 MSTORE PUSH1 0x20 PUSH0 KECCAK256 SWAP1 JUMPDEST DUP2 SLOAD DUP2 MSTORE SWAP1 PUSH1 0x1 ADD SWAP1 PUSH1 0x20 ADD DUP1 DUP4 GT PUSH2 0xADC JUMPI DUP3 SWAP1 SUB PUSH1 0x1F AND DUP3 ADD SWAP2 JUMPDEST POP POP POP POP POP DUP2 MSTORE PUSH1 0x20 ADD PUSH1 0x1 DUP3 ADD PUSH0 SWAP1 SLOAD SWAP1 PUSH2 0x100 EXP SWAP1 DIV PUSH13 0xFFFFFFFFFFFFFFFFFFFFFFFFFF AND PUSH13 0xFFFFFFFFFFFFFFFFFFFFFFFFFF AND PUSH13 0xFFFFFFFFFFFFFFFFFFFFFFFFFF AND DUP2 MSTORE POP POP SWAP1 POP SWAP3 SWAP2 POP POP JUMP JUMPDEST PUSH1 0x2 DUP2 DUP1 MLOAD PUSH1 0x20 DUP2 ADD DUP3 ADD DUP1 MLOAD DUP5 DUP3 MSTORE PUSH1 0x20 DUP4 ADD PUSH1 0x20 DUP6 ADD KECCAK256 DUP2 DUP4 MSTORE DUP1 SWAP6 POP POP POP POP POP POP PUSH0 SWAP2 POP SWAP1 POP DUP1 PUSH0 ADD DUP1 SLOAD PUSH2 0xB81 SWAP1 PUSH2 0x1ADF JUMP JUMPDEST DUP1 PUSH1 0x1F ADD PUSH1 0x20 DUP1 SWAP2 DIV MUL PUSH1 0x20 ADD PUSH1 0x40 MLOAD SWAP1 DUP2 ADD PUSH1 0x40 MSTORE DUP1 SWAP3 SWAP2 SWAP1 DUP2 DUP2 MSTORE PUSH1 0x20 ADD DUP3 DUP1 SLOAD PUSH2 0xBAD SWAP1 PUSH2 0x1ADF JUMP JUMPDEST DUP1 ISZERO PUSH2 0xBF8 JUMPI DUP1 PUSH1 0x1F LT PUSH2 0xBCF JUMPI PUSH2 0x100 DUP1 DUP4 SLOAD DIV MUL DUP4 MSTORE SWAP2 PUSH1 0x20 ADD SWAP2 PUSH2 0xBF8 JUMP JUMPDEST DUP3 ADD SWAP2 SWAP1 PUSH0 MSTORE PUSH1 0x20 PUSH0 KECCAK256 SWAP1 JUMPDEST DUP2 SLOAD DUP2 MSTORE SWAP1 PUSH1 0x1 ADD SWAP1 PUSH1 0x20 ADD DUP1 DUP4 GT PUSH2 0xBDB JUMPI DUP3 SWAP1 SUB PUSH1 0x1F AND DUP3 ADD SWAP2 JUMPDEST POP POP POP POP POP SWAP1 DUP1 PUSH1 0x1 ADD DUP1 SLOAD PUSH2 0xC0D SWAP1 PUSH2 0x1ADF JUMP JUMPDEST DUP1 PUSH1 0x1F ADD PUSH1 0x20 DUP1 SWAP2 DIV MUL PUSH1 0x20 ADD PUSH1 0x40 MLOAD SWAP1 DUP2 ADD PUSH1 0x40 MSTORE DUP1 SWAP3 SWAP2 SWAP1 DUP2 DUP2 MSTORE PUSH1 0x20 ADD DUP3 DUP1 SLOAD PUSH2 0xC39 SWAP1 PUSH2 0x1ADF JUMP JUMPDEST DUP1 ISZERO PUSH2 0xC84 JUMPI DUP1 PUSH1 0x1F LT PUSH2 0xC5B JUMPI PUSH2 0x100 DUP1 DUP4 SLOAD DIV MUL DUP4 MSTORE SWAP2 PUSH1 0x20 ADD SWAP2 PUSH2 0xC84 JUMP JUMPDEST DUP3 ADD SWAP2 SWAP1 PUSH0 MSTORE PUSH1 0x20 PUSH0 KECCAK256 SWAP1 JUMPDEST DUP2 SLOAD DUP2 MSTORE SWAP1 PUSH1 0x1 ADD SWAP1 PUSH1 0x20 ADD DUP1 DUP4 GT PUSH2 0xC67 JUMPI DUP3 SWAP1 SUB PUSH1 0x1F AND DUP3 ADD SWAP2 JUMPDEST POP POP POP POP POP SWAP1 DUP1 PUSH1 0x2 ADD PUSH0 SWAP1 SLOAD SWAP1 PUSH2 0x100 EXP SWAP1 DIV PUSH21 0xFFFFFFFFFFFFFFFFFFFFFFFFFFFFFFFFFFFFFFFFFF AND SWAP1 DUP1 PUSH1 0x3 ADD DUP1 SLOAD PUSH2 0xCBF SWAP1 PUSH2 0x1ADF JUMP JUMPDEST DUP1 PUSH1 0x1F ADD PUSH1 0x20 DUP1 SWAP2 DIV MUL PUSH1 0x20 ADD PUSH1 0x40 MLOAD SWAP1 DUP2 ADD PUSH1 0x40 MSTORE DUP1 SWAP3 SWAP2 SWAP1 DUP2 DUP2 MSTORE PUSH1 0x20 ADD DUP3 DUP1 SLOAD PUSH2 0xCEB SWAP1 PUSH2 0x1ADF JUMP JUMPDEST DUP1 ISZERO PUSH2 0xD36 JUMPI DUP1 PUSH1 0x1F LT PUSH2 0xD0D JUMPI PUSH2 0x100 DUP1 DUP4 SLOAD DIV MUL DUP4 MSTORE SWAP2 PUSH1 0x20 ADD SWAP2 PUSH2 0xD36 JUMP JUMPDEST DUP3 ADD SWAP2 SWAP1 PUSH0 MSTORE PUSH1 0x20 PUSH0 KECCAK256 SWAP1 JUMPDEST DUP2 SLOAD DUP2 MSTORE SWAP1 PUSH1 0x1 ADD SWAP1 PUSH1 0x20 ADD DUP1 DUP4 GT PUSH2 0xD19 JUMPI DUP3 SWAP1 SUB PUSH1 0x1F AND DUP3 ADD SWAP2 JUMPDEST POP POP POP POP POP SWAP1 POP DUP5 JUMP JUMPDEST PUSH0 DUP4 DUP1 MLOAD PUSH1 0x20 DUP2 ADD DUP3 ADD DUP1 MLOAD DUP5 DUP3 MSTORE PUSH1 0x20 DUP4 ADD PUSH1 0x20 DUP6 ADD KECCAK256 DUP2 DUP4 MSTORE DUP1 SWAP6 POP POP POP POP POP POP DUP3 DUP1 MLOAD PUSH1 0x20 DUP2 ADD DUP3 ADD DUP1 MLOAD DUP5 DUP3 MSTORE PUSH1 0x20 DUP4 ADD PUSH1 0x20 DUP6 ADD KECCAK256 DUP2 DUP4 MSTORE DUP1 SWAP6 POP POP POP POP POP POP DUP2 DUP2 SLOAD DUP2 LT PUSH2 0xD92 JUMPI PUSH0 DUP1 REVERT JUMPDEST SWAP1 PUSH0 MSTORE PUSH1 0x20 PUSH0 KECCAK256 SWAP1 PUSH1 0x3 MUL ADD PUSH0 SWAP3 POP SWAP3 POP POP POP DUP1 PUSH0 ADD DUP1 SLOAD PUSH2 0xDB3 SWAP1 PUSH2 0x1ADF JUMP JUMPDEST DUP1 PUSH1 0x1F ADD PUSH1 0x20 DUP1 SWAP2 DIV MUL PUSH1 0x20 ADD PUSH1 0x40 MLOAD SWAP1 DUP2 ADD PUSH1 0x40 MSTORE DUP1 SWAP3 SWAP2 SWAP1 DUP2 DUP2 MSTORE PUSH1 0x20 ADD DUP3 DUP1 SLOAD PUSH2 0xDDF SWAP1 PUSH2 0x1ADF JUMP JUMPDEST DUP1 ISZERO PUSH2 0xE2A JUMPI DUP1 PUSH1 0x1F LT PUSH2 0xE01 JUMPI PUSH2 0x100 DUP1 DUP4 SLOAD DIV MUL DUP4 MSTORE SWAP2 PUSH1 0x20 ADD SWAP2 PUSH2 0xE2A JUMP JUMPDEST DUP3 ADD SWAP2 SWAP1 PUSH0 MSTORE PUSH1 0x20 PUSH0 KECCAK256 SWAP1 JUMPDEST DUP2 SLOAD DUP2 MSTORE SWAP1 PUSH1 0x1 ADD SWAP1 PUSH1 0x20 ADD DUP1 DUP4 GT PUSH2 0xE0D JUMPI DUP3 SWAP1 SUB PUSH1 0x1F AND DUP3 ADD SWAP2 JUMPDEST POP POP POP POP POP SWAP1 DUP1 PUSH1 0x1 ADD DUP1 SLOAD PUSH2 0xE3F SWAP1 PUSH2 0x1ADF JUMP JUMPDEST DUP1 PUSH1 0x1F ADD PUSH1 0x20 DUP1 SWAP2 DIV MUL PUSH1 0x20 ADD PUSH1 0x40 MLOAD SWAP1 DUP2 ADD PUSH1 0x40 MSTORE DUP1 SWAP3 SWAP2 SWAP1 DUP2 DUP2 MSTORE PUSH1 0x20 ADD DUP3 DUP1 SLOAD PUSH2 0xE6B SWAP1 PUSH2 0x1ADF JUMP JUMPDEST DUP1 ISZERO PUSH2 0xEB6 JUMPI DUP1 PUSH1 0x1F LT PUSH2 0xE8D JUMPI PUSH2 0x100 DUP1 DUP4 SLOAD DIV MUL DUP4 MSTORE SWAP2 PUSH1 0x20 ADD SWAP2 PUSH2 0xEB6 JUMP JUMPDEST DUP3 ADD SWAP2 SWAP1 PUSH0 MSTORE PUSH1 0x20 PUSH0 KECCAK256 SWAP1 JUMPDEST DUP2 SLOAD DUP2 MSTORE SWAP1 PUSH1 0x1 ADD SWAP1 PUSH1 0x20 ADD DUP1 DUP4 GT PUSH2 0xE99 JUMPI DUP3 SWAP1 SUB PUSH1 0x1F AND DUP3 ADD SWAP2 JUMPDEST POP POP POP POP POP SWAP1 DUP1 PUSH1 0x2 ADD DUP1 SLOAD PUSH2 0xECB SWAP1 PUSH2 0x1ADF JUMP JUMPDEST DUP1 PUSH1 0x1F ADD PUSH1 0x20 DUP1 SWAP2 DIV MUL PUSH1 0x20 ADD PUSH1 0x40 MLOAD SWAP1 DUP2 ADD PUSH1 0x40 MSTORE DUP1 SWAP3 SWAP2 SWAP1 DUP2 DUP2 MSTORE PUSH1 0x20 ADD DUP3 DUP1 SLOAD PUSH2 0xEF7 SWAP1 PUSH2 0x1ADF JUMP JUMPDEST DUP1 ISZERO PUSH2 0xF42 JUMPI DUP1 PUSH1 0x1F LT PUSH2 0xF19 JUMPI PUSH2 0x100 DUP1 DUP4 SLOAD DIV MUL DUP4 MSTORE SWAP2 PUSH1 0x20 ADD SWAP2 PUSH2 0xF42 JUMP JUMPDEST DUP3 ADD SWAP2 SWAP1 PUSH0 MSTORE PUSH1 0x20 PUSH0 KECCAK256 SWAP1 JUMPDEST DUP2 SLOAD DUP2 MSTORE SWAP1 PUSH1 0x1 ADD SWAP1 PUSH1 0x20 ADD DUP1 DUP4 GT PUSH2 0xF25 JUMPI DUP3 SWAP1 SUB PUSH1 0x1F AND DUP3 ADD SWAP2 JUMPDEST POP POP POP POP POP SWAP1 POP DUP4 JUMP JUMPDEST PUSH1 0x1 DUP3 DUP1 MLOAD PUSH1 0x20 DUP2 ADD DUP3 ADD DUP1 MLOAD DUP5 DUP3 MSTORE PUSH1 0x20 DUP4 ADD PUSH1 0x20 DUP6 ADD KECCAK256 DUP2 DUP4 MSTORE DUP1 SWAP6 POP POP POP POP POP POP DUP2 DUP1 MLOAD PUSH1 0x20 DUP2 ADD DUP3 ADD DUP1 MLOAD DUP5 DUP3 MSTORE PUSH1 0x20 DUP4 ADD PUSH1 0x20 DUP6 ADD KECCAK256 DUP2 DUP4 MSTORE DUP1 SWAP6 POP POP POP POP POP POP PUSH0 SWAP2 POP SWAP2 POP POP DUP1 PUSH0 ADD DUP1 SLOAD PUSH2 0xFA6 SWAP1 PUSH2 0x1ADF JUMP JUMPDEST DUP1 PUSH1 0x1F ADD PUSH1 0x20 DUP1 SWAP2 DIV MUL PUSH1 0x20 ADD PUSH1 0x40 MLOAD SWAP1 DUP2 ADD PUSH1 0x40 MSTORE DUP1 SWAP3 SWAP2 SWAP1 DUP2 DUP2 MSTORE PUSH1 0x20 ADD DUP3 DUP1 SLOAD PUSH2 0xFD2 SWAP1 PUSH2 0x1ADF JUMP JUMPDEST DUP1 ISZERO PUSH2 0x101D JUMPI DUP1 PUSH1 0x1F LT PUSH2 0xFF4 JUMPI PUSH2 0x100 DUP1 DUP4 SLOAD DIV MUL DUP4 MSTORE SWAP2 PUSH1 0x20 ADD SWAP2 PUSH2 0x101D JUMP JUMPDEST DUP3 ADD SWAP2 SWAP1 PUSH0 MSTORE PUSH1 0x20 PUSH0 KECCAK256 SWAP1 JUMPDEST DUP2 SLOAD DUP2 MSTORE SWAP1 PUSH1 0x1 ADD SWAP1 PUSH1 0x20 ADD DUP1 DUP4 GT PUSH2 0x1000 JUMPI DUP3 SWAP1 SUB PUSH1 0x1F AND DUP3 ADD SWAP2 JUMPDEST POP POP POP POP POP SWAP1 DUP1 PUSH1 0x1 ADD PUSH0 SWAP1 SLOAD SWAP1 PUSH2 0x100 EXP SWAP1 DIV PUSH13 0xFFFFFFFFFFFFFFFFFFFFFFFFFF AND SWAP1 POP DUP3 JUMP JUMPDEST PUSH1 0x40 MLOAD DUP1 PUSH1 0x40 ADD PUSH1 0x40 MSTORE DUP1 PUSH1 0x60 DUP2 MSTORE PUSH1 0x20 ADD PUSH0 PUSH13 0xFFFFFFFFFFFFFFFFFFFFFFFFFF AND DUP2 MSTORE POP SWAP1 JUMP JUMPDEST PUSH0 PUSH1 0x40 MLOAD SWAP1 POP SWAP1 JUMP JUMPDEST PUSH0 PUSH0 REVERT JUMPDEST PUSH0 PUSH0 REVERT JUMPDEST PUSH0 PUSH0 REVERT JUMPDEST PUSH0 PUSH0 REVERT JUMPDEST PUSH0 PUSH1 0x1F NOT PUSH1 0x1F DUP4 ADD AND SWAP1 POP SWAP2 SWAP1 POP JUMP JUMPDEST PUSH32 0x4E487B7100000000000000000000000000000000000000000000000000000000 PUSH0 MSTORE PUSH1 0x41 PUSH1 0x4 MSTORE PUSH1 0x24 PUSH0 REVERT JUMPDEST PUSH2 0x10CC DUP3 PUSH2 0x1086 JUMP JUMPDEST DUP2 ADD DUP2 DUP2 LT PUSH8 0xFFFFFFFFFFFFFFFF DUP3 GT OR ISZERO PUSH2 0x10EB JUMPI PUSH2 0x10EA PUSH2 0x1096 JUMP JUMPDEST JUMPDEST DUP1 PUSH1 0x40 MSTORE POP POP POP JUMP JUMPDEST PUSH0 PUSH2 0x10FD PUSH2 0x106D JUMP JUMPDEST SWAP1 POP PUSH2 0x1109 DUP3 DUP3 PUSH2 0x10C3 JUMP JUMPDEST SWAP2 SWAP1 POP JUMP JUMPDEST PUSH0 PUSH8 0xFFFFFFFFFFFFFFFF DUP3 GT ISZERO PUSH2 0x1128 JUMPI PUSH2 0x1127 PUSH2 0x1096 JUMP JUMPDEST JUMPDEST PUSH2 0x1131 DUP3 PUSH2 0x1086 JUMP JUMPDEST SWAP1 POP PUSH1 0x20 DUP2 ADD SWAP1 POP SWAP2 SWAP1 POP JUMP JUMPDEST DUP3 DUP2 DUP4 CALLDATACOPY PUSH0 DUP4 DUP4 ADD MSTORE POP POP POP JUMP JUMPDEST PUSH0 PUSH2 0x115E PUSH2 0x1159 DUP5 PUSH2 0x110E JUMP JUMPDEST PUSH2 0x10F4 JUMP JUMPDEST SWAP1 POP DUP3 DUP2 MSTORE PUSH1 0x20 DUP2 ADD DUP5 DUP5 DUP5 ADD GT ISZERO PUSH2 0x117A JUMPI PUSH2 0x1179 PUSH2 0x1082 JUMP JUMPDEST JUMPDEST PUSH2 0x1185 DUP5 DUP3 DUP6 PUSH2 0x113E JUMP JUMPDEST POP SWAP4 SWAP3 POP POP POP JUMP JUMPDEST PUSH0 DUP3 PUSH1 0x1F DUP4 ADD SLT PUSH2 0x11A1 JUMPI PUSH2 0x11A0 PUSH2 0x107E JUMP JUMPDEST JUMPDEST DUP2 CALLDATALOAD PUSH2 0x11B1 DUP5 DUP3 PUSH1 0x20 DUP7 ADD PUSH2 0x114C JUMP JUMPDEST SWAP2 POP POP SWAP3 SWAP2 POP POP JUMP JUMPDEST PUSH0 PUSH1 0x20 DUP3 DUP5 SUB SLT ISZERO PUSH2 0x11CF JUMPI PUSH2 0x11CE PUSH2 0x1076 JUMP JUMPDEST JUMPDEST PUSH0 DUP3 ADD CALLDATALOAD PUSH8 0xFFFFFFFFFFFFFFFF DUP2 GT ISZERO PUSH2 0x11EC JUMPI PUSH2 0x11EB PUSH2 0x107A JUMP JUMPDEST JUMPDEST PUSH2 0x11F8 DUP5 DUP3 DUP6 ADD PUSH2 0x118D JUMP JUMPDEST SWAP2 POP POP SWAP3 SWAP2 POP POP JUMP JUMPDEST PUSH0 DUP2 MLOAD SWAP1 POP SWAP2 SWAP1 POP JUMP JUMPDEST PUSH0 DUP3 DUP3 MSTORE PUSH1 0x20 DUP3 ADD SWAP1 POP SWAP3 SWAP2 POP POP JUMP JUMPDEST DUP3 DUP2 DUP4 MCOPY PUSH0 DUP4 DUP4 ADD MSTORE POP POP POP JUMP JUMPDEST PUSH0 PUSH2 0x1233 DUP3 PUSH2 0x1201 JUMP JUMPDEST PUSH2 0x123D DUP2 DUP6 PUSH2 0x120B JUMP JUMPDEST SWAP4 POP PUSH2 0x124D DUP2 DUP6 PUSH1 0x20 DUP7 ADD PUSH2 0x121B JUMP JUMPDEST PUSH2 0x1256 DUP2 PUSH2 0x1086 JUMP JUMPDEST DUP5 ADD SWAP2 POP POP SWAP3 SWAP2 POP POP JUMP JUMPDEST PUSH0 PUSH1 0x20 DUP3 ADD SWAP1 POP DUP2 DUP2 SUB PUSH0 DUP4 ADD MSTORE PUSH2 0x1279 DUP2 DUP5 PUSH2 0x1229 JUMP JUMPDEST SWAP1 POP SWAP3 SWAP2 POP POP JUMP JUMPDEST PUSH0 PUSH21 0xFFFFFFFFFFFFFFFFFFFFFFFFFFFFFFFFFFFFFFFFFF DUP3 AND SWAP1 POP SWAP2 SWAP1 POP JUMP JUMPDEST PUSH2 0x12AA DUP2 PUSH2 0x1281 JUMP JUMPDEST DUP2 EQ PUSH2 0x12B4 JUMPI PUSH0 PUSH0 REVERT JUMPDEST POP JUMP JUMPDEST PUSH0 DUP2 CALLDATALOAD SWAP1 POP PUSH2 0x12C5 DUP2 PUSH2 0x12A1 JUMP JUMPDEST SWAP3 SWAP2 POP POP JUMP JUMPDEST PUSH0 DUP2 SWAP1 POP SWAP2 SWAP1 POP JUMP JUMPDEST PUSH2 0x12DD DUP2 PUSH2 0x12CB JUMP JUMPDEST DUP2 EQ PUSH2 0x12E7 JUMPI PUSH0 PUSH0 REVERT JUMPDEST POP JUMP JUMPDEST PUSH0 DUP2 CALLDATALOAD SWAP1 POP PUSH2 0x12F8 DUP2 PUSH2 0x12D4 JUMP JUMPDEST SWAP3 SWAP2 POP POP JUMP JUMPDEST PUSH0 PUSH0 PUSH0 PUSH0 PUSH0 PUSH1 0xA0 DUP7 DUP9 SUB SLT ISZERO PUSH2 0x1317 JUMPI PUSH2 0x1316 PUSH2 0x1076 JUMP JUMPDEST JUMPDEST PUSH0 DUP7 ADD CALLDATALOAD PUSH8 0xFFFFFFFFFFFFFFFF DUP2 GT ISZERO PUSH2 0x1334 JUMPI PUSH2 0x1333 PUSH2 0x107A JUMP JUMPDEST JUMPDEST PUSH2 0x1340 DUP9 DUP3 DUP10 ADD PUSH2 0x118D JUMP JUMPDEST SWAP6 POP POP PUSH1 0x20 DUP7 ADD CALLDATALOAD PUSH8 0xFFFFFFFFFFFFFFFF DUP2 GT ISZERO PUSH2 0x1361 JUMPI PUSH2 0x1360 PUSH2 0x107A JUMP JUMPDEST JUMPDEST PUSH2 0x136D DUP9 DUP3 DUP10 ADD PUSH2 0x118D JUMP JUMPDEST SWAP5 POP POP PUSH1 0x40 DUP7 ADD CALLDATALOAD PUSH8 0xFFFFFFFFFFFFFFFF DUP2 GT ISZERO PUSH2 0x138E JUMPI PUSH2 0x138D PUSH2 0x107A JUMP JUMPDEST JUMPDEST PUSH2 0x139A DUP9 DUP3 DUP10 ADD PUSH2 0x118D JUMP JUMPDEST SWAP4 POP POP PUSH1 0x60 PUSH2 0x13AB DUP9 DUP3 DUP10 ADD PUSH2 0x12B7 JUMP JUMPDEST SWAP3 POP POP PUSH1 0x80 PUSH2 0x13BC DUP9 DUP3 DUP10 ADD PUSH2 0x12EA JUMP JUMPDEST SWAP2 POP POP SWAP3 SWAP6 POP SWAP3 SWAP6 SWAP1 SWAP4 POP JUMP JUMPDEST PUSH0 PUSH0 PUSH1 0x40 DUP4 DUP6 SUB SLT ISZERO PUSH2 0x13DF JUMPI PUSH2 0x13DE PUSH2 0x1076 JUMP JUMPDEST JUMPDEST PUSH0 DUP4 ADD CALLDATALOAD PUSH8 0xFFFFFFFFFFFFFFFF DUP2 GT ISZERO PUSH2 0x13FC JUMPI PUSH2 0x13FB PUSH2 0x107A JUMP JUMPDEST JUMPDEST PUSH2 0x1408 DUP6 DUP3 DUP7 ADD PUSH2 0x118D JUMP JUMPDEST SWAP3 POP POP PUSH1 0x20 PUSH2 0x1419 DUP6 DUP3 DUP7 ADD PUSH2 0x12EA JUMP JUMPDEST SWAP2 POP POP SWAP3 POP SWAP3 SWAP1 POP JUMP JUMPDEST PUSH0 PUSH13 0xFFFFFFFFFFFFFFFFFFFFFFFFFF DUP3 AND SWAP1 POP SWAP2 SWAP1 POP JUMP JUMPDEST PUSH2 0x1444 DUP2 PUSH2 0x1423 JUMP JUMPDEST DUP3 MSTORE POP POP JUMP JUMPDEST PUSH0 PUSH1 0x40 DUP3 ADD SWAP1 POP DUP2 DUP2 SUB PUSH0 DUP4 ADD MSTORE PUSH2 0x1462 DUP2 DUP6 PUSH2 0x1229 JUMP JUMPDEST SWAP1 POP PUSH2 0x1471 PUSH1 0x20 DUP4 ADD DUP5 PUSH2 0x143B JUMP JUMPDEST SWAP4 SWAP3 POP POP POP JUMP JUMPDEST PUSH0 PUSH0 PUSH1 0x40 DUP4 DUP6 SUB SLT ISZERO PUSH2 0x148E JUMPI PUSH2 0x148D PUSH2 0x1076 JUMP JUMPDEST JUMPDEST PUSH0 DUP4 ADD CALLDATALOAD PUSH8 0xFFFFFFFFFFFFFFFF DUP2 GT ISZERO PUSH2 0x14AB JUMPI PUSH2 0x14AA PUSH2 0x107A JUMP JUMPDEST JUMPDEST PUSH2 0x14B7 DUP6 DUP3 DUP7 ADD PUSH2 0x118D JUMP JUMPDEST SWAP3 POP POP PUSH1 0x20 DUP4 ADD CALLDATALOAD PUSH8 0xFFFFFFFFFFFFFFFF DUP2 GT ISZERO PUSH2 0x14D8 JUMPI PUSH2 0x14D7 PUSH2 0x107A JUMP JUMPDEST JUMPDEST PUSH2 0x14E4 DUP6 DUP3 DUP7 ADD PUSH2 0x118D JUMP JUMPDEST SWAP2 POP POP SWAP3 POP SWAP3 SWAP1 POP JUMP JUMPDEST PUSH0 DUP2 MLOAD SWAP1 POP SWAP2 SWAP1 POP JUMP JUMPDEST PUSH0 DUP3 DUP3 MSTORE PUSH1 0x20 DUP3 ADD SWAP1 POP SWAP3 SWAP2 POP POP JUMP JUMPDEST PUSH0 DUP2 SWAP1 POP PUSH1 0x20 DUP3 ADD SWAP1 POP SWAP2 SWAP1 POP JUMP JUMPDEST PUSH0 DUP3 DUP3 MSTORE PUSH1 0x20 DUP3 ADD SWAP1 POP SWAP3 SWAP2 POP POP JUMP JUMPDEST PUSH0 PUSH2 0x1531 DUP3 PUSH2 0x1201 JUMP JUMPDEST PUSH2 0x153B DUP2 DUP6 PUSH2 0x1517 JUMP JUMPDEST SWAP4 POP PUSH2 0x154B DUP2 DUP6 PUSH1 0x20 DUP7 ADD PUSH2 0x121B JUMP JUMPDEST PUSH2 0x1554 DUP2 PUSH2 0x1086 JUMP JUMPDEST DUP5 ADD SWAP2 POP POP SWAP3 SWAP2 POP POP JUMP JUMPDEST PUSH0 PUSH1 0x60 DUP4 ADD PUSH0 DUP4 ADD MLOAD DUP5 DUP3 SUB PUSH0 DUP7 ADD MSTORE PUSH2 0x1579 DUP3 DUP3 PUSH2 0x1527 JUMP JUMPDEST SWAP2 POP POP PUSH1 0x20 DUP4 ADD MLOAD DUP5 DUP3 SUB PUSH1 0x20 DUP7 ADD MSTORE PUSH2 0x1593 DUP3 DUP3 PUSH2 0x1527 JUMP JUMPDEST SWAP2 POP POP PUSH1 0x40 DUP4 ADD MLOAD DUP5 DUP3 SUB PUSH1 0x40 DUP7 ADD MSTORE PUSH2 0x15AD DUP3 DUP3 PUSH2 0x1527 JUMP JUMPDEST SWAP2 POP POP DUP1 SWAP2 POP POP SWAP3 SWAP2 POP POP JUMP JUMPDEST PUSH0 PUSH2 0x15C5 DUP4 DUP4 PUSH2 0x155F JUMP JUMPDEST SWAP1 POP SWAP3 SWAP2 POP POP JUMP JUMPDEST PUSH0 PUSH1 0x20 DUP3 ADD SWAP1 POP SWAP2 SWAP1 POP JUMP JUMPDEST PUSH0 PUSH2 0x15E3 DUP3 PUSH2 0x14EE JUMP JUMPDEST PUSH2 0x15ED DUP2 DUP6 PUSH2 0x14F8 JUMP JUMPDEST SWAP4 POP DUP4 PUSH1 0x20 DUP3 MUL DUP6 ADD PUSH2 0x15FF DUP6 PUSH2 0x1508 JUMP JUMPDEST DUP1 PUSH0 JUMPDEST DUP6 DUP2 LT ISZERO PUSH2 0x163A JUMPI DUP5 DUP5 SUB DUP10 MSTORE DUP2 MLOAD PUSH2 0x161B DUP6 DUP3 PUSH2 0x15BA JUMP JUMPDEST SWAP5 POP PUSH2 0x1626 DUP4 PUSH2 0x15CD JUMP JUMPDEST SWAP3 POP PUSH1 0x20 DUP11 ADD SWAP10 POP POP PUSH1 0x1 DUP2 ADD SWAP1 POP PUSH2 0x1602 JUMP JUMPDEST POP DUP3 SWAP8 POP DUP8 SWAP6 POP POP POP POP POP POP SWAP3 SWAP2 POP POP JUMP JUMPDEST PUSH0 PUSH1 0x20 DUP3 ADD SWAP1 POP DUP2 DUP2 SUB PUSH0 DUP4 ADD MSTORE PUSH2 0x1664 DUP2 DUP5 PUSH2 0x15D9 JUMP JUMPDEST SWAP1 POP SWAP3 SWAP2 POP POP JUMP JUMPDEST PUSH0 DUP2 MLOAD SWAP1 POP SWAP2 SWAP1 POP JUMP JUMPDEST PUSH0 DUP3 DUP3 MSTORE PUSH1 0x20 DUP3 ADD SWAP1 POP SWAP3 SWAP2 POP POP JUMP JUMPDEST PUSH0 DUP2 SWAP1 POP PUSH1 0x20 DUP3 ADD SWAP1 POP SWAP2 SWAP1 POP JUMP JUMPDEST PUSH2 0x169E DUP2 PUSH2 0x1423 JUMP JUMPDEST DUP3 MSTORE POP POP JUMP JUMPDEST PUSH0 PUSH1 0x40 DUP4 ADD PUSH0 DUP4 ADD MLOAD DUP5 DUP3 SUB PUSH0 DUP7 ADD MSTORE PUSH2 0x16BE DUP3 DUP3 PUSH2 0x1527 JUMP JUMPDEST SWAP2 POP POP PUSH1 0x20 DUP4 ADD MLOAD PUSH2 0x16D3 PUSH1 0x20 DUP7 ADD DUP3 PUSH2 0x1695 JUMP JUMPDEST POP DUP1 SWAP2 POP POP SWAP3 SWAP2 POP POP JUMP JUMPDEST PUSH0 PUSH2 0x16E9 DUP4 DUP4 PUSH2 0x16A4 JUMP JUMPDEST SWAP1 POP SWAP3 SWAP2 POP POP JUMP JUMPDEST PUSH0 PUSH1 0x20 DUP3 ADD SWAP1 POP SWAP2 SWAP1 POP JUMP JUMPDEST PUSH0 PUSH2 0x1707 DUP3 PUSH2 0x166C JUMP JUMPDEST PUSH2 0x1711 DUP2 DUP6 PUSH2 0x1676 JUMP JUMPDEST SWAP4 POP DUP4 PUSH1 0x20 DUP3 MUL DUP6 ADD PUSH2 0x1723 DUP6 PUSH2 0x1686 JUMP JUMPDEST DUP1 PUSH0 JUMPDEST DUP6 DUP2 LT ISZERO PUSH2 0x175E JUMPI DUP5 DUP5 SUB DUP10 MSTORE DUP2 MLOAD PUSH2 0x173F DUP6 DUP3 PUSH2 0x16DE JUMP JUMPDEST SWAP5 POP PUSH2 0x174A DUP4 PUSH2 0x16F1 JUMP JUMPDEST SWAP3 POP PUSH1 0x20 DUP11 ADD SWAP10 POP POP PUSH1 0x1 DUP2 ADD SWAP1 POP PUSH2 0x1726 JUMP JUMPDEST POP DUP3 SWAP8 POP DUP8 SWAP6 POP POP POP POP POP POP SWAP3 SWAP2 POP POP JUMP JUMPDEST PUSH0 PUSH1 0x20 DUP3 ADD SWAP1 POP DUP2 DUP2 SUB PUSH0 DUP4 ADD MSTORE PUSH2 0x1788 DUP2 DUP5 PUSH2 0x16FD JUMP JUMPDEST SWAP1 POP SWAP3 SWAP2 POP POP JUMP JUMPDEST PUSH2 0x1799 DUP2 PUSH2 0x1423 JUMP JUMPDEST DUP2 EQ PUSH2 0x17A3 JUMPI PUSH0 PUSH0 REVERT JUMPDEST POP JUMP JUMPDEST PUSH0 DUP2 CALLDATALOAD SWAP1 POP PUSH2 0x17B4 DUP2 PUSH2 0x1790 JUMP JUMPDEST SWAP3 SWAP2 POP POP JUMP JUMPDEST PUSH0 PUSH0 PUSH0 PUSH0 PUSH0 PUSH0 PUSH1 0xC0 DUP8 DUP10 SUB SLT ISZERO PUSH2 0x17D4 JUMPI PUSH2 0x17D3 PUSH2 0x1076 JUMP JUMPDEST JUMPDEST PUSH0 DUP8 ADD CALLDATALOAD PUSH8 0xFFFFFFFFFFFFFFFF DUP2 GT ISZERO PUSH2 0x17F1 JUMPI PUSH2 0x17F0 PUSH2 0x107A JUMP JUMPDEST JUMPDEST PUSH2 0x17FD DUP10 DUP3 DUP11 ADD PUSH2 0x118D JUMP JUMPDEST SWAP7 POP POP PUSH1 0x20 PUSH2 0x180E DUP10 DUP3 DUP11 ADD PUSH2 0x17A6 JUMP JUMPDEST SWAP6 POP POP PUSH1 0x40 DUP8 ADD CALLDATALOAD PUSH8 0xFFFFFFFFFFFFFFFF DUP2 GT ISZERO PUSH2 0x182F JUMPI PUSH2 0x182E PUSH2 0x107A JUMP JUMPDEST JUMPDEST PUSH2 0x183B DUP10 DUP3 DUP11 ADD PUSH2 0x118D JUMP JUMPDEST SWAP5 POP POP PUSH1 0x60 DUP8 ADD CALLDATALOAD PUSH8 0xFFFFFFFFFFFFFFFF DUP2 GT ISZERO PUSH2 0x185C JUMPI PUSH2 0x185B PUSH2 0x107A JUMP JUMPDEST JUMPDEST PUSH2 0x1868 DUP10 DUP3 DUP11 ADD PUSH2 0x118D JUMP JUMPDEST SWAP4 POP POP PUSH1 0x80 DUP8 ADD CALLDATALOAD PUSH8 0xFFFFFFFFFFFFFFFF DUP2 GT ISZERO PUSH2 0x1889 JUMPI PUSH2 0x1888 PUSH2 0x107A JUMP JUMPDEST JUMPDEST PUSH2 0x1895 DUP10 DUP3 DUP11 ADD PUSH2 0x118D JUMP JUMPDEST SWAP3 POP POP PUSH1 0xA0 DUP8 ADD CALLDATALOAD PUSH8 0xFFFFFFFFFFFFFFFF DUP2 GT ISZERO PUSH2 0x18B6 JUMPI PUSH2 0x18B5 PUSH2 0x107A JUMP JUMPDEST JUMPDEST PUSH2 0x18C2 DUP10 DUP3 DUP11 ADD PUSH2 0x118D JUMP JUMPDEST SWAP2 POP POP SWAP3 SWAP6 POP SWAP3 SWAP6 POP SWAP3 SWAP6 JUMP JUMPDEST PUSH0 PUSH1 0x40 DUP4 ADD PUSH0 DUP4 ADD MLOAD DUP5 DUP3 SUB PUSH0 DUP7 ADD MSTORE PUSH2 0x18E9 DUP3 DUP3 PUSH2 0x1527 JUMP JUMPDEST SWAP2 POP POP PUSH1 0x20 DUP4 ADD MLOAD PUSH2 0x18FE PUSH1 0x20 DUP7 ADD DUP3 PUSH2 0x1695 JUMP JUMPDEST POP DUP1 SWAP2 POP POP SWAP3 SWAP2 POP POP JUMP JUMPDEST PUSH0 PUSH1 0x20 DUP3 ADD SWAP1 POP DUP2 DUP2 SUB PUSH0 DUP4 ADD MSTORE PUSH2 0x1921 DUP2 DUP5 PUSH2 0x18CF JUMP JUMPDEST SWAP1 POP SWAP3 SWAP2 POP POP JUMP JUMPDEST PUSH2 0x1932 DUP2 PUSH2 0x1281 JUMP JUMPDEST DUP3 MSTORE POP POP JUMP JUMPDEST PUSH0 PUSH1 0x80 DUP3 ADD SWAP1 POP DUP2 DUP2 SUB PUSH0 DUP4 ADD MSTORE PUSH2 0x1950 DUP2 DUP8 PUSH2 0x1229 JUMP JUMPDEST SWAP1 POP DUP2 DUP2 SUB PUSH1 0x20 DUP4 ADD MSTORE PUSH2 0x1964 DUP2 DUP7 PUSH2 0x1229 JUMP JUMPDEST SWAP1 POP PUSH2 0x1973 PUSH1 0x40 DUP4 ADD DUP6 PUSH2 0x1929 JUMP JUMPDEST DUP2 DUP2 SUB PUSH1 0x60 DUP4 ADD MSTORE PUSH2 0x1985 DUP2 DUP5 PUSH2 0x1229 JUMP JUMPDEST SWAP1 POP SWAP6 SWAP5 POP POP POP POP POP JUMP JUMPDEST PUSH0 PUSH0 PUSH0 PUSH1 0x60 DUP5 DUP7 SUB SLT ISZERO PUSH2 0x19A7 JUMPI PUSH2 0x19A6 PUSH2 0x1076 JUMP JUMPDEST JUMPDEST PUSH0 DUP5 ADD CALLDATALOAD PUSH8 0xFFFFFFFFFFFFFFFF DUP2 GT ISZERO PUSH2 0x19C4 JUMPI PUSH2 0x19C3 PUSH2 0x107A JUMP JUMPDEST JUMPDEST PUSH2 0x19D0 DUP7 DUP3 DUP8 ADD PUSH2 0x118D JUMP JUMPDEST SWAP4 POP POP PUSH1 0x20 DUP5 ADD CALLDATALOAD PUSH8 0xFFFFFFFFFFFFFFFF DUP2 GT ISZERO PUSH2 0x19F1 JUMPI PUSH2 0x19F0 PUSH2 0x107A JUMP JUMPDEST JUMPDEST PUSH2 0x19FD DUP7 DUP3 DUP8 ADD PUSH2 0x118D JUMP JUMPDEST SWAP3 POP POP PUSH1 0x40 PUSH2 0x1A0E DUP7 DUP3 DUP8 ADD PUSH2 0x12EA JUMP JUMPDEST SWAP2 POP POP SWAP3 POP SWAP3 POP SWAP3 JUMP JUMPDEST PUSH0 PUSH1 0x60 DUP3 ADD SWAP1 POP DUP2 DUP2 SUB PUSH0 DUP4 ADD MSTORE PUSH2 0x1A30 DUP2 DUP7 PUSH2 0x1229 JUMP JUMPDEST SWAP1 POP DUP2 DUP2 SUB PUSH1 0x20 DUP4 ADD MSTORE PUSH2 0x1A44 DUP2 DUP6 PUSH2 0x1229 JUMP JUMPDEST SWAP1 POP DUP2 DUP2 SUB PUSH1 0x40 DUP4 ADD MSTORE PUSH2 0x1A58 DUP2 DUP5 PUSH2 0x1229 JUMP JUMPDEST SWAP1 POP SWAP5 SWAP4 POP POP POP POP JUMP JUMPDEST PUSH0 DUP2 SWAP1 POP SWAP3 SWAP2 POP POP JUMP JUMPDEST PUSH0 PUSH2 0x1A76 DUP3 PUSH2 0x1201 JUMP JUMPDEST PUSH2 0x1A80 DUP2 DUP6 PUSH2 0x1A62 JUMP JUMPDEST SWAP4 POP PUSH2 0x1A90 DUP2 DUP6 PUSH1 0x20 DUP7 ADD PUSH2 0x121B JUMP JUMPDEST DUP1 DUP5 ADD SWAP2 POP POP SWAP3 SWAP2 POP POP JUMP JUMPDEST PUSH0 PUSH2 0x1AA7 DUP3 DUP5 PUSH2 0x1A6C JUMP JUMPDEST SWAP2 POP DUP2 SWAP1 POP SWAP3 SWAP2 POP POP JUMP JUMPDEST PUSH32 0x4E487B7100000000000000000000000000000000000000000000000000000000 PUSH0 MSTORE PUSH1 0x22 PUSH1 0x4 MSTORE PUSH1 0x24 PUSH0 REVERT JUMPDEST PUSH0 PUSH1 0x2 DUP3 DIV SWAP1 POP PUSH1 0x1 DUP3 AND DUP1 PUSH2 0x1AF6 JUMPI PUSH1 0x7F DUP3 AND SWAP2 POP JUMPDEST PUSH1 0x20 DUP3 LT DUP2 SUB PUSH2 0x1B09 JUMPI PUSH2 0x1B08 PUSH2 0x1AB2 JUMP JUMPDEST JUMPDEST POP SWAP2 SWAP1 POP JUMP JUMPDEST PUSH0 DUP2 SWAP1 POP DUP2 PUSH0 MSTORE PUSH1 0x20 PUSH0 KECCAK256 SWAP1 POP SWAP2 SWAP1 POP JUMP JUMPDEST PUSH0 PUSH1 0x20 PUSH1 0x1F DUP4 ADD DIV SWAP1 POP SWAP2 SWAP1 POP JUMP JUMPDEST PUSH0 DUP3 DUP3 SHL SWAP1 POP SWAP3 SWAP2 POP POP JUMP JUMPDEST PUSH0 PUSH1 0x8 DUP4 MUL PUSH2 0x1B6B PUSH32 0xFFFFFFFFFFFFFFFFFFFFFFFFFFFFFFFFFFFFFFFFFFFFFFFFFFFFFFFFFFFFFFFF DUP3 PUSH2 0x1B30 JUMP JUMPDEST PUSH2 0x1B75 DUP7 DUP4 PUSH2 0x1B30 JUMP JUMPDEST SWAP6 POP DUP1 NOT DUP5 AND SWAP4 POP DUP1 DUP7 AND DUP5 OR SWAP3 POP POP POP SWAP4 SWAP3 POP POP POP JUMP JUMPDEST PUSH0 DUP2 SWAP1 POP SWAP2 SWAP1 POP JUMP JUMPDEST PUSH0 PUSH2 0x1BB0 PUSH2 0x1BAB PUSH2 0x1BA6 DUP5 PUSH2 0x12CB JUMP JUMPDEST PUSH2 0x1B8D JUMP JUMPDEST PUSH2 0x12CB JUMP JUMPDEST SWAP1 POP SWAP2 SWAP1 POP JUMP JUMPDEST PUSH0 DUP2 SWAP1 POP SWAP2 SWAP1 POP JUMP JUMPDEST PUSH2 0x1BC9 DUP4 PUSH2 0x1B96 JUMP JUMPDEST PUSH2 0x1BDD PUSH2 0x1BD5 DUP3 PUSH2 0x1BB7 JUMP JUMPDEST DUP5 DUP5 SLOAD PUSH2 0x1B3C JUMP JUMPDEST DUP3 SSTORE POP POP POP POP JUMP JUMPDEST PUSH0 PUSH0 SWAP1 POP SWAP1 JUMP JUMPDEST PUSH2 0x1BF4 PUSH2 0x1BE5 JUMP JUMPDEST PUSH2 0x1BFF DUP2 DUP5 DUP5 PUSH2 0x1BC0 JUMP JUMPDEST POP POP POP JUMP JUMPDEST JUMPDEST DUP2 DUP2 LT ISZERO PUSH2 0x1C22 JUMPI PUSH2 0x1C17 PUSH0 DUP3 PUSH2 0x1BEC JUMP JUMPDEST PUSH1 0x1 DUP2 ADD SWAP1 POP PUSH2 0x1C05 JUMP JUMPDEST POP POP JUMP JUMPDEST PUSH1 0x1F DUP3 GT ISZERO PUSH2 0x1C67 JUMPI PUSH2 0x1C38 DUP2 PUSH2 0x1B0F JUMP JUMPDEST PUSH2 0x1C41 DUP5 PUSH2 0x1B21 JUMP JUMPDEST DUP2 ADD PUSH1 0x20 DUP6 LT ISZERO PUSH2 0x1C50 JUMPI DUP2 SWAP1 POP JUMPDEST PUSH2 0x1C64 PUSH2 0x1C5C DUP6 PUSH2 0x1B21 JUMP JUMPDEST DUP4 ADD DUP3 PUSH2 0x1C04 JUMP JUMPDEST POP POP JUMPDEST POP POP POP JUMP JUMPDEST PUSH0 DUP3 DUP3 SHR SWAP1 POP SWAP3 SWAP2 POP POP JUMP JUMPDEST PUSH0 PUSH2 0x1C87 PUSH0 NOT DUP5 PUSH1 0x8 MUL PUSH2 0x1C6C JUMP JUMPDEST NOT DUP1 DUP4 AND SWAP2 POP POP SWAP3 SWAP2 POP POP JUMP JUMPDEST PUSH0 PUSH2 0x1C9F DUP4 DUP4 PUSH2 0x1C78 JUMP JUMPDEST SWAP2 POP DUP3 PUSH1 0x2 MUL DUP3 OR SWAP1 POP SWAP3 SWAP2 POP POP JUMP JUMPDEST PUSH2 0x1CB8 DUP3 PUSH2 0x1201 JUMP JUMPDEST PUSH8 0xFFFFFFFFFFFFFFFF DUP2 GT ISZERO PUSH2 0x1CD1 JUMPI PUSH2 0x1CD0 PUSH2 0x1096 JUMP JUMPDEST JUMPDEST PUSH2 0x1CDB DUP3 SLOAD PUSH2 0x1ADF JUMP JUMPDEST PUSH2 0x1CE6 DUP3 DUP3 DUP6 PUSH2 0x1C26 JUMP JUMPDEST PUSH0 PUSH1 0x20 SWAP1 POP PUSH1 0x1F DUP4 GT PUSH1 0x1 DUP2 EQ PUSH2 0x1D17 JUMPI PUSH0 DUP5 ISZERO PUSH2 0x1D05 JUMPI DUP3 DUP8 ADD MLOAD SWAP1 POP JUMPDEST PUSH2 0x1D0F DUP6 DUP3 PUSH2 0x1C94 JUMP JUMPDEST DUP7 SSTORE POP PUSH2 0x1D76 JUMP JUMPDEST PUSH1 0x1F NOT DUP5 AND PUSH2 0x1D25 DUP7 PUSH2 0x1B0F JUMP JUMPDEST PUSH0 JUMPDEST DUP3 DUP2 LT ISZERO PUSH2 0x1D4C JUMPI DUP5 DUP10 ADD MLOAD DUP3 SSTORE PUSH1 0x1 DUP3 ADD SWAP2 POP PUSH1 0x20 DUP6 ADD SWAP5 POP PUSH1 0x20 DUP2 ADD SWAP1 POP PUSH2 0x1D27 JUMP JUMPDEST DUP7 DUP4 LT ISZERO PUSH2 0x1D69 JUMPI DUP5 DUP10 ADD MLOAD PUSH2 0x1D65 PUSH1 0x1F DUP10 AND DUP3 PUSH2 0x1C78 JUMP JUMPDEST DUP4 SSTORE POP JUMPDEST PUSH1 0x1 PUSH1 0x2 DUP9 MUL ADD DUP9 SSTORE POP POP POP JUMPDEST POP POP POP POP POP POP JUMP JUMPDEST PUSH0 DUP2 SLOAD SWAP1 POP PUSH2 0x1D8C DUP2 PUSH2 0x1ADF JUMP JUMPDEST SWAP1 POP SWAP2 SWAP1 POP JUMP JUMPDEST DUP2 DUP2 SUB PUSH2 0x1DA1 JUMPI POP POP PUSH2 0x1E76 JUMP JUMPDEST PUSH2 0x1DAA DUP3 PUSH2 0x1D7E JUMP JUMPDEST PUSH8 0xFFFFFFFFFFFFFFFF DUP2 GT ISZERO PUSH2 0x1DC3 JUMPI PUSH2 0x1DC2 PUSH2 0x1096 JUMP JUMPDEST JUMPDEST PUSH2 0x1DCD DUP3 SLOAD PUSH2 0x1ADF JUMP JUMPDEST PUSH2 0x1DD8 DUP3 DUP3 DUP6 PUSH2 0x1C26 JUMP JUMPDEST PUSH0 PUSH1 0x1F DUP4 GT PUSH1 0x1 DUP2 EQ PUSH2 0x1E05 JUMPI PUSH0 DUP5 ISZERO PUSH2 0x1DF3 JUMPI DUP3 DUP8 ADD SLOAD SWAP1 POP JUMPDEST PUSH2 0x1DFD DUP6 DUP3 PUSH2 0x1C94 JUMP JUMPDEST DUP7 SSTORE POP PUSH2 0x1E6F JUMP JUMPDEST PUSH1 0x1F NOT DUP5 AND PUSH2 0x1E13 DUP8 PUSH2 0x1B0F JUMP JUMPDEST SWAP7 POP PUSH2 0x1E1E DUP7 PUSH2 0x1B0F JUMP JUMPDEST PUSH0 JUMPDEST DUP3 DUP2 LT ISZERO PUSH2 0x1E45 JUMPI DUP5 DUP10 ADD SLOAD DUP3 SSTORE PUSH1 0x1 DUP3 ADD SWAP2 POP PUSH1 0x1 DUP6 ADD SWAP5 POP PUSH1 0x20 DUP2 ADD SWAP1 POP PUSH2 0x1E20 JUMP JUMPDEST DUP7 DUP4 LT ISZERO PUSH2 0x1E62 JUMPI DUP5 DUP10 ADD SLOAD PUSH2 0x1E5E PUSH1 0x1F DUP10 AND DUP3 PUSH2 0x1C78 JUMP JUMPDEST DUP4 SSTORE POP JUMPDEST PUSH1 0x1 PUSH1 0x2 DUP9 MUL ADD DUP9 SSTORE POP POP POP JUMPDEST POP POP POP POP POP POP JUMPDEST JUMP INVALID LOG2 PUSH5 0x6970667358 0x22 SLT KECCAK256 DUP11 PUSH12 0xAD78097D0454EABAF3598F8 SWAP1 SWAPN 0x9F 0xAB 0x2B CALLVALUE STOP EOFCREATE 0xFC ADDMOD RETURNDATASIZE 0xE8 0xBA LOG1 JUMPDEST SAR PUSH2 0xFD64 PUSH20 0x6F6C634300081E00330000000000000000000000 "
				},
				"gasEstimates": {
					"creation": {
						"codeDepositCost": "1570800",
						"executionCost": "1643",
						"totalCost": "1572443"
					},
					"external": {
						"Reports(string,string,uint256)": "infinite",
						"addpatient(string,uint104,string,string,string,string)": "infinite",
						"allpatientshospital(string,uint256)": "infinite",
						"createpatientaccount(string,string,string,uint168,uint256)": "infinite",
						"getallpatientsinhospital(string)": "infinite",
						"getreports(string,string)": "infinite",
						"getuser(string,string)": "infinite",
						"getuseremial(string)": "infinite",
						"patients(string,string)": "infinite",
						"users(string)": "infinite"
					}
				},
				"methodIdentifiers": {
					"Reports(string,string,uint256)": "80672e8c",
					"addpatient(string,uint104,string,string,string,string)": "53b7fe35",
					"allpatientshospital(string,uint256)": "3a110d0d",
					"createpatientaccount(string,string,string,uint168,uint256)": "341fde55",
					"getallpatientsinhospital(string)": "45c3c6c2",
					"getreports(string,string)": "42b5d283",
					"getuser(string,string)": "629014d7",
					"getuseremial(string)": "26b60286",
					"patients(string,string)": "cae17979",
					"users(string)": "689e1c03"
				}
			},
			"storageLayout": {
				"storage": [
					{
						"astId": 22,
						"contract": "contracts/1_Storage.sol:twitter",
						"label": "Reports",
						"offset": 0,
						"slot": "0",
						"type": "t_mapping(t_string_memory_ptr,t_mapping(t_string_memory_ptr,t_array(t_struct(Datereported)9_storage)dyn_storage))"
					},
					{
						"astId": 44,
						"contract": "contracts/1_Storage.sol:twitter",
						"label": "patients",
						"offset": 0,
						"slot": "1",
						"type": "t_mapping(t_string_memory_ptr,t_mapping(t_string_memory_ptr,t_struct(Host)14_storage))"
					},
					{
						"astId": 49,
						"contract": "contracts/1_Storage.sol:twitter",
						"label": "users",
						"offset": 0,
						"slot": "2",
						"type": "t_mapping(t_string_memory_ptr,t_struct(User)37_storage)"
					},
					{
						"astId": 55,
						"contract": "contracts/1_Storage.sol:twitter",
						"label": "allpatientshospital",
						"offset": 0,
						"slot": "3",
						"type": "t_mapping(t_string_memory_ptr,t_array(t_struct(Host)14_storage)dyn_storage)"
					}
				],
				"types": {
					"t_array(t_struct(Datereported)9_storage)dyn_storage": {
						"base": "t_struct(Datereported)9_storage",
						"encoding": "dynamic_array",
						"label": "struct twitter.Datereported[]",
						"numberOfBytes": "32"
					},
					"t_array(t_struct(Host)14_storage)dyn_storage": {
						"base": "t_struct(Host)14_storage",
						"encoding": "dynamic_array",
						"label": "struct twitter.Host[]",
						"numberOfBytes": "32"
					},
					"t_mapping(t_string_memory_ptr,t_array(t_struct(Datereported)9_storage)dyn_storage)": {
						"encoding": "mapping",
						"key": "t_string_memory_ptr",
						"label": "mapping(string => struct twitter.Datereported[])",
						"numberOfBytes": "32",
						"value": "t_array(t_struct(Datereported)9_storage)dyn_storage"
					},
					"t_mapping(t_string_memory_ptr,t_array(t_struct(Host)14_storage)dyn_storage)": {
						"encoding": "mapping",
						"key": "t_string_memory_ptr",
						"label": "mapping(string => struct twitter.Host[])",
						"numberOfBytes": "32",
						"value": "t_array(t_struct(Host)14_storage)dyn_storage"
					},
					"t_mapping(t_string_memory_ptr,t_mapping(t_string_memory_ptr,t_array(t_struct(Datereported)9_storage)dyn_storage))": {
						"encoding": "mapping",
						"key": "t_string_memory_ptr",
						"label": "mapping(string => mapping(string => struct twitter.Datereported[]))",
						"numberOfBytes": "32",
						"value": "t_mapping(t_string_memory_ptr,t_array(t_struct(Datereported)9_storage)dyn_storage)"
					},
					"t_mapping(t_string_memory_ptr,t_mapping(t_string_memory_ptr,t_struct(Host)14_storage))": {
						"encoding": "mapping",
						"key": "t_string_memory_ptr",
						"label": "mapping(string => mapping(string => struct twitter.Host))",
						"numberOfBytes": "32",
						"value": "t_mapping(t_string_memory_ptr,t_struct(Host)14_storage)"
					},
					"t_mapping(t_string_memory_ptr,t_struct(Host)14_storage)": {
						"encoding": "mapping",
						"key": "t_string_memory_ptr",
						"label": "mapping(string => struct twitter.Host)",
						"numberOfBytes": "32",
						"value": "t_struct(Host)14_storage"
					},
					"t_mapping(t_string_memory_ptr,t_struct(User)37_storage)": {
						"encoding": "mapping",
						"key": "t_string_memory_ptr",
						"label": "mapping(string => struct twitter.User)",
						"numberOfBytes": "32",
						"value": "t_struct(User)37_storage"
					},
					"t_string_memory_ptr": {
						"encoding": "bytes",
						"label": "string",
						"numberOfBytes": "32"
					},
					"t_string_storage": {
						"encoding": "bytes",
						"label": "string",
						"numberOfBytes": "32"
					},
					"t_struct(Datereported)9_storage": {
						"encoding": "inplace",
						"label": "struct twitter.Datereported",
						"members": [
							{
								"astId": 4,
								"contract": "contracts/1_Storage.sol:twitter",
								"label": "date",
								"offset": 0,
								"slot": "0",
								"type": "t_string_storage"
							},
							{
								"astId": 6,
								"contract": "contracts/1_Storage.sol:twitter",
								"label": "doctername",
								"offset": 0,
								"slot": "1",
								"type": "t_string_storage"
							},
							{
								"astId": 8,
								"contract": "contracts/1_Storage.sol:twitter",
								"label": "docspecilist",
								"offset": 0,
								"slot": "2",
								"type": "t_string_storage"
							}
						],
						"numberOfBytes": "96"
					},
					"t_struct(Host)14_storage": {
						"encoding": "inplace",
						"label": "struct twitter.Host",
						"members": [
							{
								"astId": 11,
								"contract": "contracts/1_Storage.sol:twitter",
								"label": "name",
								"offset": 0,
								"slot": "0",
								"type": "t_string_storage"
							},
							{
								"astId": 13,
								"contract": "contracts/1_Storage.sol:twitter",
								"label": "age",
								"offset": 0,
								"slot": "1",
								"type": "t_uint104"
							}
						],
						"numberOfBytes": "64"
					},
					"t_struct(User)37_storage": {
						"encoding": "inplace",
						"label": "struct twitter.User",
						"members": [
							{
								"astId": 24,
								"contract": "contracts/1_Storage.sol:twitter",
								"label": "name",
								"offset": 0,
								"slot": "0",
								"type": "t_string_storage"
							},
							{
								"astId": 26,
								"contract": "contracts/1_Storage.sol:twitter",
								"label": "email",
								"offset": 0,
								"slot": "1",
								"type": "t_string_storage"
							},
							{
								"astId": 28,
								"contract": "contracts/1_Storage.sol:twitter",
								"label": "phnum",
								"offset": 0,
								"slot": "2",
								"type": "t_uint168"
							},
							{
								"astId": 30,
								"contract": "contracts/1_Storage.sol:twitter",
								"label": "hospitalname",
								"offset": 0,
								"slot": "3",
								"type": "t_string_storage"
							},
							{
								"astId": 36,
								"contract": "contracts/1_Storage.sol:twitter",
								"label": "patients",
								"offset": 0,
								"slot": "4",
								"type": "t_mapping(t_string_memory_ptr,t_array(t_struct(Host)14_storage)dyn_storage)"
							}
						],
						"numberOfBytes": "160"
					},
					"t_uint104": {
						"encoding": "inplace",
						"label": "uint104",
						"numberOfBytes": "13"
					},
					"t_uint168": {
						"encoding": "inplace",
						"label": "uint168",
						"numberOfBytes": "21"
					}
				}
			},
			"userdoc": {
				"kind": "user",
				"methods": {},
				"version": 1
			}
		}
	}
}