{
	"contracts/1_Storage.sol": {
		"twitter": {
			"abi": [
				{
					"inputs": [
						{
							"internalType": "string",
							"name": "name",
							"type": "string"
						},
						{
							"internalType": "uint104",
							"name": "age",
							"type": "uint104"
						},
						{
							"internalType": "string",
							"name": "hospitalname",
							"type": "string"
						}
					],
					"name": "addpatient",
					"outputs": [],
					"stateMutability": "nonpayable",
					"type": "function"
				},
				{
					"inputs": [
						{
							"internalType": "string",
							"name": "name",
							"type": "string"
						},
						{
							"internalType": "string",
							"name": "hospitalname",
							"type": "string"
						},
						{
							"internalType": "string",
							"name": "email",
							"type": "string"
						},
						{
							"internalType": "uint168",
							"name": "phnum",
							"type": "uint168"
						},
						{
							"internalType": "uint256",
							"name": "age",
							"type": "uint256"
						}
					],
					"name": "createaccount",
					"outputs": [],
					"stateMutability": "nonpayable",
					"type": "function"
				},
				{
					"inputs": [
						{
							"internalType": "string",
							"name": "hospitalname",
							"type": "string"
						},
						{
							"internalType": "string",
							"name": "name",
							"type": "string"
						}
					],
					"name": "getuser",
					"outputs": [
						{
							"internalType": "uint104",
							"name": "",
							"type": "uint104"
						}
					],
					"stateMutability": "view",
					"type": "function"
				},
				{
					"inputs": [
						{
							"internalType": "string",
							"name": "uname",
							"type": "string"
						}
					],
					"name": "getuseremial",
					"outputs": [
						{
							"internalType": "string",
							"name": "",
							"type": "string"
						}
					],
					"stateMutability": "view",
					"type": "function"
				},
				{
					"inputs": [
						{
							"internalType": "string",
							"name": "",
							"type": "string"
						},
						{
							"internalType": "string",
							"name": "",
							"type": "string"
						}
					],
					"name": "patients",
					"outputs": [
						{
							"internalType": "string",
							"name": "name",
							"type": "string"
						},
						{
							"internalType": "uint104",
							"name": "age",
							"type": "uint104"
						}
					],
					"stateMutability": "view",
					"type": "function"
				},
				{
					"inputs": [
						{
							"internalType": "string",
							"name": "",
							"type": "string"
						}
					],
					"name": "users",
					"outputs": [
						{
							"internalType": "string",
							"name": "name",
							"type": "string"
						},
						{
							"internalType": "string",
							"name": "email",
							"type": "string"
						},
						{
							"internalType": "uint168",
							"name": "phnum",
							"type": "uint168"
						},
						{
							"internalType": "string",
							"name": "hospitalname",
							"type": "string"
						}
					],
					"stateMutability": "view",
					"type": "function"
				}
			],
			"devdoc": {
				"custom:dev-run-script": "./scripts/deploy_with_ethers.ts",
				"details": "Store & retrieve value in a variable",
				"kind": "dev",
				"methods": {},
				"title": "Storage",
				"version": 1
			},
			"evm": {
				"assembly": "    /* \"contracts/1_Storage.sol\":199:1395  contract twitter {... */\n  mstore(0x40, 0x80)\n  callvalue\n  dup1\n  iszero\n  tag_1\n  jumpi\n  revert(0x00, 0x00)\ntag_1:\n  pop\n  dataSize(sub_0)\n  dup1\n  dataOffset(sub_0)\n  0x00\n  codecopy\n  0x00\n  return\nstop\n\nsub_0: assembly {\n        /* \"contracts/1_Storage.sol\":199:1395  contract twitter {... */\n      mstore(0x40, 0x80)\n      callvalue\n      dup1\n      iszero\n      tag_1\n      jumpi\n      revert(0x00, 0x00)\n    tag_1:\n      pop\n      jumpi(tag_2, lt(calldatasize, 0x04))\n      shr(0xe0, calldataload(0x00))\n      dup1\n      0x25b9a40d\n      eq\n      tag_3\n      jumpi\n      dup1\n      0x26b60286\n      eq\n      tag_4\n      jumpi\n      dup1\n      0x3771befd\n      eq\n      tag_5\n      jumpi\n      dup1\n      0x629014d7\n      eq\n      tag_6\n      jumpi\n      dup1\n      0x689e1c03\n      eq\n      tag_7\n      jumpi\n      dup1\n      0xcae17979\n      eq\n      tag_8\n      jumpi\n    tag_2:\n      revert(0x00, 0x00)\n        /* \"contracts/1_Storage.sol\":953:1222  function addpatient( string memory name,uint104 age, string memory hospitalname) public   {... */\n    tag_3:\n      tag_9\n      0x04\n      dup1\n      calldatasize\n      sub\n      dup2\n      add\n      swap1\n      tag_10\n      swap2\n      swap1\n      tag_11\n      jump\t// in\n    tag_10:\n      tag_12\n      jump\t// in\n    tag_9:\n      stop\n        /* \"contracts/1_Storage.sol\":830:949  function getuseremial( string  memory uname)  public  view returns(string memory ){... */\n    tag_4:\n      tag_13\n      0x04\n      dup1\n      calldatasize\n      sub\n      dup2\n      add\n      swap1\n      tag_14\n      swap2\n      swap1\n      tag_15\n      jump\t// in\n    tag_14:\n      tag_16\n      jump\t// in\n    tag_13:\n      mload(0x40)\n      tag_17\n      swap2\n      swap1\n      tag_18\n      jump\t// in\n    tag_17:\n      mload(0x40)\n      dup1\n      swap2\n      sub\n      swap1\n      return\n        /* \"contracts/1_Storage.sol\":559:826  function createaccount(string  memory name,string memory  hospitalname,string  memory email,uint168 phnum,uint age ) public {... */\n    tag_5:\n      tag_19\n      0x04\n      dup1\n      calldatasize\n      sub\n      dup2\n      add\n      swap1\n      tag_20\n      swap2\n      swap1\n      tag_21\n      jump\t// in\n    tag_20:\n      tag_22\n      jump\t// in\n    tag_19:\n      stop\n        /* \"contracts/1_Storage.sol\":1226:1388  function getuser(string  memory hospitalname, string memory name)  public  view   returns(uint104)     {... */\n    tag_6:\n      tag_23\n      0x04\n      dup1\n      calldatasize\n      sub\n      dup2\n      add\n      swap1\n      tag_24\n      swap2\n      swap1\n      tag_25\n      jump\t// in\n    tag_24:\n      tag_26\n      jump\t// in\n    tag_23:\n      mload(0x40)\n      tag_27\n      swap2\n      swap1\n      tag_28\n      jump\t// in\n    tag_27:\n      mload(0x40)\n      dup1\n      swap2\n      sub\n      swap1\n      return\n        /* \"contracts/1_Storage.sol\":515:556  mapping  ( string => User ) public  users */\n    tag_7:\n      tag_29\n      0x04\n      dup1\n      calldatasize\n      sub\n      dup2\n      add\n      swap1\n      tag_30\n      swap2\n      swap1\n      tag_15\n      jump\t// in\n    tag_30:\n      tag_31\n      jump\t// in\n    tag_29:\n      mload(0x40)\n      tag_32\n      swap5\n      swap4\n      swap3\n      swap2\n      swap1\n      tag_33\n      jump\t// in\n    tag_32:\n      mload(0x40)\n      dup1\n      swap2\n      sub\n      swap1\n      return\n        /* \"contracts/1_Storage.sol\":451:509  mapping(string => mapping(string => Host)) public patients */\n    tag_8:\n      tag_34\n      0x04\n      dup1\n      calldatasize\n      sub\n      dup2\n      add\n      swap1\n      tag_35\n      swap2\n      swap1\n      tag_25\n      jump\t// in\n    tag_35:\n      tag_36\n      jump\t// in\n    tag_34:\n      mload(0x40)\n      tag_37\n      swap3\n      swap2\n      swap1\n      tag_38\n      jump\t// in\n    tag_37:\n      mload(0x40)\n      dup1\n      swap2\n      sub\n      swap1\n      return\n        /* \"contracts/1_Storage.sol\":953:1222  function addpatient( string memory name,uint104 age, string memory hospitalname) public   {... */\n    tag_12:\n        /* \"contracts/1_Storage.sol\":1081:1108  Host memory  patientdetails */\n      0x00\n        /* \"contracts/1_Storage.sol\":1109:1123  Host(name,age) */\n      mload(0x40)\n      dup1\n      0x40\n      add\n      0x40\n      mstore\n      dup1\n        /* \"contracts/1_Storage.sol\":1114:1118  name */\n      dup6\n        /* \"contracts/1_Storage.sol\":1109:1123  Host(name,age) */\n      dup2\n      mstore\n      0x20\n      add\n        /* \"contracts/1_Storage.sol\":1119:1122  age */\n      dup5\n        /* \"contracts/1_Storage.sol\":1109:1123  Host(name,age) */\n      0xffffffffffffffffffffffffff\n      and\n      dup2\n      mstore\n      pop\n        /* \"contracts/1_Storage.sol\":1081:1123  Host memory  patientdetails=Host(name,age) */\n      swap1\n      pop\n        /* \"contracts/1_Storage.sol\":1202:1216  patientdetails */\n      dup1\n        /* \"contracts/1_Storage.sol\":1173:1181  patients */\n      0x00\n        /* \"contracts/1_Storage.sol\":1182:1194  hospitalname */\n      dup4\n        /* \"contracts/1_Storage.sol\":1173:1195  patients[hospitalname] */\n      mload(0x40)\n      tag_40\n      swap2\n      swap1\n      tag_41\n      jump\t// in\n    tag_40:\n      swap1\n      dup2\n      mstore\n      0x20\n      add\n      mload(0x40)\n      dup1\n      swap2\n      sub\n      swap1\n      keccak256\n        /* \"contracts/1_Storage.sol\":1196:1200  name */\n      dup6\n        /* \"contracts/1_Storage.sol\":1173:1201  patients[hospitalname][name] */\n      mload(0x40)\n      tag_42\n      swap2\n      swap1\n      tag_41\n      jump\t// in\n    tag_42:\n      swap1\n      dup2\n      mstore\n      0x20\n      add\n      mload(0x40)\n      dup1\n      swap2\n      sub\n      swap1\n      keccak256\n        /* \"contracts/1_Storage.sol\":1173:1216  patients[hospitalname][name]=patientdetails */\n      0x00\n      dup3\n      add\n      mload\n      dup2\n      0x00\n      add\n      swap1\n      dup2\n      tag_43\n      swap2\n      swap1\n      tag_44\n      jump\t// in\n    tag_43:\n      pop\n      0x20\n      dup3\n      add\n      mload\n      dup2\n      0x01\n      add\n      exp(0x0100, 0x00)\n      dup2\n      sload\n      dup2\n      0xffffffffffffffffffffffffff\n      mul\n      not\n      and\n      swap1\n      dup4\n      0xffffffffffffffffffffffffff\n      and\n      mul\n      or\n      swap1\n      sstore\n      pop\n      swap1\n      pop\n      pop\n        /* \"contracts/1_Storage.sol\":1043:1222  {... */\n      pop\n        /* \"contracts/1_Storage.sol\":953:1222  function addpatient( string memory name,uint104 age, string memory hospitalname) public   {... */\n      pop\n      pop\n      pop\n      jump\t// out\n        /* \"contracts/1_Storage.sol\":830:949  function getuseremial( string  memory uname)  public  view returns(string memory ){... */\n    tag_16:\n        /* \"contracts/1_Storage.sol\":897:910  string memory */\n      0x60\n        /* \"contracts/1_Storage.sol\":926:931  users */\n      0x01\n        /* \"contracts/1_Storage.sol\":932:937  uname */\n      dup3\n        /* \"contracts/1_Storage.sol\":926:938  users[uname] */\n      mload(0x40)\n      tag_46\n      swap2\n      swap1\n      tag_41\n      jump\t// in\n    tag_46:\n      swap1\n      dup2\n      mstore\n      0x20\n      add\n      mload(0x40)\n      dup1\n      swap2\n      sub\n      swap1\n      keccak256\n        /* \"contracts/1_Storage.sol\":926:944  users[uname].email */\n      0x01\n      add\n        /* \"contracts/1_Storage.sol\":917:944  return   users[uname].email */\n      dup1\n      sload\n      tag_47\n      swap1\n      tag_48\n      jump\t// in\n    tag_47:\n      dup1\n      0x1f\n      add\n      0x20\n      dup1\n      swap2\n      div\n      mul\n      0x20\n      add\n      mload(0x40)\n      swap1\n      dup2\n      add\n      0x40\n      mstore\n      dup1\n      swap3\n      swap2\n      swap1\n      dup2\n      dup2\n      mstore\n      0x20\n      add\n      dup3\n      dup1\n      sload\n      tag_49\n      swap1\n      tag_48\n      jump\t// in\n    tag_49:\n      dup1\n      iszero\n      tag_50\n      jumpi\n      dup1\n      0x1f\n      lt\n      tag_51\n      jumpi\n      0x0100\n      dup1\n      dup4\n      sload\n      div\n      mul\n      dup4\n      mstore\n      swap2\n      0x20\n      add\n      swap2\n      jump(tag_50)\n    tag_51:\n      dup3\n      add\n      swap2\n      swap1\n      0x00\n      mstore\n      keccak256(0x00, 0x20)\n      swap1\n    tag_52:\n      dup2\n      sload\n      dup2\n      mstore\n      swap1\n      0x01\n      add\n      swap1\n      0x20\n      add\n      dup1\n      dup4\n      gt\n      tag_52\n      jumpi\n      dup3\n      swap1\n      sub\n      0x1f\n      and\n      dup3\n      add\n      swap2\n    tag_50:\n      pop\n      pop\n      pop\n      pop\n      pop\n      swap1\n      pop\n        /* \"contracts/1_Storage.sol\":830:949  function getuseremial( string  memory uname)  public  view returns(string memory ){... */\n      swap2\n      swap1\n      pop\n      jump\t// out\n        /* \"contracts/1_Storage.sol\":559:826  function createaccount(string  memory name,string memory  hospitalname,string  memory email,uint168 phnum,uint age ) public {... */\n    tag_22:\n        /* \"contracts/1_Storage.sol\":687:710  User   storage  current */\n      0x00\n        /* \"contracts/1_Storage.sol\":712:717  users */\n      0x01\n        /* \"contracts/1_Storage.sol\":718:722  name */\n      dup7\n        /* \"contracts/1_Storage.sol\":712:723  users[name] */\n      mload(0x40)\n      tag_54\n      swap2\n      swap1\n      tag_41\n      jump\t// in\n    tag_54:\n      swap1\n      dup2\n      mstore\n      0x20\n      add\n      mload(0x40)\n      dup1\n      swap2\n      sub\n      swap1\n      keccak256\n        /* \"contracts/1_Storage.sol\":687:723  User   storage  current =users[name] */\n      swap1\n      pop\n        /* \"contracts/1_Storage.sol\":738:742  name */\n      dup6\n        /* \"contracts/1_Storage.sol\":725:732  current */\n      dup2\n        /* \"contracts/1_Storage.sol\":725:737  current.name */\n      0x00\n      add\n        /* \"contracts/1_Storage.sol\":725:742  current.name=name */\n      swap1\n      dup2\n      tag_55\n      swap2\n      swap1\n      tag_44\n      jump\t// in\n    tag_55:\n      pop\n        /* \"contracts/1_Storage.sol\":758:763  email */\n      dup4\n        /* \"contracts/1_Storage.sol\":744:751  current */\n      dup2\n        /* \"contracts/1_Storage.sol\":744:757  current.email */\n      0x01\n      add\n        /* \"contracts/1_Storage.sol\":744:763  current.email=email */\n      swap1\n      dup2\n      tag_56\n      swap2\n      swap1\n      tag_44\n      jump\t// in\n    tag_56:\n      pop\n        /* \"contracts/1_Storage.sol\":779:784  phnum */\n      dup3\n        /* \"contracts/1_Storage.sol\":765:772  current */\n      dup2\n        /* \"contracts/1_Storage.sol\":765:778  current.phnum */\n      0x02\n      add\n      0x00\n        /* \"contracts/1_Storage.sol\":765:784  current.phnum=phnum */\n      0x0100\n      exp\n      dup2\n      sload\n      dup2\n      0xffffffffffffffffffffffffffffffffffffffffff\n      mul\n      not\n      and\n      swap1\n      dup4\n      0xffffffffffffffffffffffffffffffffffffffffff\n      and\n      mul\n      or\n      swap1\n      sstore\n      pop\n        /* \"contracts/1_Storage.sol\":807:819  hospitalname */\n      dup5\n        /* \"contracts/1_Storage.sol\":786:793  current */\n      dup2\n        /* \"contracts/1_Storage.sol\":786:806  current.hospitalname */\n      0x03\n      add\n        /* \"contracts/1_Storage.sol\":786:819  current.hospitalname=hospitalname */\n      swap1\n      dup2\n      tag_57\n      swap2\n      swap1\n      tag_44\n      jump\t// in\n    tag_57:\n      pop\n        /* \"contracts/1_Storage.sol\":683:826  {... */\n      pop\n        /* \"contracts/1_Storage.sol\":559:826  function createaccount(string  memory name,string memory  hospitalname,string  memory email,uint168 phnum,uint age ) public {... */\n      pop\n      pop\n      pop\n      pop\n      pop\n      jump\t// out\n        /* \"contracts/1_Storage.sol\":1226:1388  function getuser(string  memory hospitalname, string memory name)  public  view   returns(uint104)     {... */\n    tag_26:\n        /* \"contracts/1_Storage.sol\":1316:1323  uint104 */\n      0x00\n        /* \"contracts/1_Storage.sol\":1347:1355  patients */\n      0x00\n        /* \"contracts/1_Storage.sol\":1356:1368  hospitalname */\n      dup4\n        /* \"contracts/1_Storage.sol\":1347:1369  patients[hospitalname] */\n      mload(0x40)\n      tag_59\n      swap2\n      swap1\n      tag_41\n      jump\t// in\n    tag_59:\n      swap1\n      dup2\n      mstore\n      0x20\n      add\n      mload(0x40)\n      dup1\n      swap2\n      sub\n      swap1\n      keccak256\n        /* \"contracts/1_Storage.sol\":1370:1374  name */\n      dup3\n        /* \"contracts/1_Storage.sol\":1347:1375  patients[hospitalname][name] */\n      mload(0x40)\n      tag_60\n      swap2\n      swap1\n      tag_41\n      jump\t// in\n    tag_60:\n      swap1\n      dup2\n      mstore\n      0x20\n      add\n      mload(0x40)\n      dup1\n      swap2\n      sub\n      swap1\n      keccak256\n        /* \"contracts/1_Storage.sol\":1347:1379  patients[hospitalname][name].age */\n      0x01\n      add\n      0x00\n      swap1\n      sload\n      swap1\n      0x0100\n      exp\n      swap1\n      div\n      0xffffffffffffffffffffffffff\n      and\n        /* \"contracts/1_Storage.sol\":1339:1379  return  patients[hospitalname][name].age */\n      swap1\n      pop\n        /* \"contracts/1_Storage.sol\":1226:1388  function getuser(string  memory hospitalname, string memory name)  public  view   returns(uint104)     {... */\n      swap3\n      swap2\n      pop\n      pop\n      jump\t// out\n        /* \"contracts/1_Storage.sol\":515:556  mapping  ( string => User ) public  users */\n    tag_31:\n      0x01\n      dup2\n      dup1\n      mload\n      0x20\n      dup2\n      add\n      dup3\n      add\n      dup1\n      mload\n      dup5\n      dup3\n      mstore\n      0x20\n      dup4\n      add\n      0x20\n      dup6\n      add\n      keccak256\n      dup2\n      dup4\n      mstore\n      dup1\n      swap6\n      pop\n      pop\n      pop\n      pop\n      pop\n      pop\n      0x00\n      swap2\n      pop\n      swap1\n      pop\n      dup1\n      0x00\n      add\n      dup1\n      sload\n      tag_61\n      swap1\n      tag_48\n      jump\t// in\n    tag_61:\n      dup1\n      0x1f\n      add\n      0x20\n      dup1\n      swap2\n      div\n      mul\n      0x20\n      add\n      mload(0x40)\n      swap1\n      dup2\n      add\n      0x40\n      mstore\n      dup1\n      swap3\n      swap2\n      swap1\n      dup2\n      dup2\n      mstore\n      0x20\n      add\n      dup3\n      dup1\n      sload\n      tag_62\n      swap1\n      tag_48\n      jump\t// in\n    tag_62:\n      dup1\n      iszero\n      tag_63\n      jumpi\n      dup1\n      0x1f\n      lt\n      tag_64\n      jumpi\n      0x0100\n      dup1\n      dup4\n      sload\n      div\n      mul\n      dup4\n      mstore\n      swap2\n      0x20\n      add\n      swap2\n      jump(tag_63)\n    tag_64:\n      dup3\n      add\n      swap2\n      swap1\n      0x00\n      mstore\n      keccak256(0x00, 0x20)\n      swap1\n    tag_65:\n      dup2\n      sload\n      dup2\n      mstore\n      swap1\n      0x01\n      add\n      swap1\n      0x20\n      add\n      dup1\n      dup4\n      gt\n      tag_65\n      jumpi\n      dup3\n      swap1\n      sub\n      0x1f\n      and\n      dup3\n      add\n      swap2\n    tag_63:\n      pop\n      pop\n      pop\n      pop\n      pop\n      swap1\n      dup1\n      0x01\n      add\n      dup1\n      sload\n      tag_66\n      swap1\n      tag_48\n      jump\t// in\n    tag_66:\n      dup1\n      0x1f\n      add\n      0x20\n      dup1\n      swap2\n      div\n      mul\n      0x20\n      add\n      mload(0x40)\n      swap1\n      dup2\n      add\n      0x40\n      mstore\n      dup1\n      swap3\n      swap2\n      swap1\n      dup2\n      dup2\n      mstore\n      0x20\n      add\n      dup3\n      dup1\n      sload\n      tag_67\n      swap1\n      tag_48\n      jump\t// in\n    tag_67:\n      dup1\n      iszero\n      tag_68\n      jumpi\n      dup1\n      0x1f\n      lt\n      tag_69\n      jumpi\n      0x0100\n      dup1\n      dup4\n      sload\n      div\n      mul\n      dup4\n      mstore\n      swap2\n      0x20\n      add\n      swap2\n      jump(tag_68)\n    tag_69:\n      dup3\n      add\n      swap2\n      swap1\n      0x00\n      mstore\n      keccak256(0x00, 0x20)\n      swap1\n    tag_70:\n      dup2\n      sload\n      dup2\n      mstore\n      swap1\n      0x01\n      add\n      swap1\n      0x20\n      add\n      dup1\n      dup4\n      gt\n      tag_70\n      jumpi\n      dup3\n      swap1\n      sub\n      0x1f\n      and\n      dup3\n      add\n      swap2\n    tag_68:\n      pop\n      pop\n      pop\n      pop\n      pop\n      swap1\n      dup1\n      0x02\n      add\n      0x00\n      swap1\n      sload\n      swap1\n      0x0100\n      exp\n      swap1\n      div\n      0xffffffffffffffffffffffffffffffffffffffffff\n      and\n      swap1\n      dup1\n      0x03\n      add\n      dup1\n      sload\n      tag_71\n      swap1\n      tag_48\n      jump\t// in\n    tag_71:\n      dup1\n      0x1f\n      add\n      0x20\n      dup1\n      swap2\n      div\n      mul\n      0x20\n      add\n      mload(0x40)\n      swap1\n      dup2\n      add\n      0x40\n      mstore\n      dup1\n      swap3\n      swap2\n      swap1\n      dup2\n      dup2\n      mstore\n      0x20\n      add\n      dup3\n      dup1\n      sload\n      tag_72\n      swap1\n      tag_48\n      jump\t// in\n    tag_72:\n      dup1\n      iszero\n      tag_73\n      jumpi\n      dup1\n      0x1f\n      lt\n      tag_74\n      jumpi\n      0x0100\n      dup1\n      dup4\n      sload\n      div\n      mul\n      dup4\n      mstore\n      swap2\n      0x20\n      add\n      swap2\n      jump(tag_73)\n    tag_74:\n      dup3\n      add\n      swap2\n      swap1\n      0x00\n      mstore\n      keccak256(0x00, 0x20)\n      swap1\n    tag_75:\n      dup2\n      sload\n      dup2\n      mstore\n      swap1\n      0x01\n      add\n      swap1\n      0x20\n      add\n      dup1\n      dup4\n      gt\n      tag_75\n      jumpi\n      dup3\n      swap1\n      sub\n      0x1f\n      and\n      dup3\n      add\n      swap2\n    tag_73:\n      pop\n      pop\n      pop\n      pop\n      pop\n      swap1\n      pop\n      dup5\n      jump\t// out\n        /* \"contracts/1_Storage.sol\":451:509  mapping(string => mapping(string => Host)) public patients */\n    tag_36:\n      0x00\n      dup3\n      dup1\n      mload\n      0x20\n      dup2\n      add\n      dup3\n      add\n      dup1\n      mload\n      dup5\n      dup3\n      mstore\n      0x20\n      dup4\n      add\n      0x20\n      dup6\n      add\n      keccak256\n      dup2\n      dup4\n      mstore\n      dup1\n      swap6\n      pop\n      pop\n      pop\n      pop\n      pop\n      pop\n      dup2\n      dup1\n      mload\n      0x20\n      dup2\n      add\n      dup3\n      add\n      dup1\n      mload\n      dup5\n      dup3\n      mstore\n      0x20\n      dup4\n      add\n      0x20\n      dup6\n      add\n      keccak256\n      dup2\n      dup4\n      mstore\n      dup1\n      swap6\n      pop\n      pop\n      pop\n      pop\n      pop\n      pop\n      0x00\n      swap2\n      pop\n      swap2\n      pop\n      pop\n      dup1\n      0x00\n      add\n      dup1\n      sload\n      tag_76\n      swap1\n      tag_48\n      jump\t// in\n    tag_76:\n      dup1\n      0x1f\n      add\n      0x20\n      dup1\n      swap2\n      div\n      mul\n      0x20\n      add\n      mload(0x40)\n      swap1\n      dup2\n      add\n      0x40\n      mstore\n      dup1\n      swap3\n      swap2\n      swap1\n      dup2\n      dup2\n      mstore\n      0x20\n      add\n      dup3\n      dup1\n      sload\n      tag_77\n      swap1\n      tag_48\n      jump\t// in\n    tag_77:\n      dup1\n      iszero\n      tag_78\n      jumpi\n      dup1\n      0x1f\n      lt\n      tag_79\n      jumpi\n      0x0100\n      dup1\n      dup4\n      sload\n      div\n      mul\n      dup4\n      mstore\n      swap2\n      0x20\n      add\n      swap2\n      jump(tag_78)\n    tag_79:\n      dup3\n      add\n      swap2\n      swap1\n      0x00\n      mstore\n      keccak256(0x00, 0x20)\n      swap1\n    tag_80:\n      dup2\n      sload\n      dup2\n      mstore\n      swap1\n      0x01\n      add\n      swap1\n      0x20\n      add\n      dup1\n      dup4\n      gt\n      tag_80\n      jumpi\n      dup3\n      swap1\n      sub\n      0x1f\n      and\n      dup3\n      add\n      swap2\n    tag_78:\n      pop\n      pop\n      pop\n      pop\n      pop\n      swap1\n      dup1\n      0x01\n      add\n      0x00\n      swap1\n      sload\n      swap1\n      0x0100\n      exp\n      swap1\n      div\n      0xffffffffffffffffffffffffff\n      and\n      swap1\n      pop\n      dup3\n      jump\t// out\n        /* \"#utility.yul\":7:82   */\n    tag_81:\n        /* \"#utility.yul\":40:46   */\n      0x00\n        /* \"#utility.yul\":73:75   */\n      0x40\n        /* \"#utility.yul\":67:76   */\n      mload\n        /* \"#utility.yul\":57:76   */\n      swap1\n      pop\n        /* \"#utility.yul\":7:82   */\n      swap1\n      jump\t// out\n        /* \"#utility.yul\":88:205   */\n    tag_82:\n        /* \"#utility.yul\":197:198   */\n      0x00\n        /* \"#utility.yul\":194:195   */\n      0x00\n        /* \"#utility.yul\":187:199   */\n      revert\n        /* \"#utility.yul\":211:328   */\n    tag_83:\n        /* \"#utility.yul\":320:321   */\n      0x00\n        /* \"#utility.yul\":317:318   */\n      0x00\n        /* \"#utility.yul\":310:322   */\n      revert\n        /* \"#utility.yul\":334:451   */\n    tag_84:\n        /* \"#utility.yul\":443:444   */\n      0x00\n        /* \"#utility.yul\":440:441   */\n      0x00\n        /* \"#utility.yul\":433:445   */\n      revert\n        /* \"#utility.yul\":457:574   */\n    tag_85:\n        /* \"#utility.yul\":566:567   */\n      0x00\n        /* \"#utility.yul\":563:564   */\n      0x00\n        /* \"#utility.yul\":556:568   */\n      revert\n        /* \"#utility.yul\":580:682   */\n    tag_86:\n        /* \"#utility.yul\":621:627   */\n      0x00\n        /* \"#utility.yul\":672:674   */\n      0x1f\n        /* \"#utility.yul\":668:675   */\n      not\n        /* \"#utility.yul\":663:665   */\n      0x1f\n        /* \"#utility.yul\":656:661   */\n      dup4\n        /* \"#utility.yul\":652:666   */\n      add\n        /* \"#utility.yul\":648:676   */\n      and\n        /* \"#utility.yul\":638:676   */\n      swap1\n      pop\n        /* \"#utility.yul\":580:682   */\n      swap2\n      swap1\n      pop\n      jump\t// out\n        /* \"#utility.yul\":688:868   */\n    tag_87:\n        /* \"#utility.yul\":736:813   */\n      0x4e487b7100000000000000000000000000000000000000000000000000000000\n        /* \"#utility.yul\":733:734   */\n      0x00\n        /* \"#utility.yul\":726:814   */\n      mstore\n        /* \"#utility.yul\":833:837   */\n      0x41\n        /* \"#utility.yul\":830:831   */\n      0x04\n        /* \"#utility.yul\":823:838   */\n      mstore\n        /* \"#utility.yul\":857:861   */\n      0x24\n        /* \"#utility.yul\":854:855   */\n      0x00\n        /* \"#utility.yul\":847:862   */\n      revert\n        /* \"#utility.yul\":874:1155   */\n    tag_88:\n        /* \"#utility.yul\":957:984   */\n      tag_136\n        /* \"#utility.yul\":979:983   */\n      dup3\n        /* \"#utility.yul\":957:984   */\n      tag_86\n      jump\t// in\n    tag_136:\n        /* \"#utility.yul\":949:955   */\n      dup2\n        /* \"#utility.yul\":945:985   */\n      add\n        /* \"#utility.yul\":1087:1093   */\n      dup2\n        /* \"#utility.yul\":1075:1085   */\n      dup2\n        /* \"#utility.yul\":1072:1094   */\n      lt\n        /* \"#utility.yul\":1051:1069   */\n      0xffffffffffffffff\n        /* \"#utility.yul\":1039:1049   */\n      dup3\n        /* \"#utility.yul\":1036:1070   */\n      gt\n        /* \"#utility.yul\":1033:1095   */\n      or\n        /* \"#utility.yul\":1030:1118   */\n      iszero\n      tag_137\n      jumpi\n        /* \"#utility.yul\":1098:1116   */\n      tag_138\n      tag_87\n      jump\t// in\n    tag_138:\n        /* \"#utility.yul\":1030:1118   */\n    tag_137:\n        /* \"#utility.yul\":1138:1148   */\n      dup1\n        /* \"#utility.yul\":1134:1136   */\n      0x40\n        /* \"#utility.yul\":1127:1149   */\n      mstore\n        /* \"#utility.yul\":917:1155   */\n      pop\n        /* \"#utility.yul\":874:1155   */\n      pop\n      pop\n      jump\t// out\n        /* \"#utility.yul\":1161:1290   */\n    tag_89:\n        /* \"#utility.yul\":1195:1201   */\n      0x00\n        /* \"#utility.yul\":1222:1242   */\n      tag_140\n      tag_81\n      jump\t// in\n    tag_140:\n        /* \"#utility.yul\":1212:1242   */\n      swap1\n      pop\n        /* \"#utility.yul\":1251:1284   */\n      tag_141\n        /* \"#utility.yul\":1279:1283   */\n      dup3\n        /* \"#utility.yul\":1271:1277   */\n      dup3\n        /* \"#utility.yul\":1251:1284   */\n      tag_88\n      jump\t// in\n    tag_141:\n        /* \"#utility.yul\":1161:1290   */\n      swap2\n      swap1\n      pop\n      jump\t// out\n        /* \"#utility.yul\":1296:1604   */\n    tag_90:\n        /* \"#utility.yul\":1358:1362   */\n      0x00\n        /* \"#utility.yul\":1448:1466   */\n      0xffffffffffffffff\n        /* \"#utility.yul\":1440:1446   */\n      dup3\n        /* \"#utility.yul\":1437:1467   */\n      gt\n        /* \"#utility.yul\":1434:1490   */\n      iszero\n      tag_143\n      jumpi\n        /* \"#utility.yul\":1470:1488   */\n      tag_144\n      tag_87\n      jump\t// in\n    tag_144:\n        /* \"#utility.yul\":1434:1490   */\n    tag_143:\n        /* \"#utility.yul\":1508:1537   */\n      tag_145\n        /* \"#utility.yul\":1530:1536   */\n      dup3\n        /* \"#utility.yul\":1508:1537   */\n      tag_86\n      jump\t// in\n    tag_145:\n        /* \"#utility.yul\":1500:1537   */\n      swap1\n      pop\n        /* \"#utility.yul\":1592:1596   */\n      0x20\n        /* \"#utility.yul\":1586:1590   */\n      dup2\n        /* \"#utility.yul\":1582:1597   */\n      add\n        /* \"#utility.yul\":1574:1597   */\n      swap1\n      pop\n        /* \"#utility.yul\":1296:1604   */\n      swap2\n      swap1\n      pop\n      jump\t// out\n        /* \"#utility.yul\":1610:1758   */\n    tag_91:\n        /* \"#utility.yul\":1708:1714   */\n      dup3\n        /* \"#utility.yul\":1703:1706   */\n      dup2\n        /* \"#utility.yul\":1698:1701   */\n      dup4\n        /* \"#utility.yul\":1685:1715   */\n      calldatacopy\n        /* \"#utility.yul\":1749:1750   */\n      0x00\n        /* \"#utility.yul\":1740:1746   */\n      dup4\n        /* \"#utility.yul\":1735:1738   */\n      dup4\n        /* \"#utility.yul\":1731:1747   */\n      add\n        /* \"#utility.yul\":1724:1751   */\n      mstore\n        /* \"#utility.yul\":1610:1758   */\n      pop\n      pop\n      pop\n      jump\t// out\n        /* \"#utility.yul\":1764:2189   */\n    tag_92:\n        /* \"#utility.yul\":1842:1847   */\n      0x00\n        /* \"#utility.yul\":1867:1933   */\n      tag_148\n        /* \"#utility.yul\":1883:1932   */\n      tag_149\n        /* \"#utility.yul\":1925:1931   */\n      dup5\n        /* \"#utility.yul\":1883:1932   */\n      tag_90\n      jump\t// in\n    tag_149:\n        /* \"#utility.yul\":1867:1933   */\n      tag_89\n      jump\t// in\n    tag_148:\n        /* \"#utility.yul\":1858:1933   */\n      swap1\n      pop\n        /* \"#utility.yul\":1956:1962   */\n      dup3\n        /* \"#utility.yul\":1949:1954   */\n      dup2\n        /* \"#utility.yul\":1942:1963   */\n      mstore\n        /* \"#utility.yul\":1994:1998   */\n      0x20\n        /* \"#utility.yul\":1987:1992   */\n      dup2\n        /* \"#utility.yul\":1983:1999   */\n      add\n        /* \"#utility.yul\":2032:2035   */\n      dup5\n        /* \"#utility.yul\":2023:2029   */\n      dup5\n        /* \"#utility.yul\":2018:2021   */\n      dup5\n        /* \"#utility.yul\":2014:2030   */\n      add\n        /* \"#utility.yul\":2011:2036   */\n      gt\n        /* \"#utility.yul\":2008:2120   */\n      iszero\n      tag_150\n      jumpi\n        /* \"#utility.yul\":2039:2118   */\n      tag_151\n      tag_85\n      jump\t// in\n    tag_151:\n        /* \"#utility.yul\":2008:2120   */\n    tag_150:\n        /* \"#utility.yul\":2129:2183   */\n      tag_152\n        /* \"#utility.yul\":2176:2182   */\n      dup5\n        /* \"#utility.yul\":2171:2174   */\n      dup3\n        /* \"#utility.yul\":2166:2169   */\n      dup6\n        /* \"#utility.yul\":2129:2183   */\n      tag_91\n      jump\t// in\n    tag_152:\n        /* \"#utility.yul\":1848:2189   */\n      pop\n        /* \"#utility.yul\":1764:2189   */\n      swap4\n      swap3\n      pop\n      pop\n      pop\n      jump\t// out\n        /* \"#utility.yul\":2209:2549   */\n    tag_93:\n        /* \"#utility.yul\":2265:2270   */\n      0x00\n        /* \"#utility.yul\":2314:2317   */\n      dup3\n        /* \"#utility.yul\":2307:2311   */\n      0x1f\n        /* \"#utility.yul\":2299:2305   */\n      dup4\n        /* \"#utility.yul\":2295:2312   */\n      add\n        /* \"#utility.yul\":2291:2318   */\n      slt\n        /* \"#utility.yul\":2281:2403   */\n      tag_154\n      jumpi\n        /* \"#utility.yul\":2322:2401   */\n      tag_155\n      tag_84\n      jump\t// in\n    tag_155:\n        /* \"#utility.yul\":2281:2403   */\n    tag_154:\n        /* \"#utility.yul\":2439:2445   */\n      dup2\n        /* \"#utility.yul\":2426:2446   */\n      calldataload\n        /* \"#utility.yul\":2464:2543   */\n      tag_156\n        /* \"#utility.yul\":2539:2542   */\n      dup5\n        /* \"#utility.yul\":2531:2537   */\n      dup3\n        /* \"#utility.yul\":2524:2528   */\n      0x20\n        /* \"#utility.yul\":2516:2522   */\n      dup7\n        /* \"#utility.yul\":2512:2529   */\n      add\n        /* \"#utility.yul\":2464:2543   */\n      tag_92\n      jump\t// in\n    tag_156:\n        /* \"#utility.yul\":2455:2543   */\n      swap2\n      pop\n        /* \"#utility.yul\":2271:2549   */\n      pop\n        /* \"#utility.yul\":2209:2549   */\n      swap3\n      swap2\n      pop\n      pop\n      jump\t// out\n        /* \"#utility.yul\":2555:2667   */\n    tag_94:\n        /* \"#utility.yul\":2592:2599   */\n      0x00\n        /* \"#utility.yul\":2632:2660   */\n      0xffffffffffffffffffffffffff\n        /* \"#utility.yul\":2625:2630   */\n      dup3\n        /* \"#utility.yul\":2621:2661   */\n      and\n        /* \"#utility.yul\":2610:2661   */\n      swap1\n      pop\n        /* \"#utility.yul\":2555:2667   */\n      swap2\n      swap1\n      pop\n      jump\t// out\n        /* \"#utility.yul\":2673:2795   */\n    tag_95:\n        /* \"#utility.yul\":2746:2770   */\n      tag_159\n        /* \"#utility.yul\":2764:2769   */\n      dup2\n        /* \"#utility.yul\":2746:2770   */\n      tag_94\n      jump\t// in\n    tag_159:\n        /* \"#utility.yul\":2739:2744   */\n      dup2\n        /* \"#utility.yul\":2736:2771   */\n      eq\n        /* \"#utility.yul\":2726:2789   */\n      tag_160\n      jumpi\n        /* \"#utility.yul\":2785:2786   */\n      0x00\n        /* \"#utility.yul\":2782:2783   */\n      0x00\n        /* \"#utility.yul\":2775:2787   */\n      revert\n        /* \"#utility.yul\":2726:2789   */\n    tag_160:\n        /* \"#utility.yul\":2673:2795   */\n      pop\n      jump\t// out\n        /* \"#utility.yul\":2801:2940   */\n    tag_96:\n        /* \"#utility.yul\":2847:2852   */\n      0x00\n        /* \"#utility.yul\":2885:2891   */\n      dup2\n        /* \"#utility.yul\":2872:2892   */\n      calldataload\n        /* \"#utility.yul\":2863:2892   */\n      swap1\n      pop\n        /* \"#utility.yul\":2901:2934   */\n      tag_162\n        /* \"#utility.yul\":2928:2933   */\n      dup2\n        /* \"#utility.yul\":2901:2934   */\n      tag_95\n      jump\t// in\n    tag_162:\n        /* \"#utility.yul\":2801:2940   */\n      swap3\n      swap2\n      pop\n      pop\n      jump\t// out\n        /* \"#utility.yul\":2946:3925   */\n    tag_11:\n        /* \"#utility.yul\":3043:3049   */\n      0x00\n        /* \"#utility.yul\":3051:3057   */\n      0x00\n        /* \"#utility.yul\":3059:3065   */\n      0x00\n        /* \"#utility.yul\":3108:3110   */\n      0x60\n        /* \"#utility.yul\":3096:3105   */\n      dup5\n        /* \"#utility.yul\":3087:3094   */\n      dup7\n        /* \"#utility.yul\":3083:3106   */\n      sub\n        /* \"#utility.yul\":3079:3111   */\n      slt\n        /* \"#utility.yul\":3076:3195   */\n      iszero\n      tag_164\n      jumpi\n        /* \"#utility.yul\":3114:3193   */\n      tag_165\n      tag_82\n      jump\t// in\n    tag_165:\n        /* \"#utility.yul\":3076:3195   */\n    tag_164:\n        /* \"#utility.yul\":3262:3263   */\n      0x00\n        /* \"#utility.yul\":3251:3260   */\n      dup5\n        /* \"#utility.yul\":3247:3264   */\n      add\n        /* \"#utility.yul\":3234:3265   */\n      calldataload\n        /* \"#utility.yul\":3292:3310   */\n      0xffffffffffffffff\n        /* \"#utility.yul\":3284:3290   */\n      dup2\n        /* \"#utility.yul\":3281:3311   */\n      gt\n        /* \"#utility.yul\":3278:3395   */\n      iszero\n      tag_166\n      jumpi\n        /* \"#utility.yul\":3314:3393   */\n      tag_167\n      tag_83\n      jump\t// in\n    tag_167:\n        /* \"#utility.yul\":3278:3395   */\n    tag_166:\n        /* \"#utility.yul\":3419:3482   */\n      tag_168\n        /* \"#utility.yul\":3474:3481   */\n      dup7\n        /* \"#utility.yul\":3465:3471   */\n      dup3\n        /* \"#utility.yul\":3454:3463   */\n      dup8\n        /* \"#utility.yul\":3450:3472   */\n      add\n        /* \"#utility.yul\":3419:3482   */\n      tag_93\n      jump\t// in\n    tag_168:\n        /* \"#utility.yul\":3409:3482   */\n      swap4\n      pop\n        /* \"#utility.yul\":3205:3492   */\n      pop\n        /* \"#utility.yul\":3531:3533   */\n      0x20\n        /* \"#utility.yul\":3557:3610   */\n      tag_169\n        /* \"#utility.yul\":3602:3609   */\n      dup7\n        /* \"#utility.yul\":3593:3599   */\n      dup3\n        /* \"#utility.yul\":3582:3591   */\n      dup8\n        /* \"#utility.yul\":3578:3600   */\n      add\n        /* \"#utility.yul\":3557:3610   */\n      tag_96\n      jump\t// in\n    tag_169:\n        /* \"#utility.yul\":3547:3610   */\n      swap3\n      pop\n        /* \"#utility.yul\":3502:3620   */\n      pop\n        /* \"#utility.yul\":3687:3689   */\n      0x40\n        /* \"#utility.yul\":3676:3685   */\n      dup5\n        /* \"#utility.yul\":3672:3690   */\n      add\n        /* \"#utility.yul\":3659:3691   */\n      calldataload\n        /* \"#utility.yul\":3718:3736   */\n      0xffffffffffffffff\n        /* \"#utility.yul\":3710:3716   */\n      dup2\n        /* \"#utility.yul\":3707:3737   */\n      gt\n        /* \"#utility.yul\":3704:3821   */\n      iszero\n      tag_170\n      jumpi\n        /* \"#utility.yul\":3740:3819   */\n      tag_171\n      tag_83\n      jump\t// in\n    tag_171:\n        /* \"#utility.yul\":3704:3821   */\n    tag_170:\n        /* \"#utility.yul\":3845:3908   */\n      tag_172\n        /* \"#utility.yul\":3900:3907   */\n      dup7\n        /* \"#utility.yul\":3891:3897   */\n      dup3\n        /* \"#utility.yul\":3880:3889   */\n      dup8\n        /* \"#utility.yul\":3876:3898   */\n      add\n        /* \"#utility.yul\":3845:3908   */\n      tag_93\n      jump\t// in\n    tag_172:\n        /* \"#utility.yul\":3835:3908   */\n      swap2\n      pop\n        /* \"#utility.yul\":3630:3918   */\n      pop\n        /* \"#utility.yul\":2946:3925   */\n      swap3\n      pop\n      swap3\n      pop\n      swap3\n      jump\t// out\n        /* \"#utility.yul\":3931:4440   */\n    tag_15:\n        /* \"#utility.yul\":4000:4006   */\n      0x00\n        /* \"#utility.yul\":4049:4051   */\n      0x20\n        /* \"#utility.yul\":4037:4046   */\n      dup3\n        /* \"#utility.yul\":4028:4035   */\n      dup5\n        /* \"#utility.yul\":4024:4047   */\n      sub\n        /* \"#utility.yul\":4020:4052   */\n      slt\n        /* \"#utility.yul\":4017:4136   */\n      iszero\n      tag_174\n      jumpi\n        /* \"#utility.yul\":4055:4134   */\n      tag_175\n      tag_82\n      jump\t// in\n    tag_175:\n        /* \"#utility.yul\":4017:4136   */\n    tag_174:\n        /* \"#utility.yul\":4203:4204   */\n      0x00\n        /* \"#utility.yul\":4192:4201   */\n      dup3\n        /* \"#utility.yul\":4188:4205   */\n      add\n        /* \"#utility.yul\":4175:4206   */\n      calldataload\n        /* \"#utility.yul\":4233:4251   */\n      0xffffffffffffffff\n        /* \"#utility.yul\":4225:4231   */\n      dup2\n        /* \"#utility.yul\":4222:4252   */\n      gt\n        /* \"#utility.yul\":4219:4336   */\n      iszero\n      tag_176\n      jumpi\n        /* \"#utility.yul\":4255:4334   */\n      tag_177\n      tag_83\n      jump\t// in\n    tag_177:\n        /* \"#utility.yul\":4219:4336   */\n    tag_176:\n        /* \"#utility.yul\":4360:4423   */\n      tag_178\n        /* \"#utility.yul\":4415:4422   */\n      dup5\n        /* \"#utility.yul\":4406:4412   */\n      dup3\n        /* \"#utility.yul\":4395:4404   */\n      dup6\n        /* \"#utility.yul\":4391:4413   */\n      add\n        /* \"#utility.yul\":4360:4423   */\n      tag_93\n      jump\t// in\n    tag_178:\n        /* \"#utility.yul\":4350:4423   */\n      swap2\n      pop\n        /* \"#utility.yul\":4146:4433   */\n      pop\n        /* \"#utility.yul\":3931:4440   */\n      swap3\n      swap2\n      pop\n      pop\n      jump\t// out\n        /* \"#utility.yul\":4446:4545   */\n    tag_97:\n        /* \"#utility.yul\":4498:4504   */\n      0x00\n        /* \"#utility.yul\":4532:4537   */\n      dup2\n        /* \"#utility.yul\":4526:4538   */\n      mload\n        /* \"#utility.yul\":4516:4538   */\n      swap1\n      pop\n        /* \"#utility.yul\":4446:4545   */\n      swap2\n      swap1\n      pop\n      jump\t// out\n        /* \"#utility.yul\":4551:4720   */\n    tag_98:\n        /* \"#utility.yul\":4635:4646   */\n      0x00\n        /* \"#utility.yul\":4669:4675   */\n      dup3\n        /* \"#utility.yul\":4664:4667   */\n      dup3\n        /* \"#utility.yul\":4657:4676   */\n      mstore\n        /* \"#utility.yul\":4709:4713   */\n      0x20\n        /* \"#utility.yul\":4704:4707   */\n      dup3\n        /* \"#utility.yul\":4700:4714   */\n      add\n        /* \"#utility.yul\":4685:4714   */\n      swap1\n      pop\n        /* \"#utility.yul\":4551:4720   */\n      swap3\n      swap2\n      pop\n      pop\n      jump\t// out\n        /* \"#utility.yul\":4726:4865   */\n    tag_99:\n        /* \"#utility.yul\":4815:4821   */\n      dup3\n        /* \"#utility.yul\":4810:4813   */\n      dup2\n        /* \"#utility.yul\":4805:4808   */\n      dup4\n        /* \"#utility.yul\":4799:4822   */\n      mcopy\n        /* \"#utility.yul\":4856:4857   */\n      0x00\n        /* \"#utility.yul\":4847:4853   */\n      dup4\n        /* \"#utility.yul\":4842:4845   */\n      dup4\n        /* \"#utility.yul\":4838:4854   */\n      add\n        /* \"#utility.yul\":4831:4858   */\n      mstore\n        /* \"#utility.yul\":4726:4865   */\n      pop\n      pop\n      pop\n      jump\t// out\n        /* \"#utility.yul\":4871:5248   */\n    tag_100:\n        /* \"#utility.yul\":4959:4962   */\n      0x00\n        /* \"#utility.yul\":4987:5026   */\n      tag_183\n        /* \"#utility.yul\":5020:5025   */\n      dup3\n        /* \"#utility.yul\":4987:5026   */\n      tag_97\n      jump\t// in\n    tag_183:\n        /* \"#utility.yul\":5042:5113   */\n      tag_184\n        /* \"#utility.yul\":5106:5112   */\n      dup2\n        /* \"#utility.yul\":5101:5104   */\n      dup6\n        /* \"#utility.yul\":5042:5113   */\n      tag_98\n      jump\t// in\n    tag_184:\n        /* \"#utility.yul\":5035:5113   */\n      swap4\n      pop\n        /* \"#utility.yul\":5122:5187   */\n      tag_185\n        /* \"#utility.yul\":5180:5186   */\n      dup2\n        /* \"#utility.yul\":5175:5178   */\n      dup6\n        /* \"#utility.yul\":5168:5172   */\n      0x20\n        /* \"#utility.yul\":5161:5166   */\n      dup7\n        /* \"#utility.yul\":5157:5173   */\n      add\n        /* \"#utility.yul\":5122:5187   */\n      tag_99\n      jump\t// in\n    tag_185:\n        /* \"#utility.yul\":5212:5241   */\n      tag_186\n        /* \"#utility.yul\":5234:5240   */\n      dup2\n        /* \"#utility.yul\":5212:5241   */\n      tag_86\n      jump\t// in\n    tag_186:\n        /* \"#utility.yul\":5207:5210   */\n      dup5\n        /* \"#utility.yul\":5203:5242   */\n      add\n        /* \"#utility.yul\":5196:5242   */\n      swap2\n      pop\n        /* \"#utility.yul\":4963:5248   */\n      pop\n        /* \"#utility.yul\":4871:5248   */\n      swap3\n      swap2\n      pop\n      pop\n      jump\t// out\n        /* \"#utility.yul\":5254:5567   */\n    tag_18:\n        /* \"#utility.yul\":5367:5371   */\n      0x00\n        /* \"#utility.yul\":5405:5407   */\n      0x20\n        /* \"#utility.yul\":5394:5403   */\n      dup3\n        /* \"#utility.yul\":5390:5408   */\n      add\n        /* \"#utility.yul\":5382:5408   */\n      swap1\n      pop\n        /* \"#utility.yul\":5454:5463   */\n      dup2\n        /* \"#utility.yul\":5448:5452   */\n      dup2\n        /* \"#utility.yul\":5444:5464   */\n      sub\n        /* \"#utility.yul\":5440:5441   */\n      0x00\n        /* \"#utility.yul\":5429:5438   */\n      dup4\n        /* \"#utility.yul\":5425:5442   */\n      add\n        /* \"#utility.yul\":5418:5465   */\n      mstore\n        /* \"#utility.yul\":5482:5560   */\n      tag_188\n        /* \"#utility.yul\":5555:5559   */\n      dup2\n        /* \"#utility.yul\":5546:5552   */\n      dup5\n        /* \"#utility.yul\":5482:5560   */\n      tag_100\n      jump\t// in\n    tag_188:\n        /* \"#utility.yul\":5474:5560   */\n      swap1\n      pop\n        /* \"#utility.yul\":5254:5567   */\n      swap3\n      swap2\n      pop\n      pop\n      jump\t// out\n        /* \"#utility.yul\":5573:5701   */\n    tag_101:\n        /* \"#utility.yul\":5610:5617   */\n      0x00\n        /* \"#utility.yul\":5650:5694   */\n      0xffffffffffffffffffffffffffffffffffffffffff\n        /* \"#utility.yul\":5643:5648   */\n      dup3\n        /* \"#utility.yul\":5639:5695   */\n      and\n        /* \"#utility.yul\":5628:5695   */\n      swap1\n      pop\n        /* \"#utility.yul\":5573:5701   */\n      swap2\n      swap1\n      pop\n      jump\t// out\n        /* \"#utility.yul\":5707:5829   */\n    tag_102:\n        /* \"#utility.yul\":5780:5804   */\n      tag_191\n        /* \"#utility.yul\":5798:5803   */\n      dup2\n        /* \"#utility.yul\":5780:5804   */\n      tag_101\n      jump\t// in\n    tag_191:\n        /* \"#utility.yul\":5773:5778   */\n      dup2\n        /* \"#utility.yul\":5770:5805   */\n      eq\n        /* \"#utility.yul\":5760:5823   */\n      tag_192\n      jumpi\n        /* \"#utility.yul\":5819:5820   */\n      0x00\n        /* \"#utility.yul\":5816:5817   */\n      0x00\n        /* \"#utility.yul\":5809:5821   */\n      revert\n        /* \"#utility.yul\":5760:5823   */\n    tag_192:\n        /* \"#utility.yul\":5707:5829   */\n      pop\n      jump\t// out\n        /* \"#utility.yul\":5835:5974   */\n    tag_103:\n        /* \"#utility.yul\":5881:5886   */\n      0x00\n        /* \"#utility.yul\":5919:5925   */\n      dup2\n        /* \"#utility.yul\":5906:5926   */\n      calldataload\n        /* \"#utility.yul\":5897:5926   */\n      swap1\n      pop\n        /* \"#utility.yul\":5935:5968   */\n      tag_194\n        /* \"#utility.yul\":5962:5967   */\n      dup2\n        /* \"#utility.yul\":5935:5968   */\n      tag_102\n      jump\t// in\n    tag_194:\n        /* \"#utility.yul\":5835:5974   */\n      swap3\n      swap2\n      pop\n      pop\n      jump\t// out\n        /* \"#utility.yul\":5980:6057   */\n    tag_104:\n        /* \"#utility.yul\":6017:6024   */\n      0x00\n        /* \"#utility.yul\":6046:6051   */\n      dup2\n        /* \"#utility.yul\":6035:6051   */\n      swap1\n      pop\n        /* \"#utility.yul\":5980:6057   */\n      swap2\n      swap1\n      pop\n      jump\t// out\n        /* \"#utility.yul\":6063:6185   */\n    tag_105:\n        /* \"#utility.yul\":6136:6160   */\n      tag_197\n        /* \"#utility.yul\":6154:6159   */\n      dup2\n        /* \"#utility.yul\":6136:6160   */\n      tag_104\n      jump\t// in\n    tag_197:\n        /* \"#utility.yul\":6129:6134   */\n      dup2\n        /* \"#utility.yul\":6126:6161   */\n      eq\n        /* \"#utility.yul\":6116:6179   */\n      tag_198\n      jumpi\n        /* \"#utility.yul\":6175:6176   */\n      0x00\n        /* \"#utility.yul\":6172:6173   */\n      0x00\n        /* \"#utility.yul\":6165:6177   */\n      revert\n        /* \"#utility.yul\":6116:6179   */\n    tag_198:\n        /* \"#utility.yul\":6063:6185   */\n      pop\n      jump\t// out\n        /* \"#utility.yul\":6191:6330   */\n    tag_106:\n        /* \"#utility.yul\":6237:6242   */\n      0x00\n        /* \"#utility.yul\":6275:6281   */\n      dup2\n        /* \"#utility.yul\":6262:6282   */\n      calldataload\n        /* \"#utility.yul\":6253:6282   */\n      swap1\n      pop\n        /* \"#utility.yul\":6291:6324   */\n      tag_200\n        /* \"#utility.yul\":6318:6323   */\n      dup2\n        /* \"#utility.yul\":6291:6324   */\n      tag_105\n      jump\t// in\n    tag_200:\n        /* \"#utility.yul\":6191:6330   */\n      swap3\n      swap2\n      pop\n      pop\n      jump\t// out\n        /* \"#utility.yul\":6336:7787   */\n    tag_21:\n        /* \"#utility.yul\":6461:6467   */\n      0x00\n        /* \"#utility.yul\":6469:6475   */\n      0x00\n        /* \"#utility.yul\":6477:6483   */\n      0x00\n        /* \"#utility.yul\":6485:6491   */\n      0x00\n        /* \"#utility.yul\":6493:6499   */\n      0x00\n        /* \"#utility.yul\":6542:6545   */\n      0xa0\n        /* \"#utility.yul\":6530:6539   */\n      dup7\n        /* \"#utility.yul\":6521:6528   */\n      dup9\n        /* \"#utility.yul\":6517:6540   */\n      sub\n        /* \"#utility.yul\":6513:6546   */\n      slt\n        /* \"#utility.yul\":6510:6630   */\n      iszero\n      tag_202\n      jumpi\n        /* \"#utility.yul\":6549:6628   */\n      tag_203\n      tag_82\n      jump\t// in\n    tag_203:\n        /* \"#utility.yul\":6510:6630   */\n    tag_202:\n        /* \"#utility.yul\":6697:6698   */\n      0x00\n        /* \"#utility.yul\":6686:6695   */\n      dup7\n        /* \"#utility.yul\":6682:6699   */\n      add\n        /* \"#utility.yul\":6669:6700   */\n      calldataload\n        /* \"#utility.yul\":6727:6745   */\n      0xffffffffffffffff\n        /* \"#utility.yul\":6719:6725   */\n      dup2\n        /* \"#utility.yul\":6716:6746   */\n      gt\n        /* \"#utility.yul\":6713:6830   */\n      iszero\n      tag_204\n      jumpi\n        /* \"#utility.yul\":6749:6828   */\n      tag_205\n      tag_83\n      jump\t// in\n    tag_205:\n        /* \"#utility.yul\":6713:6830   */\n    tag_204:\n        /* \"#utility.yul\":6854:6917   */\n      tag_206\n        /* \"#utility.yul\":6909:6916   */\n      dup9\n        /* \"#utility.yul\":6900:6906   */\n      dup3\n        /* \"#utility.yul\":6889:6898   */\n      dup10\n        /* \"#utility.yul\":6885:6907   */\n      add\n        /* \"#utility.yul\":6854:6917   */\n      tag_93\n      jump\t// in\n    tag_206:\n        /* \"#utility.yul\":6844:6917   */\n      swap6\n      pop\n        /* \"#utility.yul\":6640:6927   */\n      pop\n        /* \"#utility.yul\":6994:6996   */\n      0x20\n        /* \"#utility.yul\":6983:6992   */\n      dup7\n        /* \"#utility.yul\":6979:6997   */\n      add\n        /* \"#utility.yul\":6966:6998   */\n      calldataload\n        /* \"#utility.yul\":7025:7043   */\n      0xffffffffffffffff\n        /* \"#utility.yul\":7017:7023   */\n      dup2\n        /* \"#utility.yul\":7014:7044   */\n      gt\n        /* \"#utility.yul\":7011:7128   */\n      iszero\n      tag_207\n      jumpi\n        /* \"#utility.yul\":7047:7126   */\n      tag_208\n      tag_83\n      jump\t// in\n    tag_208:\n        /* \"#utility.yul\":7011:7128   */\n    tag_207:\n        /* \"#utility.yul\":7152:7215   */\n      tag_209\n        /* \"#utility.yul\":7207:7214   */\n      dup9\n        /* \"#utility.yul\":7198:7204   */\n      dup3\n        /* \"#utility.yul\":7187:7196   */\n      dup10\n        /* \"#utility.yul\":7183:7205   */\n      add\n        /* \"#utility.yul\":7152:7215   */\n      tag_93\n      jump\t// in\n    tag_209:\n        /* \"#utility.yul\":7142:7215   */\n      swap5\n      pop\n        /* \"#utility.yul\":6937:7225   */\n      pop\n        /* \"#utility.yul\":7292:7294   */\n      0x40\n        /* \"#utility.yul\":7281:7290   */\n      dup7\n        /* \"#utility.yul\":7277:7295   */\n      add\n        /* \"#utility.yul\":7264:7296   */\n      calldataload\n        /* \"#utility.yul\":7323:7341   */\n      0xffffffffffffffff\n        /* \"#utility.yul\":7315:7321   */\n      dup2\n        /* \"#utility.yul\":7312:7342   */\n      gt\n        /* \"#utility.yul\":7309:7426   */\n      iszero\n      tag_210\n      jumpi\n        /* \"#utility.yul\":7345:7424   */\n      tag_211\n      tag_83\n      jump\t// in\n    tag_211:\n        /* \"#utility.yul\":7309:7426   */\n    tag_210:\n        /* \"#utility.yul\":7450:7513   */\n      tag_212\n        /* \"#utility.yul\":7505:7512   */\n      dup9\n        /* \"#utility.yul\":7496:7502   */\n      dup3\n        /* \"#utility.yul\":7485:7494   */\n      dup10\n        /* \"#utility.yul\":7481:7503   */\n      add\n        /* \"#utility.yul\":7450:7513   */\n      tag_93\n      jump\t// in\n    tag_212:\n        /* \"#utility.yul\":7440:7513   */\n      swap4\n      pop\n        /* \"#utility.yul\":7235:7523   */\n      pop\n        /* \"#utility.yul\":7562:7564   */\n      0x60\n        /* \"#utility.yul\":7588:7641   */\n      tag_213\n        /* \"#utility.yul\":7633:7640   */\n      dup9\n        /* \"#utility.yul\":7624:7630   */\n      dup3\n        /* \"#utility.yul\":7613:7622   */\n      dup10\n        /* \"#utility.yul\":7609:7631   */\n      add\n        /* \"#utility.yul\":7588:7641   */\n      tag_103\n      jump\t// in\n    tag_213:\n        /* \"#utility.yul\":7578:7641   */\n      swap3\n      pop\n        /* \"#utility.yul\":7533:7651   */\n      pop\n        /* \"#utility.yul\":7690:7693   */\n      0x80\n        /* \"#utility.yul\":7717:7770   */\n      tag_214\n        /* \"#utility.yul\":7762:7769   */\n      dup9\n        /* \"#utility.yul\":7753:7759   */\n      dup3\n        /* \"#utility.yul\":7742:7751   */\n      dup10\n        /* \"#utility.yul\":7738:7760   */\n      add\n        /* \"#utility.yul\":7717:7770   */\n      tag_106\n      jump\t// in\n    tag_214:\n        /* \"#utility.yul\":7707:7770   */\n      swap2\n      pop\n        /* \"#utility.yul\":7661:7780   */\n      pop\n        /* \"#utility.yul\":6336:7787   */\n      swap3\n      swap6\n      pop\n      swap3\n      swap6\n      swap1\n      swap4\n      pop\n      jump\t// out\n        /* \"#utility.yul\":7793:8627   */\n    tag_25:\n        /* \"#utility.yul\":7881:7887   */\n      0x00\n        /* \"#utility.yul\":7889:7895   */\n      0x00\n        /* \"#utility.yul\":7938:7940   */\n      0x40\n        /* \"#utility.yul\":7926:7935   */\n      dup4\n        /* \"#utility.yul\":7917:7924   */\n      dup6\n        /* \"#utility.yul\":7913:7936   */\n      sub\n        /* \"#utility.yul\":7909:7941   */\n      slt\n        /* \"#utility.yul\":7906:8025   */\n      iszero\n      tag_216\n      jumpi\n        /* \"#utility.yul\":7944:8023   */\n      tag_217\n      tag_82\n      jump\t// in\n    tag_217:\n        /* \"#utility.yul\":7906:8025   */\n    tag_216:\n        /* \"#utility.yul\":8092:8093   */\n      0x00\n        /* \"#utility.yul\":8081:8090   */\n      dup4\n        /* \"#utility.yul\":8077:8094   */\n      add\n        /* \"#utility.yul\":8064:8095   */\n      calldataload\n        /* \"#utility.yul\":8122:8140   */\n      0xffffffffffffffff\n        /* \"#utility.yul\":8114:8120   */\n      dup2\n        /* \"#utility.yul\":8111:8141   */\n      gt\n        /* \"#utility.yul\":8108:8225   */\n      iszero\n      tag_218\n      jumpi\n        /* \"#utility.yul\":8144:8223   */\n      tag_219\n      tag_83\n      jump\t// in\n    tag_219:\n        /* \"#utility.yul\":8108:8225   */\n    tag_218:\n        /* \"#utility.yul\":8249:8312   */\n      tag_220\n        /* \"#utility.yul\":8304:8311   */\n      dup6\n        /* \"#utility.yul\":8295:8301   */\n      dup3\n        /* \"#utility.yul\":8284:8293   */\n      dup7\n        /* \"#utility.yul\":8280:8302   */\n      add\n        /* \"#utility.yul\":8249:8312   */\n      tag_93\n      jump\t// in\n    tag_220:\n        /* \"#utility.yul\":8239:8312   */\n      swap3\n      pop\n        /* \"#utility.yul\":8035:8322   */\n      pop\n        /* \"#utility.yul\":8389:8391   */\n      0x20\n        /* \"#utility.yul\":8378:8387   */\n      dup4\n        /* \"#utility.yul\":8374:8392   */\n      add\n        /* \"#utility.yul\":8361:8393   */\n      calldataload\n        /* \"#utility.yul\":8420:8438   */\n      0xffffffffffffffff\n        /* \"#utility.yul\":8412:8418   */\n      dup2\n        /* \"#utility.yul\":8409:8439   */\n      gt\n        /* \"#utility.yul\":8406:8523   */\n      iszero\n      tag_221\n      jumpi\n        /* \"#utility.yul\":8442:8521   */\n      tag_222\n      tag_83\n      jump\t// in\n    tag_222:\n        /* \"#utility.yul\":8406:8523   */\n    tag_221:\n        /* \"#utility.yul\":8547:8610   */\n      tag_223\n        /* \"#utility.yul\":8602:8609   */\n      dup6\n        /* \"#utility.yul\":8593:8599   */\n      dup3\n        /* \"#utility.yul\":8582:8591   */\n      dup7\n        /* \"#utility.yul\":8578:8600   */\n      add\n        /* \"#utility.yul\":8547:8610   */\n      tag_93\n      jump\t// in\n    tag_223:\n        /* \"#utility.yul\":8537:8610   */\n      swap2\n      pop\n        /* \"#utility.yul\":8332:8620   */\n      pop\n        /* \"#utility.yul\":7793:8627   */\n      swap3\n      pop\n      swap3\n      swap1\n      pop\n      jump\t// out\n        /* \"#utility.yul\":8633:8751   */\n    tag_107:\n        /* \"#utility.yul\":8720:8744   */\n      tag_225\n        /* \"#utility.yul\":8738:8743   */\n      dup2\n        /* \"#utility.yul\":8720:8744   */\n      tag_94\n      jump\t// in\n    tag_225:\n        /* \"#utility.yul\":8715:8718   */\n      dup3\n        /* \"#utility.yul\":8708:8745   */\n      mstore\n        /* \"#utility.yul\":8633:8751   */\n      pop\n      pop\n      jump\t// out\n        /* \"#utility.yul\":8757:8979   */\n    tag_28:\n        /* \"#utility.yul\":8850:8854   */\n      0x00\n        /* \"#utility.yul\":8888:8890   */\n      0x20\n        /* \"#utility.yul\":8877:8886   */\n      dup3\n        /* \"#utility.yul\":8873:8891   */\n      add\n        /* \"#utility.yul\":8865:8891   */\n      swap1\n      pop\n        /* \"#utility.yul\":8901:8972   */\n      tag_227\n        /* \"#utility.yul\":8969:8970   */\n      0x00\n        /* \"#utility.yul\":8958:8967   */\n      dup4\n        /* \"#utility.yul\":8954:8971   */\n      add\n        /* \"#utility.yul\":8945:8951   */\n      dup5\n        /* \"#utility.yul\":8901:8972   */\n      tag_107\n      jump\t// in\n    tag_227:\n        /* \"#utility.yul\":8757:8979   */\n      swap3\n      swap2\n      pop\n      pop\n      jump\t// out\n        /* \"#utility.yul\":8985:9103   */\n    tag_108:\n        /* \"#utility.yul\":9072:9096   */\n      tag_229\n        /* \"#utility.yul\":9090:9095   */\n      dup2\n        /* \"#utility.yul\":9072:9096   */\n      tag_101\n      jump\t// in\n    tag_229:\n        /* \"#utility.yul\":9067:9070   */\n      dup3\n        /* \"#utility.yul\":9060:9097   */\n      mstore\n        /* \"#utility.yul\":8985:9103   */\n      pop\n      pop\n      jump\t// out\n        /* \"#utility.yul\":9109:9935   */\n    tag_33:\n        /* \"#utility.yul\":9346:9350   */\n      0x00\n        /* \"#utility.yul\":9384:9387   */\n      0x80\n        /* \"#utility.yul\":9373:9382   */\n      dup3\n        /* \"#utility.yul\":9369:9388   */\n      add\n        /* \"#utility.yul\":9361:9388   */\n      swap1\n      pop\n        /* \"#utility.yul\":9434:9443   */\n      dup2\n        /* \"#utility.yul\":9428:9432   */\n      dup2\n        /* \"#utility.yul\":9424:9444   */\n      sub\n        /* \"#utility.yul\":9420:9421   */\n      0x00\n        /* \"#utility.yul\":9409:9418   */\n      dup4\n        /* \"#utility.yul\":9405:9422   */\n      add\n        /* \"#utility.yul\":9398:9445   */\n      mstore\n        /* \"#utility.yul\":9462:9540   */\n      tag_231\n        /* \"#utility.yul\":9535:9539   */\n      dup2\n        /* \"#utility.yul\":9526:9532   */\n      dup8\n        /* \"#utility.yul\":9462:9540   */\n      tag_100\n      jump\t// in\n    tag_231:\n        /* \"#utility.yul\":9454:9540   */\n      swap1\n      pop\n        /* \"#utility.yul\":9587:9596   */\n      dup2\n        /* \"#utility.yul\":9581:9585   */\n      dup2\n        /* \"#utility.yul\":9577:9597   */\n      sub\n        /* \"#utility.yul\":9572:9574   */\n      0x20\n        /* \"#utility.yul\":9561:9570   */\n      dup4\n        /* \"#utility.yul\":9557:9575   */\n      add\n        /* \"#utility.yul\":9550:9598   */\n      mstore\n        /* \"#utility.yul\":9615:9693   */\n      tag_232\n        /* \"#utility.yul\":9688:9692   */\n      dup2\n        /* \"#utility.yul\":9679:9685   */\n      dup7\n        /* \"#utility.yul\":9615:9693   */\n      tag_100\n      jump\t// in\n    tag_232:\n        /* \"#utility.yul\":9607:9693   */\n      swap1\n      pop\n        /* \"#utility.yul\":9703:9775   */\n      tag_233\n        /* \"#utility.yul\":9771:9773   */\n      0x40\n        /* \"#utility.yul\":9760:9769   */\n      dup4\n        /* \"#utility.yul\":9756:9774   */\n      add\n        /* \"#utility.yul\":9747:9753   */\n      dup6\n        /* \"#utility.yul\":9703:9775   */\n      tag_108\n      jump\t// in\n    tag_233:\n        /* \"#utility.yul\":9822:9831   */\n      dup2\n        /* \"#utility.yul\":9816:9820   */\n      dup2\n        /* \"#utility.yul\":9812:9832   */\n      sub\n        /* \"#utility.yul\":9807:9809   */\n      0x60\n        /* \"#utility.yul\":9796:9805   */\n      dup4\n        /* \"#utility.yul\":9792:9810   */\n      add\n        /* \"#utility.yul\":9785:9833   */\n      mstore\n        /* \"#utility.yul\":9850:9928   */\n      tag_234\n        /* \"#utility.yul\":9923:9927   */\n      dup2\n        /* \"#utility.yul\":9914:9920   */\n      dup5\n        /* \"#utility.yul\":9850:9928   */\n      tag_100\n      jump\t// in\n    tag_234:\n        /* \"#utility.yul\":9842:9928   */\n      swap1\n      pop\n        /* \"#utility.yul\":9109:9935   */\n      swap6\n      swap5\n      pop\n      pop\n      pop\n      pop\n      pop\n      jump\t// out\n        /* \"#utility.yul\":9941:10364   */\n    tag_38:\n        /* \"#utility.yul\":10082:10086   */\n      0x00\n        /* \"#utility.yul\":10120:10122   */\n      0x40\n        /* \"#utility.yul\":10109:10118   */\n      dup3\n        /* \"#utility.yul\":10105:10123   */\n      add\n        /* \"#utility.yul\":10097:10123   */\n      swap1\n      pop\n        /* \"#utility.yul\":10169:10178   */\n      dup2\n        /* \"#utility.yul\":10163:10167   */\n      dup2\n        /* \"#utility.yul\":10159:10179   */\n      sub\n        /* \"#utility.yul\":10155:10156   */\n      0x00\n        /* \"#utility.yul\":10144:10153   */\n      dup4\n        /* \"#utility.yul\":10140:10157   */\n      add\n        /* \"#utility.yul\":10133:10180   */\n      mstore\n        /* \"#utility.yul\":10197:10275   */\n      tag_236\n        /* \"#utility.yul\":10270:10274   */\n      dup2\n        /* \"#utility.yul\":10261:10267   */\n      dup6\n        /* \"#utility.yul\":10197:10275   */\n      tag_100\n      jump\t// in\n    tag_236:\n        /* \"#utility.yul\":10189:10275   */\n      swap1\n      pop\n        /* \"#utility.yul\":10285:10357   */\n      tag_237\n        /* \"#utility.yul\":10353:10355   */\n      0x20\n        /* \"#utility.yul\":10342:10351   */\n      dup4\n        /* \"#utility.yul\":10338:10356   */\n      add\n        /* \"#utility.yul\":10329:10335   */\n      dup5\n        /* \"#utility.yul\":10285:10357   */\n      tag_107\n      jump\t// in\n    tag_237:\n        /* \"#utility.yul\":9941:10364   */\n      swap4\n      swap3\n      pop\n      pop\n      pop\n      jump\t// out\n        /* \"#utility.yul\":10370:10518   */\n    tag_109:\n        /* \"#utility.yul\":10472:10483   */\n      0x00\n        /* \"#utility.yul\":10509:10512   */\n      dup2\n        /* \"#utility.yul\":10494:10512   */\n      swap1\n      pop\n        /* \"#utility.yul\":10370:10518   */\n      swap3\n      swap2\n      pop\n      pop\n      jump\t// out\n        /* \"#utility.yul\":10524:10914   */\n    tag_110:\n        /* \"#utility.yul\":10630:10633   */\n      0x00\n        /* \"#utility.yul\":10658:10697   */\n      tag_240\n        /* \"#utility.yul\":10691:10696   */\n      dup3\n        /* \"#utility.yul\":10658:10697   */\n      tag_97\n      jump\t// in\n    tag_240:\n        /* \"#utility.yul\":10713:10802   */\n      tag_241\n        /* \"#utility.yul\":10795:10801   */\n      dup2\n        /* \"#utility.yul\":10790:10793   */\n      dup6\n        /* \"#utility.yul\":10713:10802   */\n      tag_109\n      jump\t// in\n    tag_241:\n        /* \"#utility.yul\":10706:10802   */\n      swap4\n      pop\n        /* \"#utility.yul\":10811:10876   */\n      tag_242\n        /* \"#utility.yul\":10869:10875   */\n      dup2\n        /* \"#utility.yul\":10864:10867   */\n      dup6\n        /* \"#utility.yul\":10857:10861   */\n      0x20\n        /* \"#utility.yul\":10850:10855   */\n      dup7\n        /* \"#utility.yul\":10846:10862   */\n      add\n        /* \"#utility.yul\":10811:10876   */\n      tag_99\n      jump\t// in\n    tag_242:\n        /* \"#utility.yul\":10901:10907   */\n      dup1\n        /* \"#utility.yul\":10896:10899   */\n      dup5\n        /* \"#utility.yul\":10892:10908   */\n      add\n        /* \"#utility.yul\":10885:10908   */\n      swap2\n      pop\n        /* \"#utility.yul\":10634:10914   */\n      pop\n        /* \"#utility.yul\":10524:10914   */\n      swap3\n      swap2\n      pop\n      pop\n      jump\t// out\n        /* \"#utility.yul\":10920:11195   */\n    tag_41:\n        /* \"#utility.yul\":11052:11055   */\n      0x00\n        /* \"#utility.yul\":11074:11169   */\n      tag_244\n        /* \"#utility.yul\":11165:11168   */\n      dup3\n        /* \"#utility.yul\":11156:11162   */\n      dup5\n        /* \"#utility.yul\":11074:11169   */\n      tag_110\n      jump\t// in\n    tag_244:\n        /* \"#utility.yul\":11067:11169   */\n      swap2\n      pop\n        /* \"#utility.yul\":11186:11189   */\n      dup2\n        /* \"#utility.yul\":11179:11189   */\n      swap1\n      pop\n        /* \"#utility.yul\":10920:11195   */\n      swap3\n      swap2\n      pop\n      pop\n      jump\t// out\n        /* \"#utility.yul\":11201:11381   */\n    tag_111:\n        /* \"#utility.yul\":11249:11326   */\n      0x4e487b7100000000000000000000000000000000000000000000000000000000\n        /* \"#utility.yul\":11246:11247   */\n      0x00\n        /* \"#utility.yul\":11239:11327   */\n      mstore\n        /* \"#utility.yul\":11346:11350   */\n      0x22\n        /* \"#utility.yul\":11343:11344   */\n      0x04\n        /* \"#utility.yul\":11336:11351   */\n      mstore\n        /* \"#utility.yul\":11370:11374   */\n      0x24\n        /* \"#utility.yul\":11367:11368   */\n      0x00\n        /* \"#utility.yul\":11360:11375   */\n      revert\n        /* \"#utility.yul\":11387:11707   */\n    tag_48:\n        /* \"#utility.yul\":11431:11437   */\n      0x00\n        /* \"#utility.yul\":11468:11469   */\n      0x02\n        /* \"#utility.yul\":11462:11466   */\n      dup3\n        /* \"#utility.yul\":11458:11470   */\n      div\n        /* \"#utility.yul\":11448:11470   */\n      swap1\n      pop\n        /* \"#utility.yul\":11515:11516   */\n      0x01\n        /* \"#utility.yul\":11509:11513   */\n      dup3\n        /* \"#utility.yul\":11505:11517   */\n      and\n        /* \"#utility.yul\":11536:11554   */\n      dup1\n        /* \"#utility.yul\":11526:11607   */\n      tag_247\n      jumpi\n        /* \"#utility.yul\":11592:11596   */\n      0x7f\n        /* \"#utility.yul\":11584:11590   */\n      dup3\n        /* \"#utility.yul\":11580:11597   */\n      and\n        /* \"#utility.yul\":11570:11597   */\n      swap2\n      pop\n        /* \"#utility.yul\":11526:11607   */\n    tag_247:\n        /* \"#utility.yul\":11654:11656   */\n      0x20\n        /* \"#utility.yul\":11646:11652   */\n      dup3\n        /* \"#utility.yul\":11643:11657   */\n      lt\n        /* \"#utility.yul\":11623:11641   */\n      dup2\n        /* \"#utility.yul\":11620:11658   */\n      sub\n        /* \"#utility.yul\":11617:11701   */\n      tag_248\n      jumpi\n        /* \"#utility.yul\":11673:11691   */\n      tag_249\n      tag_111\n      jump\t// in\n    tag_249:\n        /* \"#utility.yul\":11617:11701   */\n    tag_248:\n        /* \"#utility.yul\":11438:11707   */\n      pop\n        /* \"#utility.yul\":11387:11707   */\n      swap2\n      swap1\n      pop\n      jump\t// out\n        /* \"#utility.yul\":11713:11854   */\n    tag_112:\n        /* \"#utility.yul\":11762:11766   */\n      0x00\n        /* \"#utility.yul\":11785:11788   */\n      dup2\n        /* \"#utility.yul\":11777:11788   */\n      swap1\n      pop\n        /* \"#utility.yul\":11808:11811   */\n      dup2\n        /* \"#utility.yul\":11805:11806   */\n      0x00\n        /* \"#utility.yul\":11798:11812   */\n      mstore\n        /* \"#utility.yul\":11842:11846   */\n      0x20\n        /* \"#utility.yul\":11839:11840   */\n      0x00\n        /* \"#utility.yul\":11829:11847   */\n      keccak256\n        /* \"#utility.yul\":11821:11847   */\n      swap1\n      pop\n        /* \"#utility.yul\":11713:11854   */\n      swap2\n      swap1\n      pop\n      jump\t// out\n        /* \"#utility.yul\":11860:11953   */\n    tag_113:\n        /* \"#utility.yul\":11897:11903   */\n      0x00\n        /* \"#utility.yul\":11944:11946   */\n      0x20\n        /* \"#utility.yul\":11939:11941   */\n      0x1f\n        /* \"#utility.yul\":11932:11937   */\n      dup4\n        /* \"#utility.yul\":11928:11942   */\n      add\n        /* \"#utility.yul\":11924:11947   */\n      div\n        /* \"#utility.yul\":11914:11947   */\n      swap1\n      pop\n        /* \"#utility.yul\":11860:11953   */\n      swap2\n      swap1\n      pop\n      jump\t// out\n        /* \"#utility.yul\":11959:12066   */\n    tag_114:\n        /* \"#utility.yul\":12003:12011   */\n      0x00\n        /* \"#utility.yul\":12053:12058   */\n      dup3\n        /* \"#utility.yul\":12047:12051   */\n      dup3\n        /* \"#utility.yul\":12043:12059   */\n      shl\n        /* \"#utility.yul\":12022:12059   */\n      swap1\n      pop\n        /* \"#utility.yul\":11959:12066   */\n      swap3\n      swap2\n      pop\n      pop\n      jump\t// out\n        /* \"#utility.yul\":12072:12465   */\n    tag_115:\n        /* \"#utility.yul\":12141:12147   */\n      0x00\n        /* \"#utility.yul\":12191:12192   */\n      0x08\n        /* \"#utility.yul\":12179:12189   */\n      dup4\n        /* \"#utility.yul\":12175:12193   */\n      mul\n        /* \"#utility.yul\":12214:12311   */\n      tag_254\n        /* \"#utility.yul\":12244:12310   */\n      0xffffffffffffffffffffffffffffffffffffffffffffffffffffffffffffffff\n        /* \"#utility.yul\":12233:12242   */\n      dup3\n        /* \"#utility.yul\":12214:12311   */\n      tag_114\n      jump\t// in\n    tag_254:\n        /* \"#utility.yul\":12332:12371   */\n      tag_255\n        /* \"#utility.yul\":12362:12370   */\n      dup7\n        /* \"#utility.yul\":12351:12360   */\n      dup4\n        /* \"#utility.yul\":12332:12371   */\n      tag_114\n      jump\t// in\n    tag_255:\n        /* \"#utility.yul\":12320:12371   */\n      swap6\n      pop\n        /* \"#utility.yul\":12404:12408   */\n      dup1\n        /* \"#utility.yul\":12400:12409   */\n      not\n        /* \"#utility.yul\":12393:12398   */\n      dup5\n        /* \"#utility.yul\":12389:12410   */\n      and\n        /* \"#utility.yul\":12380:12410   */\n      swap4\n      pop\n        /* \"#utility.yul\":12453:12457   */\n      dup1\n        /* \"#utility.yul\":12443:12451   */\n      dup7\n        /* \"#utility.yul\":12439:12458   */\n      and\n        /* \"#utility.yul\":12432:12437   */\n      dup5\n        /* \"#utility.yul\":12429:12459   */\n      or\n        /* \"#utility.yul\":12419:12459   */\n      swap3\n      pop\n        /* \"#utility.yul\":12148:12465   */\n      pop\n      pop\n        /* \"#utility.yul\":12072:12465   */\n      swap4\n      swap3\n      pop\n      pop\n      pop\n      jump\t// out\n        /* \"#utility.yul\":12471:12531   */\n    tag_116:\n        /* \"#utility.yul\":12499:12502   */\n      0x00\n        /* \"#utility.yul\":12520:12525   */\n      dup2\n        /* \"#utility.yul\":12513:12525   */\n      swap1\n      pop\n        /* \"#utility.yul\":12471:12531   */\n      swap2\n      swap1\n      pop\n      jump\t// out\n        /* \"#utility.yul\":12537:12679   */\n    tag_117:\n        /* \"#utility.yul\":12587:12596   */\n      0x00\n        /* \"#utility.yul\":12620:12673   */\n      tag_258\n        /* \"#utility.yul\":12638:12672   */\n      tag_259\n        /* \"#utility.yul\":12647:12671   */\n      tag_260\n        /* \"#utility.yul\":12665:12670   */\n      dup5\n        /* \"#utility.yul\":12647:12671   */\n      tag_104\n      jump\t// in\n    tag_260:\n        /* \"#utility.yul\":12638:12672   */\n      tag_116\n      jump\t// in\n    tag_259:\n        /* \"#utility.yul\":12620:12673   */\n      tag_104\n      jump\t// in\n    tag_258:\n        /* \"#utility.yul\":12607:12673   */\n      swap1\n      pop\n        /* \"#utility.yul\":12537:12679   */\n      swap2\n      swap1\n      pop\n      jump\t// out\n        /* \"#utility.yul\":12685:12760   */\n    tag_118:\n        /* \"#utility.yul\":12728:12731   */\n      0x00\n        /* \"#utility.yul\":12749:12754   */\n      dup2\n        /* \"#utility.yul\":12742:12754   */\n      swap1\n      pop\n        /* \"#utility.yul\":12685:12760   */\n      swap2\n      swap1\n      pop\n      jump\t// out\n        /* \"#utility.yul\":12766:13035   */\n    tag_119:\n        /* \"#utility.yul\":12876:12915   */\n      tag_263\n        /* \"#utility.yul\":12907:12914   */\n      dup4\n        /* \"#utility.yul\":12876:12915   */\n      tag_117\n      jump\t// in\n    tag_263:\n        /* \"#utility.yul\":12937:13028   */\n      tag_264\n        /* \"#utility.yul\":12986:13027   */\n      tag_265\n        /* \"#utility.yul\":13010:13026   */\n      dup3\n        /* \"#utility.yul\":12986:13027   */\n      tag_118\n      jump\t// in\n    tag_265:\n        /* \"#utility.yul\":12978:12984   */\n      dup5\n        /* \"#utility.yul\":12971:12975   */\n      dup5\n        /* \"#utility.yul\":12965:12976   */\n      sload\n        /* \"#utility.yul\":12937:13028   */\n      tag_115\n      jump\t// in\n    tag_264:\n        /* \"#utility.yul\":12931:12935   */\n      dup3\n        /* \"#utility.yul\":12924:13029   */\n      sstore\n        /* \"#utility.yul\":12842:13035   */\n      pop\n        /* \"#utility.yul\":12766:13035   */\n      pop\n      pop\n      pop\n      jump\t// out\n        /* \"#utility.yul\":13041:13114   */\n    tag_120:\n        /* \"#utility.yul\":13086:13089   */\n      0x00\n        /* \"#utility.yul\":13107:13108   */\n      0x00\n        /* \"#utility.yul\":13100:13108   */\n      swap1\n      pop\n        /* \"#utility.yul\":13041:13114   */\n      swap1\n      jump\t// out\n        /* \"#utility.yul\":13120:13309   */\n    tag_121:\n        /* \"#utility.yul\":13197:13229   */\n      tag_268\n      tag_120\n      jump\t// in\n    tag_268:\n        /* \"#utility.yul\":13238:13303   */\n      tag_269\n        /* \"#utility.yul\":13296:13302   */\n      dup2\n        /* \"#utility.yul\":13288:13294   */\n      dup5\n        /* \"#utility.yul\":13282:13286   */\n      dup5\n        /* \"#utility.yul\":13238:13303   */\n      tag_119\n      jump\t// in\n    tag_269:\n        /* \"#utility.yul\":13173:13309   */\n      pop\n        /* \"#utility.yul\":13120:13309   */\n      pop\n      pop\n      jump\t// out\n        /* \"#utility.yul\":13315:13501   */\n    tag_122:\n        /* \"#utility.yul\":13375:13495   */\n    tag_271:\n        /* \"#utility.yul\":13392:13395   */\n      dup2\n        /* \"#utility.yul\":13385:13390   */\n      dup2\n        /* \"#utility.yul\":13382:13396   */\n      lt\n        /* \"#utility.yul\":13375:13495   */\n      iszero\n      tag_273\n      jumpi\n        /* \"#utility.yul\":13446:13485   */\n      tag_274\n        /* \"#utility.yul\":13483:13484   */\n      0x00\n        /* \"#utility.yul\":13476:13481   */\n      dup3\n        /* \"#utility.yul\":13446:13485   */\n      tag_121\n      jump\t// in\n    tag_274:\n        /* \"#utility.yul\":13419:13420   */\n      0x01\n        /* \"#utility.yul\":13412:13417   */\n      dup2\n        /* \"#utility.yul\":13408:13421   */\n      add\n        /* \"#utility.yul\":13399:13421   */\n      swap1\n      pop\n        /* \"#utility.yul\":13375:13495   */\n      jump(tag_271)\n    tag_273:\n        /* \"#utility.yul\":13315:13501   */\n      pop\n      pop\n      jump\t// out\n        /* \"#utility.yul\":13507:14050   */\n    tag_123:\n        /* \"#utility.yul\":13608:13610   */\n      0x1f\n        /* \"#utility.yul\":13603:13606   */\n      dup3\n        /* \"#utility.yul\":13600:13611   */\n      gt\n        /* \"#utility.yul\":13597:14043   */\n      iszero\n      tag_276\n      jumpi\n        /* \"#utility.yul\":13642:13680   */\n      tag_277\n        /* \"#utility.yul\":13674:13679   */\n      dup2\n        /* \"#utility.yul\":13642:13680   */\n      tag_112\n      jump\t// in\n    tag_277:\n        /* \"#utility.yul\":13726:13755   */\n      tag_278\n        /* \"#utility.yul\":13744:13754   */\n      dup5\n        /* \"#utility.yul\":13726:13755   */\n      tag_113\n      jump\t// in\n    tag_278:\n        /* \"#utility.yul\":13716:13724   */\n      dup2\n        /* \"#utility.yul\":13712:13756   */\n      add\n        /* \"#utility.yul\":13909:13911   */\n      0x20\n        /* \"#utility.yul\":13897:13907   */\n      dup6\n        /* \"#utility.yul\":13894:13912   */\n      lt\n        /* \"#utility.yul\":13891:13940   */\n      iszero\n      tag_279\n      jumpi\n        /* \"#utility.yul\":13930:13938   */\n      dup2\n        /* \"#utility.yul\":13915:13938   */\n      swap1\n      pop\n        /* \"#utility.yul\":13891:13940   */\n    tag_279:\n        /* \"#utility.yul\":13953:14033   */\n      tag_280\n        /* \"#utility.yul\":14009:14031   */\n      tag_281\n        /* \"#utility.yul\":14027:14030   */\n      dup6\n        /* \"#utility.yul\":14009:14031   */\n      tag_113\n      jump\t// in\n    tag_281:\n        /* \"#utility.yul\":13999:14007   */\n      dup4\n        /* \"#utility.yul\":13995:14032   */\n      add\n        /* \"#utility.yul\":13982:13993   */\n      dup3\n        /* \"#utility.yul\":13953:14033   */\n      tag_122\n      jump\t// in\n    tag_280:\n        /* \"#utility.yul\":13612:14043   */\n      pop\n      pop\n        /* \"#utility.yul\":13597:14043   */\n    tag_276:\n        /* \"#utility.yul\":13507:14050   */\n      pop\n      pop\n      pop\n      jump\t// out\n        /* \"#utility.yul\":14056:14173   */\n    tag_124:\n        /* \"#utility.yul\":14110:14118   */\n      0x00\n        /* \"#utility.yul\":14160:14165   */\n      dup3\n        /* \"#utility.yul\":14154:14158   */\n      dup3\n        /* \"#utility.yul\":14150:14166   */\n      shr\n        /* \"#utility.yul\":14129:14166   */\n      swap1\n      pop\n        /* \"#utility.yul\":14056:14173   */\n      swap3\n      swap2\n      pop\n      pop\n      jump\t// out\n        /* \"#utility.yul\":14179:14348   */\n    tag_125:\n        /* \"#utility.yul\":14223:14229   */\n      0x00\n        /* \"#utility.yul\":14256:14307   */\n      tag_284\n        /* \"#utility.yul\":14304:14305   */\n      0x00\n        /* \"#utility.yul\":14300:14306   */\n      not\n        /* \"#utility.yul\":14292:14297   */\n      dup5\n        /* \"#utility.yul\":14289:14290   */\n      0x08\n        /* \"#utility.yul\":14285:14298   */\n      mul\n        /* \"#utility.yul\":14256:14307   */\n      tag_124\n      jump\t// in\n    tag_284:\n        /* \"#utility.yul\":14252:14308   */\n      not\n        /* \"#utility.yul\":14337:14341   */\n      dup1\n        /* \"#utility.yul\":14331:14335   */\n      dup4\n        /* \"#utility.yul\":14327:14342   */\n      and\n        /* \"#utility.yul\":14317:14342   */\n      swap2\n      pop\n        /* \"#utility.yul\":14230:14348   */\n      pop\n        /* \"#utility.yul\":14179:14348   */\n      swap3\n      swap2\n      pop\n      pop\n      jump\t// out\n        /* \"#utility.yul\":14353:14648   */\n    tag_126:\n        /* \"#utility.yul\":14429:14433   */\n      0x00\n        /* \"#utility.yul\":14575:14604   */\n      tag_286\n        /* \"#utility.yul\":14600:14603   */\n      dup4\n        /* \"#utility.yul\":14594:14598   */\n      dup4\n        /* \"#utility.yul\":14575:14604   */\n      tag_125\n      jump\t// in\n    tag_286:\n        /* \"#utility.yul\":14567:14604   */\n      swap2\n      pop\n        /* \"#utility.yul\":14637:14640   */\n      dup3\n        /* \"#utility.yul\":14634:14635   */\n      0x02\n        /* \"#utility.yul\":14630:14641   */\n      mul\n        /* \"#utility.yul\":14624:14628   */\n      dup3\n        /* \"#utility.yul\":14621:14642   */\n      or\n        /* \"#utility.yul\":14613:14642   */\n      swap1\n      pop\n        /* \"#utility.yul\":14353:14648   */\n      swap3\n      swap2\n      pop\n      pop\n      jump\t// out\n        /* \"#utility.yul\":14653:16048   */\n    tag_44:\n        /* \"#utility.yul\":14770:14807   */\n      tag_288\n        /* \"#utility.yul\":14803:14806   */\n      dup3\n        /* \"#utility.yul\":14770:14807   */\n      tag_97\n      jump\t// in\n    tag_288:\n        /* \"#utility.yul\":14872:14890   */\n      0xffffffffffffffff\n        /* \"#utility.yul\":14864:14870   */\n      dup2\n        /* \"#utility.yul\":14861:14891   */\n      gt\n        /* \"#utility.yul\":14858:14914   */\n      iszero\n      tag_289\n      jumpi\n        /* \"#utility.yul\":14894:14912   */\n      tag_290\n      tag_87\n      jump\t// in\n    tag_290:\n        /* \"#utility.yul\":14858:14914   */\n    tag_289:\n        /* \"#utility.yul\":14938:14976   */\n      tag_291\n        /* \"#utility.yul\":14970:14974   */\n      dup3\n        /* \"#utility.yul\":14964:14975   */\n      sload\n        /* \"#utility.yul\":14938:14976   */\n      tag_48\n      jump\t// in\n    tag_291:\n        /* \"#utility.yul\":15023:15090   */\n      tag_292\n        /* \"#utility.yul\":15083:15089   */\n      dup3\n        /* \"#utility.yul\":15075:15081   */\n      dup3\n        /* \"#utility.yul\":15069:15073   */\n      dup6\n        /* \"#utility.yul\":15023:15090   */\n      tag_123\n      jump\t// in\n    tag_292:\n        /* \"#utility.yul\":15117:15118   */\n      0x00\n        /* \"#utility.yul\":15141:15145   */\n      0x20\n        /* \"#utility.yul\":15128:15145   */\n      swap1\n      pop\n        /* \"#utility.yul\":15173:15175   */\n      0x1f\n        /* \"#utility.yul\":15165:15171   */\n      dup4\n        /* \"#utility.yul\":15162:15176   */\n      gt\n        /* \"#utility.yul\":15190:15191   */\n      0x01\n        /* \"#utility.yul\":15185:15803   */\n      dup2\n      eq\n      tag_294\n      jumpi\n        /* \"#utility.yul\":15847:15848   */\n      0x00\n        /* \"#utility.yul\":15864:15870   */\n      dup5\n        /* \"#utility.yul\":15861:15938   */\n      iszero\n      tag_295\n      jumpi\n        /* \"#utility.yul\":15913:15922   */\n      dup3\n        /* \"#utility.yul\":15908:15911   */\n      dup8\n        /* \"#utility.yul\":15904:15923   */\n      add\n        /* \"#utility.yul\":15898:15924   */\n      mload\n        /* \"#utility.yul\":15889:15924   */\n      swap1\n      pop\n        /* \"#utility.yul\":15861:15938   */\n    tag_295:\n        /* \"#utility.yul\":15964:16031   */\n      tag_296\n        /* \"#utility.yul\":16024:16030   */\n      dup6\n        /* \"#utility.yul\":16017:16022   */\n      dup3\n        /* \"#utility.yul\":15964:16031   */\n      tag_126\n      jump\t// in\n    tag_296:\n        /* \"#utility.yul\":15958:15962   */\n      dup7\n        /* \"#utility.yul\":15951:16032   */\n      sstore\n        /* \"#utility.yul\":15820:16042   */\n      pop\n        /* \"#utility.yul\":15155:16042   */\n      jump(tag_293)\n        /* \"#utility.yul\":15185:15803   */\n    tag_294:\n        /* \"#utility.yul\":15237:15241   */\n      0x1f\n        /* \"#utility.yul\":15233:15242   */\n      not\n        /* \"#utility.yul\":15225:15231   */\n      dup5\n        /* \"#utility.yul\":15221:15243   */\n      and\n        /* \"#utility.yul\":15271:15308   */\n      tag_297\n        /* \"#utility.yul\":15303:15307   */\n      dup7\n        /* \"#utility.yul\":15271:15308   */\n      tag_112\n      jump\t// in\n    tag_297:\n        /* \"#utility.yul\":15330:15331   */\n      0x00\n        /* \"#utility.yul\":15344:15552   */\n    tag_298:\n        /* \"#utility.yul\":15358:15365   */\n      dup3\n        /* \"#utility.yul\":15355:15356   */\n      dup2\n        /* \"#utility.yul\":15352:15366   */\n      lt\n        /* \"#utility.yul\":15344:15552   */\n      iszero\n      tag_300\n      jumpi\n        /* \"#utility.yul\":15437:15446   */\n      dup5\n        /* \"#utility.yul\":15432:15435   */\n      dup10\n        /* \"#utility.yul\":15428:15447   */\n      add\n        /* \"#utility.yul\":15422:15448   */\n      mload\n        /* \"#utility.yul\":15414:15420   */\n      dup3\n        /* \"#utility.yul\":15407:15449   */\n      sstore\n        /* \"#utility.yul\":15488:15489   */\n      0x01\n        /* \"#utility.yul\":15480:15486   */\n      dup3\n        /* \"#utility.yul\":15476:15490   */\n      add\n        /* \"#utility.yul\":15466:15490   */\n      swap2\n      pop\n        /* \"#utility.yul\":15535:15537   */\n      0x20\n        /* \"#utility.yul\":15524:15533   */\n      dup6\n        /* \"#utility.yul\":15520:15538   */\n      add\n        /* \"#utility.yul\":15507:15538   */\n      swap5\n      pop\n        /* \"#utility.yul\":15381:15385   */\n      0x20\n        /* \"#utility.yul\":15378:15379   */\n      dup2\n        /* \"#utility.yul\":15374:15386   */\n      add\n        /* \"#utility.yul\":15369:15386   */\n      swap1\n      pop\n        /* \"#utility.yul\":15344:15552   */\n      jump(tag_298)\n    tag_300:\n        /* \"#utility.yul\":15580:15586   */\n      dup7\n        /* \"#utility.yul\":15571:15578   */\n      dup4\n        /* \"#utility.yul\":15568:15587   */\n      lt\n        /* \"#utility.yul\":15565:15744   */\n      iszero\n      tag_301\n      jumpi\n        /* \"#utility.yul\":15638:15647   */\n      dup5\n        /* \"#utility.yul\":15633:15636   */\n      dup10\n        /* \"#utility.yul\":15629:15648   */\n      add\n        /* \"#utility.yul\":15623:15649   */\n      mload\n        /* \"#utility.yul\":15681:15729   */\n      tag_302\n        /* \"#utility.yul\":15723:15727   */\n      0x1f\n        /* \"#utility.yul\":15715:15721   */\n      dup10\n        /* \"#utility.yul\":15711:15728   */\n      and\n        /* \"#utility.yul\":15700:15709   */\n      dup3\n        /* \"#utility.yul\":15681:15729   */\n      tag_125\n      jump\t// in\n    tag_302:\n        /* \"#utility.yul\":15673:15679   */\n      dup4\n        /* \"#utility.yul\":15666:15730   */\n      sstore\n        /* \"#utility.yul\":15588:15744   */\n      pop\n        /* \"#utility.yul\":15565:15744   */\n    tag_301:\n        /* \"#utility.yul\":15790:15791   */\n      0x01\n        /* \"#utility.yul\":15786:15787   */\n      0x02\n        /* \"#utility.yul\":15778:15784   */\n      dup9\n        /* \"#utility.yul\":15774:15788   */\n      mul\n        /* \"#utility.yul\":15770:15792   */\n      add\n        /* \"#utility.yul\":15764:15768   */\n      dup9\n        /* \"#utility.yul\":15757:15793   */\n      sstore\n        /* \"#utility.yul\":15192:15803   */\n      pop\n      pop\n      pop\n        /* \"#utility.yul\":15155:16042   */\n    tag_293:\n      pop\n        /* \"#utility.yul\":14745:16048   */\n      pop\n      pop\n      pop\n        /* \"#utility.yul\":14653:16048   */\n      pop\n      pop\n      jump\t// out\n\n    auxdata: 0xa2646970667358221220faca310bca43a85db2e1b3e9cc94c50a5a9492567dd2512ae617989abbe1a9f064736f6c634300081e0033\n}\n",
				"bytecode": {
					"linkReferences": {},
					"object": "6080604052348015600e575f5ffd5b50610f608061001c5f395ff3fe608060405234801561000f575f5ffd5b5060043610610060575f3560e01c806325b9a40d1461006457806326b60286146100805780633771befd146100b0578063629014d7146100cc578063689e1c03146100fc578063cae179791461012f575b5f5ffd5b61007e60048036038101906100799190610844565b610160565b005b61009a600480360381019061009591906108cc565b610216565b6040516100a79190610973565b60405180910390f35b6100ca60048036038101906100c59190610a10565b6102c7565b005b6100e660048036038101906100e19190610adb565b610369565b6040516100f39190610b60565b60405180910390f35b610116600480360381019061011191906108cc565b6103c7565b6040516101269493929190610b88565b60405180910390f35b61014960048036038101906101449190610adb565b6105bd565b604051610157929190610be0565b60405180910390f35b5f6040518060400160405280858152602001846cffffffffffffffffffffffffff168152509050805f836040516101979190610c48565b9081526020016040518091039020856040516101b39190610c48565b90815260200160405180910390205f820151815f0190816101d49190610e5b565b506020820151816001015f6101000a8154816cffffffffffffffffffffffffff02191690836cffffffffffffffffffffffffff16021790555090505050505050565b60606001826040516102289190610c48565b9081526020016040518091039020600101805461024490610c8b565b80601f016020809104026020016040519081016040528092919081815260200182805461027090610c8b565b80156102bb5780601f10610292576101008083540402835291602001916102bb565b820191905f5260205f20905b81548152906001019060200180831161029e57829003601f168201915b50505050509050919050565b5f6001866040516102d89190610c48565b9081526020016040518091039020905085815f0190816102f89190610e5b565b508381600101908161030a9190610e5b565b5082816002015f6101000a81548174ffffffffffffffffffffffffffffffffffffffffff021916908374ffffffffffffffffffffffffffffffffffffffffff160217905550848160030190816103609190610e5b565b50505050505050565b5f5f836040516103799190610c48565b9081526020016040518091039020826040516103959190610c48565b90815260200160405180910390206001015f9054906101000a90046cffffffffffffffffffffffffff16905092915050565b6001818051602081018201805184825260208301602085012081835280955050505050505f91509050805f0180546103fe90610c8b565b80601f016020809104026020016040519081016040528092919081815260200182805461042a90610c8b565b80156104755780601f1061044c57610100808354040283529160200191610475565b820191905f5260205f20905b81548152906001019060200180831161045857829003601f168201915b50505050509080600101805461048a90610c8b565b80601f01602080910402602001604051908101604052809291908181526020018280546104b690610c8b565b80156105015780601f106104d857610100808354040283529160200191610501565b820191905f5260205f20905b8154815290600101906020018083116104e457829003601f168201915b505050505090806002015f9054906101000a900474ffffffffffffffffffffffffffffffffffffffffff169080600301805461053c90610c8b565b80601f016020809104026020016040519081016040528092919081815260200182805461056890610c8b565b80156105b35780601f1061058a576101008083540402835291602001916105b3565b820191905f5260205f20905b81548152906001019060200180831161059657829003601f168201915b5050505050905084565b5f82805160208101820180518482526020830160208501208183528095505050505050818051602081018201805184825260208301602085012081835280955050505050505f9150915050805f01805461061690610c8b565b80601f016020809104026020016040519081016040528092919081815260200182805461064290610c8b565b801561068d5780601f106106645761010080835404028352916020019161068d565b820191905f5260205f20905b81548152906001019060200180831161067057829003601f168201915b505050505090806001015f9054906101000a90046cffffffffffffffffffffffffff16905082565b5f604051905090565b5f5ffd5b5f5ffd5b5f5ffd5b5f5ffd5b5f601f19601f8301169050919050565b7f4e487b71000000000000000000000000000000000000000000000000000000005f52604160045260245ffd5b610714826106ce565b810181811067ffffffffffffffff82111715610733576107326106de565b5b80604052505050565b5f6107456106b5565b9050610751828261070b565b919050565b5f67ffffffffffffffff8211156107705761076f6106de565b5b610779826106ce565b9050602081019050919050565b828183375f83830152505050565b5f6107a66107a184610756565b61073c565b9050828152602081018484840111156107c2576107c16106ca565b5b6107cd848285610786565b509392505050565b5f82601f8301126107e9576107e86106c6565b5b81356107f9848260208601610794565b91505092915050565b5f6cffffffffffffffffffffffffff82169050919050565b61082381610802565b811461082d575f5ffd5b50565b5f8135905061083e8161081a565b92915050565b5f5f5f6060848603121561085b5761085a6106be565b5b5f84013567ffffffffffffffff811115610878576108776106c2565b5b610884868287016107d5565b935050602061089586828701610830565b925050604084013567ffffffffffffffff8111156108b6576108b56106c2565b5b6108c2868287016107d5565b9150509250925092565b5f602082840312156108e1576108e06106be565b5b5f82013567ffffffffffffffff8111156108fe576108fd6106c2565b5b61090a848285016107d5565b91505092915050565b5f81519050919050565b5f82825260208201905092915050565b8281835e5f83830152505050565b5f61094582610913565b61094f818561091d565b935061095f81856020860161092d565b610968816106ce565b840191505092915050565b5f6020820190508181035f83015261098b818461093b565b905092915050565b5f74ffffffffffffffffffffffffffffffffffffffffff82169050919050565b6109bc81610993565b81146109c6575f5ffd5b50565b5f813590506109d7816109b3565b92915050565b5f819050919050565b6109ef816109dd565b81146109f9575f5ffd5b50565b5f81359050610a0a816109e6565b92915050565b5f5f5f5f5f60a08688031215610a2957610a286106be565b5b5f86013567ffffffffffffffff811115610a4657610a456106c2565b5b610a52888289016107d5565b955050602086013567ffffffffffffffff811115610a7357610a726106c2565b5b610a7f888289016107d5565b945050604086013567ffffffffffffffff811115610aa057610a9f6106c2565b5b610aac888289016107d5565b9350506060610abd888289016109c9565b9250506080610ace888289016109fc565b9150509295509295909350565b5f5f60408385031215610af157610af06106be565b5b5f83013567ffffffffffffffff811115610b0e57610b0d6106c2565b5b610b1a858286016107d5565b925050602083013567ffffffffffffffff811115610b3b57610b3a6106c2565b5b610b47858286016107d5565b9150509250929050565b610b5a81610802565b82525050565b5f602082019050610b735f830184610b51565b92915050565b610b8281610993565b82525050565b5f6080820190508181035f830152610ba0818761093b565b90508181036020830152610bb4818661093b565b9050610bc36040830185610b79565b8181036060830152610bd5818461093b565b905095945050505050565b5f6040820190508181035f830152610bf8818561093b565b9050610c076020830184610b51565b9392505050565b5f81905092915050565b5f610c2282610913565b610c2c8185610c0e565b9350610c3c81856020860161092d565b80840191505092915050565b5f610c538284610c18565b915081905092915050565b7f4e487b71000000000000000000000000000000000000000000000000000000005f52602260045260245ffd5b5f6002820490506001821680610ca257607f821691505b602082108103610cb557610cb4610c5e565b5b50919050565b5f819050815f5260205f209050919050565b5f6020601f8301049050919050565b5f82821b905092915050565b5f60088302610d177fffffffffffffffffffffffffffffffffffffffffffffffffffffffffffffffff82610cdc565b610d218683610cdc565b95508019841693508086168417925050509392505050565b5f819050919050565b5f610d5c610d57610d52846109dd565b610d39565b6109dd565b9050919050565b5f819050919050565b610d7583610d42565b610d89610d8182610d63565b848454610ce8565b825550505050565b5f5f905090565b610da0610d91565b610dab818484610d6c565b505050565b5b81811015610dce57610dc35f82610d98565b600181019050610db1565b5050565b601f821115610e1357610de481610cbb565b610ded84610ccd565b81016020851015610dfc578190505b610e10610e0885610ccd565b830182610db0565b50505b505050565b5f82821c905092915050565b5f610e335f1984600802610e18565b1980831691505092915050565b5f610e4b8383610e24565b9150826002028217905092915050565b610e6482610913565b67ffffffffffffffff811115610e7d57610e7c6106de565b5b610e878254610c8b565b610e92828285610dd2565b5f60209050601f831160018114610ec3575f8415610eb1578287015190505b610ebb8582610e40565b865550610f22565b601f198416610ed186610cbb565b5f5b82811015610ef857848901518255600182019150602085019450602081019050610ed3565b86831015610f155784890151610f11601f891682610e24565b8355505b6001600288020188555050505b50505050505056fea2646970667358221220faca310bca43a85db2e1b3e9cc94c50a5a9492567dd2512ae617989abbe1a9f064736f6c634300081e0033",
					"opcodes": "PUSH1 0x80 PUSH1 0x40 MSTORE CALLVALUE DUP1 ISZERO PUSH1 0xE JUMPI PUSH0 PUSH0 REVERT JUMPDEST POP PUSH2 0xF60 DUP1 PUSH2 0x1C PUSH0 CODECOPY PUSH0 RETURN INVALID PUSH1 0x80 PUSH1 0x40 MSTORE CALLVALUE DUP1 ISZERO PUSH2 0xF JUMPI PUSH0 PUSH0 REVERT JUMPDEST POP PUSH1 0x4 CALLDATASIZE LT PUSH2 0x60 JUMPI PUSH0 CALLDATALOAD PUSH1 0xE0 SHR DUP1 PUSH4 0x25B9A40D EQ PUSH2 0x64 JUMPI DUP1 PUSH4 0x26B60286 EQ PUSH2 0x80 JUMPI DUP1 PUSH4 0x3771BEFD EQ PUSH2 0xB0 JUMPI DUP1 PUSH4 0x629014D7 EQ PUSH2 0xCC JUMPI DUP1 PUSH4 0x689E1C03 EQ PUSH2 0xFC JUMPI DUP1 PUSH4 0xCAE17979 EQ PUSH2 0x12F JUMPI JUMPDEST PUSH0 PUSH0 REVERT JUMPDEST PUSH2 0x7E PUSH1 0x4 DUP1 CALLDATASIZE SUB DUP2 ADD SWAP1 PUSH2 0x79 SWAP2 SWAP1 PUSH2 0x844 JUMP JUMPDEST PUSH2 0x160 JUMP JUMPDEST STOP JUMPDEST PUSH2 0x9A PUSH1 0x4 DUP1 CALLDATASIZE SUB DUP2 ADD SWAP1 PUSH2 0x95 SWAP2 SWAP1 PUSH2 0x8CC JUMP JUMPDEST PUSH2 0x216 JUMP JUMPDEST PUSH1 0x40 MLOAD PUSH2 0xA7 SWAP2 SWAP1 PUSH2 0x973 JUMP JUMPDEST PUSH1 0x40 MLOAD DUP1 SWAP2 SUB SWAP1 RETURN JUMPDEST PUSH2 0xCA PUSH1 0x4 DUP1 CALLDATASIZE SUB DUP2 ADD SWAP1 PUSH2 0xC5 SWAP2 SWAP1 PUSH2 0xA10 JUMP JUMPDEST PUSH2 0x2C7 JUMP JUMPDEST STOP JUMPDEST PUSH2 0xE6 PUSH1 0x4 DUP1 CALLDATASIZE SUB DUP2 ADD SWAP1 PUSH2 0xE1 SWAP2 SWAP1 PUSH2 0xADB JUMP JUMPDEST PUSH2 0x369 JUMP JUMPDEST PUSH1 0x40 MLOAD PUSH2 0xF3 SWAP2 SWAP1 PUSH2 0xB60 JUMP JUMPDEST PUSH1 0x40 MLOAD DUP1 SWAP2 SUB SWAP1 RETURN JUMPDEST PUSH2 0x116 PUSH1 0x4 DUP1 CALLDATASIZE SUB DUP2 ADD SWAP1 PUSH2 0x111 SWAP2 SWAP1 PUSH2 0x8CC JUMP JUMPDEST PUSH2 0x3C7 JUMP JUMPDEST PUSH1 0x40 MLOAD PUSH2 0x126 SWAP5 SWAP4 SWAP3 SWAP2 SWAP1 PUSH2 0xB88 JUMP JUMPDEST PUSH1 0x40 MLOAD DUP1 SWAP2 SUB SWAP1 RETURN JUMPDEST PUSH2 0x149 PUSH1 0x4 DUP1 CALLDATASIZE SUB DUP2 ADD SWAP1 PUSH2 0x144 SWAP2 SWAP1 PUSH2 0xADB JUMP JUMPDEST PUSH2 0x5BD JUMP JUMPDEST PUSH1 0x40 MLOAD PUSH2 0x157 SWAP3 SWAP2 SWAP1 PUSH2 0xBE0 JUMP JUMPDEST PUSH1 0x40 MLOAD DUP1 SWAP2 SUB SWAP1 RETURN JUMPDEST PUSH0 PUSH1 0x40 MLOAD DUP1 PUSH1 0x40 ADD PUSH1 0x40 MSTORE DUP1 DUP6 DUP2 MSTORE PUSH1 0x20 ADD DUP5 PUSH13 0xFFFFFFFFFFFFFFFFFFFFFFFFFF AND DUP2 MSTORE POP SWAP1 POP DUP1 PUSH0 DUP4 PUSH1 0x40 MLOAD PUSH2 0x197 SWAP2 SWAP1 PUSH2 0xC48 JUMP JUMPDEST SWAP1 DUP2 MSTORE PUSH1 0x20 ADD PUSH1 0x40 MLOAD DUP1 SWAP2 SUB SWAP1 KECCAK256 DUP6 PUSH1 0x40 MLOAD PUSH2 0x1B3 SWAP2 SWAP1 PUSH2 0xC48 JUMP JUMPDEST SWAP1 DUP2 MSTORE PUSH1 0x20 ADD PUSH1 0x40 MLOAD DUP1 SWAP2 SUB SWAP1 KECCAK256 PUSH0 DUP3 ADD MLOAD DUP2 PUSH0 ADD SWAP1 DUP2 PUSH2 0x1D4 SWAP2 SWAP1 PUSH2 0xE5B JUMP JUMPDEST POP PUSH1 0x20 DUP3 ADD MLOAD DUP2 PUSH1 0x1 ADD PUSH0 PUSH2 0x100 EXP DUP2 SLOAD DUP2 PUSH13 0xFFFFFFFFFFFFFFFFFFFFFFFFFF MUL NOT AND SWAP1 DUP4 PUSH13 0xFFFFFFFFFFFFFFFFFFFFFFFFFF AND MUL OR SWAP1 SSTORE POP SWAP1 POP POP POP POP POP POP JUMP JUMPDEST PUSH1 0x60 PUSH1 0x1 DUP3 PUSH1 0x40 MLOAD PUSH2 0x228 SWAP2 SWAP1 PUSH2 0xC48 JUMP JUMPDEST SWAP1 DUP2 MSTORE PUSH1 0x20 ADD PUSH1 0x40 MLOAD DUP1 SWAP2 SUB SWAP1 KECCAK256 PUSH1 0x1 ADD DUP1 SLOAD PUSH2 0x244 SWAP1 PUSH2 0xC8B JUMP JUMPDEST DUP1 PUSH1 0x1F ADD PUSH1 0x20 DUP1 SWAP2 DIV MUL PUSH1 0x20 ADD PUSH1 0x40 MLOAD SWAP1 DUP2 ADD PUSH1 0x40 MSTORE DUP1 SWAP3 SWAP2 SWAP1 DUP2 DUP2 MSTORE PUSH1 0x20 ADD DUP3 DUP1 SLOAD PUSH2 0x270 SWAP1 PUSH2 0xC8B JUMP JUMPDEST DUP1 ISZERO PUSH2 0x2BB JUMPI DUP1 PUSH1 0x1F LT PUSH2 0x292 JUMPI PUSH2 0x100 DUP1 DUP4 SLOAD DIV MUL DUP4 MSTORE SWAP2 PUSH1 0x20 ADD SWAP2 PUSH2 0x2BB JUMP JUMPDEST DUP3 ADD SWAP2 SWAP1 PUSH0 MSTORE PUSH1 0x20 PUSH0 KECCAK256 SWAP1 JUMPDEST DUP2 SLOAD DUP2 MSTORE SWAP1 PUSH1 0x1 ADD SWAP1 PUSH1 0x20 ADD DUP1 DUP4 GT PUSH2 0x29E JUMPI DUP3 SWAP1 SUB PUSH1 0x1F AND DUP3 ADD SWAP2 JUMPDEST POP POP POP POP POP SWAP1 POP SWAP2 SWAP1 POP JUMP JUMPDEST PUSH0 PUSH1 0x1 DUP7 PUSH1 0x40 MLOAD PUSH2 0x2D8 SWAP2 SWAP1 PUSH2 0xC48 JUMP JUMPDEST SWAP1 DUP2 MSTORE PUSH1 0x20 ADD PUSH1 0x40 MLOAD DUP1 SWAP2 SUB SWAP1 KECCAK256 SWAP1 POP DUP6 DUP2 PUSH0 ADD SWAP1 DUP2 PUSH2 0x2F8 SWAP2 SWAP1 PUSH2 0xE5B JUMP JUMPDEST POP DUP4 DUP2 PUSH1 0x1 ADD SWAP1 DUP2 PUSH2 0x30A SWAP2 SWAP1 PUSH2 0xE5B JUMP JUMPDEST POP DUP3 DUP2 PUSH1 0x2 ADD PUSH0 PUSH2 0x100 EXP DUP2 SLOAD DUP2 PUSH21 0xFFFFFFFFFFFFFFFFFFFFFFFFFFFFFFFFFFFFFFFFFF MUL NOT AND SWAP1 DUP4 PUSH21 0xFFFFFFFFFFFFFFFFFFFFFFFFFFFFFFFFFFFFFFFFFF AND MUL OR SWAP1 SSTORE POP DUP5 DUP2 PUSH1 0x3 ADD SWAP1 DUP2 PUSH2 0x360 SWAP2 SWAP1 PUSH2 0xE5B JUMP JUMPDEST POP POP POP POP POP POP POP JUMP JUMPDEST PUSH0 PUSH0 DUP4 PUSH1 0x40 MLOAD PUSH2 0x379 SWAP2 SWAP1 PUSH2 0xC48 JUMP JUMPDEST SWAP1 DUP2 MSTORE PUSH1 0x20 ADD PUSH1 0x40 MLOAD DUP1 SWAP2 SUB SWAP1 KECCAK256 DUP3 PUSH1 0x40 MLOAD PUSH2 0x395 SWAP2 SWAP1 PUSH2 0xC48 JUMP JUMPDEST SWAP1 DUP2 MSTORE PUSH1 0x20 ADD PUSH1 0x40 MLOAD DUP1 SWAP2 SUB SWAP1 KECCAK256 PUSH1 0x1 ADD PUSH0 SWAP1 SLOAD SWAP1 PUSH2 0x100 EXP SWAP1 DIV PUSH13 0xFFFFFFFFFFFFFFFFFFFFFFFFFF AND SWAP1 POP SWAP3 SWAP2 POP POP JUMP JUMPDEST PUSH1 0x1 DUP2 DUP1 MLOAD PUSH1 0x20 DUP2 ADD DUP3 ADD DUP1 MLOAD DUP5 DUP3 MSTORE PUSH1 0x20 DUP4 ADD PUSH1 0x20 DUP6 ADD KECCAK256 DUP2 DUP4 MSTORE DUP1 SWAP6 POP POP POP POP POP POP PUSH0 SWAP2 POP SWAP1 POP DUP1 PUSH0 ADD DUP1 SLOAD PUSH2 0x3FE SWAP1 PUSH2 0xC8B JUMP JUMPDEST DUP1 PUSH1 0x1F ADD PUSH1 0x20 DUP1 SWAP2 DIV MUL PUSH1 0x20 ADD PUSH1 0x40 MLOAD SWAP1 DUP2 ADD PUSH1 0x40 MSTORE DUP1 SWAP3 SWAP2 SWAP1 DUP2 DUP2 MSTORE PUSH1 0x20 ADD DUP3 DUP1 SLOAD PUSH2 0x42A SWAP1 PUSH2 0xC8B JUMP JUMPDEST DUP1 ISZERO PUSH2 0x475 JUMPI DUP1 PUSH1 0x1F LT PUSH2 0x44C JUMPI PUSH2 0x100 DUP1 DUP4 SLOAD DIV MUL DUP4 MSTORE SWAP2 PUSH1 0x20 ADD SWAP2 PUSH2 0x475 JUMP JUMPDEST DUP3 ADD SWAP2 SWAP1 PUSH0 MSTORE PUSH1 0x20 PUSH0 KECCAK256 SWAP1 JUMPDEST DUP2 SLOAD DUP2 MSTORE SWAP1 PUSH1 0x1 ADD SWAP1 PUSH1 0x20 ADD DUP1 DUP4 GT PUSH2 0x458 JUMPI DUP3 SWAP1 SUB PUSH1 0x1F AND DUP3 ADD SWAP2 JUMPDEST POP POP POP POP POP SWAP1 DUP1 PUSH1 0x1 ADD DUP1 SLOAD PUSH2 0x48A SWAP1 PUSH2 0xC8B JUMP JUMPDEST DUP1 PUSH1 0x1F ADD PUSH1 0x20 DUP1 SWAP2 DIV MUL PUSH1 0x20 ADD PUSH1 0x40 MLOAD SWAP1 DUP2 ADD PUSH1 0x40 MSTORE DUP1 SWAP3 SWAP2 SWAP1 DUP2 DUP2 MSTORE PUSH1 0x20 ADD DUP3 DUP1 SLOAD PUSH2 0x4B6 SWAP1 PUSH2 0xC8B JUMP JUMPDEST DUP1 ISZERO PUSH2 0x501 JUMPI DUP1 PUSH1 0x1F LT PUSH2 0x4D8 JUMPI PUSH2 0x100 DUP1 DUP4 SLOAD DIV MUL DUP4 MSTORE SWAP2 PUSH1 0x20 ADD SWAP2 PUSH2 0x501 JUMP JUMPDEST DUP3 ADD SWAP2 SWAP1 PUSH0 MSTORE PUSH1 0x20 PUSH0 KECCAK256 SWAP1 JUMPDEST DUP2 SLOAD DUP2 MSTORE SWAP1 PUSH1 0x1 ADD SWAP1 PUSH1 0x20 ADD DUP1 DUP4 GT PUSH2 0x4E4 JUMPI DUP3 SWAP1 SUB PUSH1 0x1F AND DUP3 ADD SWAP2 JUMPDEST POP POP POP POP POP SWAP1 DUP1 PUSH1 0x2 ADD PUSH0 SWAP1 SLOAD SWAP1 PUSH2 0x100 EXP SWAP1 DIV PUSH21 0xFFFFFFFFFFFFFFFFFFFFFFFFFFFFFFFFFFFFFFFFFF AND SWAP1 DUP1 PUSH1 0x3 ADD DUP1 SLOAD PUSH2 0x53C SWAP1 PUSH2 0xC8B JUMP JUMPDEST DUP1 PUSH1 0x1F ADD PUSH1 0x20 DUP1 SWAP2 DIV MUL PUSH1 0x20 ADD PUSH1 0x40 MLOAD SWAP1 DUP2 ADD PUSH1 0x40 MSTORE DUP1 SWAP3 SWAP2 SWAP1 DUP2 DUP2 MSTORE PUSH1 0x20 ADD DUP3 DUP1 SLOAD PUSH2 0x568 SWAP1 PUSH2 0xC8B JUMP JUMPDEST DUP1 ISZERO PUSH2 0x5B3 JUMPI DUP1 PUSH1 0x1F LT PUSH2 0x58A JUMPI PUSH2 0x100 DUP1 DUP4 SLOAD DIV MUL DUP4 MSTORE SWAP2 PUSH1 0x20 ADD SWAP2 PUSH2 0x5B3 JUMP JUMPDEST DUP3 ADD SWAP2 SWAP1 PUSH0 MSTORE PUSH1 0x20 PUSH0 KECCAK256 SWAP1 JUMPDEST DUP2 SLOAD DUP2 MSTORE SWAP1 PUSH1 0x1 ADD SWAP1 PUSH1 0x20 ADD DUP1 DUP4 GT PUSH2 0x596 JUMPI DUP3 SWAP1 SUB PUSH1 0x1F AND DUP3 ADD SWAP2 JUMPDEST POP POP POP POP POP SWAP1 POP DUP5 JUMP JUMPDEST PUSH0 DUP3 DUP1 MLOAD PUSH1 0x20 DUP2 ADD DUP3 ADD DUP1 MLOAD DUP5 DUP3 MSTORE PUSH1 0x20 DUP4 ADD PUSH1 0x20 DUP6 ADD KECCAK256 DUP2 DUP4 MSTORE DUP1 SWAP6 POP POP POP POP POP POP DUP2 DUP1 MLOAD PUSH1 0x20 DUP2 ADD DUP3 ADD DUP1 MLOAD DUP5 DUP3 MSTORE PUSH1 0x20 DUP4 ADD PUSH1 0x20 DUP6 ADD KECCAK256 DUP2 DUP4 MSTORE DUP1 SWAP6 POP POP POP POP POP POP PUSH0 SWAP2 POP SWAP2 POP POP DUP1 PUSH0 ADD DUP1 SLOAD PUSH2 0x616 SWAP1 PUSH2 0xC8B JUMP JUMPDEST DUP1 PUSH1 0x1F ADD PUSH1 0x20 DUP1 SWAP2 DIV MUL PUSH1 0x20 ADD PUSH1 0x40 MLOAD SWAP1 DUP2 ADD PUSH1 0x40 MSTORE DUP1 SWAP3 SWAP2 SWAP1 DUP2 DUP2 MSTORE PUSH1 0x20 ADD DUP3 DUP1 SLOAD PUSH2 0x642 SWAP1 PUSH2 0xC8B JUMP JUMPDEST DUP1 ISZERO PUSH2 0x68D JUMPI DUP1 PUSH1 0x1F LT PUSH2 0x664 JUMPI PUSH2 0x100 DUP1 DUP4 SLOAD DIV MUL DUP4 MSTORE SWAP2 PUSH1 0x20 ADD SWAP2 PUSH2 0x68D JUMP JUMPDEST DUP3 ADD SWAP2 SWAP1 PUSH0 MSTORE PUSH1 0x20 PUSH0 KECCAK256 SWAP1 JUMPDEST DUP2 SLOAD DUP2 MSTORE SWAP1 PUSH1 0x1 ADD SWAP1 PUSH1 0x20 ADD DUP1 DUP4 GT PUSH2 0x670 JUMPI DUP3 SWAP1 SUB PUSH1 0x1F AND DUP3 ADD SWAP2 JUMPDEST POP POP POP POP POP SWAP1 DUP1 PUSH1 0x1 ADD PUSH0 SWAP1 SLOAD SWAP1 PUSH2 0x100 EXP SWAP1 DIV PUSH13 0xFFFFFFFFFFFFFFFFFFFFFFFFFF AND SWAP1 POP DUP3 JUMP JUMPDEST PUSH0 PUSH1 0x40 MLOAD SWAP1 POP SWAP1 JUMP JUMPDEST PUSH0 PUSH0 REVERT JUMPDEST PUSH0 PUSH0 REVERT JUMPDEST PUSH0 PUSH0 REVERT JUMPDEST PUSH0 PUSH0 REVERT JUMPDEST PUSH0 PUSH1 0x1F NOT PUSH1 0x1F DUP4 ADD AND SWAP1 POP SWAP2 SWAP1 POP JUMP JUMPDEST PUSH32 0x4E487B7100000000000000000000000000000000000000000000000000000000 PUSH0 MSTORE PUSH1 0x41 PUSH1 0x4 MSTORE PUSH1 0x24 PUSH0 REVERT JUMPDEST PUSH2 0x714 DUP3 PUSH2 0x6CE JUMP JUMPDEST DUP2 ADD DUP2 DUP2 LT PUSH8 0xFFFFFFFFFFFFFFFF DUP3 GT OR ISZERO PUSH2 0x733 JUMPI PUSH2 0x732 PUSH2 0x6DE JUMP JUMPDEST JUMPDEST DUP1 PUSH1 0x40 MSTORE POP POP POP JUMP JUMPDEST PUSH0 PUSH2 0x745 PUSH2 0x6B5 JUMP JUMPDEST SWAP1 POP PUSH2 0x751 DUP3 DUP3 PUSH2 0x70B JUMP JUMPDEST SWAP2 SWAP1 POP JUMP JUMPDEST PUSH0 PUSH8 0xFFFFFFFFFFFFFFFF DUP3 GT ISZERO PUSH2 0x770 JUMPI PUSH2 0x76F PUSH2 0x6DE JUMP JUMPDEST JUMPDEST PUSH2 0x779 DUP3 PUSH2 0x6CE JUMP JUMPDEST SWAP1 POP PUSH1 0x20 DUP2 ADD SWAP1 POP SWAP2 SWAP1 POP JUMP JUMPDEST DUP3 DUP2 DUP4 CALLDATACOPY PUSH0 DUP4 DUP4 ADD MSTORE POP POP POP JUMP JUMPDEST PUSH0 PUSH2 0x7A6 PUSH2 0x7A1 DUP5 PUSH2 0x756 JUMP JUMPDEST PUSH2 0x73C JUMP JUMPDEST SWAP1 POP DUP3 DUP2 MSTORE PUSH1 0x20 DUP2 ADD DUP5 DUP5 DUP5 ADD GT ISZERO PUSH2 0x7C2 JUMPI PUSH2 0x7C1 PUSH2 0x6CA JUMP JUMPDEST JUMPDEST PUSH2 0x7CD DUP5 DUP3 DUP6 PUSH2 0x786 JUMP JUMPDEST POP SWAP4 SWAP3 POP POP POP JUMP JUMPDEST PUSH0 DUP3 PUSH1 0x1F DUP4 ADD SLT PUSH2 0x7E9 JUMPI PUSH2 0x7E8 PUSH2 0x6C6 JUMP JUMPDEST JUMPDEST DUP2 CALLDATALOAD PUSH2 0x7F9 DUP5 DUP3 PUSH1 0x20 DUP7 ADD PUSH2 0x794 JUMP JUMPDEST SWAP2 POP POP SWAP3 SWAP2 POP POP JUMP JUMPDEST PUSH0 PUSH13 0xFFFFFFFFFFFFFFFFFFFFFFFFFF DUP3 AND SWAP1 POP SWAP2 SWAP1 POP JUMP JUMPDEST PUSH2 0x823 DUP2 PUSH2 0x802 JUMP JUMPDEST DUP2 EQ PUSH2 0x82D JUMPI PUSH0 PUSH0 REVERT JUMPDEST POP JUMP JUMPDEST PUSH0 DUP2 CALLDATALOAD SWAP1 POP PUSH2 0x83E DUP2 PUSH2 0x81A JUMP JUMPDEST SWAP3 SWAP2 POP POP JUMP JUMPDEST PUSH0 PUSH0 PUSH0 PUSH1 0x60 DUP5 DUP7 SUB SLT ISZERO PUSH2 0x85B JUMPI PUSH2 0x85A PUSH2 0x6BE JUMP JUMPDEST JUMPDEST PUSH0 DUP5 ADD CALLDATALOAD PUSH8 0xFFFFFFFFFFFFFFFF DUP2 GT ISZERO PUSH2 0x878 JUMPI PUSH2 0x877 PUSH2 0x6C2 JUMP JUMPDEST JUMPDEST PUSH2 0x884 DUP7 DUP3 DUP8 ADD PUSH2 0x7D5 JUMP JUMPDEST SWAP4 POP POP PUSH1 0x20 PUSH2 0x895 DUP7 DUP3 DUP8 ADD PUSH2 0x830 JUMP JUMPDEST SWAP3 POP POP PUSH1 0x40 DUP5 ADD CALLDATALOAD PUSH8 0xFFFFFFFFFFFFFFFF DUP2 GT ISZERO PUSH2 0x8B6 JUMPI PUSH2 0x8B5 PUSH2 0x6C2 JUMP JUMPDEST JUMPDEST PUSH2 0x8C2 DUP7 DUP3 DUP8 ADD PUSH2 0x7D5 JUMP JUMPDEST SWAP2 POP POP SWAP3 POP SWAP3 POP SWAP3 JUMP JUMPDEST PUSH0 PUSH1 0x20 DUP3 DUP5 SUB SLT ISZERO PUSH2 0x8E1 JUMPI PUSH2 0x8E0 PUSH2 0x6BE JUMP JUMPDEST JUMPDEST PUSH0 DUP3 ADD CALLDATALOAD PUSH8 0xFFFFFFFFFFFFFFFF DUP2 GT ISZERO PUSH2 0x8FE JUMPI PUSH2 0x8FD PUSH2 0x6C2 JUMP JUMPDEST JUMPDEST PUSH2 0x90A DUP5 DUP3 DUP6 ADD PUSH2 0x7D5 JUMP JUMPDEST SWAP2 POP POP SWAP3 SWAP2 POP POP JUMP JUMPDEST PUSH0 DUP2 MLOAD SWAP1 POP SWAP2 SWAP1 POP JUMP JUMPDEST PUSH0 DUP3 DUP3 MSTORE PUSH1 0x20 DUP3 ADD SWAP1 POP SWAP3 SWAP2 POP POP JUMP JUMPDEST DUP3 DUP2 DUP4 MCOPY PUSH0 DUP4 DUP4 ADD MSTORE POP POP POP JUMP JUMPDEST PUSH0 PUSH2 0x945 DUP3 PUSH2 0x913 JUMP JUMPDEST PUSH2 0x94F DUP2 DUP6 PUSH2 0x91D JUMP JUMPDEST SWAP4 POP PUSH2 0x95F DUP2 DUP6 PUSH1 0x20 DUP7 ADD PUSH2 0x92D JUMP JUMPDEST PUSH2 0x968 DUP2 PUSH2 0x6CE JUMP JUMPDEST DUP5 ADD SWAP2 POP POP SWAP3 SWAP2 POP POP JUMP JUMPDEST PUSH0 PUSH1 0x20 DUP3 ADD SWAP1 POP DUP2 DUP2 SUB PUSH0 DUP4 ADD MSTORE PUSH2 0x98B DUP2 DUP5 PUSH2 0x93B JUMP JUMPDEST SWAP1 POP SWAP3 SWAP2 POP POP JUMP JUMPDEST PUSH0 PUSH21 0xFFFFFFFFFFFFFFFFFFFFFFFFFFFFFFFFFFFFFFFFFF DUP3 AND SWAP1 POP SWAP2 SWAP1 POP JUMP JUMPDEST PUSH2 0x9BC DUP2 PUSH2 0x993 JUMP JUMPDEST DUP2 EQ PUSH2 0x9C6 JUMPI PUSH0 PUSH0 REVERT JUMPDEST POP JUMP JUMPDEST PUSH0 DUP2 CALLDATALOAD SWAP1 POP PUSH2 0x9D7 DUP2 PUSH2 0x9B3 JUMP JUMPDEST SWAP3 SWAP2 POP POP JUMP JUMPDEST PUSH0 DUP2 SWAP1 POP SWAP2 SWAP1 POP JUMP JUMPDEST PUSH2 0x9EF DUP2 PUSH2 0x9DD JUMP JUMPDEST DUP2 EQ PUSH2 0x9F9 JUMPI PUSH0 PUSH0 REVERT JUMPDEST POP JUMP JUMPDEST PUSH0 DUP2 CALLDATALOAD SWAP1 POP PUSH2 0xA0A DUP2 PUSH2 0x9E6 JUMP JUMPDEST SWAP3 SWAP2 POP POP JUMP JUMPDEST PUSH0 PUSH0 PUSH0 PUSH0 PUSH0 PUSH1 0xA0 DUP7 DUP9 SUB SLT ISZERO PUSH2 0xA29 JUMPI PUSH2 0xA28 PUSH2 0x6BE JUMP JUMPDEST JUMPDEST PUSH0 DUP7 ADD CALLDATALOAD PUSH8 0xFFFFFFFFFFFFFFFF DUP2 GT ISZERO PUSH2 0xA46 JUMPI PUSH2 0xA45 PUSH2 0x6C2 JUMP JUMPDEST JUMPDEST PUSH2 0xA52 DUP9 DUP3 DUP10 ADD PUSH2 0x7D5 JUMP JUMPDEST SWAP6 POP POP PUSH1 0x20 DUP7 ADD CALLDATALOAD PUSH8 0xFFFFFFFFFFFFFFFF DUP2 GT ISZERO PUSH2 0xA73 JUMPI PUSH2 0xA72 PUSH2 0x6C2 JUMP JUMPDEST JUMPDEST PUSH2 0xA7F DUP9 DUP3 DUP10 ADD PUSH2 0x7D5 JUMP JUMPDEST SWAP5 POP POP PUSH1 0x40 DUP7 ADD CALLDATALOAD PUSH8 0xFFFFFFFFFFFFFFFF DUP2 GT ISZERO PUSH2 0xAA0 JUMPI PUSH2 0xA9F PUSH2 0x6C2 JUMP JUMPDEST JUMPDEST PUSH2 0xAAC DUP9 DUP3 DUP10 ADD PUSH2 0x7D5 JUMP JUMPDEST SWAP4 POP POP PUSH1 0x60 PUSH2 0xABD DUP9 DUP3 DUP10 ADD PUSH2 0x9C9 JUMP JUMPDEST SWAP3 POP POP PUSH1 0x80 PUSH2 0xACE DUP9 DUP3 DUP10 ADD PUSH2 0x9FC JUMP JUMPDEST SWAP2 POP POP SWAP3 SWAP6 POP SWAP3 SWAP6 SWAP1 SWAP4 POP JUMP JUMPDEST PUSH0 PUSH0 PUSH1 0x40 DUP4 DUP6 SUB SLT ISZERO PUSH2 0xAF1 JUMPI PUSH2 0xAF0 PUSH2 0x6BE JUMP JUMPDEST JUMPDEST PUSH0 DUP4 ADD CALLDATALOAD PUSH8 0xFFFFFFFFFFFFFFFF DUP2 GT ISZERO PUSH2 0xB0E JUMPI PUSH2 0xB0D PUSH2 0x6C2 JUMP JUMPDEST JUMPDEST PUSH2 0xB1A DUP6 DUP3 DUP7 ADD PUSH2 0x7D5 JUMP JUMPDEST SWAP3 POP POP PUSH1 0x20 DUP4 ADD CALLDATALOAD PUSH8 0xFFFFFFFFFFFFFFFF DUP2 GT ISZERO PUSH2 0xB3B JUMPI PUSH2 0xB3A PUSH2 0x6C2 JUMP JUMPDEST JUMPDEST PUSH2 0xB47 DUP6 DUP3 DUP7 ADD PUSH2 0x7D5 JUMP JUMPDEST SWAP2 POP POP SWAP3 POP SWAP3 SWAP1 POP JUMP JUMPDEST PUSH2 0xB5A DUP2 PUSH2 0x802 JUMP JUMPDEST DUP3 MSTORE POP POP JUMP JUMPDEST PUSH0 PUSH1 0x20 DUP3 ADD SWAP1 POP PUSH2 0xB73 PUSH0 DUP4 ADD DUP5 PUSH2 0xB51 JUMP JUMPDEST SWAP3 SWAP2 POP POP JUMP JUMPDEST PUSH2 0xB82 DUP2 PUSH2 0x993 JUMP JUMPDEST DUP3 MSTORE POP POP JUMP JUMPDEST PUSH0 PUSH1 0x80 DUP3 ADD SWAP1 POP DUP2 DUP2 SUB PUSH0 DUP4 ADD MSTORE PUSH2 0xBA0 DUP2 DUP8 PUSH2 0x93B JUMP JUMPDEST SWAP1 POP DUP2 DUP2 SUB PUSH1 0x20 DUP4 ADD MSTORE PUSH2 0xBB4 DUP2 DUP7 PUSH2 0x93B JUMP JUMPDEST SWAP1 POP PUSH2 0xBC3 PUSH1 0x40 DUP4 ADD DUP6 PUSH2 0xB79 JUMP JUMPDEST DUP2 DUP2 SUB PUSH1 0x60 DUP4 ADD MSTORE PUSH2 0xBD5 DUP2 DUP5 PUSH2 0x93B JUMP JUMPDEST SWAP1 POP SWAP6 SWAP5 POP POP POP POP POP JUMP JUMPDEST PUSH0 PUSH1 0x40 DUP3 ADD SWAP1 POP DUP2 DUP2 SUB PUSH0 DUP4 ADD MSTORE PUSH2 0xBF8 DUP2 DUP6 PUSH2 0x93B JUMP JUMPDEST SWAP1 POP PUSH2 0xC07 PUSH1 0x20 DUP4 ADD DUP5 PUSH2 0xB51 JUMP JUMPDEST SWAP4 SWAP3 POP POP POP JUMP JUMPDEST PUSH0 DUP2 SWAP1 POP SWAP3 SWAP2 POP POP JUMP JUMPDEST PUSH0 PUSH2 0xC22 DUP3 PUSH2 0x913 JUMP JUMPDEST PUSH2 0xC2C DUP2 DUP6 PUSH2 0xC0E JUMP JUMPDEST SWAP4 POP PUSH2 0xC3C DUP2 DUP6 PUSH1 0x20 DUP7 ADD PUSH2 0x92D JUMP JUMPDEST DUP1 DUP5 ADD SWAP2 POP POP SWAP3 SWAP2 POP POP JUMP JUMPDEST PUSH0 PUSH2 0xC53 DUP3 DUP5 PUSH2 0xC18 JUMP JUMPDEST SWAP2 POP DUP2 SWAP1 POP SWAP3 SWAP2 POP POP JUMP JUMPDEST PUSH32 0x4E487B7100000000000000000000000000000000000000000000000000000000 PUSH0 MSTORE PUSH1 0x22 PUSH1 0x4 MSTORE PUSH1 0x24 PUSH0 REVERT JUMPDEST PUSH0 PUSH1 0x2 DUP3 DIV SWAP1 POP PUSH1 0x1 DUP3 AND DUP1 PUSH2 0xCA2 JUMPI PUSH1 0x7F DUP3 AND SWAP2 POP JUMPDEST PUSH1 0x20 DUP3 LT DUP2 SUB PUSH2 0xCB5 JUMPI PUSH2 0xCB4 PUSH2 0xC5E JUMP JUMPDEST JUMPDEST POP SWAP2 SWAP1 POP JUMP JUMPDEST PUSH0 DUP2 SWAP1 POP DUP2 PUSH0 MSTORE PUSH1 0x20 PUSH0 KECCAK256 SWAP1 POP SWAP2 SWAP1 POP JUMP JUMPDEST PUSH0 PUSH1 0x20 PUSH1 0x1F DUP4 ADD DIV SWAP1 POP SWAP2 SWAP1 POP JUMP JUMPDEST PUSH0 DUP3 DUP3 SHL SWAP1 POP SWAP3 SWAP2 POP POP JUMP JUMPDEST PUSH0 PUSH1 0x8 DUP4 MUL PUSH2 0xD17 PUSH32 0xFFFFFFFFFFFFFFFFFFFFFFFFFFFFFFFFFFFFFFFFFFFFFFFFFFFFFFFFFFFFFFFF DUP3 PUSH2 0xCDC JUMP JUMPDEST PUSH2 0xD21 DUP7 DUP4 PUSH2 0xCDC JUMP JUMPDEST SWAP6 POP DUP1 NOT DUP5 AND SWAP4 POP DUP1 DUP7 AND DUP5 OR SWAP3 POP POP POP SWAP4 SWAP3 POP POP POP JUMP JUMPDEST PUSH0 DUP2 SWAP1 POP SWAP2 SWAP1 POP JUMP JUMPDEST PUSH0 PUSH2 0xD5C PUSH2 0xD57 PUSH2 0xD52 DUP5 PUSH2 0x9DD JUMP JUMPDEST PUSH2 0xD39 JUMP JUMPDEST PUSH2 0x9DD JUMP JUMPDEST SWAP1 POP SWAP2 SWAP1 POP JUMP JUMPDEST PUSH0 DUP2 SWAP1 POP SWAP2 SWAP1 POP JUMP JUMPDEST PUSH2 0xD75 DUP4 PUSH2 0xD42 JUMP JUMPDEST PUSH2 0xD89 PUSH2 0xD81 DUP3 PUSH2 0xD63 JUMP JUMPDEST DUP5 DUP5 SLOAD PUSH2 0xCE8 JUMP JUMPDEST DUP3 SSTORE POP POP POP POP JUMP JUMPDEST PUSH0 PUSH0 SWAP1 POP SWAP1 JUMP JUMPDEST PUSH2 0xDA0 PUSH2 0xD91 JUMP JUMPDEST PUSH2 0xDAB DUP2 DUP5 DUP5 PUSH2 0xD6C JUMP JUMPDEST POP POP POP JUMP JUMPDEST JUMPDEST DUP2 DUP2 LT ISZERO PUSH2 0xDCE JUMPI PUSH2 0xDC3 PUSH0 DUP3 PUSH2 0xD98 JUMP JUMPDEST PUSH1 0x1 DUP2 ADD SWAP1 POP PUSH2 0xDB1 JUMP JUMPDEST POP POP JUMP JUMPDEST PUSH1 0x1F DUP3 GT ISZERO PUSH2 0xE13 JUMPI PUSH2 0xDE4 DUP2 PUSH2 0xCBB JUMP JUMPDEST PUSH2 0xDED DUP5 PUSH2 0xCCD JUMP JUMPDEST DUP2 ADD PUSH1 0x20 DUP6 LT ISZERO PUSH2 0xDFC JUMPI DUP2 SWAP1 POP JUMPDEST PUSH2 0xE10 PUSH2 0xE08 DUP6 PUSH2 0xCCD JUMP JUMPDEST DUP4 ADD DUP3 PUSH2 0xDB0 JUMP JUMPDEST POP POP JUMPDEST POP POP POP JUMP JUMPDEST PUSH0 DUP3 DUP3 SHR SWAP1 POP SWAP3 SWAP2 POP POP JUMP JUMPDEST PUSH0 PUSH2 0xE33 PUSH0 NOT DUP5 PUSH1 0x8 MUL PUSH2 0xE18 JUMP JUMPDEST NOT DUP1 DUP4 AND SWAP2 POP POP SWAP3 SWAP2 POP POP JUMP JUMPDEST PUSH0 PUSH2 0xE4B DUP4 DUP4 PUSH2 0xE24 JUMP JUMPDEST SWAP2 POP DUP3 PUSH1 0x2 MUL DUP3 OR SWAP1 POP SWAP3 SWAP2 POP POP JUMP JUMPDEST PUSH2 0xE64 DUP3 PUSH2 0x913 JUMP JUMPDEST PUSH8 0xFFFFFFFFFFFFFFFF DUP2 GT ISZERO PUSH2 0xE7D JUMPI PUSH2 0xE7C PUSH2 0x6DE JUMP JUMPDEST JUMPDEST PUSH2 0xE87 DUP3 SLOAD PUSH2 0xC8B JUMP JUMPDEST PUSH2 0xE92 DUP3 DUP3 DUP6 PUSH2 0xDD2 JUMP JUMPDEST PUSH0 PUSH1 0x20 SWAP1 POP PUSH1 0x1F DUP4 GT PUSH1 0x1 DUP2 EQ PUSH2 0xEC3 JUMPI PUSH0 DUP5 ISZERO PUSH2 0xEB1 JUMPI DUP3 DUP8 ADD MLOAD SWAP1 POP JUMPDEST PUSH2 0xEBB DUP6 DUP3 PUSH2 0xE40 JUMP JUMPDEST DUP7 SSTORE POP PUSH2 0xF22 JUMP JUMPDEST PUSH1 0x1F NOT DUP5 AND PUSH2 0xED1 DUP7 PUSH2 0xCBB JUMP JUMPDEST PUSH0 JUMPDEST DUP3 DUP2 LT ISZERO PUSH2 0xEF8 JUMPI DUP5 DUP10 ADD MLOAD DUP3 SSTORE PUSH1 0x1 DUP3 ADD SWAP2 POP PUSH1 0x20 DUP6 ADD SWAP5 POP PUSH1 0x20 DUP2 ADD SWAP1 POP PUSH2 0xED3 JUMP JUMPDEST DUP7 DUP4 LT ISZERO PUSH2 0xF15 JUMPI DUP5 DUP10 ADD MLOAD PUSH2 0xF11 PUSH1 0x1F DUP10 AND DUP3 PUSH2 0xE24 JUMP JUMPDEST DUP4 SSTORE POP JUMPDEST PUSH1 0x1 PUSH1 0x2 DUP9 MUL ADD DUP9 SSTORE POP POP POP JUMPDEST POP POP POP POP POP POP JUMP INVALID LOG2 PUSH5 0x6970667358 0x22 SLT KECCAK256 STATICCALL 0xCA BALANCE SIGNEXTEND 0xCA NUMBER 0xA8 TSTORE 0xB2 RJUMPI 0xB3E9 0xCC SWAP5 0xC5 EXP GAS SWAP5 SWAP3 JUMP PUSH30 0xD2512AE617989ABBE1A9F064736F6C634300081E00330000000000000000 "
				},
				"gasEstimates": {
					"creation": {
						"codeDepositCost": "787200",
						"executionCost": "816",
						"totalCost": "788016"
					},
					"external": {
						"addpatient(string,uint104,string)": "infinite",
						"createaccount(string,string,string,uint168,uint256)": "infinite",
						"getuser(string,string)": "infinite",
						"getuseremial(string)": "infinite",
						"patients(string,string)": "infinite",
						"users(string)": "infinite"
					}
				},
				"methodIdentifiers": {
					"addpatient(string,uint104,string)": "25b9a40d",
					"createaccount(string,string,string,uint168,uint256)": "3771befd",
					"getuser(string,string)": "629014d7",
					"getuseremial(string)": "26b60286",
					"patients(string,string)": "cae17979",
					"users(string)": "689e1c03"
				}
			},
			"storageLayout": {
				"storage": [
					{
						"astId": 23,
						"contract": "contracts/1_Storage.sol:twitter",
						"label": "patients",
						"offset": 0,
						"slot": "0",
						"type": "t_mapping(t_string_memory_ptr,t_mapping(t_string_memory_ptr,t_struct(Host)7_storage))"
					},
					{
						"astId": 28,
						"contract": "contracts/1_Storage.sol:twitter",
						"label": "users",
						"offset": 0,
						"slot": "1",
						"type": "t_mapping(t_string_memory_ptr,t_struct(User)16_storage)"
					}
				],
				"types": {
					"t_mapping(t_string_memory_ptr,t_mapping(t_string_memory_ptr,t_struct(Host)7_storage))": {
						"encoding": "mapping",
						"key": "t_string_memory_ptr",
						"label": "mapping(string => mapping(string => struct twitter.Host))",
						"numberOfBytes": "32",
						"value": "t_mapping(t_string_memory_ptr,t_struct(Host)7_storage)"
					},
					"t_mapping(t_string_memory_ptr,t_struct(Host)7_storage)": {
						"encoding": "mapping",
						"key": "t_string_memory_ptr",
						"label": "mapping(string => struct twitter.Host)",
						"numberOfBytes": "32",
						"value": "t_struct(Host)7_storage"
					},
					"t_mapping(t_string_memory_ptr,t_struct(User)16_storage)": {
						"encoding": "mapping",
						"key": "t_string_memory_ptr",
						"label": "mapping(string => struct twitter.User)",
						"numberOfBytes": "32",
						"value": "t_struct(User)16_storage"
					},
					"t_string_memory_ptr": {
						"encoding": "bytes",
						"label": "string",
						"numberOfBytes": "32"
					},
					"t_string_storage": {
						"encoding": "bytes",
						"label": "string",
						"numberOfBytes": "32"
					},
					"t_struct(Host)7_storage": {
						"encoding": "inplace",
						"label": "struct twitter.Host",
						"members": [
							{
								"astId": 4,
								"contract": "contracts/1_Storage.sol:twitter",
								"label": "name",
								"offset": 0,
								"slot": "0",
								"type": "t_string_storage"
							},
							{
								"astId": 6,
								"contract": "contracts/1_Storage.sol:twitter",
								"label": "age",
								"offset": 0,
								"slot": "1",
								"type": "t_uint104"
							}
						],
						"numberOfBytes": "64"
					},
					"t_struct(User)16_storage": {
						"encoding": "inplace",
						"label": "struct twitter.User",
						"members": [
							{
								"astId": 9,
								"contract": "contracts/1_Storage.sol:twitter",
								"label": "name",
								"offset": 0,
								"slot": "0",
								"type": "t_string_storage"
							},
							{
								"astId": 11,
								"contract": "contracts/1_Storage.sol:twitter",
								"label": "email",
								"offset": 0,
								"slot": "1",
								"type": "t_string_storage"
							},
							{
								"astId": 13,
								"contract": "contracts/1_Storage.sol:twitter",
								"label": "phnum",
								"offset": 0,
								"slot": "2",
								"type": "t_uint168"
							},
							{
								"astId": 15,
								"contract": "contracts/1_Storage.sol:twitter",
								"label": "hospitalname",
								"offset": 0,
								"slot": "3",
								"type": "t_string_storage"
							}
						],
						"numberOfBytes": "128"
					},
					"t_uint104": {
						"encoding": "inplace",
						"label": "uint104",
						"numberOfBytes": "13"
					},
					"t_uint168": {
						"encoding": "inplace",
						"label": "uint168",
						"numberOfBytes": "21"
					}
				}
			},
			"userdoc": {
				"kind": "user",
				"methods": {},
				"version": 1
			}
		}
	}
}