{
	"contracts/1_Storage.sol": {
		"twitter": {
			"abi": [
				{
					"inputs": [
						{
							"internalType": "string",
							"name": "name",
							"type": "string"
						},
						{
							"internalType": "uint104",
							"name": "age",
							"type": "uint104"
						},
						{
							"internalType": "string",
							"name": "hospitalname",
							"type": "string"
						}
					],
					"name": "addpatient",
					"outputs": [],
					"stateMutability": "nonpayable",
					"type": "function"
				},
				{
					"inputs": [
						{
							"internalType": "string",
							"name": "",
							"type": "string"
						},
						{
							"internalType": "uint256",
							"name": "",
							"type": "uint256"
						}
					],
					"name": "allpatientshospital",
					"outputs": [
						{
							"internalType": "string",
							"name": "name",
							"type": "string"
						},
						{
							"internalType": "uint104",
							"name": "age",
							"type": "uint104"
						}
					],
					"stateMutability": "view",
					"type": "function"
				},
				{
					"inputs": [
						{
							"internalType": "string",
							"name": "name",
							"type": "string"
						},
						{
							"internalType": "string",
							"name": "hospitalname",
							"type": "string"
						},
						{
							"internalType": "string",
							"name": "email",
							"type": "string"
						},
						{
							"internalType": "uint168",
							"name": "phnum",
							"type": "uint168"
						},
						{
							"internalType": "uint256",
							"name": "age",
							"type": "uint256"
						}
					],
					"name": "createpatientaccount",
					"outputs": [],
					"stateMutability": "nonpayable",
					"type": "function"
				},
				{
					"inputs": [
						{
							"internalType": "string",
							"name": "hospitalname",
							"type": "string"
						}
					],
					"name": "getallpatientsinhospital",
					"outputs": [
						{
							"components": [
								{
									"internalType": "string",
									"name": "name",
									"type": "string"
								},
								{
									"internalType": "uint104",
									"name": "age",
									"type": "uint104"
								}
							],
							"internalType": "struct twitter.Host[]",
							"name": "",
							"type": "tuple[]"
						}
					],
					"stateMutability": "nonpayable",
					"type": "function"
				},
				{
					"inputs": [
						{
							"internalType": "string",
							"name": "hospitalname",
							"type": "string"
						},
						{
							"internalType": "string",
							"name": "name",
							"type": "string"
						}
					],
					"name": "getuser",
					"outputs": [
						{
							"components": [
								{
									"internalType": "string",
									"name": "name",
									"type": "string"
								},
								{
									"internalType": "uint104",
									"name": "age",
									"type": "uint104"
								}
							],
							"internalType": "struct twitter.Host",
							"name": "",
							"type": "tuple"
						}
					],
					"stateMutability": "view",
					"type": "function"
				},
				{
					"inputs": [
						{
							"internalType": "string",
							"name": "uname",
							"type": "string"
						}
					],
					"name": "getuseremial",
					"outputs": [
						{
							"internalType": "string",
							"name": "",
							"type": "string"
						}
					],
					"stateMutability": "view",
					"type": "function"
				},
				{
					"inputs": [
						{
							"internalType": "string",
							"name": "",
							"type": "string"
						},
						{
							"internalType": "string",
							"name": "",
							"type": "string"
						}
					],
					"name": "patients",
					"outputs": [
						{
							"internalType": "string",
							"name": "name",
							"type": "string"
						},
						{
							"internalType": "uint104",
							"name": "age",
							"type": "uint104"
						}
					],
					"stateMutability": "view",
					"type": "function"
				},
				{
					"inputs": [
						{
							"internalType": "string",
							"name": "",
							"type": "string"
						}
					],
					"name": "users",
					"outputs": [
						{
							"internalType": "string",
							"name": "name",
							"type": "string"
						},
						{
							"internalType": "string",
							"name": "email",
							"type": "string"
						},
						{
							"internalType": "uint168",
							"name": "phnum",
							"type": "uint168"
						},
						{
							"internalType": "string",
							"name": "hospitalname",
							"type": "string"
						}
					],
					"stateMutability": "view",
					"type": "function"
				}
			],
			"devdoc": {
				"custom:dev-run-script": "./scripts/deploy_with_ethers.ts",
				"details": "Store & retrieve value in a variable",
				"kind": "dev",
				"methods": {},
				"title": "Storage",
				"version": 1
			},
			"evm": {
				"assembly": "    /* \"contracts/1_Storage.sol\":199:1676  contract twitter {... */\n  mstore(0x40, 0x80)\n  callvalue\n  dup1\n  iszero\n  tag_1\n  jumpi\n  revert(0x00, 0x00)\ntag_1:\n  pop\n  dataSize(sub_0)\n  dup1\n  dataOffset(sub_0)\n  0x00\n  codecopy\n  0x00\n  return\nstop\n\nsub_0: assembly {\n        /* \"contracts/1_Storage.sol\":199:1676  contract twitter {... */\n      mstore(0x40, 0x80)\n      callvalue\n      dup1\n      iszero\n      tag_1\n      jumpi\n      revert(0x00, 0x00)\n    tag_1:\n      pop\n      jumpi(tag_2, lt(calldatasize, 0x04))\n      shr(0xe0, calldataload(0x00))\n      dup1\n      0x45c3c6c2\n      gt\n      tag_11\n      jumpi\n      dup1\n      0x45c3c6c2\n      eq\n      tag_7\n      jumpi\n      dup1\n      0x629014d7\n      eq\n      tag_8\n      jumpi\n      dup1\n      0x689e1c03\n      eq\n      tag_9\n      jumpi\n      dup1\n      0xcae17979\n      eq\n      tag_10\n      jumpi\n      jump(tag_2)\n    tag_11:\n      dup1\n      0x25b9a40d\n      eq\n      tag_3\n      jumpi\n      dup1\n      0x26b60286\n      eq\n      tag_4\n      jumpi\n      dup1\n      0x341fde55\n      eq\n      tag_5\n      jumpi\n      dup1\n      0x3a110d0d\n      eq\n      tag_6\n      jumpi\n    tag_2:\n      revert(0x00, 0x00)\n        /* \"contracts/1_Storage.sol\":1026:1350  function addpatient( string memory name,uint104 age, string memory hospitalname) public   {... */\n    tag_3:\n      tag_12\n      0x04\n      dup1\n      calldatasize\n      sub\n      dup2\n      add\n      swap1\n      tag_13\n      swap2\n      swap1\n      tag_14\n      jump\t// in\n    tag_13:\n      tag_15\n      jump\t// in\n    tag_12:\n      stop\n        /* \"contracts/1_Storage.sol\":892:1011  function getuseremial( string  memory uname)  public  view returns(string memory ){... */\n    tag_4:\n      tag_16\n      0x04\n      dup1\n      calldatasize\n      sub\n      dup2\n      add\n      swap1\n      tag_17\n      swap2\n      swap1\n      tag_18\n      jump\t// in\n    tag_17:\n      tag_19\n      jump\t// in\n    tag_16:\n      mload(0x40)\n      tag_20\n      swap2\n      swap1\n      tag_21\n      jump\t// in\n    tag_20:\n      mload(0x40)\n      dup1\n      swap2\n      sub\n      swap1\n      return\n        /* \"contracts/1_Storage.sol\":614:888  function createpatientaccount(string  memory name,string memory  hospitalname,string  memory email,uint168 phnum,uint age ) public {... */\n    tag_5:\n      tag_22\n      0x04\n      dup1\n      calldatasize\n      sub\n      dup2\n      add\n      swap1\n      tag_23\n      swap2\n      swap1\n      tag_24\n      jump\t// in\n    tag_23:\n      tag_25\n      jump\t// in\n    tag_22:\n      stop\n        /* \"contracts/1_Storage.sol\":558:612  mapping  (string =>Host[]) public  allpatientshospital */\n    tag_6:\n      tag_26\n      0x04\n      dup1\n      calldatasize\n      sub\n      dup2\n      add\n      swap1\n      tag_27\n      swap2\n      swap1\n      tag_28\n      jump\t// in\n    tag_27:\n      tag_29\n      jump\t// in\n    tag_26:\n      mload(0x40)\n      tag_30\n      swap3\n      swap2\n      swap1\n      tag_31\n      jump\t// in\n    tag_30:\n      mload(0x40)\n      dup1\n      swap2\n      sub\n      swap1\n      return\n        /* \"contracts/1_Storage.sol\":1523:1671  function getallpatientsinhospital( string memory hospitalname) public  returns (Host[] memory) {... */\n    tag_7:\n      tag_32\n      0x04\n      dup1\n      calldatasize\n      sub\n      dup2\n      add\n      swap1\n      tag_33\n      swap2\n      swap1\n      tag_18\n      jump\t// in\n    tag_33:\n      tag_34\n      jump\t// in\n    tag_32:\n      mload(0x40)\n      tag_35\n      swap2\n      swap1\n      tag_36\n      jump\t// in\n    tag_35:\n      mload(0x40)\n      dup1\n      swap2\n      sub\n      swap1\n      return\n        /* \"contracts/1_Storage.sol\":1354:1519  function getuser(string  memory hospitalname, string memory name)  public  view   returns(  Host memory )     {... */\n    tag_8:\n      tag_37\n      0x04\n      dup1\n      calldatasize\n      sub\n      dup2\n      add\n      swap1\n      tag_38\n      swap2\n      swap1\n      tag_39\n      jump\t// in\n    tag_38:\n      tag_40\n      jump\t// in\n    tag_37:\n      mload(0x40)\n      tag_41\n      swap2\n      swap1\n      tag_42\n      jump\t// in\n    tag_41:\n      mload(0x40)\n      dup1\n      swap2\n      sub\n      swap1\n      return\n        /* \"contracts/1_Storage.sol\":515:556  mapping  ( string => User ) public  users */\n    tag_9:\n      tag_43\n      0x04\n      dup1\n      calldatasize\n      sub\n      dup2\n      add\n      swap1\n      tag_44\n      swap2\n      swap1\n      tag_18\n      jump\t// in\n    tag_44:\n      tag_45\n      jump\t// in\n    tag_43:\n      mload(0x40)\n      tag_46\n      swap5\n      swap4\n      swap3\n      swap2\n      swap1\n      tag_47\n      jump\t// in\n    tag_46:\n      mload(0x40)\n      dup1\n      swap2\n      sub\n      swap1\n      return\n        /* \"contracts/1_Storage.sol\":451:509  mapping(string => mapping(string => Host)) public patients */\n    tag_10:\n      tag_48\n      0x04\n      dup1\n      calldatasize\n      sub\n      dup2\n      add\n      swap1\n      tag_49\n      swap2\n      swap1\n      tag_39\n      jump\t// in\n    tag_49:\n      tag_50\n      jump\t// in\n    tag_48:\n      mload(0x40)\n      tag_51\n      swap3\n      swap2\n      swap1\n      tag_31\n      jump\t// in\n    tag_51:\n      mload(0x40)\n      dup1\n      swap2\n      sub\n      swap1\n      return\n        /* \"contracts/1_Storage.sol\":1026:1350  function addpatient( string memory name,uint104 age, string memory hospitalname) public   {... */\n    tag_15:\n        /* \"contracts/1_Storage.sol\":1154:1181  Host memory  patientdetails */\n      0x00\n        /* \"contracts/1_Storage.sol\":1182:1196  Host(name,age) */\n      mload(0x40)\n      dup1\n      0x40\n      add\n      0x40\n      mstore\n      dup1\n        /* \"contracts/1_Storage.sol\":1187:1191  name */\n      dup6\n        /* \"contracts/1_Storage.sol\":1182:1196  Host(name,age) */\n      dup2\n      mstore\n      0x20\n      add\n        /* \"contracts/1_Storage.sol\":1192:1195  age */\n      dup5\n        /* \"contracts/1_Storage.sol\":1182:1196  Host(name,age) */\n      0xffffffffffffffffffffffffff\n      and\n      dup2\n      mstore\n      pop\n        /* \"contracts/1_Storage.sol\":1154:1196  Host memory  patientdetails=Host(name,age) */\n      swap1\n      pop\n        /* \"contracts/1_Storage.sol\":1275:1289  patientdetails */\n      dup1\n        /* \"contracts/1_Storage.sol\":1246:1254  patients */\n      0x00\n        /* \"contracts/1_Storage.sol\":1255:1267  hospitalname */\n      dup4\n        /* \"contracts/1_Storage.sol\":1246:1268  patients[hospitalname] */\n      mload(0x40)\n      tag_53\n      swap2\n      swap1\n      tag_54\n      jump\t// in\n    tag_53:\n      swap1\n      dup2\n      mstore\n      0x20\n      add\n      mload(0x40)\n      dup1\n      swap2\n      sub\n      swap1\n      keccak256\n        /* \"contracts/1_Storage.sol\":1269:1273  name */\n      dup6\n        /* \"contracts/1_Storage.sol\":1246:1274  patients[hospitalname][name] */\n      mload(0x40)\n      tag_55\n      swap2\n      swap1\n      tag_54\n      jump\t// in\n    tag_55:\n      swap1\n      dup2\n      mstore\n      0x20\n      add\n      mload(0x40)\n      dup1\n      swap2\n      sub\n      swap1\n      keccak256\n        /* \"contracts/1_Storage.sol\":1246:1289  patients[hospitalname][name]=patientdetails */\n      0x00\n      dup3\n      add\n      mload\n      dup2\n      0x00\n      add\n      swap1\n      dup2\n      tag_56\n      swap2\n      swap1\n      tag_57\n      jump\t// in\n    tag_56:\n      pop\n      0x20\n      dup3\n      add\n      mload\n      dup2\n      0x01\n      add\n      exp(0x0100, 0x00)\n      dup2\n      sload\n      dup2\n      0xffffffffffffffffffffffffff\n      mul\n      not\n      and\n      swap1\n      dup4\n      0xffffffffffffffffffffffffff\n      and\n      mul\n      or\n      swap1\n      sstore\n      pop\n      swap1\n      pop\n      pop\n        /* \"contracts/1_Storage.sol\":1291:1310  allpatientshospital */\n      0x02\n        /* \"contracts/1_Storage.sol\":1311:1323  hospitalname */\n      dup3\n        /* \"contracts/1_Storage.sol\":1291:1324  allpatientshospital[hospitalname] */\n      mload(0x40)\n      tag_58\n      swap2\n      swap1\n      tag_54\n      jump\t// in\n    tag_58:\n      swap1\n      dup2\n      mstore\n      0x20\n      add\n      mload(0x40)\n      dup1\n      swap2\n      sub\n      swap1\n      keccak256\n        /* \"contracts/1_Storage.sol\":1330:1344  patientdetails */\n      dup2\n        /* \"contracts/1_Storage.sol\":1291:1345  allpatientshospital[hospitalname].push(patientdetails) */\n      swap1\n      dup1\n      0x01\n      dup2\n      sload\n      add\n      dup1\n      dup3\n      sstore\n      dup1\n      swap2\n      pop\n      pop\n      0x01\n      swap1\n      sub\n      swap1\n      0x00\n      mstore\n      keccak256(0x00, 0x20)\n      swap1\n      0x02\n      mul\n      add\n      0x00\n      swap1\n      swap2\n      swap1\n      swap2\n      swap1\n      swap2\n      pop\n      0x00\n      dup3\n      add\n      mload\n      dup2\n      0x00\n      add\n      swap1\n      dup2\n      tag_60\n      swap2\n      swap1\n      tag_57\n      jump\t// in\n    tag_60:\n      pop\n      0x20\n      dup3\n      add\n      mload\n      dup2\n      0x01\n      add\n      exp(0x0100, 0x00)\n      dup2\n      sload\n      dup2\n      0xffffffffffffffffffffffffff\n      mul\n      not\n      and\n      swap1\n      dup4\n      0xffffffffffffffffffffffffff\n      and\n      mul\n      or\n      swap1\n      sstore\n      pop\n      pop\n      pop\n        /* \"contracts/1_Storage.sol\":1116:1350  {... */\n      pop\n        /* \"contracts/1_Storage.sol\":1026:1350  function addpatient( string memory name,uint104 age, string memory hospitalname) public   {... */\n      pop\n      pop\n      pop\n      jump\t// out\n        /* \"contracts/1_Storage.sol\":892:1011  function getuseremial( string  memory uname)  public  view returns(string memory ){... */\n    tag_19:\n        /* \"contracts/1_Storage.sol\":959:972  string memory */\n      0x60\n        /* \"contracts/1_Storage.sol\":988:993  users */\n      0x01\n        /* \"contracts/1_Storage.sol\":994:999  uname */\n      dup3\n        /* \"contracts/1_Storage.sol\":988:1000  users[uname] */\n      mload(0x40)\n      tag_62\n      swap2\n      swap1\n      tag_54\n      jump\t// in\n    tag_62:\n      swap1\n      dup2\n      mstore\n      0x20\n      add\n      mload(0x40)\n      dup1\n      swap2\n      sub\n      swap1\n      keccak256\n        /* \"contracts/1_Storage.sol\":988:1006  users[uname].email */\n      0x01\n      add\n        /* \"contracts/1_Storage.sol\":979:1006  return   users[uname].email */\n      dup1\n      sload\n      tag_63\n      swap1\n      tag_64\n      jump\t// in\n    tag_63:\n      dup1\n      0x1f\n      add\n      0x20\n      dup1\n      swap2\n      div\n      mul\n      0x20\n      add\n      mload(0x40)\n      swap1\n      dup2\n      add\n      0x40\n      mstore\n      dup1\n      swap3\n      swap2\n      swap1\n      dup2\n      dup2\n      mstore\n      0x20\n      add\n      dup3\n      dup1\n      sload\n      tag_65\n      swap1\n      tag_64\n      jump\t// in\n    tag_65:\n      dup1\n      iszero\n      tag_66\n      jumpi\n      dup1\n      0x1f\n      lt\n      tag_67\n      jumpi\n      0x0100\n      dup1\n      dup4\n      sload\n      div\n      mul\n      dup4\n      mstore\n      swap2\n      0x20\n      add\n      swap2\n      jump(tag_66)\n    tag_67:\n      dup3\n      add\n      swap2\n      swap1\n      0x00\n      mstore\n      keccak256(0x00, 0x20)\n      swap1\n    tag_68:\n      dup2\n      sload\n      dup2\n      mstore\n      swap1\n      0x01\n      add\n      swap1\n      0x20\n      add\n      dup1\n      dup4\n      gt\n      tag_68\n      jumpi\n      dup3\n      swap1\n      sub\n      0x1f\n      and\n      dup3\n      add\n      swap2\n    tag_66:\n      pop\n      pop\n      pop\n      pop\n      pop\n      swap1\n      pop\n        /* \"contracts/1_Storage.sol\":892:1011  function getuseremial( string  memory uname)  public  view returns(string memory ){... */\n      swap2\n      swap1\n      pop\n      jump\t// out\n        /* \"contracts/1_Storage.sol\":614:888  function createpatientaccount(string  memory name,string memory  hospitalname,string  memory email,uint168 phnum,uint age ) public {... */\n    tag_25:\n        /* \"contracts/1_Storage.sol\":749:772  User   storage  current */\n      0x00\n        /* \"contracts/1_Storage.sol\":774:779  users */\n      0x01\n        /* \"contracts/1_Storage.sol\":780:784  name */\n      dup7\n        /* \"contracts/1_Storage.sol\":774:785  users[name] */\n      mload(0x40)\n      tag_70\n      swap2\n      swap1\n      tag_54\n      jump\t// in\n    tag_70:\n      swap1\n      dup2\n      mstore\n      0x20\n      add\n      mload(0x40)\n      dup1\n      swap2\n      sub\n      swap1\n      keccak256\n        /* \"contracts/1_Storage.sol\":749:785  User   storage  current =users[name] */\n      swap1\n      pop\n        /* \"contracts/1_Storage.sol\":800:804  name */\n      dup6\n        /* \"contracts/1_Storage.sol\":787:794  current */\n      dup2\n        /* \"contracts/1_Storage.sol\":787:799  current.name */\n      0x00\n      add\n        /* \"contracts/1_Storage.sol\":787:804  current.name=name */\n      swap1\n      dup2\n      tag_71\n      swap2\n      swap1\n      tag_57\n      jump\t// in\n    tag_71:\n      pop\n        /* \"contracts/1_Storage.sol\":820:825  email */\n      dup4\n        /* \"contracts/1_Storage.sol\":806:813  current */\n      dup2\n        /* \"contracts/1_Storage.sol\":806:819  current.email */\n      0x01\n      add\n        /* \"contracts/1_Storage.sol\":806:825  current.email=email */\n      swap1\n      dup2\n      tag_72\n      swap2\n      swap1\n      tag_57\n      jump\t// in\n    tag_72:\n      pop\n        /* \"contracts/1_Storage.sol\":841:846  phnum */\n      dup3\n        /* \"contracts/1_Storage.sol\":827:834  current */\n      dup2\n        /* \"contracts/1_Storage.sol\":827:840  current.phnum */\n      0x02\n      add\n      0x00\n        /* \"contracts/1_Storage.sol\":827:846  current.phnum=phnum */\n      0x0100\n      exp\n      dup2\n      sload\n      dup2\n      0xffffffffffffffffffffffffffffffffffffffffff\n      mul\n      not\n      and\n      swap1\n      dup4\n      0xffffffffffffffffffffffffffffffffffffffffff\n      and\n      mul\n      or\n      swap1\n      sstore\n      pop\n        /* \"contracts/1_Storage.sol\":869:881  hospitalname */\n      dup5\n        /* \"contracts/1_Storage.sol\":848:855  current */\n      dup2\n        /* \"contracts/1_Storage.sol\":848:868  current.hospitalname */\n      0x03\n      add\n        /* \"contracts/1_Storage.sol\":848:881  current.hospitalname=hospitalname */\n      swap1\n      dup2\n      tag_73\n      swap2\n      swap1\n      tag_57\n      jump\t// in\n    tag_73:\n      pop\n        /* \"contracts/1_Storage.sol\":745:888  {... */\n      pop\n        /* \"contracts/1_Storage.sol\":614:888  function createpatientaccount(string  memory name,string memory  hospitalname,string  memory email,uint168 phnum,uint age ) public {... */\n      pop\n      pop\n      pop\n      pop\n      pop\n      jump\t// out\n        /* \"contracts/1_Storage.sol\":558:612  mapping  (string =>Host[]) public  allpatientshospital */\n    tag_29:\n      0x02\n      dup3\n      dup1\n      mload\n      0x20\n      dup2\n      add\n      dup3\n      add\n      dup1\n      mload\n      dup5\n      dup3\n      mstore\n      0x20\n      dup4\n      add\n      0x20\n      dup6\n      add\n      keccak256\n      dup2\n      dup4\n      mstore\n      dup1\n      swap6\n      pop\n      pop\n      pop\n      pop\n      pop\n      pop\n      dup2\n      dup2\n      sload\n      dup2\n      lt\n      tag_74\n      jumpi\n      0x00\n      dup1\n      revert\n    tag_74:\n      swap1\n      0x00\n      mstore\n      keccak256(0x00, 0x20)\n      swap1\n      0x02\n      mul\n      add\n      0x00\n      swap2\n      pop\n      swap2\n      pop\n      pop\n      dup1\n      0x00\n      add\n      dup1\n      sload\n      tag_76\n      swap1\n      tag_64\n      jump\t// in\n    tag_76:\n      dup1\n      0x1f\n      add\n      0x20\n      dup1\n      swap2\n      div\n      mul\n      0x20\n      add\n      mload(0x40)\n      swap1\n      dup2\n      add\n      0x40\n      mstore\n      dup1\n      swap3\n      swap2\n      swap1\n      dup2\n      dup2\n      mstore\n      0x20\n      add\n      dup3\n      dup1\n      sload\n      tag_77\n      swap1\n      tag_64\n      jump\t// in\n    tag_77:\n      dup1\n      iszero\n      tag_78\n      jumpi\n      dup1\n      0x1f\n      lt\n      tag_79\n      jumpi\n      0x0100\n      dup1\n      dup4\n      sload\n      div\n      mul\n      dup4\n      mstore\n      swap2\n      0x20\n      add\n      swap2\n      jump(tag_78)\n    tag_79:\n      dup3\n      add\n      swap2\n      swap1\n      0x00\n      mstore\n      keccak256(0x00, 0x20)\n      swap1\n    tag_80:\n      dup2\n      sload\n      dup2\n      mstore\n      swap1\n      0x01\n      add\n      swap1\n      0x20\n      add\n      dup1\n      dup4\n      gt\n      tag_80\n      jumpi\n      dup3\n      swap1\n      sub\n      0x1f\n      and\n      dup3\n      add\n      swap2\n    tag_78:\n      pop\n      pop\n      pop\n      pop\n      pop\n      swap1\n      dup1\n      0x01\n      add\n      0x00\n      swap1\n      sload\n      swap1\n      0x0100\n      exp\n      swap1\n      div\n      0xffffffffffffffffffffffffff\n      and\n      swap1\n      pop\n      dup3\n      jump\t// out\n        /* \"contracts/1_Storage.sol\":1523:1671  function getallpatientsinhospital( string memory hospitalname) public  returns (Host[] memory) {... */\n    tag_34:\n        /* \"contracts/1_Storage.sol\":1603:1616  Host[] memory */\n      0x60\n        /* \"contracts/1_Storage.sol\":1633:1652  allpatientshospital */\n      0x02\n        /* \"contracts/1_Storage.sol\":1653:1665  hospitalname */\n      dup3\n        /* \"contracts/1_Storage.sol\":1633:1666  allpatientshospital[hospitalname] */\n      mload(0x40)\n      tag_82\n      swap2\n      swap1\n      tag_54\n      jump\t// in\n    tag_82:\n      swap1\n      dup2\n      mstore\n      0x20\n      add\n      mload(0x40)\n      dup1\n      swap2\n      sub\n      swap1\n      keccak256\n        /* \"contracts/1_Storage.sol\":1625:1666  return  allpatientshospital[hospitalname] */\n      dup1\n      sload\n      dup1\n      0x20\n      mul\n      0x20\n      add\n      mload(0x40)\n      swap1\n      dup2\n      add\n      0x40\n      mstore\n      dup1\n      swap3\n      swap2\n      swap1\n      dup2\n      dup2\n      mstore\n      0x20\n      add\n      0x00\n      swap1\n    tag_83:\n      dup3\n      dup3\n      lt\n      iszero\n      tag_84\n      jumpi\n      dup4\n      dup3\n      swap1\n      0x00\n      mstore\n      keccak256(0x00, 0x20)\n      swap1\n      0x02\n      mul\n      add\n      mload(0x40)\n      dup1\n      0x40\n      add\n      0x40\n      mstore\n      swap1\n      dup2\n      0x00\n      dup3\n      add\n      dup1\n      sload\n      tag_86\n      swap1\n      tag_64\n      jump\t// in\n    tag_86:\n      dup1\n      0x1f\n      add\n      0x20\n      dup1\n      swap2\n      div\n      mul\n      0x20\n      add\n      mload(0x40)\n      swap1\n      dup2\n      add\n      0x40\n      mstore\n      dup1\n      swap3\n      swap2\n      swap1\n      dup2\n      dup2\n      mstore\n      0x20\n      add\n      dup3\n      dup1\n      sload\n      tag_87\n      swap1\n      tag_64\n      jump\t// in\n    tag_87:\n      dup1\n      iszero\n      tag_88\n      jumpi\n      dup1\n      0x1f\n      lt\n      tag_89\n      jumpi\n      0x0100\n      dup1\n      dup4\n      sload\n      div\n      mul\n      dup4\n      mstore\n      swap2\n      0x20\n      add\n      swap2\n      jump(tag_88)\n    tag_89:\n      dup3\n      add\n      swap2\n      swap1\n      0x00\n      mstore\n      keccak256(0x00, 0x20)\n      swap1\n    tag_90:\n      dup2\n      sload\n      dup2\n      mstore\n      swap1\n      0x01\n      add\n      swap1\n      0x20\n      add\n      dup1\n      dup4\n      gt\n      tag_90\n      jumpi\n      dup3\n      swap1\n      sub\n      0x1f\n      and\n      dup3\n      add\n      swap2\n    tag_88:\n      pop\n      pop\n      pop\n      pop\n      pop\n      dup2\n      mstore\n      0x20\n      add\n      0x01\n      dup3\n      add\n      0x00\n      swap1\n      sload\n      swap1\n      0x0100\n      exp\n      swap1\n      div\n      0xffffffffffffffffffffffffff\n      and\n      0xffffffffffffffffffffffffff\n      and\n      0xffffffffffffffffffffffffff\n      and\n      dup2\n      mstore\n      pop\n      pop\n      dup2\n      mstore\n      0x20\n      add\n      swap1\n      0x01\n      add\n      swap1\n      jump(tag_83)\n    tag_84:\n      pop\n      pop\n      pop\n      pop\n      swap1\n      pop\n        /* \"contracts/1_Storage.sol\":1523:1671  function getallpatientsinhospital( string memory hospitalname) public  returns (Host[] memory) {... */\n      swap2\n      swap1\n      pop\n      jump\t// out\n        /* \"contracts/1_Storage.sol\":1354:1519  function getuser(string  memory hospitalname, string memory name)  public  view   returns(  Host memory )     {... */\n    tag_40:\n        /* \"contracts/1_Storage.sol\":1446:1457  Host memory */\n      tag_91\n      tag_92\n      jump\t// in\n    tag_91:\n        /* \"contracts/1_Storage.sol\":1482:1490  patients */\n      0x00\n        /* \"contracts/1_Storage.sol\":1491:1503  hospitalname */\n      dup4\n        /* \"contracts/1_Storage.sol\":1482:1504  patients[hospitalname] */\n      mload(0x40)\n      tag_94\n      swap2\n      swap1\n      tag_54\n      jump\t// in\n    tag_94:\n      swap1\n      dup2\n      mstore\n      0x20\n      add\n      mload(0x40)\n      dup1\n      swap2\n      sub\n      swap1\n      keccak256\n        /* \"contracts/1_Storage.sol\":1505:1509  name */\n      dup3\n        /* \"contracts/1_Storage.sol\":1482:1510  patients[hospitalname][name] */\n      mload(0x40)\n      tag_95\n      swap2\n      swap1\n      tag_54\n      jump\t// in\n    tag_95:\n      swap1\n      dup2\n      mstore\n      0x20\n      add\n      mload(0x40)\n      dup1\n      swap2\n      sub\n      swap1\n      keccak256\n        /* \"contracts/1_Storage.sol\":1474:1510  return  patients[hospitalname][name] */\n      mload(0x40)\n      dup1\n      0x40\n      add\n      0x40\n      mstore\n      swap1\n      dup2\n      0x00\n      dup3\n      add\n      dup1\n      sload\n      tag_96\n      swap1\n      tag_64\n      jump\t// in\n    tag_96:\n      dup1\n      0x1f\n      add\n      0x20\n      dup1\n      swap2\n      div\n      mul\n      0x20\n      add\n      mload(0x40)\n      swap1\n      dup2\n      add\n      0x40\n      mstore\n      dup1\n      swap3\n      swap2\n      swap1\n      dup2\n      dup2\n      mstore\n      0x20\n      add\n      dup3\n      dup1\n      sload\n      tag_97\n      swap1\n      tag_64\n      jump\t// in\n    tag_97:\n      dup1\n      iszero\n      tag_98\n      jumpi\n      dup1\n      0x1f\n      lt\n      tag_99\n      jumpi\n      0x0100\n      dup1\n      dup4\n      sload\n      div\n      mul\n      dup4\n      mstore\n      swap2\n      0x20\n      add\n      swap2\n      jump(tag_98)\n    tag_99:\n      dup3\n      add\n      swap2\n      swap1\n      0x00\n      mstore\n      keccak256(0x00, 0x20)\n      swap1\n    tag_100:\n      dup2\n      sload\n      dup2\n      mstore\n      swap1\n      0x01\n      add\n      swap1\n      0x20\n      add\n      dup1\n      dup4\n      gt\n      tag_100\n      jumpi\n      dup3\n      swap1\n      sub\n      0x1f\n      and\n      dup3\n      add\n      swap2\n    tag_98:\n      pop\n      pop\n      pop\n      pop\n      pop\n      dup2\n      mstore\n      0x20\n      add\n      0x01\n      dup3\n      add\n      0x00\n      swap1\n      sload\n      swap1\n      0x0100\n      exp\n      swap1\n      div\n      0xffffffffffffffffffffffffff\n      and\n      0xffffffffffffffffffffffffff\n      and\n      0xffffffffffffffffffffffffff\n      and\n      dup2\n      mstore\n      pop\n      pop\n      swap1\n      pop\n        /* \"contracts/1_Storage.sol\":1354:1519  function getuser(string  memory hospitalname, string memory name)  public  view   returns(  Host memory )     {... */\n      swap3\n      swap2\n      pop\n      pop\n      jump\t// out\n        /* \"contracts/1_Storage.sol\":515:556  mapping  ( string => User ) public  users */\n    tag_45:\n      0x01\n      dup2\n      dup1\n      mload\n      0x20\n      dup2\n      add\n      dup3\n      add\n      dup1\n      mload\n      dup5\n      dup3\n      mstore\n      0x20\n      dup4\n      add\n      0x20\n      dup6\n      add\n      keccak256\n      dup2\n      dup4\n      mstore\n      dup1\n      swap6\n      pop\n      pop\n      pop\n      pop\n      pop\n      pop\n      0x00\n      swap2\n      pop\n      swap1\n      pop\n      dup1\n      0x00\n      add\n      dup1\n      sload\n      tag_101\n      swap1\n      tag_64\n      jump\t// in\n    tag_101:\n      dup1\n      0x1f\n      add\n      0x20\n      dup1\n      swap2\n      div\n      mul\n      0x20\n      add\n      mload(0x40)\n      swap1\n      dup2\n      add\n      0x40\n      mstore\n      dup1\n      swap3\n      swap2\n      swap1\n      dup2\n      dup2\n      mstore\n      0x20\n      add\n      dup3\n      dup1\n      sload\n      tag_102\n      swap1\n      tag_64\n      jump\t// in\n    tag_102:\n      dup1\n      iszero\n      tag_103\n      jumpi\n      dup1\n      0x1f\n      lt\n      tag_104\n      jumpi\n      0x0100\n      dup1\n      dup4\n      sload\n      div\n      mul\n      dup4\n      mstore\n      swap2\n      0x20\n      add\n      swap2\n      jump(tag_103)\n    tag_104:\n      dup3\n      add\n      swap2\n      swap1\n      0x00\n      mstore\n      keccak256(0x00, 0x20)\n      swap1\n    tag_105:\n      dup2\n      sload\n      dup2\n      mstore\n      swap1\n      0x01\n      add\n      swap1\n      0x20\n      add\n      dup1\n      dup4\n      gt\n      tag_105\n      jumpi\n      dup3\n      swap1\n      sub\n      0x1f\n      and\n      dup3\n      add\n      swap2\n    tag_103:\n      pop\n      pop\n      pop\n      pop\n      pop\n      swap1\n      dup1\n      0x01\n      add\n      dup1\n      sload\n      tag_106\n      swap1\n      tag_64\n      jump\t// in\n    tag_106:\n      dup1\n      0x1f\n      add\n      0x20\n      dup1\n      swap2\n      div\n      mul\n      0x20\n      add\n      mload(0x40)\n      swap1\n      dup2\n      add\n      0x40\n      mstore\n      dup1\n      swap3\n      swap2\n      swap1\n      dup2\n      dup2\n      mstore\n      0x20\n      add\n      dup3\n      dup1\n      sload\n      tag_107\n      swap1\n      tag_64\n      jump\t// in\n    tag_107:\n      dup1\n      iszero\n      tag_108\n      jumpi\n      dup1\n      0x1f\n      lt\n      tag_109\n      jumpi\n      0x0100\n      dup1\n      dup4\n      sload\n      div\n      mul\n      dup4\n      mstore\n      swap2\n      0x20\n      add\n      swap2\n      jump(tag_108)\n    tag_109:\n      dup3\n      add\n      swap2\n      swap1\n      0x00\n      mstore\n      keccak256(0x00, 0x20)\n      swap1\n    tag_110:\n      dup2\n      sload\n      dup2\n      mstore\n      swap1\n      0x01\n      add\n      swap1\n      0x20\n      add\n      dup1\n      dup4\n      gt\n      tag_110\n      jumpi\n      dup3\n      swap1\n      sub\n      0x1f\n      and\n      dup3\n      add\n      swap2\n    tag_108:\n      pop\n      pop\n      pop\n      pop\n      pop\n      swap1\n      dup1\n      0x02\n      add\n      0x00\n      swap1\n      sload\n      swap1\n      0x0100\n      exp\n      swap1\n      div\n      0xffffffffffffffffffffffffffffffffffffffffff\n      and\n      swap1\n      dup1\n      0x03\n      add\n      dup1\n      sload\n      tag_111\n      swap1\n      tag_64\n      jump\t// in\n    tag_111:\n      dup1\n      0x1f\n      add\n      0x20\n      dup1\n      swap2\n      div\n      mul\n      0x20\n      add\n      mload(0x40)\n      swap1\n      dup2\n      add\n      0x40\n      mstore\n      dup1\n      swap3\n      swap2\n      swap1\n      dup2\n      dup2\n      mstore\n      0x20\n      add\n      dup3\n      dup1\n      sload\n      tag_112\n      swap1\n      tag_64\n      jump\t// in\n    tag_112:\n      dup1\n      iszero\n      tag_113\n      jumpi\n      dup1\n      0x1f\n      lt\n      tag_114\n      jumpi\n      0x0100\n      dup1\n      dup4\n      sload\n      div\n      mul\n      dup4\n      mstore\n      swap2\n      0x20\n      add\n      swap2\n      jump(tag_113)\n    tag_114:\n      dup3\n      add\n      swap2\n      swap1\n      0x00\n      mstore\n      keccak256(0x00, 0x20)\n      swap1\n    tag_115:\n      dup2\n      sload\n      dup2\n      mstore\n      swap1\n      0x01\n      add\n      swap1\n      0x20\n      add\n      dup1\n      dup4\n      gt\n      tag_115\n      jumpi\n      dup3\n      swap1\n      sub\n      0x1f\n      and\n      dup3\n      add\n      swap2\n    tag_113:\n      pop\n      pop\n      pop\n      pop\n      pop\n      swap1\n      pop\n      dup5\n      jump\t// out\n        /* \"contracts/1_Storage.sol\":451:509  mapping(string => mapping(string => Host)) public patients */\n    tag_50:\n      0x00\n      dup3\n      dup1\n      mload\n      0x20\n      dup2\n      add\n      dup3\n      add\n      dup1\n      mload\n      dup5\n      dup3\n      mstore\n      0x20\n      dup4\n      add\n      0x20\n      dup6\n      add\n      keccak256\n      dup2\n      dup4\n      mstore\n      dup1\n      swap6\n      pop\n      pop\n      pop\n      pop\n      pop\n      pop\n      dup2\n      dup1\n      mload\n      0x20\n      dup2\n      add\n      dup3\n      add\n      dup1\n      mload\n      dup5\n      dup3\n      mstore\n      0x20\n      dup4\n      add\n      0x20\n      dup6\n      add\n      keccak256\n      dup2\n      dup4\n      mstore\n      dup1\n      swap6\n      pop\n      pop\n      pop\n      pop\n      pop\n      pop\n      0x00\n      swap2\n      pop\n      swap2\n      pop\n      pop\n      dup1\n      0x00\n      add\n      dup1\n      sload\n      tag_116\n      swap1\n      tag_64\n      jump\t// in\n    tag_116:\n      dup1\n      0x1f\n      add\n      0x20\n      dup1\n      swap2\n      div\n      mul\n      0x20\n      add\n      mload(0x40)\n      swap1\n      dup2\n      add\n      0x40\n      mstore\n      dup1\n      swap3\n      swap2\n      swap1\n      dup2\n      dup2\n      mstore\n      0x20\n      add\n      dup3\n      dup1\n      sload\n      tag_117\n      swap1\n      tag_64\n      jump\t// in\n    tag_117:\n      dup1\n      iszero\n      tag_118\n      jumpi\n      dup1\n      0x1f\n      lt\n      tag_119\n      jumpi\n      0x0100\n      dup1\n      dup4\n      sload\n      div\n      mul\n      dup4\n      mstore\n      swap2\n      0x20\n      add\n      swap2\n      jump(tag_118)\n    tag_119:\n      dup3\n      add\n      swap2\n      swap1\n      0x00\n      mstore\n      keccak256(0x00, 0x20)\n      swap1\n    tag_120:\n      dup2\n      sload\n      dup2\n      mstore\n      swap1\n      0x01\n      add\n      swap1\n      0x20\n      add\n      dup1\n      dup4\n      gt\n      tag_120\n      jumpi\n      dup3\n      swap1\n      sub\n      0x1f\n      and\n      dup3\n      add\n      swap2\n    tag_118:\n      pop\n      pop\n      pop\n      pop\n      pop\n      swap1\n      dup1\n      0x01\n      add\n      0x00\n      swap1\n      sload\n      swap1\n      0x0100\n      exp\n      swap1\n      div\n      0xffffffffffffffffffffffffff\n      and\n      swap1\n      pop\n      dup3\n      jump\t// out\n    tag_92:\n      mload(0x40)\n      dup1\n      0x40\n      add\n      0x40\n      mstore\n      dup1\n      0x60\n      dup2\n      mstore\n      0x20\n      add\n      and(0xffffffffffffffffffffffffff, 0x00)\n      dup2\n      mstore\n      pop\n      swap1\n      jump\t// out\n        /* \"#utility.yul\":7:82   */\n    tag_121:\n        /* \"#utility.yul\":40:46   */\n      0x00\n        /* \"#utility.yul\":73:75   */\n      0x40\n        /* \"#utility.yul\":67:76   */\n      mload\n        /* \"#utility.yul\":57:76   */\n      swap1\n      pop\n        /* \"#utility.yul\":7:82   */\n      swap1\n      jump\t// out\n        /* \"#utility.yul\":88:205   */\n    tag_122:\n        /* \"#utility.yul\":197:198   */\n      0x00\n        /* \"#utility.yul\":194:195   */\n      0x00\n        /* \"#utility.yul\":187:199   */\n      revert\n        /* \"#utility.yul\":211:328   */\n    tag_123:\n        /* \"#utility.yul\":320:321   */\n      0x00\n        /* \"#utility.yul\":317:318   */\n      0x00\n        /* \"#utility.yul\":310:322   */\n      revert\n        /* \"#utility.yul\":334:451   */\n    tag_124:\n        /* \"#utility.yul\":443:444   */\n      0x00\n        /* \"#utility.yul\":440:441   */\n      0x00\n        /* \"#utility.yul\":433:445   */\n      revert\n        /* \"#utility.yul\":457:574   */\n    tag_125:\n        /* \"#utility.yul\":566:567   */\n      0x00\n        /* \"#utility.yul\":563:564   */\n      0x00\n        /* \"#utility.yul\":556:568   */\n      revert\n        /* \"#utility.yul\":580:682   */\n    tag_126:\n        /* \"#utility.yul\":621:627   */\n      0x00\n        /* \"#utility.yul\":672:674   */\n      0x1f\n        /* \"#utility.yul\":668:675   */\n      not\n        /* \"#utility.yul\":663:665   */\n      0x1f\n        /* \"#utility.yul\":656:661   */\n      dup4\n        /* \"#utility.yul\":652:666   */\n      add\n        /* \"#utility.yul\":648:676   */\n      and\n        /* \"#utility.yul\":638:676   */\n      swap1\n      pop\n        /* \"#utility.yul\":580:682   */\n      swap2\n      swap1\n      pop\n      jump\t// out\n        /* \"#utility.yul\":688:868   */\n    tag_127:\n        /* \"#utility.yul\":736:813   */\n      0x4e487b7100000000000000000000000000000000000000000000000000000000\n        /* \"#utility.yul\":733:734   */\n      0x00\n        /* \"#utility.yul\":726:814   */\n      mstore\n        /* \"#utility.yul\":833:837   */\n      0x41\n        /* \"#utility.yul\":830:831   */\n      0x04\n        /* \"#utility.yul\":823:838   */\n      mstore\n        /* \"#utility.yul\":857:861   */\n      0x24\n        /* \"#utility.yul\":854:855   */\n      0x00\n        /* \"#utility.yul\":847:862   */\n      revert\n        /* \"#utility.yul\":874:1155   */\n    tag_128:\n        /* \"#utility.yul\":957:984   */\n      tag_187\n        /* \"#utility.yul\":979:983   */\n      dup3\n        /* \"#utility.yul\":957:984   */\n      tag_126\n      jump\t// in\n    tag_187:\n        /* \"#utility.yul\":949:955   */\n      dup2\n        /* \"#utility.yul\":945:985   */\n      add\n        /* \"#utility.yul\":1087:1093   */\n      dup2\n        /* \"#utility.yul\":1075:1085   */\n      dup2\n        /* \"#utility.yul\":1072:1094   */\n      lt\n        /* \"#utility.yul\":1051:1069   */\n      0xffffffffffffffff\n        /* \"#utility.yul\":1039:1049   */\n      dup3\n        /* \"#utility.yul\":1036:1070   */\n      gt\n        /* \"#utility.yul\":1033:1095   */\n      or\n        /* \"#utility.yul\":1030:1118   */\n      iszero\n      tag_188\n      jumpi\n        /* \"#utility.yul\":1098:1116   */\n      tag_189\n      tag_127\n      jump\t// in\n    tag_189:\n        /* \"#utility.yul\":1030:1118   */\n    tag_188:\n        /* \"#utility.yul\":1138:1148   */\n      dup1\n        /* \"#utility.yul\":1134:1136   */\n      0x40\n        /* \"#utility.yul\":1127:1149   */\n      mstore\n        /* \"#utility.yul\":917:1155   */\n      pop\n        /* \"#utility.yul\":874:1155   */\n      pop\n      pop\n      jump\t// out\n        /* \"#utility.yul\":1161:1290   */\n    tag_129:\n        /* \"#utility.yul\":1195:1201   */\n      0x00\n        /* \"#utility.yul\":1222:1242   */\n      tag_191\n      tag_121\n      jump\t// in\n    tag_191:\n        /* \"#utility.yul\":1212:1242   */\n      swap1\n      pop\n        /* \"#utility.yul\":1251:1284   */\n      tag_192\n        /* \"#utility.yul\":1279:1283   */\n      dup3\n        /* \"#utility.yul\":1271:1277   */\n      dup3\n        /* \"#utility.yul\":1251:1284   */\n      tag_128\n      jump\t// in\n    tag_192:\n        /* \"#utility.yul\":1161:1290   */\n      swap2\n      swap1\n      pop\n      jump\t// out\n        /* \"#utility.yul\":1296:1604   */\n    tag_130:\n        /* \"#utility.yul\":1358:1362   */\n      0x00\n        /* \"#utility.yul\":1448:1466   */\n      0xffffffffffffffff\n        /* \"#utility.yul\":1440:1446   */\n      dup3\n        /* \"#utility.yul\":1437:1467   */\n      gt\n        /* \"#utility.yul\":1434:1490   */\n      iszero\n      tag_194\n      jumpi\n        /* \"#utility.yul\":1470:1488   */\n      tag_195\n      tag_127\n      jump\t// in\n    tag_195:\n        /* \"#utility.yul\":1434:1490   */\n    tag_194:\n        /* \"#utility.yul\":1508:1537   */\n      tag_196\n        /* \"#utility.yul\":1530:1536   */\n      dup3\n        /* \"#utility.yul\":1508:1537   */\n      tag_126\n      jump\t// in\n    tag_196:\n        /* \"#utility.yul\":1500:1537   */\n      swap1\n      pop\n        /* \"#utility.yul\":1592:1596   */\n      0x20\n        /* \"#utility.yul\":1586:1590   */\n      dup2\n        /* \"#utility.yul\":1582:1597   */\n      add\n        /* \"#utility.yul\":1574:1597   */\n      swap1\n      pop\n        /* \"#utility.yul\":1296:1604   */\n      swap2\n      swap1\n      pop\n      jump\t// out\n        /* \"#utility.yul\":1610:1758   */\n    tag_131:\n        /* \"#utility.yul\":1708:1714   */\n      dup3\n        /* \"#utility.yul\":1703:1706   */\n      dup2\n        /* \"#utility.yul\":1698:1701   */\n      dup4\n        /* \"#utility.yul\":1685:1715   */\n      calldatacopy\n        /* \"#utility.yul\":1749:1750   */\n      0x00\n        /* \"#utility.yul\":1740:1746   */\n      dup4\n        /* \"#utility.yul\":1735:1738   */\n      dup4\n        /* \"#utility.yul\":1731:1747   */\n      add\n        /* \"#utility.yul\":1724:1751   */\n      mstore\n        /* \"#utility.yul\":1610:1758   */\n      pop\n      pop\n      pop\n      jump\t// out\n        /* \"#utility.yul\":1764:2189   */\n    tag_132:\n        /* \"#utility.yul\":1842:1847   */\n      0x00\n        /* \"#utility.yul\":1867:1933   */\n      tag_199\n        /* \"#utility.yul\":1883:1932   */\n      tag_200\n        /* \"#utility.yul\":1925:1931   */\n      dup5\n        /* \"#utility.yul\":1883:1932   */\n      tag_130\n      jump\t// in\n    tag_200:\n        /* \"#utility.yul\":1867:1933   */\n      tag_129\n      jump\t// in\n    tag_199:\n        /* \"#utility.yul\":1858:1933   */\n      swap1\n      pop\n        /* \"#utility.yul\":1956:1962   */\n      dup3\n        /* \"#utility.yul\":1949:1954   */\n      dup2\n        /* \"#utility.yul\":1942:1963   */\n      mstore\n        /* \"#utility.yul\":1994:1998   */\n      0x20\n        /* \"#utility.yul\":1987:1992   */\n      dup2\n        /* \"#utility.yul\":1983:1999   */\n      add\n        /* \"#utility.yul\":2032:2035   */\n      dup5\n        /* \"#utility.yul\":2023:2029   */\n      dup5\n        /* \"#utility.yul\":2018:2021   */\n      dup5\n        /* \"#utility.yul\":2014:2030   */\n      add\n        /* \"#utility.yul\":2011:2036   */\n      gt\n        /* \"#utility.yul\":2008:2120   */\n      iszero\n      tag_201\n      jumpi\n        /* \"#utility.yul\":2039:2118   */\n      tag_202\n      tag_125\n      jump\t// in\n    tag_202:\n        /* \"#utility.yul\":2008:2120   */\n    tag_201:\n        /* \"#utility.yul\":2129:2183   */\n      tag_203\n        /* \"#utility.yul\":2176:2182   */\n      dup5\n        /* \"#utility.yul\":2171:2174   */\n      dup3\n        /* \"#utility.yul\":2166:2169   */\n      dup6\n        /* \"#utility.yul\":2129:2183   */\n      tag_131\n      jump\t// in\n    tag_203:\n        /* \"#utility.yul\":1848:2189   */\n      pop\n        /* \"#utility.yul\":1764:2189   */\n      swap4\n      swap3\n      pop\n      pop\n      pop\n      jump\t// out\n        /* \"#utility.yul\":2209:2549   */\n    tag_133:\n        /* \"#utility.yul\":2265:2270   */\n      0x00\n        /* \"#utility.yul\":2314:2317   */\n      dup3\n        /* \"#utility.yul\":2307:2311   */\n      0x1f\n        /* \"#utility.yul\":2299:2305   */\n      dup4\n        /* \"#utility.yul\":2295:2312   */\n      add\n        /* \"#utility.yul\":2291:2318   */\n      slt\n        /* \"#utility.yul\":2281:2403   */\n      tag_205\n      jumpi\n        /* \"#utility.yul\":2322:2401   */\n      tag_206\n      tag_124\n      jump\t// in\n    tag_206:\n        /* \"#utility.yul\":2281:2403   */\n    tag_205:\n        /* \"#utility.yul\":2439:2445   */\n      dup2\n        /* \"#utility.yul\":2426:2446   */\n      calldataload\n        /* \"#utility.yul\":2464:2543   */\n      tag_207\n        /* \"#utility.yul\":2539:2542   */\n      dup5\n        /* \"#utility.yul\":2531:2537   */\n      dup3\n        /* \"#utility.yul\":2524:2528   */\n      0x20\n        /* \"#utility.yul\":2516:2522   */\n      dup7\n        /* \"#utility.yul\":2512:2529   */\n      add\n        /* \"#utility.yul\":2464:2543   */\n      tag_132\n      jump\t// in\n    tag_207:\n        /* \"#utility.yul\":2455:2543   */\n      swap2\n      pop\n        /* \"#utility.yul\":2271:2549   */\n      pop\n        /* \"#utility.yul\":2209:2549   */\n      swap3\n      swap2\n      pop\n      pop\n      jump\t// out\n        /* \"#utility.yul\":2555:2667   */\n    tag_134:\n        /* \"#utility.yul\":2592:2599   */\n      0x00\n        /* \"#utility.yul\":2632:2660   */\n      0xffffffffffffffffffffffffff\n        /* \"#utility.yul\":2625:2630   */\n      dup3\n        /* \"#utility.yul\":2621:2661   */\n      and\n        /* \"#utility.yul\":2610:2661   */\n      swap1\n      pop\n        /* \"#utility.yul\":2555:2667   */\n      swap2\n      swap1\n      pop\n      jump\t// out\n        /* \"#utility.yul\":2673:2795   */\n    tag_135:\n        /* \"#utility.yul\":2746:2770   */\n      tag_210\n        /* \"#utility.yul\":2764:2769   */\n      dup2\n        /* \"#utility.yul\":2746:2770   */\n      tag_134\n      jump\t// in\n    tag_210:\n        /* \"#utility.yul\":2739:2744   */\n      dup2\n        /* \"#utility.yul\":2736:2771   */\n      eq\n        /* \"#utility.yul\":2726:2789   */\n      tag_211\n      jumpi\n        /* \"#utility.yul\":2785:2786   */\n      0x00\n        /* \"#utility.yul\":2782:2783   */\n      0x00\n        /* \"#utility.yul\":2775:2787   */\n      revert\n        /* \"#utility.yul\":2726:2789   */\n    tag_211:\n        /* \"#utility.yul\":2673:2795   */\n      pop\n      jump\t// out\n        /* \"#utility.yul\":2801:2940   */\n    tag_136:\n        /* \"#utility.yul\":2847:2852   */\n      0x00\n        /* \"#utility.yul\":2885:2891   */\n      dup2\n        /* \"#utility.yul\":2872:2892   */\n      calldataload\n        /* \"#utility.yul\":2863:2892   */\n      swap1\n      pop\n        /* \"#utility.yul\":2901:2934   */\n      tag_213\n        /* \"#utility.yul\":2928:2933   */\n      dup2\n        /* \"#utility.yul\":2901:2934   */\n      tag_135\n      jump\t// in\n    tag_213:\n        /* \"#utility.yul\":2801:2940   */\n      swap3\n      swap2\n      pop\n      pop\n      jump\t// out\n        /* \"#utility.yul\":2946:3925   */\n    tag_14:\n        /* \"#utility.yul\":3043:3049   */\n      0x00\n        /* \"#utility.yul\":3051:3057   */\n      0x00\n        /* \"#utility.yul\":3059:3065   */\n      0x00\n        /* \"#utility.yul\":3108:3110   */\n      0x60\n        /* \"#utility.yul\":3096:3105   */\n      dup5\n        /* \"#utility.yul\":3087:3094   */\n      dup7\n        /* \"#utility.yul\":3083:3106   */\n      sub\n        /* \"#utility.yul\":3079:3111   */\n      slt\n        /* \"#utility.yul\":3076:3195   */\n      iszero\n      tag_215\n      jumpi\n        /* \"#utility.yul\":3114:3193   */\n      tag_216\n      tag_122\n      jump\t// in\n    tag_216:\n        /* \"#utility.yul\":3076:3195   */\n    tag_215:\n        /* \"#utility.yul\":3262:3263   */\n      0x00\n        /* \"#utility.yul\":3251:3260   */\n      dup5\n        /* \"#utility.yul\":3247:3264   */\n      add\n        /* \"#utility.yul\":3234:3265   */\n      calldataload\n        /* \"#utility.yul\":3292:3310   */\n      0xffffffffffffffff\n        /* \"#utility.yul\":3284:3290   */\n      dup2\n        /* \"#utility.yul\":3281:3311   */\n      gt\n        /* \"#utility.yul\":3278:3395   */\n      iszero\n      tag_217\n      jumpi\n        /* \"#utility.yul\":3314:3393   */\n      tag_218\n      tag_123\n      jump\t// in\n    tag_218:\n        /* \"#utility.yul\":3278:3395   */\n    tag_217:\n        /* \"#utility.yul\":3419:3482   */\n      tag_219\n        /* \"#utility.yul\":3474:3481   */\n      dup7\n        /* \"#utility.yul\":3465:3471   */\n      dup3\n        /* \"#utility.yul\":3454:3463   */\n      dup8\n        /* \"#utility.yul\":3450:3472   */\n      add\n        /* \"#utility.yul\":3419:3482   */\n      tag_133\n      jump\t// in\n    tag_219:\n        /* \"#utility.yul\":3409:3482   */\n      swap4\n      pop\n        /* \"#utility.yul\":3205:3492   */\n      pop\n        /* \"#utility.yul\":3531:3533   */\n      0x20\n        /* \"#utility.yul\":3557:3610   */\n      tag_220\n        /* \"#utility.yul\":3602:3609   */\n      dup7\n        /* \"#utility.yul\":3593:3599   */\n      dup3\n        /* \"#utility.yul\":3582:3591   */\n      dup8\n        /* \"#utility.yul\":3578:3600   */\n      add\n        /* \"#utility.yul\":3557:3610   */\n      tag_136\n      jump\t// in\n    tag_220:\n        /* \"#utility.yul\":3547:3610   */\n      swap3\n      pop\n        /* \"#utility.yul\":3502:3620   */\n      pop\n        /* \"#utility.yul\":3687:3689   */\n      0x40\n        /* \"#utility.yul\":3676:3685   */\n      dup5\n        /* \"#utility.yul\":3672:3690   */\n      add\n        /* \"#utility.yul\":3659:3691   */\n      calldataload\n        /* \"#utility.yul\":3718:3736   */\n      0xffffffffffffffff\n        /* \"#utility.yul\":3710:3716   */\n      dup2\n        /* \"#utility.yul\":3707:3737   */\n      gt\n        /* \"#utility.yul\":3704:3821   */\n      iszero\n      tag_221\n      jumpi\n        /* \"#utility.yul\":3740:3819   */\n      tag_222\n      tag_123\n      jump\t// in\n    tag_222:\n        /* \"#utility.yul\":3704:3821   */\n    tag_221:\n        /* \"#utility.yul\":3845:3908   */\n      tag_223\n        /* \"#utility.yul\":3900:3907   */\n      dup7\n        /* \"#utility.yul\":3891:3897   */\n      dup3\n        /* \"#utility.yul\":3880:3889   */\n      dup8\n        /* \"#utility.yul\":3876:3898   */\n      add\n        /* \"#utility.yul\":3845:3908   */\n      tag_133\n      jump\t// in\n    tag_223:\n        /* \"#utility.yul\":3835:3908   */\n      swap2\n      pop\n        /* \"#utility.yul\":3630:3918   */\n      pop\n        /* \"#utility.yul\":2946:3925   */\n      swap3\n      pop\n      swap3\n      pop\n      swap3\n      jump\t// out\n        /* \"#utility.yul\":3931:4440   */\n    tag_18:\n        /* \"#utility.yul\":4000:4006   */\n      0x00\n        /* \"#utility.yul\":4049:4051   */\n      0x20\n        /* \"#utility.yul\":4037:4046   */\n      dup3\n        /* \"#utility.yul\":4028:4035   */\n      dup5\n        /* \"#utility.yul\":4024:4047   */\n      sub\n        /* \"#utility.yul\":4020:4052   */\n      slt\n        /* \"#utility.yul\":4017:4136   */\n      iszero\n      tag_225\n      jumpi\n        /* \"#utility.yul\":4055:4134   */\n      tag_226\n      tag_122\n      jump\t// in\n    tag_226:\n        /* \"#utility.yul\":4017:4136   */\n    tag_225:\n        /* \"#utility.yul\":4203:4204   */\n      0x00\n        /* \"#utility.yul\":4192:4201   */\n      dup3\n        /* \"#utility.yul\":4188:4205   */\n      add\n        /* \"#utility.yul\":4175:4206   */\n      calldataload\n        /* \"#utility.yul\":4233:4251   */\n      0xffffffffffffffff\n        /* \"#utility.yul\":4225:4231   */\n      dup2\n        /* \"#utility.yul\":4222:4252   */\n      gt\n        /* \"#utility.yul\":4219:4336   */\n      iszero\n      tag_227\n      jumpi\n        /* \"#utility.yul\":4255:4334   */\n      tag_228\n      tag_123\n      jump\t// in\n    tag_228:\n        /* \"#utility.yul\":4219:4336   */\n    tag_227:\n        /* \"#utility.yul\":4360:4423   */\n      tag_229\n        /* \"#utility.yul\":4415:4422   */\n      dup5\n        /* \"#utility.yul\":4406:4412   */\n      dup3\n        /* \"#utility.yul\":4395:4404   */\n      dup6\n        /* \"#utility.yul\":4391:4413   */\n      add\n        /* \"#utility.yul\":4360:4423   */\n      tag_133\n      jump\t// in\n    tag_229:\n        /* \"#utility.yul\":4350:4423   */\n      swap2\n      pop\n        /* \"#utility.yul\":4146:4433   */\n      pop\n        /* \"#utility.yul\":3931:4440   */\n      swap3\n      swap2\n      pop\n      pop\n      jump\t// out\n        /* \"#utility.yul\":4446:4545   */\n    tag_137:\n        /* \"#utility.yul\":4498:4504   */\n      0x00\n        /* \"#utility.yul\":4532:4537   */\n      dup2\n        /* \"#utility.yul\":4526:4538   */\n      mload\n        /* \"#utility.yul\":4516:4538   */\n      swap1\n      pop\n        /* \"#utility.yul\":4446:4545   */\n      swap2\n      swap1\n      pop\n      jump\t// out\n        /* \"#utility.yul\":4551:4720   */\n    tag_138:\n        /* \"#utility.yul\":4635:4646   */\n      0x00\n        /* \"#utility.yul\":4669:4675   */\n      dup3\n        /* \"#utility.yul\":4664:4667   */\n      dup3\n        /* \"#utility.yul\":4657:4676   */\n      mstore\n        /* \"#utility.yul\":4709:4713   */\n      0x20\n        /* \"#utility.yul\":4704:4707   */\n      dup3\n        /* \"#utility.yul\":4700:4714   */\n      add\n        /* \"#utility.yul\":4685:4714   */\n      swap1\n      pop\n        /* \"#utility.yul\":4551:4720   */\n      swap3\n      swap2\n      pop\n      pop\n      jump\t// out\n        /* \"#utility.yul\":4726:4865   */\n    tag_139:\n        /* \"#utility.yul\":4815:4821   */\n      dup3\n        /* \"#utility.yul\":4810:4813   */\n      dup2\n        /* \"#utility.yul\":4805:4808   */\n      dup4\n        /* \"#utility.yul\":4799:4822   */\n      mcopy\n        /* \"#utility.yul\":4856:4857   */\n      0x00\n        /* \"#utility.yul\":4847:4853   */\n      dup4\n        /* \"#utility.yul\":4842:4845   */\n      dup4\n        /* \"#utility.yul\":4838:4854   */\n      add\n        /* \"#utility.yul\":4831:4858   */\n      mstore\n        /* \"#utility.yul\":4726:4865   */\n      pop\n      pop\n      pop\n      jump\t// out\n        /* \"#utility.yul\":4871:5248   */\n    tag_140:\n        /* \"#utility.yul\":4959:4962   */\n      0x00\n        /* \"#utility.yul\":4987:5026   */\n      tag_234\n        /* \"#utility.yul\":5020:5025   */\n      dup3\n        /* \"#utility.yul\":4987:5026   */\n      tag_137\n      jump\t// in\n    tag_234:\n        /* \"#utility.yul\":5042:5113   */\n      tag_235\n        /* \"#utility.yul\":5106:5112   */\n      dup2\n        /* \"#utility.yul\":5101:5104   */\n      dup6\n        /* \"#utility.yul\":5042:5113   */\n      tag_138\n      jump\t// in\n    tag_235:\n        /* \"#utility.yul\":5035:5113   */\n      swap4\n      pop\n        /* \"#utility.yul\":5122:5187   */\n      tag_236\n        /* \"#utility.yul\":5180:5186   */\n      dup2\n        /* \"#utility.yul\":5175:5178   */\n      dup6\n        /* \"#utility.yul\":5168:5172   */\n      0x20\n        /* \"#utility.yul\":5161:5166   */\n      dup7\n        /* \"#utility.yul\":5157:5173   */\n      add\n        /* \"#utility.yul\":5122:5187   */\n      tag_139\n      jump\t// in\n    tag_236:\n        /* \"#utility.yul\":5212:5241   */\n      tag_237\n        /* \"#utility.yul\":5234:5240   */\n      dup2\n        /* \"#utility.yul\":5212:5241   */\n      tag_126\n      jump\t// in\n    tag_237:\n        /* \"#utility.yul\":5207:5210   */\n      dup5\n        /* \"#utility.yul\":5203:5242   */\n      add\n        /* \"#utility.yul\":5196:5242   */\n      swap2\n      pop\n        /* \"#utility.yul\":4963:5248   */\n      pop\n        /* \"#utility.yul\":4871:5248   */\n      swap3\n      swap2\n      pop\n      pop\n      jump\t// out\n        /* \"#utility.yul\":5254:5567   */\n    tag_21:\n        /* \"#utility.yul\":5367:5371   */\n      0x00\n        /* \"#utility.yul\":5405:5407   */\n      0x20\n        /* \"#utility.yul\":5394:5403   */\n      dup3\n        /* \"#utility.yul\":5390:5408   */\n      add\n        /* \"#utility.yul\":5382:5408   */\n      swap1\n      pop\n        /* \"#utility.yul\":5454:5463   */\n      dup2\n        /* \"#utility.yul\":5448:5452   */\n      dup2\n        /* \"#utility.yul\":5444:5464   */\n      sub\n        /* \"#utility.yul\":5440:5441   */\n      0x00\n        /* \"#utility.yul\":5429:5438   */\n      dup4\n        /* \"#utility.yul\":5425:5442   */\n      add\n        /* \"#utility.yul\":5418:5465   */\n      mstore\n        /* \"#utility.yul\":5482:5560   */\n      tag_239\n        /* \"#utility.yul\":5555:5559   */\n      dup2\n        /* \"#utility.yul\":5546:5552   */\n      dup5\n        /* \"#utility.yul\":5482:5560   */\n      tag_140\n      jump\t// in\n    tag_239:\n        /* \"#utility.yul\":5474:5560   */\n      swap1\n      pop\n        /* \"#utility.yul\":5254:5567   */\n      swap3\n      swap2\n      pop\n      pop\n      jump\t// out\n        /* \"#utility.yul\":5573:5701   */\n    tag_141:\n        /* \"#utility.yul\":5610:5617   */\n      0x00\n        /* \"#utility.yul\":5650:5694   */\n      0xffffffffffffffffffffffffffffffffffffffffff\n        /* \"#utility.yul\":5643:5648   */\n      dup3\n        /* \"#utility.yul\":5639:5695   */\n      and\n        /* \"#utility.yul\":5628:5695   */\n      swap1\n      pop\n        /* \"#utility.yul\":5573:5701   */\n      swap2\n      swap1\n      pop\n      jump\t// out\n        /* \"#utility.yul\":5707:5829   */\n    tag_142:\n        /* \"#utility.yul\":5780:5804   */\n      tag_242\n        /* \"#utility.yul\":5798:5803   */\n      dup2\n        /* \"#utility.yul\":5780:5804   */\n      tag_141\n      jump\t// in\n    tag_242:\n        /* \"#utility.yul\":5773:5778   */\n      dup2\n        /* \"#utility.yul\":5770:5805   */\n      eq\n        /* \"#utility.yul\":5760:5823   */\n      tag_243\n      jumpi\n        /* \"#utility.yul\":5819:5820   */\n      0x00\n        /* \"#utility.yul\":5816:5817   */\n      0x00\n        /* \"#utility.yul\":5809:5821   */\n      revert\n        /* \"#utility.yul\":5760:5823   */\n    tag_243:\n        /* \"#utility.yul\":5707:5829   */\n      pop\n      jump\t// out\n        /* \"#utility.yul\":5835:5974   */\n    tag_143:\n        /* \"#utility.yul\":5881:5886   */\n      0x00\n        /* \"#utility.yul\":5919:5925   */\n      dup2\n        /* \"#utility.yul\":5906:5926   */\n      calldataload\n        /* \"#utility.yul\":5897:5926   */\n      swap1\n      pop\n        /* \"#utility.yul\":5935:5968   */\n      tag_245\n        /* \"#utility.yul\":5962:5967   */\n      dup2\n        /* \"#utility.yul\":5935:5968   */\n      tag_142\n      jump\t// in\n    tag_245:\n        /* \"#utility.yul\":5835:5974   */\n      swap3\n      swap2\n      pop\n      pop\n      jump\t// out\n        /* \"#utility.yul\":5980:6057   */\n    tag_144:\n        /* \"#utility.yul\":6017:6024   */\n      0x00\n        /* \"#utility.yul\":6046:6051   */\n      dup2\n        /* \"#utility.yul\":6035:6051   */\n      swap1\n      pop\n        /* \"#utility.yul\":5980:6057   */\n      swap2\n      swap1\n      pop\n      jump\t// out\n        /* \"#utility.yul\":6063:6185   */\n    tag_145:\n        /* \"#utility.yul\":6136:6160   */\n      tag_248\n        /* \"#utility.yul\":6154:6159   */\n      dup2\n        /* \"#utility.yul\":6136:6160   */\n      tag_144\n      jump\t// in\n    tag_248:\n        /* \"#utility.yul\":6129:6134   */\n      dup2\n        /* \"#utility.yul\":6126:6161   */\n      eq\n        /* \"#utility.yul\":6116:6179   */\n      tag_249\n      jumpi\n        /* \"#utility.yul\":6175:6176   */\n      0x00\n        /* \"#utility.yul\":6172:6173   */\n      0x00\n        /* \"#utility.yul\":6165:6177   */\n      revert\n        /* \"#utility.yul\":6116:6179   */\n    tag_249:\n        /* \"#utility.yul\":6063:6185   */\n      pop\n      jump\t// out\n        /* \"#utility.yul\":6191:6330   */\n    tag_146:\n        /* \"#utility.yul\":6237:6242   */\n      0x00\n        /* \"#utility.yul\":6275:6281   */\n      dup2\n        /* \"#utility.yul\":6262:6282   */\n      calldataload\n        /* \"#utility.yul\":6253:6282   */\n      swap1\n      pop\n        /* \"#utility.yul\":6291:6324   */\n      tag_251\n        /* \"#utility.yul\":6318:6323   */\n      dup2\n        /* \"#utility.yul\":6291:6324   */\n      tag_145\n      jump\t// in\n    tag_251:\n        /* \"#utility.yul\":6191:6330   */\n      swap3\n      swap2\n      pop\n      pop\n      jump\t// out\n        /* \"#utility.yul\":6336:7787   */\n    tag_24:\n        /* \"#utility.yul\":6461:6467   */\n      0x00\n        /* \"#utility.yul\":6469:6475   */\n      0x00\n        /* \"#utility.yul\":6477:6483   */\n      0x00\n        /* \"#utility.yul\":6485:6491   */\n      0x00\n        /* \"#utility.yul\":6493:6499   */\n      0x00\n        /* \"#utility.yul\":6542:6545   */\n      0xa0\n        /* \"#utility.yul\":6530:6539   */\n      dup7\n        /* \"#utility.yul\":6521:6528   */\n      dup9\n        /* \"#utility.yul\":6517:6540   */\n      sub\n        /* \"#utility.yul\":6513:6546   */\n      slt\n        /* \"#utility.yul\":6510:6630   */\n      iszero\n      tag_253\n      jumpi\n        /* \"#utility.yul\":6549:6628   */\n      tag_254\n      tag_122\n      jump\t// in\n    tag_254:\n        /* \"#utility.yul\":6510:6630   */\n    tag_253:\n        /* \"#utility.yul\":6697:6698   */\n      0x00\n        /* \"#utility.yul\":6686:6695   */\n      dup7\n        /* \"#utility.yul\":6682:6699   */\n      add\n        /* \"#utility.yul\":6669:6700   */\n      calldataload\n        /* \"#utility.yul\":6727:6745   */\n      0xffffffffffffffff\n        /* \"#utility.yul\":6719:6725   */\n      dup2\n        /* \"#utility.yul\":6716:6746   */\n      gt\n        /* \"#utility.yul\":6713:6830   */\n      iszero\n      tag_255\n      jumpi\n        /* \"#utility.yul\":6749:6828   */\n      tag_256\n      tag_123\n      jump\t// in\n    tag_256:\n        /* \"#utility.yul\":6713:6830   */\n    tag_255:\n        /* \"#utility.yul\":6854:6917   */\n      tag_257\n        /* \"#utility.yul\":6909:6916   */\n      dup9\n        /* \"#utility.yul\":6900:6906   */\n      dup3\n        /* \"#utility.yul\":6889:6898   */\n      dup10\n        /* \"#utility.yul\":6885:6907   */\n      add\n        /* \"#utility.yul\":6854:6917   */\n      tag_133\n      jump\t// in\n    tag_257:\n        /* \"#utility.yul\":6844:6917   */\n      swap6\n      pop\n        /* \"#utility.yul\":6640:6927   */\n      pop\n        /* \"#utility.yul\":6994:6996   */\n      0x20\n        /* \"#utility.yul\":6983:6992   */\n      dup7\n        /* \"#utility.yul\":6979:6997   */\n      add\n        /* \"#utility.yul\":6966:6998   */\n      calldataload\n        /* \"#utility.yul\":7025:7043   */\n      0xffffffffffffffff\n        /* \"#utility.yul\":7017:7023   */\n      dup2\n        /* \"#utility.yul\":7014:7044   */\n      gt\n        /* \"#utility.yul\":7011:7128   */\n      iszero\n      tag_258\n      jumpi\n        /* \"#utility.yul\":7047:7126   */\n      tag_259\n      tag_123\n      jump\t// in\n    tag_259:\n        /* \"#utility.yul\":7011:7128   */\n    tag_258:\n        /* \"#utility.yul\":7152:7215   */\n      tag_260\n        /* \"#utility.yul\":7207:7214   */\n      dup9\n        /* \"#utility.yul\":7198:7204   */\n      dup3\n        /* \"#utility.yul\":7187:7196   */\n      dup10\n        /* \"#utility.yul\":7183:7205   */\n      add\n        /* \"#utility.yul\":7152:7215   */\n      tag_133\n      jump\t// in\n    tag_260:\n        /* \"#utility.yul\":7142:7215   */\n      swap5\n      pop\n        /* \"#utility.yul\":6937:7225   */\n      pop\n        /* \"#utility.yul\":7292:7294   */\n      0x40\n        /* \"#utility.yul\":7281:7290   */\n      dup7\n        /* \"#utility.yul\":7277:7295   */\n      add\n        /* \"#utility.yul\":7264:7296   */\n      calldataload\n        /* \"#utility.yul\":7323:7341   */\n      0xffffffffffffffff\n        /* \"#utility.yul\":7315:7321   */\n      dup2\n        /* \"#utility.yul\":7312:7342   */\n      gt\n        /* \"#utility.yul\":7309:7426   */\n      iszero\n      tag_261\n      jumpi\n        /* \"#utility.yul\":7345:7424   */\n      tag_262\n      tag_123\n      jump\t// in\n    tag_262:\n        /* \"#utility.yul\":7309:7426   */\n    tag_261:\n        /* \"#utility.yul\":7450:7513   */\n      tag_263\n        /* \"#utility.yul\":7505:7512   */\n      dup9\n        /* \"#utility.yul\":7496:7502   */\n      dup3\n        /* \"#utility.yul\":7485:7494   */\n      dup10\n        /* \"#utility.yul\":7481:7503   */\n      add\n        /* \"#utility.yul\":7450:7513   */\n      tag_133\n      jump\t// in\n    tag_263:\n        /* \"#utility.yul\":7440:7513   */\n      swap4\n      pop\n        /* \"#utility.yul\":7235:7523   */\n      pop\n        /* \"#utility.yul\":7562:7564   */\n      0x60\n        /* \"#utility.yul\":7588:7641   */\n      tag_264\n        /* \"#utility.yul\":7633:7640   */\n      dup9\n        /* \"#utility.yul\":7624:7630   */\n      dup3\n        /* \"#utility.yul\":7613:7622   */\n      dup10\n        /* \"#utility.yul\":7609:7631   */\n      add\n        /* \"#utility.yul\":7588:7641   */\n      tag_143\n      jump\t// in\n    tag_264:\n        /* \"#utility.yul\":7578:7641   */\n      swap3\n      pop\n        /* \"#utility.yul\":7533:7651   */\n      pop\n        /* \"#utility.yul\":7690:7693   */\n      0x80\n        /* \"#utility.yul\":7717:7770   */\n      tag_265\n        /* \"#utility.yul\":7762:7769   */\n      dup9\n        /* \"#utility.yul\":7753:7759   */\n      dup3\n        /* \"#utility.yul\":7742:7751   */\n      dup10\n        /* \"#utility.yul\":7738:7760   */\n      add\n        /* \"#utility.yul\":7717:7770   */\n      tag_146\n      jump\t// in\n    tag_265:\n        /* \"#utility.yul\":7707:7770   */\n      swap2\n      pop\n        /* \"#utility.yul\":7661:7780   */\n      pop\n        /* \"#utility.yul\":6336:7787   */\n      swap3\n      swap6\n      pop\n      swap3\n      swap6\n      swap1\n      swap4\n      pop\n      jump\t// out\n        /* \"#utility.yul\":7793:8447   */\n    tag_28:\n        /* \"#utility.yul\":7871:7877   */\n      0x00\n        /* \"#utility.yul\":7879:7885   */\n      0x00\n        /* \"#utility.yul\":7928:7930   */\n      0x40\n        /* \"#utility.yul\":7916:7925   */\n      dup4\n        /* \"#utility.yul\":7907:7914   */\n      dup6\n        /* \"#utility.yul\":7903:7926   */\n      sub\n        /* \"#utility.yul\":7899:7931   */\n      slt\n        /* \"#utility.yul\":7896:8015   */\n      iszero\n      tag_267\n      jumpi\n        /* \"#utility.yul\":7934:8013   */\n      tag_268\n      tag_122\n      jump\t// in\n    tag_268:\n        /* \"#utility.yul\":7896:8015   */\n    tag_267:\n        /* \"#utility.yul\":8082:8083   */\n      0x00\n        /* \"#utility.yul\":8071:8080   */\n      dup4\n        /* \"#utility.yul\":8067:8084   */\n      add\n        /* \"#utility.yul\":8054:8085   */\n      calldataload\n        /* \"#utility.yul\":8112:8130   */\n      0xffffffffffffffff\n        /* \"#utility.yul\":8104:8110   */\n      dup2\n        /* \"#utility.yul\":8101:8131   */\n      gt\n        /* \"#utility.yul\":8098:8215   */\n      iszero\n      tag_269\n      jumpi\n        /* \"#utility.yul\":8134:8213   */\n      tag_270\n      tag_123\n      jump\t// in\n    tag_270:\n        /* \"#utility.yul\":8098:8215   */\n    tag_269:\n        /* \"#utility.yul\":8239:8302   */\n      tag_271\n        /* \"#utility.yul\":8294:8301   */\n      dup6\n        /* \"#utility.yul\":8285:8291   */\n      dup3\n        /* \"#utility.yul\":8274:8283   */\n      dup7\n        /* \"#utility.yul\":8270:8292   */\n      add\n        /* \"#utility.yul\":8239:8302   */\n      tag_133\n      jump\t// in\n    tag_271:\n        /* \"#utility.yul\":8229:8302   */\n      swap3\n      pop\n        /* \"#utility.yul\":8025:8312   */\n      pop\n        /* \"#utility.yul\":8351:8353   */\n      0x20\n        /* \"#utility.yul\":8377:8430   */\n      tag_272\n        /* \"#utility.yul\":8422:8429   */\n      dup6\n        /* \"#utility.yul\":8413:8419   */\n      dup3\n        /* \"#utility.yul\":8402:8411   */\n      dup7\n        /* \"#utility.yul\":8398:8420   */\n      add\n        /* \"#utility.yul\":8377:8430   */\n      tag_146\n      jump\t// in\n    tag_272:\n        /* \"#utility.yul\":8367:8430   */\n      swap2\n      pop\n        /* \"#utility.yul\":8322:8440   */\n      pop\n        /* \"#utility.yul\":7793:8447   */\n      swap3\n      pop\n      swap3\n      swap1\n      pop\n      jump\t// out\n        /* \"#utility.yul\":8453:8571   */\n    tag_147:\n        /* \"#utility.yul\":8540:8564   */\n      tag_274\n        /* \"#utility.yul\":8558:8563   */\n      dup2\n        /* \"#utility.yul\":8540:8564   */\n      tag_134\n      jump\t// in\n    tag_274:\n        /* \"#utility.yul\":8535:8538   */\n      dup3\n        /* \"#utility.yul\":8528:8565   */\n      mstore\n        /* \"#utility.yul\":8453:8571   */\n      pop\n      pop\n      jump\t// out\n        /* \"#utility.yul\":8577:9000   */\n    tag_31:\n        /* \"#utility.yul\":8718:8722   */\n      0x00\n        /* \"#utility.yul\":8756:8758   */\n      0x40\n        /* \"#utility.yul\":8745:8754   */\n      dup3\n        /* \"#utility.yul\":8741:8759   */\n      add\n        /* \"#utility.yul\":8733:8759   */\n      swap1\n      pop\n        /* \"#utility.yul\":8805:8814   */\n      dup2\n        /* \"#utility.yul\":8799:8803   */\n      dup2\n        /* \"#utility.yul\":8795:8815   */\n      sub\n        /* \"#utility.yul\":8791:8792   */\n      0x00\n        /* \"#utility.yul\":8780:8789   */\n      dup4\n        /* \"#utility.yul\":8776:8793   */\n      add\n        /* \"#utility.yul\":8769:8816   */\n      mstore\n        /* \"#utility.yul\":8833:8911   */\n      tag_276\n        /* \"#utility.yul\":8906:8910   */\n      dup2\n        /* \"#utility.yul\":8897:8903   */\n      dup6\n        /* \"#utility.yul\":8833:8911   */\n      tag_140\n      jump\t// in\n    tag_276:\n        /* \"#utility.yul\":8825:8911   */\n      swap1\n      pop\n        /* \"#utility.yul\":8921:8993   */\n      tag_277\n        /* \"#utility.yul\":8989:8991   */\n      0x20\n        /* \"#utility.yul\":8978:8987   */\n      dup4\n        /* \"#utility.yul\":8974:8992   */\n      add\n        /* \"#utility.yul\":8965:8971   */\n      dup5\n        /* \"#utility.yul\":8921:8993   */\n      tag_147\n      jump\t// in\n    tag_277:\n        /* \"#utility.yul\":8577:9000   */\n      swap4\n      swap3\n      pop\n      pop\n      pop\n      jump\t// out\n        /* \"#utility.yul\":9006:9139   */\n    tag_148:\n        /* \"#utility.yul\":9092:9098   */\n      0x00\n        /* \"#utility.yul\":9126:9131   */\n      dup2\n        /* \"#utility.yul\":9120:9132   */\n      mload\n        /* \"#utility.yul\":9110:9132   */\n      swap1\n      pop\n        /* \"#utility.yul\":9006:9139   */\n      swap2\n      swap1\n      pop\n      jump\t// out\n        /* \"#utility.yul\":9145:9348   */\n    tag_149:\n        /* \"#utility.yul\":9263:9274   */\n      0x00\n        /* \"#utility.yul\":9297:9303   */\n      dup3\n        /* \"#utility.yul\":9292:9295   */\n      dup3\n        /* \"#utility.yul\":9285:9304   */\n      mstore\n        /* \"#utility.yul\":9337:9341   */\n      0x20\n        /* \"#utility.yul\":9332:9335   */\n      dup3\n        /* \"#utility.yul\":9328:9342   */\n      add\n        /* \"#utility.yul\":9313:9342   */\n      swap1\n      pop\n        /* \"#utility.yul\":9145:9348   */\n      swap3\n      swap2\n      pop\n      pop\n      jump\t// out\n        /* \"#utility.yul\":9354:9505   */\n    tag_150:\n        /* \"#utility.yul\":9440:9444   */\n      0x00\n        /* \"#utility.yul\":9463:9466   */\n      dup2\n        /* \"#utility.yul\":9455:9466   */\n      swap1\n      pop\n        /* \"#utility.yul\":9493:9497   */\n      0x20\n        /* \"#utility.yul\":9488:9491   */\n      dup3\n        /* \"#utility.yul\":9484:9498   */\n      add\n        /* \"#utility.yul\":9476:9498   */\n      swap1\n      pop\n        /* \"#utility.yul\":9354:9505   */\n      swap2\n      swap1\n      pop\n      jump\t// out\n        /* \"#utility.yul\":9511:9670   */\n    tag_151:\n        /* \"#utility.yul\":9585:9596   */\n      0x00\n        /* \"#utility.yul\":9619:9625   */\n      dup3\n        /* \"#utility.yul\":9614:9617   */\n      dup3\n        /* \"#utility.yul\":9607:9626   */\n      mstore\n        /* \"#utility.yul\":9659:9663   */\n      0x20\n        /* \"#utility.yul\":9654:9657   */\n      dup3\n        /* \"#utility.yul\":9650:9664   */\n      add\n        /* \"#utility.yul\":9635:9664   */\n      swap1\n      pop\n        /* \"#utility.yul\":9511:9670   */\n      swap3\n      swap2\n      pop\n      pop\n      jump\t// out\n        /* \"#utility.yul\":9676:10033   */\n    tag_152:\n        /* \"#utility.yul\":9754:9757   */\n      0x00\n        /* \"#utility.yul\":9782:9821   */\n      tag_283\n        /* \"#utility.yul\":9815:9820   */\n      dup3\n        /* \"#utility.yul\":9782:9821   */\n      tag_137\n      jump\t// in\n    tag_283:\n        /* \"#utility.yul\":9837:9898   */\n      tag_284\n        /* \"#utility.yul\":9891:9897   */\n      dup2\n        /* \"#utility.yul\":9886:9889   */\n      dup6\n        /* \"#utility.yul\":9837:9898   */\n      tag_151\n      jump\t// in\n    tag_284:\n        /* \"#utility.yul\":9830:9898   */\n      swap4\n      pop\n        /* \"#utility.yul\":9907:9972   */\n      tag_285\n        /* \"#utility.yul\":9965:9971   */\n      dup2\n        /* \"#utility.yul\":9960:9963   */\n      dup6\n        /* \"#utility.yul\":9953:9957   */\n      0x20\n        /* \"#utility.yul\":9946:9951   */\n      dup7\n        /* \"#utility.yul\":9942:9958   */\n      add\n        /* \"#utility.yul\":9907:9972   */\n      tag_139\n      jump\t// in\n    tag_285:\n        /* \"#utility.yul\":9997:10026   */\n      tag_286\n        /* \"#utility.yul\":10019:10025   */\n      dup2\n        /* \"#utility.yul\":9997:10026   */\n      tag_126\n      jump\t// in\n    tag_286:\n        /* \"#utility.yul\":9992:9995   */\n      dup5\n        /* \"#utility.yul\":9988:10027   */\n      add\n        /* \"#utility.yul\":9981:10027   */\n      swap2\n      pop\n        /* \"#utility.yul\":9758:10033   */\n      pop\n        /* \"#utility.yul\":9676:10033   */\n      swap3\n      swap2\n      pop\n      pop\n      jump\t// out\n        /* \"#utility.yul\":10039:10147   */\n    tag_153:\n        /* \"#utility.yul\":10116:10140   */\n      tag_288\n        /* \"#utility.yul\":10134:10139   */\n      dup2\n        /* \"#utility.yul\":10116:10140   */\n      tag_134\n      jump\t// in\n    tag_288:\n        /* \"#utility.yul\":10111:10114   */\n      dup3\n        /* \"#utility.yul\":10104:10141   */\n      mstore\n        /* \"#utility.yul\":10039:10147   */\n      pop\n      pop\n      jump\t// out\n        /* \"#utility.yul\":10203:10786   */\n    tag_154:\n        /* \"#utility.yul\":10300:10303   */\n      0x00\n        /* \"#utility.yul\":10336:10340   */\n      0x40\n        /* \"#utility.yul\":10331:10334   */\n      dup4\n        /* \"#utility.yul\":10327:10341   */\n      add\n        /* \"#utility.yul\":10423:10427   */\n      0x00\n        /* \"#utility.yul\":10416:10421   */\n      dup4\n        /* \"#utility.yul\":10412:10428   */\n      add\n        /* \"#utility.yul\":10406:10429   */\n      mload\n        /* \"#utility.yul\":10476:10479   */\n      dup5\n        /* \"#utility.yul\":10470:10474   */\n      dup3\n        /* \"#utility.yul\":10466:10480   */\n      sub\n        /* \"#utility.yul\":10459:10463   */\n      0x00\n        /* \"#utility.yul\":10454:10457   */\n      dup7\n        /* \"#utility.yul\":10450:10464   */\n      add\n        /* \"#utility.yul\":10443:10481   */\n      mstore\n        /* \"#utility.yul\":10502:10575   */\n      tag_290\n        /* \"#utility.yul\":10570:10574   */\n      dup3\n        /* \"#utility.yul\":10556:10568   */\n      dup3\n        /* \"#utility.yul\":10502:10575   */\n      tag_152\n      jump\t// in\n    tag_290:\n        /* \"#utility.yul\":10494:10575   */\n      swap2\n      pop\n        /* \"#utility.yul\":10351:10586   */\n      pop\n        /* \"#utility.yul\":10667:10671   */\n      0x20\n        /* \"#utility.yul\":10660:10665   */\n      dup4\n        /* \"#utility.yul\":10656:10672   */\n      add\n        /* \"#utility.yul\":10650:10673   */\n      mload\n        /* \"#utility.yul\":10686:10749   */\n      tag_291\n        /* \"#utility.yul\":10743:10747   */\n      0x20\n        /* \"#utility.yul\":10738:10741   */\n      dup7\n        /* \"#utility.yul\":10734:10748   */\n      add\n        /* \"#utility.yul\":10720:10732   */\n      dup3\n        /* \"#utility.yul\":10686:10749   */\n      tag_153\n      jump\t// in\n    tag_291:\n        /* \"#utility.yul\":10596:10759   */\n      pop\n        /* \"#utility.yul\":10776:10780   */\n      dup1\n        /* \"#utility.yul\":10769:10780   */\n      swap2\n      pop\n        /* \"#utility.yul\":10305:10786   */\n      pop\n        /* \"#utility.yul\":10203:10786   */\n      swap3\n      swap2\n      pop\n      pop\n      jump\t// out\n        /* \"#utility.yul\":10792:11024   */\n    tag_155:\n        /* \"#utility.yul\":10899:10909   */\n      0x00\n        /* \"#utility.yul\":10934:11018   */\n      tag_293\n        /* \"#utility.yul\":11014:11017   */\n      dup4\n        /* \"#utility.yul\":11006:11012   */\n      dup4\n        /* \"#utility.yul\":10934:11018   */\n      tag_154\n      jump\t// in\n    tag_293:\n        /* \"#utility.yul\":10920:11018   */\n      swap1\n      pop\n        /* \"#utility.yul\":10792:11024   */\n      swap3\n      swap2\n      pop\n      pop\n      jump\t// out\n        /* \"#utility.yul\":11030:11162   */\n    tag_156:\n        /* \"#utility.yul\":11119:11123   */\n      0x00\n        /* \"#utility.yul\":11151:11155   */\n      0x20\n        /* \"#utility.yul\":11146:11149   */\n      dup3\n        /* \"#utility.yul\":11142:11156   */\n      add\n        /* \"#utility.yul\":11134:11156   */\n      swap1\n      pop\n        /* \"#utility.yul\":11030:11162   */\n      swap2\n      swap1\n      pop\n      jump\t// out\n        /* \"#utility.yul\":11222:12285   */\n    tag_157:\n        /* \"#utility.yul\":11379:11382   */\n      0x00\n        /* \"#utility.yul\":11408:11481   */\n      tag_296\n        /* \"#utility.yul\":11475:11480   */\n      dup3\n        /* \"#utility.yul\":11408:11481   */\n      tag_148\n      jump\t// in\n    tag_296:\n        /* \"#utility.yul\":11497:11602   */\n      tag_297\n        /* \"#utility.yul\":11595:11601   */\n      dup2\n        /* \"#utility.yul\":11590:11593   */\n      dup6\n        /* \"#utility.yul\":11497:11602   */\n      tag_149\n      jump\t// in\n    tag_297:\n        /* \"#utility.yul\":11490:11602   */\n      swap4\n      pop\n        /* \"#utility.yul\":11628:11631   */\n      dup4\n        /* \"#utility.yul\":11673:11677   */\n      0x20\n        /* \"#utility.yul\":11665:11671   */\n      dup3\n        /* \"#utility.yul\":11661:11678   */\n      mul\n        /* \"#utility.yul\":11656:11659   */\n      dup6\n        /* \"#utility.yul\":11652:11679   */\n      add\n        /* \"#utility.yul\":11703:11778   */\n      tag_298\n        /* \"#utility.yul\":11772:11777   */\n      dup6\n        /* \"#utility.yul\":11703:11778   */\n      tag_150\n      jump\t// in\n    tag_298:\n        /* \"#utility.yul\":11801:11808   */\n      dup1\n        /* \"#utility.yul\":11832:11833   */\n      0x00\n        /* \"#utility.yul\":11817:12240   */\n    tag_299:\n        /* \"#utility.yul\":11842:11848   */\n      dup6\n        /* \"#utility.yul\":11839:11840   */\n      dup2\n        /* \"#utility.yul\":11836:11849   */\n      lt\n        /* \"#utility.yul\":11817:12240   */\n      iszero\n      tag_301\n      jumpi\n        /* \"#utility.yul\":11913:11922   */\n      dup5\n        /* \"#utility.yul\":11907:11911   */\n      dup5\n        /* \"#utility.yul\":11903:11923   */\n      sub\n        /* \"#utility.yul\":11898:11901   */\n      dup10\n        /* \"#utility.yul\":11891:11924   */\n      mstore\n        /* \"#utility.yul\":11964:11970   */\n      dup2\n        /* \"#utility.yul\":11958:11971   */\n      mload\n        /* \"#utility.yul\":11992:12094   */\n      tag_302\n        /* \"#utility.yul\":12089:12093   */\n      dup6\n        /* \"#utility.yul\":12074:12087   */\n      dup3\n        /* \"#utility.yul\":11992:12094   */\n      tag_155\n      jump\t// in\n    tag_302:\n        /* \"#utility.yul\":11984:12094   */\n      swap5\n      pop\n        /* \"#utility.yul\":12117:12196   */\n      tag_303\n        /* \"#utility.yul\":12189:12195   */\n      dup4\n        /* \"#utility.yul\":12117:12196   */\n      tag_156\n      jump\t// in\n    tag_303:\n        /* \"#utility.yul\":12107:12196   */\n      swap3\n      pop\n        /* \"#utility.yul\":12225:12229   */\n      0x20\n        /* \"#utility.yul\":12220:12223   */\n      dup11\n        /* \"#utility.yul\":12216:12230   */\n      add\n        /* \"#utility.yul\":12209:12230   */\n      swap10\n      pop\n        /* \"#utility.yul\":11877:12240   */\n      pop\n        /* \"#utility.yul\":11864:11865   */\n      0x01\n        /* \"#utility.yul\":11861:11862   */\n      dup2\n        /* \"#utility.yul\":11857:11866   */\n      add\n        /* \"#utility.yul\":11852:11866   */\n      swap1\n      pop\n        /* \"#utility.yul\":11817:12240   */\n      jump(tag_299)\n    tag_301:\n        /* \"#utility.yul\":11821:11835   */\n      pop\n        /* \"#utility.yul\":12256:12260   */\n      dup3\n        /* \"#utility.yul\":12249:12260   */\n      swap8\n      pop\n        /* \"#utility.yul\":12276:12279   */\n      dup8\n        /* \"#utility.yul\":12269:12279   */\n      swap6\n      pop\n        /* \"#utility.yul\":11384:12285   */\n      pop\n      pop\n      pop\n      pop\n      pop\n        /* \"#utility.yul\":11222:12285   */\n      swap3\n      swap2\n      pop\n      pop\n      jump\t// out\n        /* \"#utility.yul\":12291:12740   */\n    tag_36:\n        /* \"#utility.yul\":12472:12476   */\n      0x00\n        /* \"#utility.yul\":12510:12512   */\n      0x20\n        /* \"#utility.yul\":12499:12508   */\n      dup3\n        /* \"#utility.yul\":12495:12513   */\n      add\n        /* \"#utility.yul\":12487:12513   */\n      swap1\n      pop\n        /* \"#utility.yul\":12559:12568   */\n      dup2\n        /* \"#utility.yul\":12553:12557   */\n      dup2\n        /* \"#utility.yul\":12549:12569   */\n      sub\n        /* \"#utility.yul\":12545:12546   */\n      0x00\n        /* \"#utility.yul\":12534:12543   */\n      dup4\n        /* \"#utility.yul\":12530:12547   */\n      add\n        /* \"#utility.yul\":12523:12570   */\n      mstore\n        /* \"#utility.yul\":12587:12733   */\n      tag_305\n        /* \"#utility.yul\":12728:12732   */\n      dup2\n        /* \"#utility.yul\":12719:12725   */\n      dup5\n        /* \"#utility.yul\":12587:12733   */\n      tag_157\n      jump\t// in\n    tag_305:\n        /* \"#utility.yul\":12579:12733   */\n      swap1\n      pop\n        /* \"#utility.yul\":12291:12740   */\n      swap3\n      swap2\n      pop\n      pop\n      jump\t// out\n        /* \"#utility.yul\":12746:13580   */\n    tag_39:\n        /* \"#utility.yul\":12834:12840   */\n      0x00\n        /* \"#utility.yul\":12842:12848   */\n      0x00\n        /* \"#utility.yul\":12891:12893   */\n      0x40\n        /* \"#utility.yul\":12879:12888   */\n      dup4\n        /* \"#utility.yul\":12870:12877   */\n      dup6\n        /* \"#utility.yul\":12866:12889   */\n      sub\n        /* \"#utility.yul\":12862:12894   */\n      slt\n        /* \"#utility.yul\":12859:12978   */\n      iszero\n      tag_307\n      jumpi\n        /* \"#utility.yul\":12897:12976   */\n      tag_308\n      tag_122\n      jump\t// in\n    tag_308:\n        /* \"#utility.yul\":12859:12978   */\n    tag_307:\n        /* \"#utility.yul\":13045:13046   */\n      0x00\n        /* \"#utility.yul\":13034:13043   */\n      dup4\n        /* \"#utility.yul\":13030:13047   */\n      add\n        /* \"#utility.yul\":13017:13048   */\n      calldataload\n        /* \"#utility.yul\":13075:13093   */\n      0xffffffffffffffff\n        /* \"#utility.yul\":13067:13073   */\n      dup2\n        /* \"#utility.yul\":13064:13094   */\n      gt\n        /* \"#utility.yul\":13061:13178   */\n      iszero\n      tag_309\n      jumpi\n        /* \"#utility.yul\":13097:13176   */\n      tag_310\n      tag_123\n      jump\t// in\n    tag_310:\n        /* \"#utility.yul\":13061:13178   */\n    tag_309:\n        /* \"#utility.yul\":13202:13265   */\n      tag_311\n        /* \"#utility.yul\":13257:13264   */\n      dup6\n        /* \"#utility.yul\":13248:13254   */\n      dup3\n        /* \"#utility.yul\":13237:13246   */\n      dup7\n        /* \"#utility.yul\":13233:13255   */\n      add\n        /* \"#utility.yul\":13202:13265   */\n      tag_133\n      jump\t// in\n    tag_311:\n        /* \"#utility.yul\":13192:13265   */\n      swap3\n      pop\n        /* \"#utility.yul\":12988:13275   */\n      pop\n        /* \"#utility.yul\":13342:13344   */\n      0x20\n        /* \"#utility.yul\":13331:13340   */\n      dup4\n        /* \"#utility.yul\":13327:13345   */\n      add\n        /* \"#utility.yul\":13314:13346   */\n      calldataload\n        /* \"#utility.yul\":13373:13391   */\n      0xffffffffffffffff\n        /* \"#utility.yul\":13365:13371   */\n      dup2\n        /* \"#utility.yul\":13362:13392   */\n      gt\n        /* \"#utility.yul\":13359:13476   */\n      iszero\n      tag_312\n      jumpi\n        /* \"#utility.yul\":13395:13474   */\n      tag_313\n      tag_123\n      jump\t// in\n    tag_313:\n        /* \"#utility.yul\":13359:13476   */\n    tag_312:\n        /* \"#utility.yul\":13500:13563   */\n      tag_314\n        /* \"#utility.yul\":13555:13562   */\n      dup6\n        /* \"#utility.yul\":13546:13552   */\n      dup3\n        /* \"#utility.yul\":13535:13544   */\n      dup7\n        /* \"#utility.yul\":13531:13553   */\n      add\n        /* \"#utility.yul\":13500:13563   */\n      tag_133\n      jump\t// in\n    tag_314:\n        /* \"#utility.yul\":13490:13563   */\n      swap2\n      pop\n        /* \"#utility.yul\":13285:13573   */\n      pop\n        /* \"#utility.yul\":12746:13580   */\n      swap3\n      pop\n      swap3\n      swap1\n      pop\n      jump\t// out\n        /* \"#utility.yul\":13636:14229   */\n    tag_158:\n        /* \"#utility.yul\":13743:13746   */\n      0x00\n        /* \"#utility.yul\":13779:13783   */\n      0x40\n        /* \"#utility.yul\":13774:13777   */\n      dup4\n        /* \"#utility.yul\":13770:13784   */\n      add\n        /* \"#utility.yul\":13866:13870   */\n      0x00\n        /* \"#utility.yul\":13859:13864   */\n      dup4\n        /* \"#utility.yul\":13855:13871   */\n      add\n        /* \"#utility.yul\":13849:13872   */\n      mload\n        /* \"#utility.yul\":13919:13922   */\n      dup5\n        /* \"#utility.yul\":13913:13917   */\n      dup3\n        /* \"#utility.yul\":13909:13923   */\n      sub\n        /* \"#utility.yul\":13902:13906   */\n      0x00\n        /* \"#utility.yul\":13897:13900   */\n      dup7\n        /* \"#utility.yul\":13893:13907   */\n      add\n        /* \"#utility.yul\":13886:13924   */\n      mstore\n        /* \"#utility.yul\":13945:14018   */\n      tag_316\n        /* \"#utility.yul\":14013:14017   */\n      dup3\n        /* \"#utility.yul\":13999:14011   */\n      dup3\n        /* \"#utility.yul\":13945:14018   */\n      tag_152\n      jump\t// in\n    tag_316:\n        /* \"#utility.yul\":13937:14018   */\n      swap2\n      pop\n        /* \"#utility.yul\":13794:14029   */\n      pop\n        /* \"#utility.yul\":14110:14114   */\n      0x20\n        /* \"#utility.yul\":14103:14108   */\n      dup4\n        /* \"#utility.yul\":14099:14115   */\n      add\n        /* \"#utility.yul\":14093:14116   */\n      mload\n        /* \"#utility.yul\":14129:14192   */\n      tag_317\n        /* \"#utility.yul\":14186:14190   */\n      0x20\n        /* \"#utility.yul\":14181:14184   */\n      dup7\n        /* \"#utility.yul\":14177:14191   */\n      add\n        /* \"#utility.yul\":14163:14175   */\n      dup3\n        /* \"#utility.yul\":14129:14192   */\n      tag_153\n      jump\t// in\n    tag_317:\n        /* \"#utility.yul\":14039:14202   */\n      pop\n        /* \"#utility.yul\":14219:14223   */\n      dup1\n        /* \"#utility.yul\":14212:14223   */\n      swap2\n      pop\n        /* \"#utility.yul\":13748:14229   */\n      pop\n        /* \"#utility.yul\":13636:14229   */\n      swap3\n      swap2\n      pop\n      pop\n      jump\t// out\n        /* \"#utility.yul\":14235:14584   */\n    tag_42:\n        /* \"#utility.yul\":14366:14370   */\n      0x00\n        /* \"#utility.yul\":14404:14406   */\n      0x20\n        /* \"#utility.yul\":14393:14402   */\n      dup3\n        /* \"#utility.yul\":14389:14407   */\n      add\n        /* \"#utility.yul\":14381:14407   */\n      swap1\n      pop\n        /* \"#utility.yul\":14453:14462   */\n      dup2\n        /* \"#utility.yul\":14447:14451   */\n      dup2\n        /* \"#utility.yul\":14443:14463   */\n      sub\n        /* \"#utility.yul\":14439:14440   */\n      0x00\n        /* \"#utility.yul\":14428:14437   */\n      dup4\n        /* \"#utility.yul\":14424:14441   */\n      add\n        /* \"#utility.yul\":14417:14464   */\n      mstore\n        /* \"#utility.yul\":14481:14577   */\n      tag_319\n        /* \"#utility.yul\":14572:14576   */\n      dup2\n        /* \"#utility.yul\":14563:14569   */\n      dup5\n        /* \"#utility.yul\":14481:14577   */\n      tag_158\n      jump\t// in\n    tag_319:\n        /* \"#utility.yul\":14473:14577   */\n      swap1\n      pop\n        /* \"#utility.yul\":14235:14584   */\n      swap3\n      swap2\n      pop\n      pop\n      jump\t// out\n        /* \"#utility.yul\":14590:14708   */\n    tag_159:\n        /* \"#utility.yul\":14677:14701   */\n      tag_321\n        /* \"#utility.yul\":14695:14700   */\n      dup2\n        /* \"#utility.yul\":14677:14701   */\n      tag_141\n      jump\t// in\n    tag_321:\n        /* \"#utility.yul\":14672:14675   */\n      dup3\n        /* \"#utility.yul\":14665:14702   */\n      mstore\n        /* \"#utility.yul\":14590:14708   */\n      pop\n      pop\n      jump\t// out\n        /* \"#utility.yul\":14714:15540   */\n    tag_47:\n        /* \"#utility.yul\":14951:14955   */\n      0x00\n        /* \"#utility.yul\":14989:14992   */\n      0x80\n        /* \"#utility.yul\":14978:14987   */\n      dup3\n        /* \"#utility.yul\":14974:14993   */\n      add\n        /* \"#utility.yul\":14966:14993   */\n      swap1\n      pop\n        /* \"#utility.yul\":15039:15048   */\n      dup2\n        /* \"#utility.yul\":15033:15037   */\n      dup2\n        /* \"#utility.yul\":15029:15049   */\n      sub\n        /* \"#utility.yul\":15025:15026   */\n      0x00\n        /* \"#utility.yul\":15014:15023   */\n      dup4\n        /* \"#utility.yul\":15010:15027   */\n      add\n        /* \"#utility.yul\":15003:15050   */\n      mstore\n        /* \"#utility.yul\":15067:15145   */\n      tag_323\n        /* \"#utility.yul\":15140:15144   */\n      dup2\n        /* \"#utility.yul\":15131:15137   */\n      dup8\n        /* \"#utility.yul\":15067:15145   */\n      tag_140\n      jump\t// in\n    tag_323:\n        /* \"#utility.yul\":15059:15145   */\n      swap1\n      pop\n        /* \"#utility.yul\":15192:15201   */\n      dup2\n        /* \"#utility.yul\":15186:15190   */\n      dup2\n        /* \"#utility.yul\":15182:15202   */\n      sub\n        /* \"#utility.yul\":15177:15179   */\n      0x20\n        /* \"#utility.yul\":15166:15175   */\n      dup4\n        /* \"#utility.yul\":15162:15180   */\n      add\n        /* \"#utility.yul\":15155:15203   */\n      mstore\n        /* \"#utility.yul\":15220:15298   */\n      tag_324\n        /* \"#utility.yul\":15293:15297   */\n      dup2\n        /* \"#utility.yul\":15284:15290   */\n      dup7\n        /* \"#utility.yul\":15220:15298   */\n      tag_140\n      jump\t// in\n    tag_324:\n        /* \"#utility.yul\":15212:15298   */\n      swap1\n      pop\n        /* \"#utility.yul\":15308:15380   */\n      tag_325\n        /* \"#utility.yul\":15376:15378   */\n      0x40\n        /* \"#utility.yul\":15365:15374   */\n      dup4\n        /* \"#utility.yul\":15361:15379   */\n      add\n        /* \"#utility.yul\":15352:15358   */\n      dup6\n        /* \"#utility.yul\":15308:15380   */\n      tag_159\n      jump\t// in\n    tag_325:\n        /* \"#utility.yul\":15427:15436   */\n      dup2\n        /* \"#utility.yul\":15421:15425   */\n      dup2\n        /* \"#utility.yul\":15417:15437   */\n      sub\n        /* \"#utility.yul\":15412:15414   */\n      0x60\n        /* \"#utility.yul\":15401:15410   */\n      dup4\n        /* \"#utility.yul\":15397:15415   */\n      add\n        /* \"#utility.yul\":15390:15438   */\n      mstore\n        /* \"#utility.yul\":15455:15533   */\n      tag_326\n        /* \"#utility.yul\":15528:15532   */\n      dup2\n        /* \"#utility.yul\":15519:15525   */\n      dup5\n        /* \"#utility.yul\":15455:15533   */\n      tag_140\n      jump\t// in\n    tag_326:\n        /* \"#utility.yul\":15447:15533   */\n      swap1\n      pop\n        /* \"#utility.yul\":14714:15540   */\n      swap6\n      swap5\n      pop\n      pop\n      pop\n      pop\n      pop\n      jump\t// out\n        /* \"#utility.yul\":15546:15694   */\n    tag_160:\n        /* \"#utility.yul\":15648:15659   */\n      0x00\n        /* \"#utility.yul\":15685:15688   */\n      dup2\n        /* \"#utility.yul\":15670:15688   */\n      swap1\n      pop\n        /* \"#utility.yul\":15546:15694   */\n      swap3\n      swap2\n      pop\n      pop\n      jump\t// out\n        /* \"#utility.yul\":15700:16090   */\n    tag_161:\n        /* \"#utility.yul\":15806:15809   */\n      0x00\n        /* \"#utility.yul\":15834:15873   */\n      tag_329\n        /* \"#utility.yul\":15867:15872   */\n      dup3\n        /* \"#utility.yul\":15834:15873   */\n      tag_137\n      jump\t// in\n    tag_329:\n        /* \"#utility.yul\":15889:15978   */\n      tag_330\n        /* \"#utility.yul\":15971:15977   */\n      dup2\n        /* \"#utility.yul\":15966:15969   */\n      dup6\n        /* \"#utility.yul\":15889:15978   */\n      tag_160\n      jump\t// in\n    tag_330:\n        /* \"#utility.yul\":15882:15978   */\n      swap4\n      pop\n        /* \"#utility.yul\":15987:16052   */\n      tag_331\n        /* \"#utility.yul\":16045:16051   */\n      dup2\n        /* \"#utility.yul\":16040:16043   */\n      dup6\n        /* \"#utility.yul\":16033:16037   */\n      0x20\n        /* \"#utility.yul\":16026:16031   */\n      dup7\n        /* \"#utility.yul\":16022:16038   */\n      add\n        /* \"#utility.yul\":15987:16052   */\n      tag_139\n      jump\t// in\n    tag_331:\n        /* \"#utility.yul\":16077:16083   */\n      dup1\n        /* \"#utility.yul\":16072:16075   */\n      dup5\n        /* \"#utility.yul\":16068:16084   */\n      add\n        /* \"#utility.yul\":16061:16084   */\n      swap2\n      pop\n        /* \"#utility.yul\":15810:16090   */\n      pop\n        /* \"#utility.yul\":15700:16090   */\n      swap3\n      swap2\n      pop\n      pop\n      jump\t// out\n        /* \"#utility.yul\":16096:16371   */\n    tag_54:\n        /* \"#utility.yul\":16228:16231   */\n      0x00\n        /* \"#utility.yul\":16250:16345   */\n      tag_333\n        /* \"#utility.yul\":16341:16344   */\n      dup3\n        /* \"#utility.yul\":16332:16338   */\n      dup5\n        /* \"#utility.yul\":16250:16345   */\n      tag_161\n      jump\t// in\n    tag_333:\n        /* \"#utility.yul\":16243:16345   */\n      swap2\n      pop\n        /* \"#utility.yul\":16362:16365   */\n      dup2\n        /* \"#utility.yul\":16355:16365   */\n      swap1\n      pop\n        /* \"#utility.yul\":16096:16371   */\n      swap3\n      swap2\n      pop\n      pop\n      jump\t// out\n        /* \"#utility.yul\":16377:16557   */\n    tag_162:\n        /* \"#utility.yul\":16425:16502   */\n      0x4e487b7100000000000000000000000000000000000000000000000000000000\n        /* \"#utility.yul\":16422:16423   */\n      0x00\n        /* \"#utility.yul\":16415:16503   */\n      mstore\n        /* \"#utility.yul\":16522:16526   */\n      0x22\n        /* \"#utility.yul\":16519:16520   */\n      0x04\n        /* \"#utility.yul\":16512:16527   */\n      mstore\n        /* \"#utility.yul\":16546:16550   */\n      0x24\n        /* \"#utility.yul\":16543:16544   */\n      0x00\n        /* \"#utility.yul\":16536:16551   */\n      revert\n        /* \"#utility.yul\":16563:16883   */\n    tag_64:\n        /* \"#utility.yul\":16607:16613   */\n      0x00\n        /* \"#utility.yul\":16644:16645   */\n      0x02\n        /* \"#utility.yul\":16638:16642   */\n      dup3\n        /* \"#utility.yul\":16634:16646   */\n      div\n        /* \"#utility.yul\":16624:16646   */\n      swap1\n      pop\n        /* \"#utility.yul\":16691:16692   */\n      0x01\n        /* \"#utility.yul\":16685:16689   */\n      dup3\n        /* \"#utility.yul\":16681:16693   */\n      and\n        /* \"#utility.yul\":16712:16730   */\n      dup1\n        /* \"#utility.yul\":16702:16783   */\n      tag_336\n      jumpi\n        /* \"#utility.yul\":16768:16772   */\n      0x7f\n        /* \"#utility.yul\":16760:16766   */\n      dup3\n        /* \"#utility.yul\":16756:16773   */\n      and\n        /* \"#utility.yul\":16746:16773   */\n      swap2\n      pop\n        /* \"#utility.yul\":16702:16783   */\n    tag_336:\n        /* \"#utility.yul\":16830:16832   */\n      0x20\n        /* \"#utility.yul\":16822:16828   */\n      dup3\n        /* \"#utility.yul\":16819:16833   */\n      lt\n        /* \"#utility.yul\":16799:16817   */\n      dup2\n        /* \"#utility.yul\":16796:16834   */\n      sub\n        /* \"#utility.yul\":16793:16877   */\n      tag_337\n      jumpi\n        /* \"#utility.yul\":16849:16867   */\n      tag_338\n      tag_162\n      jump\t// in\n    tag_338:\n        /* \"#utility.yul\":16793:16877   */\n    tag_337:\n        /* \"#utility.yul\":16614:16883   */\n      pop\n        /* \"#utility.yul\":16563:16883   */\n      swap2\n      swap1\n      pop\n      jump\t// out\n        /* \"#utility.yul\":16889:17030   */\n    tag_163:\n        /* \"#utility.yul\":16938:16942   */\n      0x00\n        /* \"#utility.yul\":16961:16964   */\n      dup2\n        /* \"#utility.yul\":16953:16964   */\n      swap1\n      pop\n        /* \"#utility.yul\":16984:16987   */\n      dup2\n        /* \"#utility.yul\":16981:16982   */\n      0x00\n        /* \"#utility.yul\":16974:16988   */\n      mstore\n        /* \"#utility.yul\":17018:17022   */\n      0x20\n        /* \"#utility.yul\":17015:17016   */\n      0x00\n        /* \"#utility.yul\":17005:17023   */\n      keccak256\n        /* \"#utility.yul\":16997:17023   */\n      swap1\n      pop\n        /* \"#utility.yul\":16889:17030   */\n      swap2\n      swap1\n      pop\n      jump\t// out\n        /* \"#utility.yul\":17036:17129   */\n    tag_164:\n        /* \"#utility.yul\":17073:17079   */\n      0x00\n        /* \"#utility.yul\":17120:17122   */\n      0x20\n        /* \"#utility.yul\":17115:17117   */\n      0x1f\n        /* \"#utility.yul\":17108:17113   */\n      dup4\n        /* \"#utility.yul\":17104:17118   */\n      add\n        /* \"#utility.yul\":17100:17123   */\n      div\n        /* \"#utility.yul\":17090:17123   */\n      swap1\n      pop\n        /* \"#utility.yul\":17036:17129   */\n      swap2\n      swap1\n      pop\n      jump\t// out\n        /* \"#utility.yul\":17135:17242   */\n    tag_165:\n        /* \"#utility.yul\":17179:17187   */\n      0x00\n        /* \"#utility.yul\":17229:17234   */\n      dup3\n        /* \"#utility.yul\":17223:17227   */\n      dup3\n        /* \"#utility.yul\":17219:17235   */\n      shl\n        /* \"#utility.yul\":17198:17235   */\n      swap1\n      pop\n        /* \"#utility.yul\":17135:17242   */\n      swap3\n      swap2\n      pop\n      pop\n      jump\t// out\n        /* \"#utility.yul\":17248:17641   */\n    tag_166:\n        /* \"#utility.yul\":17317:17323   */\n      0x00\n        /* \"#utility.yul\":17367:17368   */\n      0x08\n        /* \"#utility.yul\":17355:17365   */\n      dup4\n        /* \"#utility.yul\":17351:17369   */\n      mul\n        /* \"#utility.yul\":17390:17487   */\n      tag_343\n        /* \"#utility.yul\":17420:17486   */\n      0xffffffffffffffffffffffffffffffffffffffffffffffffffffffffffffffff\n        /* \"#utility.yul\":17409:17418   */\n      dup3\n        /* \"#utility.yul\":17390:17487   */\n      tag_165\n      jump\t// in\n    tag_343:\n        /* \"#utility.yul\":17508:17547   */\n      tag_344\n        /* \"#utility.yul\":17538:17546   */\n      dup7\n        /* \"#utility.yul\":17527:17536   */\n      dup4\n        /* \"#utility.yul\":17508:17547   */\n      tag_165\n      jump\t// in\n    tag_344:\n        /* \"#utility.yul\":17496:17547   */\n      swap6\n      pop\n        /* \"#utility.yul\":17580:17584   */\n      dup1\n        /* \"#utility.yul\":17576:17585   */\n      not\n        /* \"#utility.yul\":17569:17574   */\n      dup5\n        /* \"#utility.yul\":17565:17586   */\n      and\n        /* \"#utility.yul\":17556:17586   */\n      swap4\n      pop\n        /* \"#utility.yul\":17629:17633   */\n      dup1\n        /* \"#utility.yul\":17619:17627   */\n      dup7\n        /* \"#utility.yul\":17615:17634   */\n      and\n        /* \"#utility.yul\":17608:17613   */\n      dup5\n        /* \"#utility.yul\":17605:17635   */\n      or\n        /* \"#utility.yul\":17595:17635   */\n      swap3\n      pop\n        /* \"#utility.yul\":17324:17641   */\n      pop\n      pop\n        /* \"#utility.yul\":17248:17641   */\n      swap4\n      swap3\n      pop\n      pop\n      pop\n      jump\t// out\n        /* \"#utility.yul\":17647:17707   */\n    tag_167:\n        /* \"#utility.yul\":17675:17678   */\n      0x00\n        /* \"#utility.yul\":17696:17701   */\n      dup2\n        /* \"#utility.yul\":17689:17701   */\n      swap1\n      pop\n        /* \"#utility.yul\":17647:17707   */\n      swap2\n      swap1\n      pop\n      jump\t// out\n        /* \"#utility.yul\":17713:17855   */\n    tag_168:\n        /* \"#utility.yul\":17763:17772   */\n      0x00\n        /* \"#utility.yul\":17796:17849   */\n      tag_347\n        /* \"#utility.yul\":17814:17848   */\n      tag_348\n        /* \"#utility.yul\":17823:17847   */\n      tag_349\n        /* \"#utility.yul\":17841:17846   */\n      dup5\n        /* \"#utility.yul\":17823:17847   */\n      tag_144\n      jump\t// in\n    tag_349:\n        /* \"#utility.yul\":17814:17848   */\n      tag_167\n      jump\t// in\n    tag_348:\n        /* \"#utility.yul\":17796:17849   */\n      tag_144\n      jump\t// in\n    tag_347:\n        /* \"#utility.yul\":17783:17849   */\n      swap1\n      pop\n        /* \"#utility.yul\":17713:17855   */\n      swap2\n      swap1\n      pop\n      jump\t// out\n        /* \"#utility.yul\":17861:17936   */\n    tag_169:\n        /* \"#utility.yul\":17904:17907   */\n      0x00\n        /* \"#utility.yul\":17925:17930   */\n      dup2\n        /* \"#utility.yul\":17918:17930   */\n      swap1\n      pop\n        /* \"#utility.yul\":17861:17936   */\n      swap2\n      swap1\n      pop\n      jump\t// out\n        /* \"#utility.yul\":17942:18211   */\n    tag_170:\n        /* \"#utility.yul\":18052:18091   */\n      tag_352\n        /* \"#utility.yul\":18083:18090   */\n      dup4\n        /* \"#utility.yul\":18052:18091   */\n      tag_168\n      jump\t// in\n    tag_352:\n        /* \"#utility.yul\":18113:18204   */\n      tag_353\n        /* \"#utility.yul\":18162:18203   */\n      tag_354\n        /* \"#utility.yul\":18186:18202   */\n      dup3\n        /* \"#utility.yul\":18162:18203   */\n      tag_169\n      jump\t// in\n    tag_354:\n        /* \"#utility.yul\":18154:18160   */\n      dup5\n        /* \"#utility.yul\":18147:18151   */\n      dup5\n        /* \"#utility.yul\":18141:18152   */\n      sload\n        /* \"#utility.yul\":18113:18204   */\n      tag_166\n      jump\t// in\n    tag_353:\n        /* \"#utility.yul\":18107:18111   */\n      dup3\n        /* \"#utility.yul\":18100:18205   */\n      sstore\n        /* \"#utility.yul\":18018:18211   */\n      pop\n        /* \"#utility.yul\":17942:18211   */\n      pop\n      pop\n      pop\n      jump\t// out\n        /* \"#utility.yul\":18217:18290   */\n    tag_171:\n        /* \"#utility.yul\":18262:18265   */\n      0x00\n        /* \"#utility.yul\":18283:18284   */\n      0x00\n        /* \"#utility.yul\":18276:18284   */\n      swap1\n      pop\n        /* \"#utility.yul\":18217:18290   */\n      swap1\n      jump\t// out\n        /* \"#utility.yul\":18296:18485   */\n    tag_172:\n        /* \"#utility.yul\":18373:18405   */\n      tag_357\n      tag_171\n      jump\t// in\n    tag_357:\n        /* \"#utility.yul\":18414:18479   */\n      tag_358\n        /* \"#utility.yul\":18472:18478   */\n      dup2\n        /* \"#utility.yul\":18464:18470   */\n      dup5\n        /* \"#utility.yul\":18458:18462   */\n      dup5\n        /* \"#utility.yul\":18414:18479   */\n      tag_170\n      jump\t// in\n    tag_358:\n        /* \"#utility.yul\":18349:18485   */\n      pop\n        /* \"#utility.yul\":18296:18485   */\n      pop\n      pop\n      jump\t// out\n        /* \"#utility.yul\":18491:18677   */\n    tag_173:\n        /* \"#utility.yul\":18551:18671   */\n    tag_360:\n        /* \"#utility.yul\":18568:18571   */\n      dup2\n        /* \"#utility.yul\":18561:18566   */\n      dup2\n        /* \"#utility.yul\":18558:18572   */\n      lt\n        /* \"#utility.yul\":18551:18671   */\n      iszero\n      tag_362\n      jumpi\n        /* \"#utility.yul\":18622:18661   */\n      tag_363\n        /* \"#utility.yul\":18659:18660   */\n      0x00\n        /* \"#utility.yul\":18652:18657   */\n      dup3\n        /* \"#utility.yul\":18622:18661   */\n      tag_172\n      jump\t// in\n    tag_363:\n        /* \"#utility.yul\":18595:18596   */\n      0x01\n        /* \"#utility.yul\":18588:18593   */\n      dup2\n        /* \"#utility.yul\":18584:18597   */\n      add\n        /* \"#utility.yul\":18575:18597   */\n      swap1\n      pop\n        /* \"#utility.yul\":18551:18671   */\n      jump(tag_360)\n    tag_362:\n        /* \"#utility.yul\":18491:18677   */\n      pop\n      pop\n      jump\t// out\n        /* \"#utility.yul\":18683:19226   */\n    tag_174:\n        /* \"#utility.yul\":18784:18786   */\n      0x1f\n        /* \"#utility.yul\":18779:18782   */\n      dup3\n        /* \"#utility.yul\":18776:18787   */\n      gt\n        /* \"#utility.yul\":18773:19219   */\n      iszero\n      tag_365\n      jumpi\n        /* \"#utility.yul\":18818:18856   */\n      tag_366\n        /* \"#utility.yul\":18850:18855   */\n      dup2\n        /* \"#utility.yul\":18818:18856   */\n      tag_163\n      jump\t// in\n    tag_366:\n        /* \"#utility.yul\":18902:18931   */\n      tag_367\n        /* \"#utility.yul\":18920:18930   */\n      dup5\n        /* \"#utility.yul\":18902:18931   */\n      tag_164\n      jump\t// in\n    tag_367:\n        /* \"#utility.yul\":18892:18900   */\n      dup2\n        /* \"#utility.yul\":18888:18932   */\n      add\n        /* \"#utility.yul\":19085:19087   */\n      0x20\n        /* \"#utility.yul\":19073:19083   */\n      dup6\n        /* \"#utility.yul\":19070:19088   */\n      lt\n        /* \"#utility.yul\":19067:19116   */\n      iszero\n      tag_368\n      jumpi\n        /* \"#utility.yul\":19106:19114   */\n      dup2\n        /* \"#utility.yul\":19091:19114   */\n      swap1\n      pop\n        /* \"#utility.yul\":19067:19116   */\n    tag_368:\n        /* \"#utility.yul\":19129:19209   */\n      tag_369\n        /* \"#utility.yul\":19185:19207   */\n      tag_370\n        /* \"#utility.yul\":19203:19206   */\n      dup6\n        /* \"#utility.yul\":19185:19207   */\n      tag_164\n      jump\t// in\n    tag_370:\n        /* \"#utility.yul\":19175:19183   */\n      dup4\n        /* \"#utility.yul\":19171:19208   */\n      add\n        /* \"#utility.yul\":19158:19169   */\n      dup3\n        /* \"#utility.yul\":19129:19209   */\n      tag_173\n      jump\t// in\n    tag_369:\n        /* \"#utility.yul\":18788:19219   */\n      pop\n      pop\n        /* \"#utility.yul\":18773:19219   */\n    tag_365:\n        /* \"#utility.yul\":18683:19226   */\n      pop\n      pop\n      pop\n      jump\t// out\n        /* \"#utility.yul\":19232:19349   */\n    tag_175:\n        /* \"#utility.yul\":19286:19294   */\n      0x00\n        /* \"#utility.yul\":19336:19341   */\n      dup3\n        /* \"#utility.yul\":19330:19334   */\n      dup3\n        /* \"#utility.yul\":19326:19342   */\n      shr\n        /* \"#utility.yul\":19305:19342   */\n      swap1\n      pop\n        /* \"#utility.yul\":19232:19349   */\n      swap3\n      swap2\n      pop\n      pop\n      jump\t// out\n        /* \"#utility.yul\":19355:19524   */\n    tag_176:\n        /* \"#utility.yul\":19399:19405   */\n      0x00\n        /* \"#utility.yul\":19432:19483   */\n      tag_373\n        /* \"#utility.yul\":19480:19481   */\n      0x00\n        /* \"#utility.yul\":19476:19482   */\n      not\n        /* \"#utility.yul\":19468:19473   */\n      dup5\n        /* \"#utility.yul\":19465:19466   */\n      0x08\n        /* \"#utility.yul\":19461:19474   */\n      mul\n        /* \"#utility.yul\":19432:19483   */\n      tag_175\n      jump\t// in\n    tag_373:\n        /* \"#utility.yul\":19428:19484   */\n      not\n        /* \"#utility.yul\":19513:19517   */\n      dup1\n        /* \"#utility.yul\":19507:19511   */\n      dup4\n        /* \"#utility.yul\":19503:19518   */\n      and\n        /* \"#utility.yul\":19493:19518   */\n      swap2\n      pop\n        /* \"#utility.yul\":19406:19524   */\n      pop\n        /* \"#utility.yul\":19355:19524   */\n      swap3\n      swap2\n      pop\n      pop\n      jump\t// out\n        /* \"#utility.yul\":19529:19824   */\n    tag_177:\n        /* \"#utility.yul\":19605:19609   */\n      0x00\n        /* \"#utility.yul\":19751:19780   */\n      tag_375\n        /* \"#utility.yul\":19776:19779   */\n      dup4\n        /* \"#utility.yul\":19770:19774   */\n      dup4\n        /* \"#utility.yul\":19751:19780   */\n      tag_176\n      jump\t// in\n    tag_375:\n        /* \"#utility.yul\":19743:19780   */\n      swap2\n      pop\n        /* \"#utility.yul\":19813:19816   */\n      dup3\n        /* \"#utility.yul\":19810:19811   */\n      0x02\n        /* \"#utility.yul\":19806:19817   */\n      mul\n        /* \"#utility.yul\":19800:19804   */\n      dup3\n        /* \"#utility.yul\":19797:19818   */\n      or\n        /* \"#utility.yul\":19789:19818   */\n      swap1\n      pop\n        /* \"#utility.yul\":19529:19824   */\n      swap3\n      swap2\n      pop\n      pop\n      jump\t// out\n        /* \"#utility.yul\":19829:21224   */\n    tag_57:\n        /* \"#utility.yul\":19946:19983   */\n      tag_377\n        /* \"#utility.yul\":19979:19982   */\n      dup3\n        /* \"#utility.yul\":19946:19983   */\n      tag_137\n      jump\t// in\n    tag_377:\n        /* \"#utility.yul\":20048:20066   */\n      0xffffffffffffffff\n        /* \"#utility.yul\":20040:20046   */\n      dup2\n        /* \"#utility.yul\":20037:20067   */\n      gt\n        /* \"#utility.yul\":20034:20090   */\n      iszero\n      tag_378\n      jumpi\n        /* \"#utility.yul\":20070:20088   */\n      tag_379\n      tag_127\n      jump\t// in\n    tag_379:\n        /* \"#utility.yul\":20034:20090   */\n    tag_378:\n        /* \"#utility.yul\":20114:20152   */\n      tag_380\n        /* \"#utility.yul\":20146:20150   */\n      dup3\n        /* \"#utility.yul\":20140:20151   */\n      sload\n        /* \"#utility.yul\":20114:20152   */\n      tag_64\n      jump\t// in\n    tag_380:\n        /* \"#utility.yul\":20199:20266   */\n      tag_381\n        /* \"#utility.yul\":20259:20265   */\n      dup3\n        /* \"#utility.yul\":20251:20257   */\n      dup3\n        /* \"#utility.yul\":20245:20249   */\n      dup6\n        /* \"#utility.yul\":20199:20266   */\n      tag_174\n      jump\t// in\n    tag_381:\n        /* \"#utility.yul\":20293:20294   */\n      0x00\n        /* \"#utility.yul\":20317:20321   */\n      0x20\n        /* \"#utility.yul\":20304:20321   */\n      swap1\n      pop\n        /* \"#utility.yul\":20349:20351   */\n      0x1f\n        /* \"#utility.yul\":20341:20347   */\n      dup4\n        /* \"#utility.yul\":20338:20352   */\n      gt\n        /* \"#utility.yul\":20366:20367   */\n      0x01\n        /* \"#utility.yul\":20361:20979   */\n      dup2\n      eq\n      tag_383\n      jumpi\n        /* \"#utility.yul\":21023:21024   */\n      0x00\n        /* \"#utility.yul\":21040:21046   */\n      dup5\n        /* \"#utility.yul\":21037:21114   */\n      iszero\n      tag_384\n      jumpi\n        /* \"#utility.yul\":21089:21098   */\n      dup3\n        /* \"#utility.yul\":21084:21087   */\n      dup8\n        /* \"#utility.yul\":21080:21099   */\n      add\n        /* \"#utility.yul\":21074:21100   */\n      mload\n        /* \"#utility.yul\":21065:21100   */\n      swap1\n      pop\n        /* \"#utility.yul\":21037:21114   */\n    tag_384:\n        /* \"#utility.yul\":21140:21207   */\n      tag_385\n        /* \"#utility.yul\":21200:21206   */\n      dup6\n        /* \"#utility.yul\":21193:21198   */\n      dup3\n        /* \"#utility.yul\":21140:21207   */\n      tag_177\n      jump\t// in\n    tag_385:\n        /* \"#utility.yul\":21134:21138   */\n      dup7\n        /* \"#utility.yul\":21127:21208   */\n      sstore\n        /* \"#utility.yul\":20996:21218   */\n      pop\n        /* \"#utility.yul\":20331:21218   */\n      jump(tag_382)\n        /* \"#utility.yul\":20361:20979   */\n    tag_383:\n        /* \"#utility.yul\":20413:20417   */\n      0x1f\n        /* \"#utility.yul\":20409:20418   */\n      not\n        /* \"#utility.yul\":20401:20407   */\n      dup5\n        /* \"#utility.yul\":20397:20419   */\n      and\n        /* \"#utility.yul\":20447:20484   */\n      tag_386\n        /* \"#utility.yul\":20479:20483   */\n      dup7\n        /* \"#utility.yul\":20447:20484   */\n      tag_163\n      jump\t// in\n    tag_386:\n        /* \"#utility.yul\":20506:20507   */\n      0x00\n        /* \"#utility.yul\":20520:20728   */\n    tag_387:\n        /* \"#utility.yul\":20534:20541   */\n      dup3\n        /* \"#utility.yul\":20531:20532   */\n      dup2\n        /* \"#utility.yul\":20528:20542   */\n      lt\n        /* \"#utility.yul\":20520:20728   */\n      iszero\n      tag_389\n      jumpi\n        /* \"#utility.yul\":20613:20622   */\n      dup5\n        /* \"#utility.yul\":20608:20611   */\n      dup10\n        /* \"#utility.yul\":20604:20623   */\n      add\n        /* \"#utility.yul\":20598:20624   */\n      mload\n        /* \"#utility.yul\":20590:20596   */\n      dup3\n        /* \"#utility.yul\":20583:20625   */\n      sstore\n        /* \"#utility.yul\":20664:20665   */\n      0x01\n        /* \"#utility.yul\":20656:20662   */\n      dup3\n        /* \"#utility.yul\":20652:20666   */\n      add\n        /* \"#utility.yul\":20642:20666   */\n      swap2\n      pop\n        /* \"#utility.yul\":20711:20713   */\n      0x20\n        /* \"#utility.yul\":20700:20709   */\n      dup6\n        /* \"#utility.yul\":20696:20714   */\n      add\n        /* \"#utility.yul\":20683:20714   */\n      swap5\n      pop\n        /* \"#utility.yul\":20557:20561   */\n      0x20\n        /* \"#utility.yul\":20554:20555   */\n      dup2\n        /* \"#utility.yul\":20550:20562   */\n      add\n        /* \"#utility.yul\":20545:20562   */\n      swap1\n      pop\n        /* \"#utility.yul\":20520:20728   */\n      jump(tag_387)\n    tag_389:\n        /* \"#utility.yul\":20756:20762   */\n      dup7\n        /* \"#utility.yul\":20747:20754   */\n      dup4\n        /* \"#utility.yul\":20744:20763   */\n      lt\n        /* \"#utility.yul\":20741:20920   */\n      iszero\n      tag_390\n      jumpi\n        /* \"#utility.yul\":20814:20823   */\n      dup5\n        /* \"#utility.yul\":20809:20812   */\n      dup10\n        /* \"#utility.yul\":20805:20824   */\n      add\n        /* \"#utility.yul\":20799:20825   */\n      mload\n        /* \"#utility.yul\":20857:20905   */\n      tag_391\n        /* \"#utility.yul\":20899:20903   */\n      0x1f\n        /* \"#utility.yul\":20891:20897   */\n      dup10\n        /* \"#utility.yul\":20887:20904   */\n      and\n        /* \"#utility.yul\":20876:20885   */\n      dup3\n        /* \"#utility.yul\":20857:20905   */\n      tag_176\n      jump\t// in\n    tag_391:\n        /* \"#utility.yul\":20849:20855   */\n      dup4\n        /* \"#utility.yul\":20842:20906   */\n      sstore\n        /* \"#utility.yul\":20764:20920   */\n      pop\n        /* \"#utility.yul\":20741:20920   */\n    tag_390:\n        /* \"#utility.yul\":20966:20967   */\n      0x01\n        /* \"#utility.yul\":20962:20963   */\n      0x02\n        /* \"#utility.yul\":20954:20960   */\n      dup9\n        /* \"#utility.yul\":20950:20964   */\n      mul\n        /* \"#utility.yul\":20946:20968   */\n      add\n        /* \"#utility.yul\":20940:20944   */\n      dup9\n        /* \"#utility.yul\":20933:20969   */\n      sstore\n        /* \"#utility.yul\":20368:20979   */\n      pop\n      pop\n      pop\n        /* \"#utility.yul\":20331:21218   */\n    tag_382:\n      pop\n        /* \"#utility.yul\":19921:21224   */\n      pop\n      pop\n      pop\n        /* \"#utility.yul\":19829:21224   */\n      pop\n      pop\n      jump\t// out\n\n    auxdata: 0xa2646970667358221220e9ea2e8af65af5b3983b308e847dc4b4adfd0a44b45cef2995054183fef3dfcd64736f6c634300081e0033\n}\n",
				"bytecode": {
					"linkReferences": {},
					"object": "6080604052348015600e575f5ffd5b506115a78061001c5f395ff3fe608060405234801561000f575f5ffd5b5060043610610086575f3560e01c806345c3c6c21161005957806345c3c6c214610123578063629014d714610153578063689e1c0314610183578063cae17979146101b657610086565b806325b9a40d1461008a57806326b60286146100a6578063341fde55146100d65780633a110d0d146100f2575b5f5ffd5b6100a4600480360381019061009f9190610c84565b6101e7565b005b6100c060048036038101906100bb9190610d0c565b610330565b6040516100cd9190610db3565b60405180910390f35b6100f060048036038101906100eb9190610e50565b6103e1565b005b61010c60048036038101906101079190610f1b565b610483565b60405161011a929190610f84565b60405180910390f35b61013d60048036038101906101389190610d0c565b610573565b60405161014a91906110fe565b60405180910390f35b61016d6004803603810190610168919061111e565b6106bc565b60405161017a91906111ce565b60405180910390f35b61019d60048036038101906101989190610d0c565b6107df565b6040516101ad94939291906111fd565b60405180910390f35b6101d060048036038101906101cb919061111e565b6109d5565b6040516101de929190610f84565b60405180910390f35b5f6040518060400160405280858152602001846cffffffffffffffffffffffffff168152509050805f8360405161021e919061128f565b90815260200160405180910390208560405161023a919061128f565b90815260200160405180910390205f820151815f01908161025b91906114a2565b506020820151816001015f6101000a8154816cffffffffffffffffffffffffff02191690836cffffffffffffffffffffffffff1602179055509050506002826040516102a7919061128f565b908152602001604051809103902081908060018154018082558091505060019003905f5260205f2090600202015f909190919091505f820151815f0190816102ef91906114a2565b506020820151816001015f6101000a8154816cffffffffffffffffffffffffff02191690836cffffffffffffffffffffffffff160217905550505050505050565b6060600182604051610342919061128f565b9081526020016040518091039020600101805461035e906112d2565b80601f016020809104026020016040519081016040528092919081815260200182805461038a906112d2565b80156103d55780601f106103ac576101008083540402835291602001916103d5565b820191905f5260205f20905b8154815290600101906020018083116103b857829003601f168201915b50505050509050919050565b5f6001866040516103f2919061128f565b9081526020016040518091039020905085815f01908161041291906114a2565b508381600101908161042491906114a2565b5082816002015f6101000a81548174ffffffffffffffffffffffffffffffffffffffffff021916908374ffffffffffffffffffffffffffffffffffffffffff1602179055508481600301908161047a91906114a2565b50505050505050565b60028280516020810182018051848252602083016020850120818352809550505050505081815481106104b4575f80fd5b905f5260205f2090600202015f9150915050805f0180546104d4906112d2565b80601f0160208091040260200160405190810160405280929190818152602001828054610500906112d2565b801561054b5780601f106105225761010080835404028352916020019161054b565b820191905f5260205f20905b81548152906001019060200180831161052e57829003601f168201915b505050505090806001015f9054906101000a90046cffffffffffffffffffffffffff16905082565b6060600282604051610585919061128f565b9081526020016040518091039020805480602002602001604051908101604052809291908181526020015f905b828210156106b1578382905f5260205f2090600202016040518060400160405290815f820180546105e2906112d2565b80601f016020809104026020016040519081016040528092919081815260200182805461060e906112d2565b80156106595780601f1061063057610100808354040283529160200191610659565b820191905f5260205f20905b81548152906001019060200180831161063c57829003601f168201915b50505050508152602001600182015f9054906101000a90046cffffffffffffffffffffffffff166cffffffffffffffffffffffffff166cffffffffffffffffffffffffff1681525050815260200190600101906105b2565b505050509050919050565b6106c4610acd565b5f836040516106d3919061128f565b9081526020016040518091039020826040516106ef919061128f565b90815260200160405180910390206040518060400160405290815f82018054610717906112d2565b80601f0160208091040260200160405190810160405280929190818152602001828054610743906112d2565b801561078e5780601f106107655761010080835404028352916020019161078e565b820191905f5260205f20905b81548152906001019060200180831161077157829003601f168201915b50505050508152602001600182015f9054906101000a90046cffffffffffffffffffffffffff166cffffffffffffffffffffffffff166cffffffffffffffffffffffffff1681525050905092915050565b6001818051602081018201805184825260208301602085012081835280955050505050505f91509050805f018054610816906112d2565b80601f0160208091040260200160405190810160405280929190818152602001828054610842906112d2565b801561088d5780601f106108645761010080835404028352916020019161088d565b820191905f5260205f20905b81548152906001019060200180831161087057829003601f168201915b5050505050908060010180546108a2906112d2565b80601f01602080910402602001604051908101604052809291908181526020018280546108ce906112d2565b80156109195780601f106108f057610100808354040283529160200191610919565b820191905f5260205f20905b8154815290600101906020018083116108fc57829003601f168201915b505050505090806002015f9054906101000a900474ffffffffffffffffffffffffffffffffffffffffff1690806003018054610954906112d2565b80601f0160208091040260200160405190810160405280929190818152602001828054610980906112d2565b80156109cb5780601f106109a2576101008083540402835291602001916109cb565b820191905f5260205f20905b8154815290600101906020018083116109ae57829003601f168201915b5050505050905084565b5f82805160208101820180518482526020830160208501208183528095505050505050818051602081018201805184825260208301602085012081835280955050505050505f9150915050805f018054610a2e906112d2565b80601f0160208091040260200160405190810160405280929190818152602001828054610a5a906112d2565b8015610aa55780601f10610a7c57610100808354040283529160200191610aa5565b820191905f5260205f20905b815481529060010190602001808311610a8857829003601f168201915b505050505090806001015f9054906101000a90046cffffffffffffffffffffffffff16905082565b6040518060400160405280606081526020015f6cffffffffffffffffffffffffff1681525090565b5f604051905090565b5f5ffd5b5f5ffd5b5f5ffd5b5f5ffd5b5f601f19601f8301169050919050565b7f4e487b71000000000000000000000000000000000000000000000000000000005f52604160045260245ffd5b610b5482610b0e565b810181811067ffffffffffffffff82111715610b7357610b72610b1e565b5b80604052505050565b5f610b85610af5565b9050610b918282610b4b565b919050565b5f67ffffffffffffffff821115610bb057610baf610b1e565b5b610bb982610b0e565b9050602081019050919050565b828183375f83830152505050565b5f610be6610be184610b96565b610b7c565b905082815260208101848484011115610c0257610c01610b0a565b5b610c0d848285610bc6565b509392505050565b5f82601f830112610c2957610c28610b06565b5b8135610c39848260208601610bd4565b91505092915050565b5f6cffffffffffffffffffffffffff82169050919050565b610c6381610c42565b8114610c6d575f5ffd5b50565b5f81359050610c7e81610c5a565b92915050565b5f5f5f60608486031215610c9b57610c9a610afe565b5b5f84013567ffffffffffffffff811115610cb857610cb7610b02565b5b610cc486828701610c15565b9350506020610cd586828701610c70565b925050604084013567ffffffffffffffff811115610cf657610cf5610b02565b5b610d0286828701610c15565b9150509250925092565b5f60208284031215610d2157610d20610afe565b5b5f82013567ffffffffffffffff811115610d3e57610d3d610b02565b5b610d4a84828501610c15565b91505092915050565b5f81519050919050565b5f82825260208201905092915050565b8281835e5f83830152505050565b5f610d8582610d53565b610d8f8185610d5d565b9350610d9f818560208601610d6d565b610da881610b0e565b840191505092915050565b5f6020820190508181035f830152610dcb8184610d7b565b905092915050565b5f74ffffffffffffffffffffffffffffffffffffffffff82169050919050565b610dfc81610dd3565b8114610e06575f5ffd5b50565b5f81359050610e1781610df3565b92915050565b5f819050919050565b610e2f81610e1d565b8114610e39575f5ffd5b50565b5f81359050610e4a81610e26565b92915050565b5f5f5f5f5f60a08688031215610e6957610e68610afe565b5b5f86013567ffffffffffffffff811115610e8657610e85610b02565b5b610e9288828901610c15565b955050602086013567ffffffffffffffff811115610eb357610eb2610b02565b5b610ebf88828901610c15565b945050604086013567ffffffffffffffff811115610ee057610edf610b02565b5b610eec88828901610c15565b9350506060610efd88828901610e09565b9250506080610f0e88828901610e3c565b9150509295509295909350565b5f5f60408385031215610f3157610f30610afe565b5b5f83013567ffffffffffffffff811115610f4e57610f4d610b02565b5b610f5a85828601610c15565b9250506020610f6b85828601610e3c565b9150509250929050565b610f7e81610c42565b82525050565b5f6040820190508181035f830152610f9c8185610d7b565b9050610fab6020830184610f75565b9392505050565b5f81519050919050565b5f82825260208201905092915050565b5f819050602082019050919050565b5f82825260208201905092915050565b5f610ff582610d53565b610fff8185610fdb565b935061100f818560208601610d6d565b61101881610b0e565b840191505092915050565b61102c81610c42565b82525050565b5f604083015f8301518482035f86015261104c8282610feb565b91505060208301516110616020860182611023565b508091505092915050565b5f6110778383611032565b905092915050565b5f602082019050919050565b5f61109582610fb2565b61109f8185610fbc565b9350836020820285016110b185610fcc565b805f5b858110156110ec57848403895281516110cd858261106c565b94506110d88361107f565b925060208a019950506001810190506110b4565b50829750879550505050505092915050565b5f6020820190508181035f830152611116818461108b565b905092915050565b5f5f6040838503121561113457611133610afe565b5b5f83013567ffffffffffffffff81111561115157611150610b02565b5b61115d85828601610c15565b925050602083013567ffffffffffffffff81111561117e5761117d610b02565b5b61118a85828601610c15565b9150509250929050565b5f604083015f8301518482035f8601526111ae8282610feb565b91505060208301516111c36020860182611023565b508091505092915050565b5f6020820190508181035f8301526111e68184611194565b905092915050565b6111f781610dd3565b82525050565b5f6080820190508181035f8301526112158187610d7b565b905081810360208301526112298186610d7b565b905061123860408301856111ee565b818103606083015261124a8184610d7b565b905095945050505050565b5f81905092915050565b5f61126982610d53565b6112738185611255565b9350611283818560208601610d6d565b80840191505092915050565b5f61129a828461125f565b915081905092915050565b7f4e487b71000000000000000000000000000000000000000000000000000000005f52602260045260245ffd5b5f60028204905060018216806112e957607f821691505b6020821081036112fc576112fb6112a5565b5b50919050565b5f819050815f5260205f209050919050565b5f6020601f8301049050919050565b5f82821b905092915050565b5f6008830261135e7fffffffffffffffffffffffffffffffffffffffffffffffffffffffffffffffff82611323565b6113688683611323565b95508019841693508086168417925050509392505050565b5f819050919050565b5f6113a361139e61139984610e1d565b611380565b610e1d565b9050919050565b5f819050919050565b6113bc83611389565b6113d06113c8826113aa565b84845461132f565b825550505050565b5f5f905090565b6113e76113d8565b6113f28184846113b3565b505050565b5b818110156114155761140a5f826113df565b6001810190506113f8565b5050565b601f82111561145a5761142b81611302565b61143484611314565b81016020851015611443578190505b61145761144f85611314565b8301826113f7565b50505b505050565b5f82821c905092915050565b5f61147a5f198460080261145f565b1980831691505092915050565b5f611492838361146b565b9150826002028217905092915050565b6114ab82610d53565b67ffffffffffffffff8111156114c4576114c3610b1e565b5b6114ce82546112d2565b6114d9828285611419565b5f60209050601f83116001811461150a575f84156114f8578287015190505b6115028582611487565b865550611569565b601f19841661151886611302565b5f5b8281101561153f5784890151825560018201915060208501945060208101905061151a565b8683101561155c5784890151611558601f89168261146b565b8355505b6001600288020188555050505b50505050505056fea2646970667358221220e9ea2e8af65af5b3983b308e847dc4b4adfd0a44b45cef2995054183fef3dfcd64736f6c634300081e0033",
					"opcodes": "PUSH1 0x80 PUSH1 0x40 MSTORE CALLVALUE DUP1 ISZERO PUSH1 0xE JUMPI PUSH0 PUSH0 REVERT JUMPDEST POP PUSH2 0x15A7 DUP1 PUSH2 0x1C PUSH0 CODECOPY PUSH0 RETURN INVALID PUSH1 0x80 PUSH1 0x40 MSTORE CALLVALUE DUP1 ISZERO PUSH2 0xF JUMPI PUSH0 PUSH0 REVERT JUMPDEST POP PUSH1 0x4 CALLDATASIZE LT PUSH2 0x86 JUMPI PUSH0 CALLDATALOAD PUSH1 0xE0 SHR DUP1 PUSH4 0x45C3C6C2 GT PUSH2 0x59 JUMPI DUP1 PUSH4 0x45C3C6C2 EQ PUSH2 0x123 JUMPI DUP1 PUSH4 0x629014D7 EQ PUSH2 0x153 JUMPI DUP1 PUSH4 0x689E1C03 EQ PUSH2 0x183 JUMPI DUP1 PUSH4 0xCAE17979 EQ PUSH2 0x1B6 JUMPI PUSH2 0x86 JUMP JUMPDEST DUP1 PUSH4 0x25B9A40D EQ PUSH2 0x8A JUMPI DUP1 PUSH4 0x26B60286 EQ PUSH2 0xA6 JUMPI DUP1 PUSH4 0x341FDE55 EQ PUSH2 0xD6 JUMPI DUP1 PUSH4 0x3A110D0D EQ PUSH2 0xF2 JUMPI JUMPDEST PUSH0 PUSH0 REVERT JUMPDEST PUSH2 0xA4 PUSH1 0x4 DUP1 CALLDATASIZE SUB DUP2 ADD SWAP1 PUSH2 0x9F SWAP2 SWAP1 PUSH2 0xC84 JUMP JUMPDEST PUSH2 0x1E7 JUMP JUMPDEST STOP JUMPDEST PUSH2 0xC0 PUSH1 0x4 DUP1 CALLDATASIZE SUB DUP2 ADD SWAP1 PUSH2 0xBB SWAP2 SWAP1 PUSH2 0xD0C JUMP JUMPDEST PUSH2 0x330 JUMP JUMPDEST PUSH1 0x40 MLOAD PUSH2 0xCD SWAP2 SWAP1 PUSH2 0xDB3 JUMP JUMPDEST PUSH1 0x40 MLOAD DUP1 SWAP2 SUB SWAP1 RETURN JUMPDEST PUSH2 0xF0 PUSH1 0x4 DUP1 CALLDATASIZE SUB DUP2 ADD SWAP1 PUSH2 0xEB SWAP2 SWAP1 PUSH2 0xE50 JUMP JUMPDEST PUSH2 0x3E1 JUMP JUMPDEST STOP JUMPDEST PUSH2 0x10C PUSH1 0x4 DUP1 CALLDATASIZE SUB DUP2 ADD SWAP1 PUSH2 0x107 SWAP2 SWAP1 PUSH2 0xF1B JUMP JUMPDEST PUSH2 0x483 JUMP JUMPDEST PUSH1 0x40 MLOAD PUSH2 0x11A SWAP3 SWAP2 SWAP1 PUSH2 0xF84 JUMP JUMPDEST PUSH1 0x40 MLOAD DUP1 SWAP2 SUB SWAP1 RETURN JUMPDEST PUSH2 0x13D PUSH1 0x4 DUP1 CALLDATASIZE SUB DUP2 ADD SWAP1 PUSH2 0x138 SWAP2 SWAP1 PUSH2 0xD0C JUMP JUMPDEST PUSH2 0x573 JUMP JUMPDEST PUSH1 0x40 MLOAD PUSH2 0x14A SWAP2 SWAP1 PUSH2 0x10FE JUMP JUMPDEST PUSH1 0x40 MLOAD DUP1 SWAP2 SUB SWAP1 RETURN JUMPDEST PUSH2 0x16D PUSH1 0x4 DUP1 CALLDATASIZE SUB DUP2 ADD SWAP1 PUSH2 0x168 SWAP2 SWAP1 PUSH2 0x111E JUMP JUMPDEST PUSH2 0x6BC JUMP JUMPDEST PUSH1 0x40 MLOAD PUSH2 0x17A SWAP2 SWAP1 PUSH2 0x11CE JUMP JUMPDEST PUSH1 0x40 MLOAD DUP1 SWAP2 SUB SWAP1 RETURN JUMPDEST PUSH2 0x19D PUSH1 0x4 DUP1 CALLDATASIZE SUB DUP2 ADD SWAP1 PUSH2 0x198 SWAP2 SWAP1 PUSH2 0xD0C JUMP JUMPDEST PUSH2 0x7DF JUMP JUMPDEST PUSH1 0x40 MLOAD PUSH2 0x1AD SWAP5 SWAP4 SWAP3 SWAP2 SWAP1 PUSH2 0x11FD JUMP JUMPDEST PUSH1 0x40 MLOAD DUP1 SWAP2 SUB SWAP1 RETURN JUMPDEST PUSH2 0x1D0 PUSH1 0x4 DUP1 CALLDATASIZE SUB DUP2 ADD SWAP1 PUSH2 0x1CB SWAP2 SWAP1 PUSH2 0x111E JUMP JUMPDEST PUSH2 0x9D5 JUMP JUMPDEST PUSH1 0x40 MLOAD PUSH2 0x1DE SWAP3 SWAP2 SWAP1 PUSH2 0xF84 JUMP JUMPDEST PUSH1 0x40 MLOAD DUP1 SWAP2 SUB SWAP1 RETURN JUMPDEST PUSH0 PUSH1 0x40 MLOAD DUP1 PUSH1 0x40 ADD PUSH1 0x40 MSTORE DUP1 DUP6 DUP2 MSTORE PUSH1 0x20 ADD DUP5 PUSH13 0xFFFFFFFFFFFFFFFFFFFFFFFFFF AND DUP2 MSTORE POP SWAP1 POP DUP1 PUSH0 DUP4 PUSH1 0x40 MLOAD PUSH2 0x21E SWAP2 SWAP1 PUSH2 0x128F JUMP JUMPDEST SWAP1 DUP2 MSTORE PUSH1 0x20 ADD PUSH1 0x40 MLOAD DUP1 SWAP2 SUB SWAP1 KECCAK256 DUP6 PUSH1 0x40 MLOAD PUSH2 0x23A SWAP2 SWAP1 PUSH2 0x128F JUMP JUMPDEST SWAP1 DUP2 MSTORE PUSH1 0x20 ADD PUSH1 0x40 MLOAD DUP1 SWAP2 SUB SWAP1 KECCAK256 PUSH0 DUP3 ADD MLOAD DUP2 PUSH0 ADD SWAP1 DUP2 PUSH2 0x25B SWAP2 SWAP1 PUSH2 0x14A2 JUMP JUMPDEST POP PUSH1 0x20 DUP3 ADD MLOAD DUP2 PUSH1 0x1 ADD PUSH0 PUSH2 0x100 EXP DUP2 SLOAD DUP2 PUSH13 0xFFFFFFFFFFFFFFFFFFFFFFFFFF MUL NOT AND SWAP1 DUP4 PUSH13 0xFFFFFFFFFFFFFFFFFFFFFFFFFF AND MUL OR SWAP1 SSTORE POP SWAP1 POP POP PUSH1 0x2 DUP3 PUSH1 0x40 MLOAD PUSH2 0x2A7 SWAP2 SWAP1 PUSH2 0x128F JUMP JUMPDEST SWAP1 DUP2 MSTORE PUSH1 0x20 ADD PUSH1 0x40 MLOAD DUP1 SWAP2 SUB SWAP1 KECCAK256 DUP2 SWAP1 DUP1 PUSH1 0x1 DUP2 SLOAD ADD DUP1 DUP3 SSTORE DUP1 SWAP2 POP POP PUSH1 0x1 SWAP1 SUB SWAP1 PUSH0 MSTORE PUSH1 0x20 PUSH0 KECCAK256 SWAP1 PUSH1 0x2 MUL ADD PUSH0 SWAP1 SWAP2 SWAP1 SWAP2 SWAP1 SWAP2 POP PUSH0 DUP3 ADD MLOAD DUP2 PUSH0 ADD SWAP1 DUP2 PUSH2 0x2EF SWAP2 SWAP1 PUSH2 0x14A2 JUMP JUMPDEST POP PUSH1 0x20 DUP3 ADD MLOAD DUP2 PUSH1 0x1 ADD PUSH0 PUSH2 0x100 EXP DUP2 SLOAD DUP2 PUSH13 0xFFFFFFFFFFFFFFFFFFFFFFFFFF MUL NOT AND SWAP1 DUP4 PUSH13 0xFFFFFFFFFFFFFFFFFFFFFFFFFF AND MUL OR SWAP1 SSTORE POP POP POP POP POP POP POP JUMP JUMPDEST PUSH1 0x60 PUSH1 0x1 DUP3 PUSH1 0x40 MLOAD PUSH2 0x342 SWAP2 SWAP1 PUSH2 0x128F JUMP JUMPDEST SWAP1 DUP2 MSTORE PUSH1 0x20 ADD PUSH1 0x40 MLOAD DUP1 SWAP2 SUB SWAP1 KECCAK256 PUSH1 0x1 ADD DUP1 SLOAD PUSH2 0x35E SWAP1 PUSH2 0x12D2 JUMP JUMPDEST DUP1 PUSH1 0x1F ADD PUSH1 0x20 DUP1 SWAP2 DIV MUL PUSH1 0x20 ADD PUSH1 0x40 MLOAD SWAP1 DUP2 ADD PUSH1 0x40 MSTORE DUP1 SWAP3 SWAP2 SWAP1 DUP2 DUP2 MSTORE PUSH1 0x20 ADD DUP3 DUP1 SLOAD PUSH2 0x38A SWAP1 PUSH2 0x12D2 JUMP JUMPDEST DUP1 ISZERO PUSH2 0x3D5 JUMPI DUP1 PUSH1 0x1F LT PUSH2 0x3AC JUMPI PUSH2 0x100 DUP1 DUP4 SLOAD DIV MUL DUP4 MSTORE SWAP2 PUSH1 0x20 ADD SWAP2 PUSH2 0x3D5 JUMP JUMPDEST DUP3 ADD SWAP2 SWAP1 PUSH0 MSTORE PUSH1 0x20 PUSH0 KECCAK256 SWAP1 JUMPDEST DUP2 SLOAD DUP2 MSTORE SWAP1 PUSH1 0x1 ADD SWAP1 PUSH1 0x20 ADD DUP1 DUP4 GT PUSH2 0x3B8 JUMPI DUP3 SWAP1 SUB PUSH1 0x1F AND DUP3 ADD SWAP2 JUMPDEST POP POP POP POP POP SWAP1 POP SWAP2 SWAP1 POP JUMP JUMPDEST PUSH0 PUSH1 0x1 DUP7 PUSH1 0x40 MLOAD PUSH2 0x3F2 SWAP2 SWAP1 PUSH2 0x128F JUMP JUMPDEST SWAP1 DUP2 MSTORE PUSH1 0x20 ADD PUSH1 0x40 MLOAD DUP1 SWAP2 SUB SWAP1 KECCAK256 SWAP1 POP DUP6 DUP2 PUSH0 ADD SWAP1 DUP2 PUSH2 0x412 SWAP2 SWAP1 PUSH2 0x14A2 JUMP JUMPDEST POP DUP4 DUP2 PUSH1 0x1 ADD SWAP1 DUP2 PUSH2 0x424 SWAP2 SWAP1 PUSH2 0x14A2 JUMP JUMPDEST POP DUP3 DUP2 PUSH1 0x2 ADD PUSH0 PUSH2 0x100 EXP DUP2 SLOAD DUP2 PUSH21 0xFFFFFFFFFFFFFFFFFFFFFFFFFFFFFFFFFFFFFFFFFF MUL NOT AND SWAP1 DUP4 PUSH21 0xFFFFFFFFFFFFFFFFFFFFFFFFFFFFFFFFFFFFFFFFFF AND MUL OR SWAP1 SSTORE POP DUP5 DUP2 PUSH1 0x3 ADD SWAP1 DUP2 PUSH2 0x47A SWAP2 SWAP1 PUSH2 0x14A2 JUMP JUMPDEST POP POP POP POP POP POP POP JUMP JUMPDEST PUSH1 0x2 DUP3 DUP1 MLOAD PUSH1 0x20 DUP2 ADD DUP3 ADD DUP1 MLOAD DUP5 DUP3 MSTORE PUSH1 0x20 DUP4 ADD PUSH1 0x20 DUP6 ADD KECCAK256 DUP2 DUP4 MSTORE DUP1 SWAP6 POP POP POP POP POP POP DUP2 DUP2 SLOAD DUP2 LT PUSH2 0x4B4 JUMPI PUSH0 DUP1 REVERT JUMPDEST SWAP1 PUSH0 MSTORE PUSH1 0x20 PUSH0 KECCAK256 SWAP1 PUSH1 0x2 MUL ADD PUSH0 SWAP2 POP SWAP2 POP POP DUP1 PUSH0 ADD DUP1 SLOAD PUSH2 0x4D4 SWAP1 PUSH2 0x12D2 JUMP JUMPDEST DUP1 PUSH1 0x1F ADD PUSH1 0x20 DUP1 SWAP2 DIV MUL PUSH1 0x20 ADD PUSH1 0x40 MLOAD SWAP1 DUP2 ADD PUSH1 0x40 MSTORE DUP1 SWAP3 SWAP2 SWAP1 DUP2 DUP2 MSTORE PUSH1 0x20 ADD DUP3 DUP1 SLOAD PUSH2 0x500 SWAP1 PUSH2 0x12D2 JUMP JUMPDEST DUP1 ISZERO PUSH2 0x54B JUMPI DUP1 PUSH1 0x1F LT PUSH2 0x522 JUMPI PUSH2 0x100 DUP1 DUP4 SLOAD DIV MUL DUP4 MSTORE SWAP2 PUSH1 0x20 ADD SWAP2 PUSH2 0x54B JUMP JUMPDEST DUP3 ADD SWAP2 SWAP1 PUSH0 MSTORE PUSH1 0x20 PUSH0 KECCAK256 SWAP1 JUMPDEST DUP2 SLOAD DUP2 MSTORE SWAP1 PUSH1 0x1 ADD SWAP1 PUSH1 0x20 ADD DUP1 DUP4 GT PUSH2 0x52E JUMPI DUP3 SWAP1 SUB PUSH1 0x1F AND DUP3 ADD SWAP2 JUMPDEST POP POP POP POP POP SWAP1 DUP1 PUSH1 0x1 ADD PUSH0 SWAP1 SLOAD SWAP1 PUSH2 0x100 EXP SWAP1 DIV PUSH13 0xFFFFFFFFFFFFFFFFFFFFFFFFFF AND SWAP1 POP DUP3 JUMP JUMPDEST PUSH1 0x60 PUSH1 0x2 DUP3 PUSH1 0x40 MLOAD PUSH2 0x585 SWAP2 SWAP1 PUSH2 0x128F JUMP JUMPDEST SWAP1 DUP2 MSTORE PUSH1 0x20 ADD PUSH1 0x40 MLOAD DUP1 SWAP2 SUB SWAP1 KECCAK256 DUP1 SLOAD DUP1 PUSH1 0x20 MUL PUSH1 0x20 ADD PUSH1 0x40 MLOAD SWAP1 DUP2 ADD PUSH1 0x40 MSTORE DUP1 SWAP3 SWAP2 SWAP1 DUP2 DUP2 MSTORE PUSH1 0x20 ADD PUSH0 SWAP1 JUMPDEST DUP3 DUP3 LT ISZERO PUSH2 0x6B1 JUMPI DUP4 DUP3 SWAP1 PUSH0 MSTORE PUSH1 0x20 PUSH0 KECCAK256 SWAP1 PUSH1 0x2 MUL ADD PUSH1 0x40 MLOAD DUP1 PUSH1 0x40 ADD PUSH1 0x40 MSTORE SWAP1 DUP2 PUSH0 DUP3 ADD DUP1 SLOAD PUSH2 0x5E2 SWAP1 PUSH2 0x12D2 JUMP JUMPDEST DUP1 PUSH1 0x1F ADD PUSH1 0x20 DUP1 SWAP2 DIV MUL PUSH1 0x20 ADD PUSH1 0x40 MLOAD SWAP1 DUP2 ADD PUSH1 0x40 MSTORE DUP1 SWAP3 SWAP2 SWAP1 DUP2 DUP2 MSTORE PUSH1 0x20 ADD DUP3 DUP1 SLOAD PUSH2 0x60E SWAP1 PUSH2 0x12D2 JUMP JUMPDEST DUP1 ISZERO PUSH2 0x659 JUMPI DUP1 PUSH1 0x1F LT PUSH2 0x630 JUMPI PUSH2 0x100 DUP1 DUP4 SLOAD DIV MUL DUP4 MSTORE SWAP2 PUSH1 0x20 ADD SWAP2 PUSH2 0x659 JUMP JUMPDEST DUP3 ADD SWAP2 SWAP1 PUSH0 MSTORE PUSH1 0x20 PUSH0 KECCAK256 SWAP1 JUMPDEST DUP2 SLOAD DUP2 MSTORE SWAP1 PUSH1 0x1 ADD SWAP1 PUSH1 0x20 ADD DUP1 DUP4 GT PUSH2 0x63C JUMPI DUP3 SWAP1 SUB PUSH1 0x1F AND DUP3 ADD SWAP2 JUMPDEST POP POP POP POP POP DUP2 MSTORE PUSH1 0x20 ADD PUSH1 0x1 DUP3 ADD PUSH0 SWAP1 SLOAD SWAP1 PUSH2 0x100 EXP SWAP1 DIV PUSH13 0xFFFFFFFFFFFFFFFFFFFFFFFFFF AND PUSH13 0xFFFFFFFFFFFFFFFFFFFFFFFFFF AND PUSH13 0xFFFFFFFFFFFFFFFFFFFFFFFFFF AND DUP2 MSTORE POP POP DUP2 MSTORE PUSH1 0x20 ADD SWAP1 PUSH1 0x1 ADD SWAP1 PUSH2 0x5B2 JUMP JUMPDEST POP POP POP POP SWAP1 POP SWAP2 SWAP1 POP JUMP JUMPDEST PUSH2 0x6C4 PUSH2 0xACD JUMP JUMPDEST PUSH0 DUP4 PUSH1 0x40 MLOAD PUSH2 0x6D3 SWAP2 SWAP1 PUSH2 0x128F JUMP JUMPDEST SWAP1 DUP2 MSTORE PUSH1 0x20 ADD PUSH1 0x40 MLOAD DUP1 SWAP2 SUB SWAP1 KECCAK256 DUP3 PUSH1 0x40 MLOAD PUSH2 0x6EF SWAP2 SWAP1 PUSH2 0x128F JUMP JUMPDEST SWAP1 DUP2 MSTORE PUSH1 0x20 ADD PUSH1 0x40 MLOAD DUP1 SWAP2 SUB SWAP1 KECCAK256 PUSH1 0x40 MLOAD DUP1 PUSH1 0x40 ADD PUSH1 0x40 MSTORE SWAP1 DUP2 PUSH0 DUP3 ADD DUP1 SLOAD PUSH2 0x717 SWAP1 PUSH2 0x12D2 JUMP JUMPDEST DUP1 PUSH1 0x1F ADD PUSH1 0x20 DUP1 SWAP2 DIV MUL PUSH1 0x20 ADD PUSH1 0x40 MLOAD SWAP1 DUP2 ADD PUSH1 0x40 MSTORE DUP1 SWAP3 SWAP2 SWAP1 DUP2 DUP2 MSTORE PUSH1 0x20 ADD DUP3 DUP1 SLOAD PUSH2 0x743 SWAP1 PUSH2 0x12D2 JUMP JUMPDEST DUP1 ISZERO PUSH2 0x78E JUMPI DUP1 PUSH1 0x1F LT PUSH2 0x765 JUMPI PUSH2 0x100 DUP1 DUP4 SLOAD DIV MUL DUP4 MSTORE SWAP2 PUSH1 0x20 ADD SWAP2 PUSH2 0x78E JUMP JUMPDEST DUP3 ADD SWAP2 SWAP1 PUSH0 MSTORE PUSH1 0x20 PUSH0 KECCAK256 SWAP1 JUMPDEST DUP2 SLOAD DUP2 MSTORE SWAP1 PUSH1 0x1 ADD SWAP1 PUSH1 0x20 ADD DUP1 DUP4 GT PUSH2 0x771 JUMPI DUP3 SWAP1 SUB PUSH1 0x1F AND DUP3 ADD SWAP2 JUMPDEST POP POP POP POP POP DUP2 MSTORE PUSH1 0x20 ADD PUSH1 0x1 DUP3 ADD PUSH0 SWAP1 SLOAD SWAP1 PUSH2 0x100 EXP SWAP1 DIV PUSH13 0xFFFFFFFFFFFFFFFFFFFFFFFFFF AND PUSH13 0xFFFFFFFFFFFFFFFFFFFFFFFFFF AND PUSH13 0xFFFFFFFFFFFFFFFFFFFFFFFFFF AND DUP2 MSTORE POP POP SWAP1 POP SWAP3 SWAP2 POP POP JUMP JUMPDEST PUSH1 0x1 DUP2 DUP1 MLOAD PUSH1 0x20 DUP2 ADD DUP3 ADD DUP1 MLOAD DUP5 DUP3 MSTORE PUSH1 0x20 DUP4 ADD PUSH1 0x20 DUP6 ADD KECCAK256 DUP2 DUP4 MSTORE DUP1 SWAP6 POP POP POP POP POP POP PUSH0 SWAP2 POP SWAP1 POP DUP1 PUSH0 ADD DUP1 SLOAD PUSH2 0x816 SWAP1 PUSH2 0x12D2 JUMP JUMPDEST DUP1 PUSH1 0x1F ADD PUSH1 0x20 DUP1 SWAP2 DIV MUL PUSH1 0x20 ADD PUSH1 0x40 MLOAD SWAP1 DUP2 ADD PUSH1 0x40 MSTORE DUP1 SWAP3 SWAP2 SWAP1 DUP2 DUP2 MSTORE PUSH1 0x20 ADD DUP3 DUP1 SLOAD PUSH2 0x842 SWAP1 PUSH2 0x12D2 JUMP JUMPDEST DUP1 ISZERO PUSH2 0x88D JUMPI DUP1 PUSH1 0x1F LT PUSH2 0x864 JUMPI PUSH2 0x100 DUP1 DUP4 SLOAD DIV MUL DUP4 MSTORE SWAP2 PUSH1 0x20 ADD SWAP2 PUSH2 0x88D JUMP JUMPDEST DUP3 ADD SWAP2 SWAP1 PUSH0 MSTORE PUSH1 0x20 PUSH0 KECCAK256 SWAP1 JUMPDEST DUP2 SLOAD DUP2 MSTORE SWAP1 PUSH1 0x1 ADD SWAP1 PUSH1 0x20 ADD DUP1 DUP4 GT PUSH2 0x870 JUMPI DUP3 SWAP1 SUB PUSH1 0x1F AND DUP3 ADD SWAP2 JUMPDEST POP POP POP POP POP SWAP1 DUP1 PUSH1 0x1 ADD DUP1 SLOAD PUSH2 0x8A2 SWAP1 PUSH2 0x12D2 JUMP JUMPDEST DUP1 PUSH1 0x1F ADD PUSH1 0x20 DUP1 SWAP2 DIV MUL PUSH1 0x20 ADD PUSH1 0x40 MLOAD SWAP1 DUP2 ADD PUSH1 0x40 MSTORE DUP1 SWAP3 SWAP2 SWAP1 DUP2 DUP2 MSTORE PUSH1 0x20 ADD DUP3 DUP1 SLOAD PUSH2 0x8CE SWAP1 PUSH2 0x12D2 JUMP JUMPDEST DUP1 ISZERO PUSH2 0x919 JUMPI DUP1 PUSH1 0x1F LT PUSH2 0x8F0 JUMPI PUSH2 0x100 DUP1 DUP4 SLOAD DIV MUL DUP4 MSTORE SWAP2 PUSH1 0x20 ADD SWAP2 PUSH2 0x919 JUMP JUMPDEST DUP3 ADD SWAP2 SWAP1 PUSH0 MSTORE PUSH1 0x20 PUSH0 KECCAK256 SWAP1 JUMPDEST DUP2 SLOAD DUP2 MSTORE SWAP1 PUSH1 0x1 ADD SWAP1 PUSH1 0x20 ADD DUP1 DUP4 GT PUSH2 0x8FC JUMPI DUP3 SWAP1 SUB PUSH1 0x1F AND DUP3 ADD SWAP2 JUMPDEST POP POP POP POP POP SWAP1 DUP1 PUSH1 0x2 ADD PUSH0 SWAP1 SLOAD SWAP1 PUSH2 0x100 EXP SWAP1 DIV PUSH21 0xFFFFFFFFFFFFFFFFFFFFFFFFFFFFFFFFFFFFFFFFFF AND SWAP1 DUP1 PUSH1 0x3 ADD DUP1 SLOAD PUSH2 0x954 SWAP1 PUSH2 0x12D2 JUMP JUMPDEST DUP1 PUSH1 0x1F ADD PUSH1 0x20 DUP1 SWAP2 DIV MUL PUSH1 0x20 ADD PUSH1 0x40 MLOAD SWAP1 DUP2 ADD PUSH1 0x40 MSTORE DUP1 SWAP3 SWAP2 SWAP1 DUP2 DUP2 MSTORE PUSH1 0x20 ADD DUP3 DUP1 SLOAD PUSH2 0x980 SWAP1 PUSH2 0x12D2 JUMP JUMPDEST DUP1 ISZERO PUSH2 0x9CB JUMPI DUP1 PUSH1 0x1F LT PUSH2 0x9A2 JUMPI PUSH2 0x100 DUP1 DUP4 SLOAD DIV MUL DUP4 MSTORE SWAP2 PUSH1 0x20 ADD SWAP2 PUSH2 0x9CB JUMP JUMPDEST DUP3 ADD SWAP2 SWAP1 PUSH0 MSTORE PUSH1 0x20 PUSH0 KECCAK256 SWAP1 JUMPDEST DUP2 SLOAD DUP2 MSTORE SWAP1 PUSH1 0x1 ADD SWAP1 PUSH1 0x20 ADD DUP1 DUP4 GT PUSH2 0x9AE JUMPI DUP3 SWAP1 SUB PUSH1 0x1F AND DUP3 ADD SWAP2 JUMPDEST POP POP POP POP POP SWAP1 POP DUP5 JUMP JUMPDEST PUSH0 DUP3 DUP1 MLOAD PUSH1 0x20 DUP2 ADD DUP3 ADD DUP1 MLOAD DUP5 DUP3 MSTORE PUSH1 0x20 DUP4 ADD PUSH1 0x20 DUP6 ADD KECCAK256 DUP2 DUP4 MSTORE DUP1 SWAP6 POP POP POP POP POP POP DUP2 DUP1 MLOAD PUSH1 0x20 DUP2 ADD DUP3 ADD DUP1 MLOAD DUP5 DUP3 MSTORE PUSH1 0x20 DUP4 ADD PUSH1 0x20 DUP6 ADD KECCAK256 DUP2 DUP4 MSTORE DUP1 SWAP6 POP POP POP POP POP POP PUSH0 SWAP2 POP SWAP2 POP POP DUP1 PUSH0 ADD DUP1 SLOAD PUSH2 0xA2E SWAP1 PUSH2 0x12D2 JUMP JUMPDEST DUP1 PUSH1 0x1F ADD PUSH1 0x20 DUP1 SWAP2 DIV MUL PUSH1 0x20 ADD PUSH1 0x40 MLOAD SWAP1 DUP2 ADD PUSH1 0x40 MSTORE DUP1 SWAP3 SWAP2 SWAP1 DUP2 DUP2 MSTORE PUSH1 0x20 ADD DUP3 DUP1 SLOAD PUSH2 0xA5A SWAP1 PUSH2 0x12D2 JUMP JUMPDEST DUP1 ISZERO PUSH2 0xAA5 JUMPI DUP1 PUSH1 0x1F LT PUSH2 0xA7C JUMPI PUSH2 0x100 DUP1 DUP4 SLOAD DIV MUL DUP4 MSTORE SWAP2 PUSH1 0x20 ADD SWAP2 PUSH2 0xAA5 JUMP JUMPDEST DUP3 ADD SWAP2 SWAP1 PUSH0 MSTORE PUSH1 0x20 PUSH0 KECCAK256 SWAP1 JUMPDEST DUP2 SLOAD DUP2 MSTORE SWAP1 PUSH1 0x1 ADD SWAP1 PUSH1 0x20 ADD DUP1 DUP4 GT PUSH2 0xA88 JUMPI DUP3 SWAP1 SUB PUSH1 0x1F AND DUP3 ADD SWAP2 JUMPDEST POP POP POP POP POP SWAP1 DUP1 PUSH1 0x1 ADD PUSH0 SWAP1 SLOAD SWAP1 PUSH2 0x100 EXP SWAP1 DIV PUSH13 0xFFFFFFFFFFFFFFFFFFFFFFFFFF AND SWAP1 POP DUP3 JUMP JUMPDEST PUSH1 0x40 MLOAD DUP1 PUSH1 0x40 ADD PUSH1 0x40 MSTORE DUP1 PUSH1 0x60 DUP2 MSTORE PUSH1 0x20 ADD PUSH0 PUSH13 0xFFFFFFFFFFFFFFFFFFFFFFFFFF AND DUP2 MSTORE POP SWAP1 JUMP JUMPDEST PUSH0 PUSH1 0x40 MLOAD SWAP1 POP SWAP1 JUMP JUMPDEST PUSH0 PUSH0 REVERT JUMPDEST PUSH0 PUSH0 REVERT JUMPDEST PUSH0 PUSH0 REVERT JUMPDEST PUSH0 PUSH0 REVERT JUMPDEST PUSH0 PUSH1 0x1F NOT PUSH1 0x1F DUP4 ADD AND SWAP1 POP SWAP2 SWAP1 POP JUMP JUMPDEST PUSH32 0x4E487B7100000000000000000000000000000000000000000000000000000000 PUSH0 MSTORE PUSH1 0x41 PUSH1 0x4 MSTORE PUSH1 0x24 PUSH0 REVERT JUMPDEST PUSH2 0xB54 DUP3 PUSH2 0xB0E JUMP JUMPDEST DUP2 ADD DUP2 DUP2 LT PUSH8 0xFFFFFFFFFFFFFFFF DUP3 GT OR ISZERO PUSH2 0xB73 JUMPI PUSH2 0xB72 PUSH2 0xB1E JUMP JUMPDEST JUMPDEST DUP1 PUSH1 0x40 MSTORE POP POP POP JUMP JUMPDEST PUSH0 PUSH2 0xB85 PUSH2 0xAF5 JUMP JUMPDEST SWAP1 POP PUSH2 0xB91 DUP3 DUP3 PUSH2 0xB4B JUMP JUMPDEST SWAP2 SWAP1 POP JUMP JUMPDEST PUSH0 PUSH8 0xFFFFFFFFFFFFFFFF DUP3 GT ISZERO PUSH2 0xBB0 JUMPI PUSH2 0xBAF PUSH2 0xB1E JUMP JUMPDEST JUMPDEST PUSH2 0xBB9 DUP3 PUSH2 0xB0E JUMP JUMPDEST SWAP1 POP PUSH1 0x20 DUP2 ADD SWAP1 POP SWAP2 SWAP1 POP JUMP JUMPDEST DUP3 DUP2 DUP4 CALLDATACOPY PUSH0 DUP4 DUP4 ADD MSTORE POP POP POP JUMP JUMPDEST PUSH0 PUSH2 0xBE6 PUSH2 0xBE1 DUP5 PUSH2 0xB96 JUMP JUMPDEST PUSH2 0xB7C JUMP JUMPDEST SWAP1 POP DUP3 DUP2 MSTORE PUSH1 0x20 DUP2 ADD DUP5 DUP5 DUP5 ADD GT ISZERO PUSH2 0xC02 JUMPI PUSH2 0xC01 PUSH2 0xB0A JUMP JUMPDEST JUMPDEST PUSH2 0xC0D DUP5 DUP3 DUP6 PUSH2 0xBC6 JUMP JUMPDEST POP SWAP4 SWAP3 POP POP POP JUMP JUMPDEST PUSH0 DUP3 PUSH1 0x1F DUP4 ADD SLT PUSH2 0xC29 JUMPI PUSH2 0xC28 PUSH2 0xB06 JUMP JUMPDEST JUMPDEST DUP2 CALLDATALOAD PUSH2 0xC39 DUP5 DUP3 PUSH1 0x20 DUP7 ADD PUSH2 0xBD4 JUMP JUMPDEST SWAP2 POP POP SWAP3 SWAP2 POP POP JUMP JUMPDEST PUSH0 PUSH13 0xFFFFFFFFFFFFFFFFFFFFFFFFFF DUP3 AND SWAP1 POP SWAP2 SWAP1 POP JUMP JUMPDEST PUSH2 0xC63 DUP2 PUSH2 0xC42 JUMP JUMPDEST DUP2 EQ PUSH2 0xC6D JUMPI PUSH0 PUSH0 REVERT JUMPDEST POP JUMP JUMPDEST PUSH0 DUP2 CALLDATALOAD SWAP1 POP PUSH2 0xC7E DUP2 PUSH2 0xC5A JUMP JUMPDEST SWAP3 SWAP2 POP POP JUMP JUMPDEST PUSH0 PUSH0 PUSH0 PUSH1 0x60 DUP5 DUP7 SUB SLT ISZERO PUSH2 0xC9B JUMPI PUSH2 0xC9A PUSH2 0xAFE JUMP JUMPDEST JUMPDEST PUSH0 DUP5 ADD CALLDATALOAD PUSH8 0xFFFFFFFFFFFFFFFF DUP2 GT ISZERO PUSH2 0xCB8 JUMPI PUSH2 0xCB7 PUSH2 0xB02 JUMP JUMPDEST JUMPDEST PUSH2 0xCC4 DUP7 DUP3 DUP8 ADD PUSH2 0xC15 JUMP JUMPDEST SWAP4 POP POP PUSH1 0x20 PUSH2 0xCD5 DUP7 DUP3 DUP8 ADD PUSH2 0xC70 JUMP JUMPDEST SWAP3 POP POP PUSH1 0x40 DUP5 ADD CALLDATALOAD PUSH8 0xFFFFFFFFFFFFFFFF DUP2 GT ISZERO PUSH2 0xCF6 JUMPI PUSH2 0xCF5 PUSH2 0xB02 JUMP JUMPDEST JUMPDEST PUSH2 0xD02 DUP7 DUP3 DUP8 ADD PUSH2 0xC15 JUMP JUMPDEST SWAP2 POP POP SWAP3 POP SWAP3 POP SWAP3 JUMP JUMPDEST PUSH0 PUSH1 0x20 DUP3 DUP5 SUB SLT ISZERO PUSH2 0xD21 JUMPI PUSH2 0xD20 PUSH2 0xAFE JUMP JUMPDEST JUMPDEST PUSH0 DUP3 ADD CALLDATALOAD PUSH8 0xFFFFFFFFFFFFFFFF DUP2 GT ISZERO PUSH2 0xD3E JUMPI PUSH2 0xD3D PUSH2 0xB02 JUMP JUMPDEST JUMPDEST PUSH2 0xD4A DUP5 DUP3 DUP6 ADD PUSH2 0xC15 JUMP JUMPDEST SWAP2 POP POP SWAP3 SWAP2 POP POP JUMP JUMPDEST PUSH0 DUP2 MLOAD SWAP1 POP SWAP2 SWAP1 POP JUMP JUMPDEST PUSH0 DUP3 DUP3 MSTORE PUSH1 0x20 DUP3 ADD SWAP1 POP SWAP3 SWAP2 POP POP JUMP JUMPDEST DUP3 DUP2 DUP4 MCOPY PUSH0 DUP4 DUP4 ADD MSTORE POP POP POP JUMP JUMPDEST PUSH0 PUSH2 0xD85 DUP3 PUSH2 0xD53 JUMP JUMPDEST PUSH2 0xD8F DUP2 DUP6 PUSH2 0xD5D JUMP JUMPDEST SWAP4 POP PUSH2 0xD9F DUP2 DUP6 PUSH1 0x20 DUP7 ADD PUSH2 0xD6D JUMP JUMPDEST PUSH2 0xDA8 DUP2 PUSH2 0xB0E JUMP JUMPDEST DUP5 ADD SWAP2 POP POP SWAP3 SWAP2 POP POP JUMP JUMPDEST PUSH0 PUSH1 0x20 DUP3 ADD SWAP1 POP DUP2 DUP2 SUB PUSH0 DUP4 ADD MSTORE PUSH2 0xDCB DUP2 DUP5 PUSH2 0xD7B JUMP JUMPDEST SWAP1 POP SWAP3 SWAP2 POP POP JUMP JUMPDEST PUSH0 PUSH21 0xFFFFFFFFFFFFFFFFFFFFFFFFFFFFFFFFFFFFFFFFFF DUP3 AND SWAP1 POP SWAP2 SWAP1 POP JUMP JUMPDEST PUSH2 0xDFC DUP2 PUSH2 0xDD3 JUMP JUMPDEST DUP2 EQ PUSH2 0xE06 JUMPI PUSH0 PUSH0 REVERT JUMPDEST POP JUMP JUMPDEST PUSH0 DUP2 CALLDATALOAD SWAP1 POP PUSH2 0xE17 DUP2 PUSH2 0xDF3 JUMP JUMPDEST SWAP3 SWAP2 POP POP JUMP JUMPDEST PUSH0 DUP2 SWAP1 POP SWAP2 SWAP1 POP JUMP JUMPDEST PUSH2 0xE2F DUP2 PUSH2 0xE1D JUMP JUMPDEST DUP2 EQ PUSH2 0xE39 JUMPI PUSH0 PUSH0 REVERT JUMPDEST POP JUMP JUMPDEST PUSH0 DUP2 CALLDATALOAD SWAP1 POP PUSH2 0xE4A DUP2 PUSH2 0xE26 JUMP JUMPDEST SWAP3 SWAP2 POP POP JUMP JUMPDEST PUSH0 PUSH0 PUSH0 PUSH0 PUSH0 PUSH1 0xA0 DUP7 DUP9 SUB SLT ISZERO PUSH2 0xE69 JUMPI PUSH2 0xE68 PUSH2 0xAFE JUMP JUMPDEST JUMPDEST PUSH0 DUP7 ADD CALLDATALOAD PUSH8 0xFFFFFFFFFFFFFFFF DUP2 GT ISZERO PUSH2 0xE86 JUMPI PUSH2 0xE85 PUSH2 0xB02 JUMP JUMPDEST JUMPDEST PUSH2 0xE92 DUP9 DUP3 DUP10 ADD PUSH2 0xC15 JUMP JUMPDEST SWAP6 POP POP PUSH1 0x20 DUP7 ADD CALLDATALOAD PUSH8 0xFFFFFFFFFFFFFFFF DUP2 GT ISZERO PUSH2 0xEB3 JUMPI PUSH2 0xEB2 PUSH2 0xB02 JUMP JUMPDEST JUMPDEST PUSH2 0xEBF DUP9 DUP3 DUP10 ADD PUSH2 0xC15 JUMP JUMPDEST SWAP5 POP POP PUSH1 0x40 DUP7 ADD CALLDATALOAD PUSH8 0xFFFFFFFFFFFFFFFF DUP2 GT ISZERO PUSH2 0xEE0 JUMPI PUSH2 0xEDF PUSH2 0xB02 JUMP JUMPDEST JUMPDEST PUSH2 0xEEC DUP9 DUP3 DUP10 ADD PUSH2 0xC15 JUMP JUMPDEST SWAP4 POP POP PUSH1 0x60 PUSH2 0xEFD DUP9 DUP3 DUP10 ADD PUSH2 0xE09 JUMP JUMPDEST SWAP3 POP POP PUSH1 0x80 PUSH2 0xF0E DUP9 DUP3 DUP10 ADD PUSH2 0xE3C JUMP JUMPDEST SWAP2 POP POP SWAP3 SWAP6 POP SWAP3 SWAP6 SWAP1 SWAP4 POP JUMP JUMPDEST PUSH0 PUSH0 PUSH1 0x40 DUP4 DUP6 SUB SLT ISZERO PUSH2 0xF31 JUMPI PUSH2 0xF30 PUSH2 0xAFE JUMP JUMPDEST JUMPDEST PUSH0 DUP4 ADD CALLDATALOAD PUSH8 0xFFFFFFFFFFFFFFFF DUP2 GT ISZERO PUSH2 0xF4E JUMPI PUSH2 0xF4D PUSH2 0xB02 JUMP JUMPDEST JUMPDEST PUSH2 0xF5A DUP6 DUP3 DUP7 ADD PUSH2 0xC15 JUMP JUMPDEST SWAP3 POP POP PUSH1 0x20 PUSH2 0xF6B DUP6 DUP3 DUP7 ADD PUSH2 0xE3C JUMP JUMPDEST SWAP2 POP POP SWAP3 POP SWAP3 SWAP1 POP JUMP JUMPDEST PUSH2 0xF7E DUP2 PUSH2 0xC42 JUMP JUMPDEST DUP3 MSTORE POP POP JUMP JUMPDEST PUSH0 PUSH1 0x40 DUP3 ADD SWAP1 POP DUP2 DUP2 SUB PUSH0 DUP4 ADD MSTORE PUSH2 0xF9C DUP2 DUP6 PUSH2 0xD7B JUMP JUMPDEST SWAP1 POP PUSH2 0xFAB PUSH1 0x20 DUP4 ADD DUP5 PUSH2 0xF75 JUMP JUMPDEST SWAP4 SWAP3 POP POP POP JUMP JUMPDEST PUSH0 DUP2 MLOAD SWAP1 POP SWAP2 SWAP1 POP JUMP JUMPDEST PUSH0 DUP3 DUP3 MSTORE PUSH1 0x20 DUP3 ADD SWAP1 POP SWAP3 SWAP2 POP POP JUMP JUMPDEST PUSH0 DUP2 SWAP1 POP PUSH1 0x20 DUP3 ADD SWAP1 POP SWAP2 SWAP1 POP JUMP JUMPDEST PUSH0 DUP3 DUP3 MSTORE PUSH1 0x20 DUP3 ADD SWAP1 POP SWAP3 SWAP2 POP POP JUMP JUMPDEST PUSH0 PUSH2 0xFF5 DUP3 PUSH2 0xD53 JUMP JUMPDEST PUSH2 0xFFF DUP2 DUP6 PUSH2 0xFDB JUMP JUMPDEST SWAP4 POP PUSH2 0x100F DUP2 DUP6 PUSH1 0x20 DUP7 ADD PUSH2 0xD6D JUMP JUMPDEST PUSH2 0x1018 DUP2 PUSH2 0xB0E JUMP JUMPDEST DUP5 ADD SWAP2 POP POP SWAP3 SWAP2 POP POP JUMP JUMPDEST PUSH2 0x102C DUP2 PUSH2 0xC42 JUMP JUMPDEST DUP3 MSTORE POP POP JUMP JUMPDEST PUSH0 PUSH1 0x40 DUP4 ADD PUSH0 DUP4 ADD MLOAD DUP5 DUP3 SUB PUSH0 DUP7 ADD MSTORE PUSH2 0x104C DUP3 DUP3 PUSH2 0xFEB JUMP JUMPDEST SWAP2 POP POP PUSH1 0x20 DUP4 ADD MLOAD PUSH2 0x1061 PUSH1 0x20 DUP7 ADD DUP3 PUSH2 0x1023 JUMP JUMPDEST POP DUP1 SWAP2 POP POP SWAP3 SWAP2 POP POP JUMP JUMPDEST PUSH0 PUSH2 0x1077 DUP4 DUP4 PUSH2 0x1032 JUMP JUMPDEST SWAP1 POP SWAP3 SWAP2 POP POP JUMP JUMPDEST PUSH0 PUSH1 0x20 DUP3 ADD SWAP1 POP SWAP2 SWAP1 POP JUMP JUMPDEST PUSH0 PUSH2 0x1095 DUP3 PUSH2 0xFB2 JUMP JUMPDEST PUSH2 0x109F DUP2 DUP6 PUSH2 0xFBC JUMP JUMPDEST SWAP4 POP DUP4 PUSH1 0x20 DUP3 MUL DUP6 ADD PUSH2 0x10B1 DUP6 PUSH2 0xFCC JUMP JUMPDEST DUP1 PUSH0 JUMPDEST DUP6 DUP2 LT ISZERO PUSH2 0x10EC JUMPI DUP5 DUP5 SUB DUP10 MSTORE DUP2 MLOAD PUSH2 0x10CD DUP6 DUP3 PUSH2 0x106C JUMP JUMPDEST SWAP5 POP PUSH2 0x10D8 DUP4 PUSH2 0x107F JUMP JUMPDEST SWAP3 POP PUSH1 0x20 DUP11 ADD SWAP10 POP POP PUSH1 0x1 DUP2 ADD SWAP1 POP PUSH2 0x10B4 JUMP JUMPDEST POP DUP3 SWAP8 POP DUP8 SWAP6 POP POP POP POP POP POP SWAP3 SWAP2 POP POP JUMP JUMPDEST PUSH0 PUSH1 0x20 DUP3 ADD SWAP1 POP DUP2 DUP2 SUB PUSH0 DUP4 ADD MSTORE PUSH2 0x1116 DUP2 DUP5 PUSH2 0x108B JUMP JUMPDEST SWAP1 POP SWAP3 SWAP2 POP POP JUMP JUMPDEST PUSH0 PUSH0 PUSH1 0x40 DUP4 DUP6 SUB SLT ISZERO PUSH2 0x1134 JUMPI PUSH2 0x1133 PUSH2 0xAFE JUMP JUMPDEST JUMPDEST PUSH0 DUP4 ADD CALLDATALOAD PUSH8 0xFFFFFFFFFFFFFFFF DUP2 GT ISZERO PUSH2 0x1151 JUMPI PUSH2 0x1150 PUSH2 0xB02 JUMP JUMPDEST JUMPDEST PUSH2 0x115D DUP6 DUP3 DUP7 ADD PUSH2 0xC15 JUMP JUMPDEST SWAP3 POP POP PUSH1 0x20 DUP4 ADD CALLDATALOAD PUSH8 0xFFFFFFFFFFFFFFFF DUP2 GT ISZERO PUSH2 0x117E JUMPI PUSH2 0x117D PUSH2 0xB02 JUMP JUMPDEST JUMPDEST PUSH2 0x118A DUP6 DUP3 DUP7 ADD PUSH2 0xC15 JUMP JUMPDEST SWAP2 POP POP SWAP3 POP SWAP3 SWAP1 POP JUMP JUMPDEST PUSH0 PUSH1 0x40 DUP4 ADD PUSH0 DUP4 ADD MLOAD DUP5 DUP3 SUB PUSH0 DUP7 ADD MSTORE PUSH2 0x11AE DUP3 DUP3 PUSH2 0xFEB JUMP JUMPDEST SWAP2 POP POP PUSH1 0x20 DUP4 ADD MLOAD PUSH2 0x11C3 PUSH1 0x20 DUP7 ADD DUP3 PUSH2 0x1023 JUMP JUMPDEST POP DUP1 SWAP2 POP POP SWAP3 SWAP2 POP POP JUMP JUMPDEST PUSH0 PUSH1 0x20 DUP3 ADD SWAP1 POP DUP2 DUP2 SUB PUSH0 DUP4 ADD MSTORE PUSH2 0x11E6 DUP2 DUP5 PUSH2 0x1194 JUMP JUMPDEST SWAP1 POP SWAP3 SWAP2 POP POP JUMP JUMPDEST PUSH2 0x11F7 DUP2 PUSH2 0xDD3 JUMP JUMPDEST DUP3 MSTORE POP POP JUMP JUMPDEST PUSH0 PUSH1 0x80 DUP3 ADD SWAP1 POP DUP2 DUP2 SUB PUSH0 DUP4 ADD MSTORE PUSH2 0x1215 DUP2 DUP8 PUSH2 0xD7B JUMP JUMPDEST SWAP1 POP DUP2 DUP2 SUB PUSH1 0x20 DUP4 ADD MSTORE PUSH2 0x1229 DUP2 DUP7 PUSH2 0xD7B JUMP JUMPDEST SWAP1 POP PUSH2 0x1238 PUSH1 0x40 DUP4 ADD DUP6 PUSH2 0x11EE JUMP JUMPDEST DUP2 DUP2 SUB PUSH1 0x60 DUP4 ADD MSTORE PUSH2 0x124A DUP2 DUP5 PUSH2 0xD7B JUMP JUMPDEST SWAP1 POP SWAP6 SWAP5 POP POP POP POP POP JUMP JUMPDEST PUSH0 DUP2 SWAP1 POP SWAP3 SWAP2 POP POP JUMP JUMPDEST PUSH0 PUSH2 0x1269 DUP3 PUSH2 0xD53 JUMP JUMPDEST PUSH2 0x1273 DUP2 DUP6 PUSH2 0x1255 JUMP JUMPDEST SWAP4 POP PUSH2 0x1283 DUP2 DUP6 PUSH1 0x20 DUP7 ADD PUSH2 0xD6D JUMP JUMPDEST DUP1 DUP5 ADD SWAP2 POP POP SWAP3 SWAP2 POP POP JUMP JUMPDEST PUSH0 PUSH2 0x129A DUP3 DUP5 PUSH2 0x125F JUMP JUMPDEST SWAP2 POP DUP2 SWAP1 POP SWAP3 SWAP2 POP POP JUMP JUMPDEST PUSH32 0x4E487B7100000000000000000000000000000000000000000000000000000000 PUSH0 MSTORE PUSH1 0x22 PUSH1 0x4 MSTORE PUSH1 0x24 PUSH0 REVERT JUMPDEST PUSH0 PUSH1 0x2 DUP3 DIV SWAP1 POP PUSH1 0x1 DUP3 AND DUP1 PUSH2 0x12E9 JUMPI PUSH1 0x7F DUP3 AND SWAP2 POP JUMPDEST PUSH1 0x20 DUP3 LT DUP2 SUB PUSH2 0x12FC JUMPI PUSH2 0x12FB PUSH2 0x12A5 JUMP JUMPDEST JUMPDEST POP SWAP2 SWAP1 POP JUMP JUMPDEST PUSH0 DUP2 SWAP1 POP DUP2 PUSH0 MSTORE PUSH1 0x20 PUSH0 KECCAK256 SWAP1 POP SWAP2 SWAP1 POP JUMP JUMPDEST PUSH0 PUSH1 0x20 PUSH1 0x1F DUP4 ADD DIV SWAP1 POP SWAP2 SWAP1 POP JUMP JUMPDEST PUSH0 DUP3 DUP3 SHL SWAP1 POP SWAP3 SWAP2 POP POP JUMP JUMPDEST PUSH0 PUSH1 0x8 DUP4 MUL PUSH2 0x135E PUSH32 0xFFFFFFFFFFFFFFFFFFFFFFFFFFFFFFFFFFFFFFFFFFFFFFFFFFFFFFFFFFFFFFFF DUP3 PUSH2 0x1323 JUMP JUMPDEST PUSH2 0x1368 DUP7 DUP4 PUSH2 0x1323 JUMP JUMPDEST SWAP6 POP DUP1 NOT DUP5 AND SWAP4 POP DUP1 DUP7 AND DUP5 OR SWAP3 POP POP POP SWAP4 SWAP3 POP POP POP JUMP JUMPDEST PUSH0 DUP2 SWAP1 POP SWAP2 SWAP1 POP JUMP JUMPDEST PUSH0 PUSH2 0x13A3 PUSH2 0x139E PUSH2 0x1399 DUP5 PUSH2 0xE1D JUMP JUMPDEST PUSH2 0x1380 JUMP JUMPDEST PUSH2 0xE1D JUMP JUMPDEST SWAP1 POP SWAP2 SWAP1 POP JUMP JUMPDEST PUSH0 DUP2 SWAP1 POP SWAP2 SWAP1 POP JUMP JUMPDEST PUSH2 0x13BC DUP4 PUSH2 0x1389 JUMP JUMPDEST PUSH2 0x13D0 PUSH2 0x13C8 DUP3 PUSH2 0x13AA JUMP JUMPDEST DUP5 DUP5 SLOAD PUSH2 0x132F JUMP JUMPDEST DUP3 SSTORE POP POP POP POP JUMP JUMPDEST PUSH0 PUSH0 SWAP1 POP SWAP1 JUMP JUMPDEST PUSH2 0x13E7 PUSH2 0x13D8 JUMP JUMPDEST PUSH2 0x13F2 DUP2 DUP5 DUP5 PUSH2 0x13B3 JUMP JUMPDEST POP POP POP JUMP JUMPDEST JUMPDEST DUP2 DUP2 LT ISZERO PUSH2 0x1415 JUMPI PUSH2 0x140A PUSH0 DUP3 PUSH2 0x13DF JUMP JUMPDEST PUSH1 0x1 DUP2 ADD SWAP1 POP PUSH2 0x13F8 JUMP JUMPDEST POP POP JUMP JUMPDEST PUSH1 0x1F DUP3 GT ISZERO PUSH2 0x145A JUMPI PUSH2 0x142B DUP2 PUSH2 0x1302 JUMP JUMPDEST PUSH2 0x1434 DUP5 PUSH2 0x1314 JUMP JUMPDEST DUP2 ADD PUSH1 0x20 DUP6 LT ISZERO PUSH2 0x1443 JUMPI DUP2 SWAP1 POP JUMPDEST PUSH2 0x1457 PUSH2 0x144F DUP6 PUSH2 0x1314 JUMP JUMPDEST DUP4 ADD DUP3 PUSH2 0x13F7 JUMP JUMPDEST POP POP JUMPDEST POP POP POP JUMP JUMPDEST PUSH0 DUP3 DUP3 SHR SWAP1 POP SWAP3 SWAP2 POP POP JUMP JUMPDEST PUSH0 PUSH2 0x147A PUSH0 NOT DUP5 PUSH1 0x8 MUL PUSH2 0x145F JUMP JUMPDEST NOT DUP1 DUP4 AND SWAP2 POP POP SWAP3 SWAP2 POP POP JUMP JUMPDEST PUSH0 PUSH2 0x1492 DUP4 DUP4 PUSH2 0x146B JUMP JUMPDEST SWAP2 POP DUP3 PUSH1 0x2 MUL DUP3 OR SWAP1 POP SWAP3 SWAP2 POP POP JUMP JUMPDEST PUSH2 0x14AB DUP3 PUSH2 0xD53 JUMP JUMPDEST PUSH8 0xFFFFFFFFFFFFFFFF DUP2 GT ISZERO PUSH2 0x14C4 JUMPI PUSH2 0x14C3 PUSH2 0xB1E JUMP JUMPDEST JUMPDEST PUSH2 0x14CE DUP3 SLOAD PUSH2 0x12D2 JUMP JUMPDEST PUSH2 0x14D9 DUP3 DUP3 DUP6 PUSH2 0x1419 JUMP JUMPDEST PUSH0 PUSH1 0x20 SWAP1 POP PUSH1 0x1F DUP4 GT PUSH1 0x1 DUP2 EQ PUSH2 0x150A JUMPI PUSH0 DUP5 ISZERO PUSH2 0x14F8 JUMPI DUP3 DUP8 ADD MLOAD SWAP1 POP JUMPDEST PUSH2 0x1502 DUP6 DUP3 PUSH2 0x1487 JUMP JUMPDEST DUP7 SSTORE POP PUSH2 0x1569 JUMP JUMPDEST PUSH1 0x1F NOT DUP5 AND PUSH2 0x1518 DUP7 PUSH2 0x1302 JUMP JUMPDEST PUSH0 JUMPDEST DUP3 DUP2 LT ISZERO PUSH2 0x153F JUMPI DUP5 DUP10 ADD MLOAD DUP3 SSTORE PUSH1 0x1 DUP3 ADD SWAP2 POP PUSH1 0x20 DUP6 ADD SWAP5 POP PUSH1 0x20 DUP2 ADD SWAP1 POP PUSH2 0x151A JUMP JUMPDEST DUP7 DUP4 LT ISZERO PUSH2 0x155C JUMPI DUP5 DUP10 ADD MLOAD PUSH2 0x1558 PUSH1 0x1F DUP10 AND DUP3 PUSH2 0x146B JUMP JUMPDEST DUP4 SSTORE POP JUMPDEST PUSH1 0x1 PUSH1 0x2 DUP9 MUL ADD DUP9 SSTORE POP POP POP JUMPDEST POP POP POP POP POP POP JUMP INVALID LOG2 PUSH5 0x6970667358 0x22 SLT KECCAK256 0xE9 0xEA 0x2E DUP11 0xF6 GAS CREATE2 0xB3 SWAP9 EXTCODESIZE ADDRESS DUP15 DUP5 PUSH30 0xC4B4ADFD0A44B45CEF2995054183FEF3DFCD64736F6C634300081E003300 "
				},
				"gasEstimates": {
					"creation": {
						"codeDepositCost": "1108600",
						"executionCost": "1152",
						"totalCost": "1109752"
					},
					"external": {
						"addpatient(string,uint104,string)": "infinite",
						"allpatientshospital(string,uint256)": "infinite",
						"createpatientaccount(string,string,string,uint168,uint256)": "infinite",
						"getallpatientsinhospital(string)": "infinite",
						"getuser(string,string)": "infinite",
						"getuseremial(string)": "infinite",
						"patients(string,string)": "infinite",
						"users(string)": "infinite"
					}
				},
				"methodIdentifiers": {
					"addpatient(string,uint104,string)": "25b9a40d",
					"allpatientshospital(string,uint256)": "3a110d0d",
					"createpatientaccount(string,string,string,uint168,uint256)": "341fde55",
					"getallpatientsinhospital(string)": "45c3c6c2",
					"getuser(string,string)": "629014d7",
					"getuseremial(string)": "26b60286",
					"patients(string,string)": "cae17979",
					"users(string)": "689e1c03"
				}
			},
			"storageLayout": {
				"storage": [
					{
						"astId": 23,
						"contract": "contracts/1_Storage.sol:twitter",
						"label": "patients",
						"offset": 0,
						"slot": "0",
						"type": "t_mapping(t_string_memory_ptr,t_mapping(t_string_memory_ptr,t_struct(Host)7_storage))"
					},
					{
						"astId": 28,
						"contract": "contracts/1_Storage.sol:twitter",
						"label": "users",
						"offset": 0,
						"slot": "1",
						"type": "t_mapping(t_string_memory_ptr,t_struct(User)16_storage)"
					},
					{
						"astId": 34,
						"contract": "contracts/1_Storage.sol:twitter",
						"label": "allpatientshospital",
						"offset": 0,
						"slot": "2",
						"type": "t_mapping(t_string_memory_ptr,t_array(t_struct(Host)7_storage)dyn_storage)"
					}
				],
				"types": {
					"t_array(t_struct(Host)7_storage)dyn_storage": {
						"base": "t_struct(Host)7_storage",
						"encoding": "dynamic_array",
						"label": "struct twitter.Host[]",
						"numberOfBytes": "32"
					},
					"t_mapping(t_string_memory_ptr,t_array(t_struct(Host)7_storage)dyn_storage)": {
						"encoding": "mapping",
						"key": "t_string_memory_ptr",
						"label": "mapping(string => struct twitter.Host[])",
						"numberOfBytes": "32",
						"value": "t_array(t_struct(Host)7_storage)dyn_storage"
					},
					"t_mapping(t_string_memory_ptr,t_mapping(t_string_memory_ptr,t_struct(Host)7_storage))": {
						"encoding": "mapping",
						"key": "t_string_memory_ptr",
						"label": "mapping(string => mapping(string => struct twitter.Host))",
						"numberOfBytes": "32",
						"value": "t_mapping(t_string_memory_ptr,t_struct(Host)7_storage)"
					},
					"t_mapping(t_string_memory_ptr,t_struct(Host)7_storage)": {
						"encoding": "mapping",
						"key": "t_string_memory_ptr",
						"label": "mapping(string => struct twitter.Host)",
						"numberOfBytes": "32",
						"value": "t_struct(Host)7_storage"
					},
					"t_mapping(t_string_memory_ptr,t_struct(User)16_storage)": {
						"encoding": "mapping",
						"key": "t_string_memory_ptr",
						"label": "mapping(string => struct twitter.User)",
						"numberOfBytes": "32",
						"value": "t_struct(User)16_storage"
					},
					"t_string_memory_ptr": {
						"encoding": "bytes",
						"label": "string",
						"numberOfBytes": "32"
					},
					"t_string_storage": {
						"encoding": "bytes",
						"label": "string",
						"numberOfBytes": "32"
					},
					"t_struct(Host)7_storage": {
						"encoding": "inplace",
						"label": "struct twitter.Host",
						"members": [
							{
								"astId": 4,
								"contract": "contracts/1_Storage.sol:twitter",
								"label": "name",
								"offset": 0,
								"slot": "0",
								"type": "t_string_storage"
							},
							{
								"astId": 6,
								"contract": "contracts/1_Storage.sol:twitter",
								"label": "age",
								"offset": 0,
								"slot": "1",
								"type": "t_uint104"
							}
						],
						"numberOfBytes": "64"
					},
					"t_struct(User)16_storage": {
						"encoding": "inplace",
						"label": "struct twitter.User",
						"members": [
							{
								"astId": 9,
								"contract": "contracts/1_Storage.sol:twitter",
								"label": "name",
								"offset": 0,
								"slot": "0",
								"type": "t_string_storage"
							},
							{
								"astId": 11,
								"contract": "contracts/1_Storage.sol:twitter",
								"label": "email",
								"offset": 0,
								"slot": "1",
								"type": "t_string_storage"
							},
							{
								"astId": 13,
								"contract": "contracts/1_Storage.sol:twitter",
								"label": "phnum",
								"offset": 0,
								"slot": "2",
								"type": "t_uint168"
							},
							{
								"astId": 15,
								"contract": "contracts/1_Storage.sol:twitter",
								"label": "hospitalname",
								"offset": 0,
								"slot": "3",
								"type": "t_string_storage"
							}
						],
						"numberOfBytes": "128"
					},
					"t_uint104": {
						"encoding": "inplace",
						"label": "uint104",
						"numberOfBytes": "13"
					},
					"t_uint168": {
						"encoding": "inplace",
						"label": "uint168",
						"numberOfBytes": "21"
					}
				}
			},
			"userdoc": {
				"kind": "user",
				"methods": {},
				"version": 1
			}
		}
	}
}