{
	"data": {
		"bytecode": {
			"linkReferences": {},
			"object": "6080604052348015600e575f5ffd5b50610d3c8061001c5f395ff3fe608060405234801561000f575f5ffd5b506004361061004a575f3560e01c8063100607d41461004e57806325b9a40d1461006a57806326b6028614610086578063689e1c03146100b6575b5f5ffd5b61006860048036038101906100639190610731565b6100e9565b005b610084600480360381019061007f919061082b565b6101f6565b005b6100a0600480360381019061009b91906108b3565b6102b5565b6040516100ad919061095a565b60405180910390f35b6100d060048036038101906100cb91906108b3565b610366565b6040516100e09493929190610989565b60405180910390f35b6100f161055c565b84815f018190525082816020018190525081816040019074ffffffffffffffffffffffffffffffffffffffffff16908174ffffffffffffffffffffffffffffffffffffffffff1681525050838160600181905250806001866040516101569190610a1b565b90815260200160405180910390205f820151815f0190816101779190610c37565b50602082015181600101908161018d9190610c37565b506040820151816002015f6101000a81548174ffffffffffffffffffffffffffffffffffffffffff021916908374ffffffffffffffffffffffffffffffffffffffffff16021790555060608201518160030190816101eb9190610c37565b509050505050505050565b5f6040518060400160405280858152602001846cffffffffffffffffffffffffff1681525090505f8260405161022c9190610a1b565b908152602001604051809103902081908060018154018082558091505060019003905f5260205f2090600202015f909190919091505f820151815f0190816102749190610c37565b506020820151816001015f6101000a8154816cffffffffffffffffffffffffff02191690836cffffffffffffffffffffffffff160217905550505050505050565b60606001826040516102c79190610a1b565b908152602001604051809103902060010180546102e390610a5e565b80601f016020809104026020016040519081016040528092919081815260200182805461030f90610a5e565b801561035a5780601f106103315761010080835404028352916020019161035a565b820191905f5260205f20905b81548152906001019060200180831161033d57829003601f168201915b50505050509050919050565b6001818051602081018201805184825260208301602085012081835280955050505050505f91509050805f01805461039d90610a5e565b80601f01602080910402602001604051908101604052809291908181526020018280546103c990610a5e565b80156104145780601f106103eb57610100808354040283529160200191610414565b820191905f5260205f20905b8154815290600101906020018083116103f757829003601f168201915b50505050509080600101805461042990610a5e565b80601f016020809104026020016040519081016040528092919081815260200182805461045590610a5e565b80156104a05780601f10610477576101008083540402835291602001916104a0565b820191905f5260205f20905b81548152906001019060200180831161048357829003601f168201915b505050505090806002015f9054906101000a900474ffffffffffffffffffffffffffffffffffffffffff16908060030180546104db90610a5e565b80601f016020809104026020016040519081016040528092919081815260200182805461050790610a5e565b80156105525780601f1061052957610100808354040283529160200191610552565b820191905f5260205f20905b81548152906001019060200180831161053557829003601f168201915b5050505050905084565b604051806080016040528060608152602001606081526020015f74ffffffffffffffffffffffffffffffffffffffffff168152602001606081525090565b5f604051905090565b5f5ffd5b5f5ffd5b5f5ffd5b5f5ffd5b5f601f19601f8301169050919050565b7f4e487b71000000000000000000000000000000000000000000000000000000005f52604160045260245ffd5b6105f9826105b3565b810181811067ffffffffffffffff82111715610618576106176105c3565b5b80604052505050565b5f61062a61059a565b905061063682826105f0565b919050565b5f67ffffffffffffffff821115610655576106546105c3565b5b61065e826105b3565b9050602081019050919050565b828183375f83830152505050565b5f61068b6106868461063b565b610621565b9050828152602081018484840111156106a7576106a66105af565b5b6106b284828561066b565b509392505050565b5f82601f8301126106ce576106cd6105ab565b5b81356106de848260208601610679565b91505092915050565b5f74ffffffffffffffffffffffffffffffffffffffffff82169050919050565b610710816106e7565b811461071a575f5ffd5b50565b5f8135905061072b81610707565b92915050565b5f5f5f5f60808587031215610749576107486105a3565b5b5f85013567ffffffffffffffff811115610766576107656105a7565b5b610772878288016106ba565b945050602085013567ffffffffffffffff811115610793576107926105a7565b5b61079f878288016106ba565b935050604085013567ffffffffffffffff8111156107c0576107bf6105a7565b5b6107cc878288016106ba565b92505060606107dd8782880161071d565b91505092959194509250565b5f6cffffffffffffffffffffffffff82169050919050565b61080a816107e9565b8114610814575f5ffd5b50565b5f8135905061082581610801565b92915050565b5f5f5f60608486031215610842576108416105a3565b5b5f84013567ffffffffffffffff81111561085f5761085e6105a7565b5b61086b868287016106ba565b935050602061087c86828701610817565b925050604084013567ffffffffffffffff81111561089d5761089c6105a7565b5b6108a9868287016106ba565b9150509250925092565b5f602082840312156108c8576108c76105a3565b5b5f82013567ffffffffffffffff8111156108e5576108e46105a7565b5b6108f1848285016106ba565b91505092915050565b5f81519050919050565b5f82825260208201905092915050565b8281835e5f83830152505050565b5f61092c826108fa565b6109368185610904565b9350610946818560208601610914565b61094f816105b3565b840191505092915050565b5f6020820190508181035f8301526109728184610922565b905092915050565b610983816106e7565b82525050565b5f6080820190508181035f8301526109a18187610922565b905081810360208301526109b58186610922565b90506109c4604083018561097a565b81810360608301526109d68184610922565b905095945050505050565b5f81905092915050565b5f6109f5826108fa565b6109ff81856109e1565b9350610a0f818560208601610914565b80840191505092915050565b5f610a2682846109eb565b915081905092915050565b7f4e487b71000000000000000000000000000000000000000000000000000000005f52602260045260245ffd5b5f6002820490506001821680610a7557607f821691505b602082108103610a8857610a87610a31565b5b50919050565b5f819050815f5260205f209050919050565b5f6020601f8301049050919050565b5f82821b905092915050565b5f60088302610aea7fffffffffffffffffffffffffffffffffffffffffffffffffffffffffffffffff82610aaf565b610af48683610aaf565b95508019841693508086168417925050509392505050565b5f819050919050565b5f819050919050565b5f610b38610b33610b2e84610b0c565b610b15565b610b0c565b9050919050565b5f819050919050565b610b5183610b1e565b610b65610b5d82610b3f565b848454610abb565b825550505050565b5f5f905090565b610b7c610b6d565b610b87818484610b48565b505050565b5b81811015610baa57610b9f5f82610b74565b600181019050610b8d565b5050565b601f821115610bef57610bc081610a8e565b610bc984610aa0565b81016020851015610bd8578190505b610bec610be485610aa0565b830182610b8c565b50505b505050565b5f82821c905092915050565b5f610c0f5f1984600802610bf4565b1980831691505092915050565b5f610c278383610c00565b9150826002028217905092915050565b610c40826108fa565b67ffffffffffffffff811115610c5957610c586105c3565b5b610c638254610a5e565b610c6e828285610bae565b5f60209050601f831160018114610c9f575f8415610c8d578287015190505b610c978582610c1c565b865550610cfe565b601f198416610cad86610a8e565b5f5b82811015610cd457848901518255600182019150602085019450602081019050610caf565b86831015610cf15784890151610ced601f891682610c00565b8355505b6001600288020188555050505b50505050505056fea26469706673582212208599b387b44b27eb9ae70d6807a2cf8551dda449061ae8a92be3924f39559e4c64736f6c634300081e0033",
			"opcodes": "PUSH1 0x80 PUSH1 0x40 MSTORE CALLVALUE DUP1 ISZERO PUSH1 0xE JUMPI PUSH0 PUSH0 REVERT JUMPDEST POP PUSH2 0xD3C DUP1 PUSH2 0x1C PUSH0 CODECOPY PUSH0 RETURN INVALID PUSH1 0x80 PUSH1 0x40 MSTORE CALLVALUE DUP1 ISZERO PUSH2 0xF JUMPI PUSH0 PUSH0 REVERT JUMPDEST POP PUSH1 0x4 CALLDATASIZE LT PUSH2 0x4A JUMPI PUSH0 CALLDATALOAD PUSH1 0xE0 SHR DUP1 PUSH4 0x100607D4 EQ PUSH2 0x4E JUMPI DUP1 PUSH4 0x25B9A40D EQ PUSH2 0x6A JUMPI DUP1 PUSH4 0x26B60286 EQ PUSH2 0x86 JUMPI DUP1 PUSH4 0x689E1C03 EQ PUSH2 0xB6 JUMPI JUMPDEST PUSH0 PUSH0 REVERT JUMPDEST PUSH2 0x68 PUSH1 0x4 DUP1 CALLDATASIZE SUB DUP2 ADD SWAP1 PUSH2 0x63 SWAP2 SWAP1 PUSH2 0x731 JUMP JUMPDEST PUSH2 0xE9 JUMP JUMPDEST STOP JUMPDEST PUSH2 0x84 PUSH1 0x4 DUP1 CALLDATASIZE SUB DUP2 ADD SWAP1 PUSH2 0x7F SWAP2 SWAP1 PUSH2 0x82B JUMP JUMPDEST PUSH2 0x1F6 JUMP JUMPDEST STOP JUMPDEST PUSH2 0xA0 PUSH1 0x4 DUP1 CALLDATASIZE SUB DUP2 ADD SWAP1 PUSH2 0x9B SWAP2 SWAP1 PUSH2 0x8B3 JUMP JUMPDEST PUSH2 0x2B5 JUMP JUMPDEST PUSH1 0x40 MLOAD PUSH2 0xAD SWAP2 SWAP1 PUSH2 0x95A JUMP JUMPDEST PUSH1 0x40 MLOAD DUP1 SWAP2 SUB SWAP1 RETURN JUMPDEST PUSH2 0xD0 PUSH1 0x4 DUP1 CALLDATASIZE SUB DUP2 ADD SWAP1 PUSH2 0xCB SWAP2 SWAP1 PUSH2 0x8B3 JUMP JUMPDEST PUSH2 0x366 JUMP JUMPDEST PUSH1 0x40 MLOAD PUSH2 0xE0 SWAP5 SWAP4 SWAP3 SWAP2 SWAP1 PUSH2 0x989 JUMP JUMPDEST PUSH1 0x40 MLOAD DUP1 SWAP2 SUB SWAP1 RETURN JUMPDEST PUSH2 0xF1 PUSH2 0x55C JUMP JUMPDEST DUP5 DUP2 PUSH0 ADD DUP2 SWAP1 MSTORE POP DUP3 DUP2 PUSH1 0x20 ADD DUP2 SWAP1 MSTORE POP DUP2 DUP2 PUSH1 0x40 ADD SWAP1 PUSH21 0xFFFFFFFFFFFFFFFFFFFFFFFFFFFFFFFFFFFFFFFFFF AND SWAP1 DUP2 PUSH21 0xFFFFFFFFFFFFFFFFFFFFFFFFFFFFFFFFFFFFFFFFFF AND DUP2 MSTORE POP POP DUP4 DUP2 PUSH1 0x60 ADD DUP2 SWAP1 MSTORE POP DUP1 PUSH1 0x1 DUP7 PUSH1 0x40 MLOAD PUSH2 0x156 SWAP2 SWAP1 PUSH2 0xA1B JUMP JUMPDEST SWAP1 DUP2 MSTORE PUSH1 0x20 ADD PUSH1 0x40 MLOAD DUP1 SWAP2 SUB SWAP1 KECCAK256 PUSH0 DUP3 ADD MLOAD DUP2 PUSH0 ADD SWAP1 DUP2 PUSH2 0x177 SWAP2 SWAP1 PUSH2 0xC37 JUMP JUMPDEST POP PUSH1 0x20 DUP3 ADD MLOAD DUP2 PUSH1 0x1 ADD SWAP1 DUP2 PUSH2 0x18D SWAP2 SWAP1 PUSH2 0xC37 JUMP JUMPDEST POP PUSH1 0x40 DUP3 ADD MLOAD DUP2 PUSH1 0x2 ADD PUSH0 PUSH2 0x100 EXP DUP2 SLOAD DUP2 PUSH21 0xFFFFFFFFFFFFFFFFFFFFFFFFFFFFFFFFFFFFFFFFFF MUL NOT AND SWAP1 DUP4 PUSH21 0xFFFFFFFFFFFFFFFFFFFFFFFFFFFFFFFFFFFFFFFFFF AND MUL OR SWAP1 SSTORE POP PUSH1 0x60 DUP3 ADD MLOAD DUP2 PUSH1 0x3 ADD SWAP1 DUP2 PUSH2 0x1EB SWAP2 SWAP1 PUSH2 0xC37 JUMP JUMPDEST POP SWAP1 POP POP POP POP POP POP POP JUMP JUMPDEST PUSH0 PUSH1 0x40 MLOAD DUP1 PUSH1 0x40 ADD PUSH1 0x40 MSTORE DUP1 DUP6 DUP2 MSTORE PUSH1 0x20 ADD DUP5 PUSH13 0xFFFFFFFFFFFFFFFFFFFFFFFFFF AND DUP2 MSTORE POP SWAP1 POP PUSH0 DUP3 PUSH1 0x40 MLOAD PUSH2 0x22C SWAP2 SWAP1 PUSH2 0xA1B JUMP JUMPDEST SWAP1 DUP2 MSTORE PUSH1 0x20 ADD PUSH1 0x40 MLOAD DUP1 SWAP2 SUB SWAP1 KECCAK256 DUP2 SWAP1 DUP1 PUSH1 0x1 DUP2 SLOAD ADD DUP1 DUP3 SSTORE DUP1 SWAP2 POP POP PUSH1 0x1 SWAP1 SUB SWAP1 PUSH0 MSTORE PUSH1 0x20 PUSH0 KECCAK256 SWAP1 PUSH1 0x2 MUL ADD PUSH0 SWAP1 SWAP2 SWAP1 SWAP2 SWAP1 SWAP2 POP PUSH0 DUP3 ADD MLOAD DUP2 PUSH0 ADD SWAP1 DUP2 PUSH2 0x274 SWAP2 SWAP1 PUSH2 0xC37 JUMP JUMPDEST POP PUSH1 0x20 DUP3 ADD MLOAD DUP2 PUSH1 0x1 ADD PUSH0 PUSH2 0x100 EXP DUP2 SLOAD DUP2 PUSH13 0xFFFFFFFFFFFFFFFFFFFFFFFFFF MUL NOT AND SWAP1 DUP4 PUSH13 0xFFFFFFFFFFFFFFFFFFFFFFFFFF AND MUL OR SWAP1 SSTORE POP POP POP POP POP POP POP JUMP JUMPDEST PUSH1 0x60 PUSH1 0x1 DUP3 PUSH1 0x40 MLOAD PUSH2 0x2C7 SWAP2 SWAP1 PUSH2 0xA1B JUMP JUMPDEST SWAP1 DUP2 MSTORE PUSH1 0x20 ADD PUSH1 0x40 MLOAD DUP1 SWAP2 SUB SWAP1 KECCAK256 PUSH1 0x1 ADD DUP1 SLOAD PUSH2 0x2E3 SWAP1 PUSH2 0xA5E JUMP JUMPDEST DUP1 PUSH1 0x1F ADD PUSH1 0x20 DUP1 SWAP2 DIV MUL PUSH1 0x20 ADD PUSH1 0x40 MLOAD SWAP1 DUP2 ADD PUSH1 0x40 MSTORE DUP1 SWAP3 SWAP2 SWAP1 DUP2 DUP2 MSTORE PUSH1 0x20 ADD DUP3 DUP1 SLOAD PUSH2 0x30F SWAP1 PUSH2 0xA5E JUMP JUMPDEST DUP1 ISZERO PUSH2 0x35A JUMPI DUP1 PUSH1 0x1F LT PUSH2 0x331 JUMPI PUSH2 0x100 DUP1 DUP4 SLOAD DIV MUL DUP4 MSTORE SWAP2 PUSH1 0x20 ADD SWAP2 PUSH2 0x35A JUMP JUMPDEST DUP3 ADD SWAP2 SWAP1 PUSH0 MSTORE PUSH1 0x20 PUSH0 KECCAK256 SWAP1 JUMPDEST DUP2 SLOAD DUP2 MSTORE SWAP1 PUSH1 0x1 ADD SWAP1 PUSH1 0x20 ADD DUP1 DUP4 GT PUSH2 0x33D JUMPI DUP3 SWAP1 SUB PUSH1 0x1F AND DUP3 ADD SWAP2 JUMPDEST POP POP POP POP POP SWAP1 POP SWAP2 SWAP1 POP JUMP JUMPDEST PUSH1 0x1 DUP2 DUP1 MLOAD PUSH1 0x20 DUP2 ADD DUP3 ADD DUP1 MLOAD DUP5 DUP3 MSTORE PUSH1 0x20 DUP4 ADD PUSH1 0x20 DUP6 ADD KECCAK256 DUP2 DUP4 MSTORE DUP1 SWAP6 POP POP POP POP POP POP PUSH0 SWAP2 POP SWAP1 POP DUP1 PUSH0 ADD DUP1 SLOAD PUSH2 0x39D SWAP1 PUSH2 0xA5E JUMP JUMPDEST DUP1 PUSH1 0x1F ADD PUSH1 0x20 DUP1 SWAP2 DIV MUL PUSH1 0x20 ADD PUSH1 0x40 MLOAD SWAP1 DUP2 ADD PUSH1 0x40 MSTORE DUP1 SWAP3 SWAP2 SWAP1 DUP2 DUP2 MSTORE PUSH1 0x20 ADD DUP3 DUP1 SLOAD PUSH2 0x3C9 SWAP1 PUSH2 0xA5E JUMP JUMPDEST DUP1 ISZERO PUSH2 0x414 JUMPI DUP1 PUSH1 0x1F LT PUSH2 0x3EB JUMPI PUSH2 0x100 DUP1 DUP4 SLOAD DIV MUL DUP4 MSTORE SWAP2 PUSH1 0x20 ADD SWAP2 PUSH2 0x414 JUMP JUMPDEST DUP3 ADD SWAP2 SWAP1 PUSH0 MSTORE PUSH1 0x20 PUSH0 KECCAK256 SWAP1 JUMPDEST DUP2 SLOAD DUP2 MSTORE SWAP1 PUSH1 0x1 ADD SWAP1 PUSH1 0x20 ADD DUP1 DUP4 GT PUSH2 0x3F7 JUMPI DUP3 SWAP1 SUB PUSH1 0x1F AND DUP3 ADD SWAP2 JUMPDEST POP POP POP POP POP SWAP1 DUP1 PUSH1 0x1 ADD DUP1 SLOAD PUSH2 0x429 SWAP1 PUSH2 0xA5E JUMP JUMPDEST DUP1 PUSH1 0x1F ADD PUSH1 0x20 DUP1 SWAP2 DIV MUL PUSH1 0x20 ADD PUSH1 0x40 MLOAD SWAP1 DUP2 ADD PUSH1 0x40 MSTORE DUP1 SWAP3 SWAP2 SWAP1 DUP2 DUP2 MSTORE PUSH1 0x20 ADD DUP3 DUP1 SLOAD PUSH2 0x455 SWAP1 PUSH2 0xA5E JUMP JUMPDEST DUP1 ISZERO PUSH2 0x4A0 JUMPI DUP1 PUSH1 0x1F LT PUSH2 0x477 JUMPI PUSH2 0x100 DUP1 DUP4 SLOAD DIV MUL DUP4 MSTORE SWAP2 PUSH1 0x20 ADD SWAP2 PUSH2 0x4A0 JUMP JUMPDEST DUP3 ADD SWAP2 SWAP1 PUSH0 MSTORE PUSH1 0x20 PUSH0 KECCAK256 SWAP1 JUMPDEST DUP2 SLOAD DUP2 MSTORE SWAP1 PUSH1 0x1 ADD SWAP1 PUSH1 0x20 ADD DUP1 DUP4 GT PUSH2 0x483 JUMPI DUP3 SWAP1 SUB PUSH1 0x1F AND DUP3 ADD SWAP2 JUMPDEST POP POP POP POP POP SWAP1 DUP1 PUSH1 0x2 ADD PUSH0 SWAP1 SLOAD SWAP1 PUSH2 0x100 EXP SWAP1 DIV PUSH21 0xFFFFFFFFFFFFFFFFFFFFFFFFFFFFFFFFFFFFFFFFFF AND SWAP1 DUP1 PUSH1 0x3 ADD DUP1 SLOAD PUSH2 0x4DB SWAP1 PUSH2 0xA5E JUMP JUMPDEST DUP1 PUSH1 0x1F ADD PUSH1 0x20 DUP1 SWAP2 DIV MUL PUSH1 0x20 ADD PUSH1 0x40 MLOAD SWAP1 DUP2 ADD PUSH1 0x40 MSTORE DUP1 SWAP3 SWAP2 SWAP1 DUP2 DUP2 MSTORE PUSH1 0x20 ADD DUP3 DUP1 SLOAD PUSH2 0x507 SWAP1 PUSH2 0xA5E JUMP JUMPDEST DUP1 ISZERO PUSH2 0x552 JUMPI DUP1 PUSH1 0x1F LT PUSH2 0x529 JUMPI PUSH2 0x100 DUP1 DUP4 SLOAD DIV MUL DUP4 MSTORE SWAP2 PUSH1 0x20 ADD SWAP2 PUSH2 0x552 JUMP JUMPDEST DUP3 ADD SWAP2 SWAP1 PUSH0 MSTORE PUSH1 0x20 PUSH0 KECCAK256 SWAP1 JUMPDEST DUP2 SLOAD DUP2 MSTORE SWAP1 PUSH1 0x1 ADD SWAP1 PUSH1 0x20 ADD DUP1 DUP4 GT PUSH2 0x535 JUMPI DUP3 SWAP1 SUB PUSH1 0x1F AND DUP3 ADD SWAP2 JUMPDEST POP POP POP POP POP SWAP1 POP DUP5 JUMP JUMPDEST PUSH1 0x40 MLOAD DUP1 PUSH1 0x80 ADD PUSH1 0x40 MSTORE DUP1 PUSH1 0x60 DUP2 MSTORE PUSH1 0x20 ADD PUSH1 0x60 DUP2 MSTORE PUSH1 0x20 ADD PUSH0 PUSH21 0xFFFFFFFFFFFFFFFFFFFFFFFFFFFFFFFFFFFFFFFFFF AND DUP2 MSTORE PUSH1 0x20 ADD PUSH1 0x60 DUP2 MSTORE POP SWAP1 JUMP JUMPDEST PUSH0 PUSH1 0x40 MLOAD SWAP1 POP SWAP1 JUMP JUMPDEST PUSH0 PUSH0 REVERT JUMPDEST PUSH0 PUSH0 REVERT JUMPDEST PUSH0 PUSH0 REVERT JUMPDEST PUSH0 PUSH0 REVERT JUMPDEST PUSH0 PUSH1 0x1F NOT PUSH1 0x1F DUP4 ADD AND SWAP1 POP SWAP2 SWAP1 POP JUMP JUMPDEST PUSH32 0x4E487B7100000000000000000000000000000000000000000000000000000000 PUSH0 MSTORE PUSH1 0x41 PUSH1 0x4 MSTORE PUSH1 0x24 PUSH0 REVERT JUMPDEST PUSH2 0x5F9 DUP3 PUSH2 0x5B3 JUMP JUMPDEST DUP2 ADD DUP2 DUP2 LT PUSH8 0xFFFFFFFFFFFFFFFF DUP3 GT OR ISZERO PUSH2 0x618 JUMPI PUSH2 0x617 PUSH2 0x5C3 JUMP JUMPDEST JUMPDEST DUP1 PUSH1 0x40 MSTORE POP POP POP JUMP JUMPDEST PUSH0 PUSH2 0x62A PUSH2 0x59A JUMP JUMPDEST SWAP1 POP PUSH2 0x636 DUP3 DUP3 PUSH2 0x5F0 JUMP JUMPDEST SWAP2 SWAP1 POP JUMP JUMPDEST PUSH0 PUSH8 0xFFFFFFFFFFFFFFFF DUP3 GT ISZERO PUSH2 0x655 JUMPI PUSH2 0x654 PUSH2 0x5C3 JUMP JUMPDEST JUMPDEST PUSH2 0x65E DUP3 PUSH2 0x5B3 JUMP JUMPDEST SWAP1 POP PUSH1 0x20 DUP2 ADD SWAP1 POP SWAP2 SWAP1 POP JUMP JUMPDEST DUP3 DUP2 DUP4 CALLDATACOPY PUSH0 DUP4 DUP4 ADD MSTORE POP POP POP JUMP JUMPDEST PUSH0 PUSH2 0x68B PUSH2 0x686 DUP5 PUSH2 0x63B JUMP JUMPDEST PUSH2 0x621 JUMP JUMPDEST SWAP1 POP DUP3 DUP2 MSTORE PUSH1 0x20 DUP2 ADD DUP5 DUP5 DUP5 ADD GT ISZERO PUSH2 0x6A7 JUMPI PUSH2 0x6A6 PUSH2 0x5AF JUMP JUMPDEST JUMPDEST PUSH2 0x6B2 DUP5 DUP3 DUP6 PUSH2 0x66B JUMP JUMPDEST POP SWAP4 SWAP3 POP POP POP JUMP JUMPDEST PUSH0 DUP3 PUSH1 0x1F DUP4 ADD SLT PUSH2 0x6CE JUMPI PUSH2 0x6CD PUSH2 0x5AB JUMP JUMPDEST JUMPDEST DUP2 CALLDATALOAD PUSH2 0x6DE DUP5 DUP3 PUSH1 0x20 DUP7 ADD PUSH2 0x679 JUMP JUMPDEST SWAP2 POP POP SWAP3 SWAP2 POP POP JUMP JUMPDEST PUSH0 PUSH21 0xFFFFFFFFFFFFFFFFFFFFFFFFFFFFFFFFFFFFFFFFFF DUP3 AND SWAP1 POP SWAP2 SWAP1 POP JUMP JUMPDEST PUSH2 0x710 DUP2 PUSH2 0x6E7 JUMP JUMPDEST DUP2 EQ PUSH2 0x71A JUMPI PUSH0 PUSH0 REVERT JUMPDEST POP JUMP JUMPDEST PUSH0 DUP2 CALLDATALOAD SWAP1 POP PUSH2 0x72B DUP2 PUSH2 0x707 JUMP JUMPDEST SWAP3 SWAP2 POP POP JUMP JUMPDEST PUSH0 PUSH0 PUSH0 PUSH0 PUSH1 0x80 DUP6 DUP8 SUB SLT ISZERO PUSH2 0x749 JUMPI PUSH2 0x748 PUSH2 0x5A3 JUMP JUMPDEST JUMPDEST PUSH0 DUP6 ADD CALLDATALOAD PUSH8 0xFFFFFFFFFFFFFFFF DUP2 GT ISZERO PUSH2 0x766 JUMPI PUSH2 0x765 PUSH2 0x5A7 JUMP JUMPDEST JUMPDEST PUSH2 0x772 DUP8 DUP3 DUP9 ADD PUSH2 0x6BA JUMP JUMPDEST SWAP5 POP POP PUSH1 0x20 DUP6 ADD CALLDATALOAD PUSH8 0xFFFFFFFFFFFFFFFF DUP2 GT ISZERO PUSH2 0x793 JUMPI PUSH2 0x792 PUSH2 0x5A7 JUMP JUMPDEST JUMPDEST PUSH2 0x79F DUP8 DUP3 DUP9 ADD PUSH2 0x6BA JUMP JUMPDEST SWAP4 POP POP PUSH1 0x40 DUP6 ADD CALLDATALOAD PUSH8 0xFFFFFFFFFFFFFFFF DUP2 GT ISZERO PUSH2 0x7C0 JUMPI PUSH2 0x7BF PUSH2 0x5A7 JUMP JUMPDEST JUMPDEST PUSH2 0x7CC DUP8 DUP3 DUP9 ADD PUSH2 0x6BA JUMP JUMPDEST SWAP3 POP POP PUSH1 0x60 PUSH2 0x7DD DUP8 DUP3 DUP9 ADD PUSH2 0x71D JUMP JUMPDEST SWAP2 POP POP SWAP3 SWAP6 SWAP2 SWAP5 POP SWAP3 POP JUMP JUMPDEST PUSH0 PUSH13 0xFFFFFFFFFFFFFFFFFFFFFFFFFF DUP3 AND SWAP1 POP SWAP2 SWAP1 POP JUMP JUMPDEST PUSH2 0x80A DUP2 PUSH2 0x7E9 JUMP JUMPDEST DUP2 EQ PUSH2 0x814 JUMPI PUSH0 PUSH0 REVERT JUMPDEST POP JUMP JUMPDEST PUSH0 DUP2 CALLDATALOAD SWAP1 POP PUSH2 0x825 DUP2 PUSH2 0x801 JUMP JUMPDEST SWAP3 SWAP2 POP POP JUMP JUMPDEST PUSH0 PUSH0 PUSH0 PUSH1 0x60 DUP5 DUP7 SUB SLT ISZERO PUSH2 0x842 JUMPI PUSH2 0x841 PUSH2 0x5A3 JUMP JUMPDEST JUMPDEST PUSH0 DUP5 ADD CALLDATALOAD PUSH8 0xFFFFFFFFFFFFFFFF DUP2 GT ISZERO PUSH2 0x85F JUMPI PUSH2 0x85E PUSH2 0x5A7 JUMP JUMPDEST JUMPDEST PUSH2 0x86B DUP7 DUP3 DUP8 ADD PUSH2 0x6BA JUMP JUMPDEST SWAP4 POP POP PUSH1 0x20 PUSH2 0x87C DUP7 DUP3 DUP8 ADD PUSH2 0x817 JUMP JUMPDEST SWAP3 POP POP PUSH1 0x40 DUP5 ADD CALLDATALOAD PUSH8 0xFFFFFFFFFFFFFFFF DUP2 GT ISZERO PUSH2 0x89D JUMPI PUSH2 0x89C PUSH2 0x5A7 JUMP JUMPDEST JUMPDEST PUSH2 0x8A9 DUP7 DUP3 DUP8 ADD PUSH2 0x6BA JUMP JUMPDEST SWAP2 POP POP SWAP3 POP SWAP3 POP SWAP3 JUMP JUMPDEST PUSH0 PUSH1 0x20 DUP3 DUP5 SUB SLT ISZERO PUSH2 0x8C8 JUMPI PUSH2 0x8C7 PUSH2 0x5A3 JUMP JUMPDEST JUMPDEST PUSH0 DUP3 ADD CALLDATALOAD PUSH8 0xFFFFFFFFFFFFFFFF DUP2 GT ISZERO PUSH2 0x8E5 JUMPI PUSH2 0x8E4 PUSH2 0x5A7 JUMP JUMPDEST JUMPDEST PUSH2 0x8F1 DUP5 DUP3 DUP6 ADD PUSH2 0x6BA JUMP JUMPDEST SWAP2 POP POP SWAP3 SWAP2 POP POP JUMP JUMPDEST PUSH0 DUP2 MLOAD SWAP1 POP SWAP2 SWAP1 POP JUMP JUMPDEST PUSH0 DUP3 DUP3 MSTORE PUSH1 0x20 DUP3 ADD SWAP1 POP SWAP3 SWAP2 POP POP JUMP JUMPDEST DUP3 DUP2 DUP4 MCOPY PUSH0 DUP4 DUP4 ADD MSTORE POP POP POP JUMP JUMPDEST PUSH0 PUSH2 0x92C DUP3 PUSH2 0x8FA JUMP JUMPDEST PUSH2 0x936 DUP2 DUP6 PUSH2 0x904 JUMP JUMPDEST SWAP4 POP PUSH2 0x946 DUP2 DUP6 PUSH1 0x20 DUP7 ADD PUSH2 0x914 JUMP JUMPDEST PUSH2 0x94F DUP2 PUSH2 0x5B3 JUMP JUMPDEST DUP5 ADD SWAP2 POP POP SWAP3 SWAP2 POP POP JUMP JUMPDEST PUSH0 PUSH1 0x20 DUP3 ADD SWAP1 POP DUP2 DUP2 SUB PUSH0 DUP4 ADD MSTORE PUSH2 0x972 DUP2 DUP5 PUSH2 0x922 JUMP JUMPDEST SWAP1 POP SWAP3 SWAP2 POP POP JUMP JUMPDEST PUSH2 0x983 DUP2 PUSH2 0x6E7 JUMP JUMPDEST DUP3 MSTORE POP POP JUMP JUMPDEST PUSH0 PUSH1 0x80 DUP3 ADD SWAP1 POP DUP2 DUP2 SUB PUSH0 DUP4 ADD MSTORE PUSH2 0x9A1 DUP2 DUP8 PUSH2 0x922 JUMP JUMPDEST SWAP1 POP DUP2 DUP2 SUB PUSH1 0x20 DUP4 ADD MSTORE PUSH2 0x9B5 DUP2 DUP7 PUSH2 0x922 JUMP JUMPDEST SWAP1 POP PUSH2 0x9C4 PUSH1 0x40 DUP4 ADD DUP6 PUSH2 0x97A JUMP JUMPDEST DUP2 DUP2 SUB PUSH1 0x60 DUP4 ADD MSTORE PUSH2 0x9D6 DUP2 DUP5 PUSH2 0x922 JUMP JUMPDEST SWAP1 POP SWAP6 SWAP5 POP POP POP POP POP JUMP JUMPDEST PUSH0 DUP2 SWAP1 POP SWAP3 SWAP2 POP POP JUMP JUMPDEST PUSH0 PUSH2 0x9F5 DUP3 PUSH2 0x8FA JUMP JUMPDEST PUSH2 0x9FF DUP2 DUP6 PUSH2 0x9E1 JUMP JUMPDEST SWAP4 POP PUSH2 0xA0F DUP2 DUP6 PUSH1 0x20 DUP7 ADD PUSH2 0x914 JUMP JUMPDEST DUP1 DUP5 ADD SWAP2 POP POP SWAP3 SWAP2 POP POP JUMP JUMPDEST PUSH0 PUSH2 0xA26 DUP3 DUP5 PUSH2 0x9EB JUMP JUMPDEST SWAP2 POP DUP2 SWAP1 POP SWAP3 SWAP2 POP POP JUMP JUMPDEST PUSH32 0x4E487B7100000000000000000000000000000000000000000000000000000000 PUSH0 MSTORE PUSH1 0x22 PUSH1 0x4 MSTORE PUSH1 0x24 PUSH0 REVERT JUMPDEST PUSH0 PUSH1 0x2 DUP3 DIV SWAP1 POP PUSH1 0x1 DUP3 AND DUP1 PUSH2 0xA75 JUMPI PUSH1 0x7F DUP3 AND SWAP2 POP JUMPDEST PUSH1 0x20 DUP3 LT DUP2 SUB PUSH2 0xA88 JUMPI PUSH2 0xA87 PUSH2 0xA31 JUMP JUMPDEST JUMPDEST POP SWAP2 SWAP1 POP JUMP JUMPDEST PUSH0 DUP2 SWAP1 POP DUP2 PUSH0 MSTORE PUSH1 0x20 PUSH0 KECCAK256 SWAP1 POP SWAP2 SWAP1 POP JUMP JUMPDEST PUSH0 PUSH1 0x20 PUSH1 0x1F DUP4 ADD DIV SWAP1 POP SWAP2 SWAP1 POP JUMP JUMPDEST PUSH0 DUP3 DUP3 SHL SWAP1 POP SWAP3 SWAP2 POP POP JUMP JUMPDEST PUSH0 PUSH1 0x8 DUP4 MUL PUSH2 0xAEA PUSH32 0xFFFFFFFFFFFFFFFFFFFFFFFFFFFFFFFFFFFFFFFFFFFFFFFFFFFFFFFFFFFFFFFF DUP3 PUSH2 0xAAF JUMP JUMPDEST PUSH2 0xAF4 DUP7 DUP4 PUSH2 0xAAF JUMP JUMPDEST SWAP6 POP DUP1 NOT DUP5 AND SWAP4 POP DUP1 DUP7 AND DUP5 OR SWAP3 POP POP POP SWAP4 SWAP3 POP POP POP JUMP JUMPDEST PUSH0 DUP2 SWAP1 POP SWAP2 SWAP1 POP JUMP JUMPDEST PUSH0 DUP2 SWAP1 POP SWAP2 SWAP1 POP JUMP JUMPDEST PUSH0 PUSH2 0xB38 PUSH2 0xB33 PUSH2 0xB2E DUP5 PUSH2 0xB0C JUMP JUMPDEST PUSH2 0xB15 JUMP JUMPDEST PUSH2 0xB0C JUMP JUMPDEST SWAP1 POP SWAP2 SWAP1 POP JUMP JUMPDEST PUSH0 DUP2 SWAP1 POP SWAP2 SWAP1 POP JUMP JUMPDEST PUSH2 0xB51 DUP4 PUSH2 0xB1E JUMP JUMPDEST PUSH2 0xB65 PUSH2 0xB5D DUP3 PUSH2 0xB3F JUMP JUMPDEST DUP5 DUP5 SLOAD PUSH2 0xABB JUMP JUMPDEST DUP3 SSTORE POP POP POP POP JUMP JUMPDEST PUSH0 PUSH0 SWAP1 POP SWAP1 JUMP JUMPDEST PUSH2 0xB7C PUSH2 0xB6D JUMP JUMPDEST PUSH2 0xB87 DUP2 DUP5 DUP5 PUSH2 0xB48 JUMP JUMPDEST POP POP POP JUMP JUMPDEST JUMPDEST DUP2 DUP2 LT ISZERO PUSH2 0xBAA JUMPI PUSH2 0xB9F PUSH0 DUP3 PUSH2 0xB74 JUMP JUMPDEST PUSH1 0x1 DUP2 ADD SWAP1 POP PUSH2 0xB8D JUMP JUMPDEST POP POP JUMP JUMPDEST PUSH1 0x1F DUP3 GT ISZERO PUSH2 0xBEF JUMPI PUSH2 0xBC0 DUP2 PUSH2 0xA8E JUMP JUMPDEST PUSH2 0xBC9 DUP5 PUSH2 0xAA0 JUMP JUMPDEST DUP2 ADD PUSH1 0x20 DUP6 LT ISZERO PUSH2 0xBD8 JUMPI DUP2 SWAP1 POP JUMPDEST PUSH2 0xBEC PUSH2 0xBE4 DUP6 PUSH2 0xAA0 JUMP JUMPDEST DUP4 ADD DUP3 PUSH2 0xB8C JUMP JUMPDEST POP POP JUMPDEST POP POP POP JUMP JUMPDEST PUSH0 DUP3 DUP3 SHR SWAP1 POP SWAP3 SWAP2 POP POP JUMP JUMPDEST PUSH0 PUSH2 0xC0F PUSH0 NOT DUP5 PUSH1 0x8 MUL PUSH2 0xBF4 JUMP JUMPDEST NOT DUP1 DUP4 AND SWAP2 POP POP SWAP3 SWAP2 POP POP JUMP JUMPDEST PUSH0 PUSH2 0xC27 DUP4 DUP4 PUSH2 0xC00 JUMP JUMPDEST SWAP2 POP DUP3 PUSH1 0x2 MUL DUP3 OR SWAP1 POP SWAP3 SWAP2 POP POP JUMP JUMPDEST PUSH2 0xC40 DUP3 PUSH2 0x8FA JUMP JUMPDEST PUSH8 0xFFFFFFFFFFFFFFFF DUP2 GT ISZERO PUSH2 0xC59 JUMPI PUSH2 0xC58 PUSH2 0x5C3 JUMP JUMPDEST JUMPDEST PUSH2 0xC63 DUP3 SLOAD PUSH2 0xA5E JUMP JUMPDEST PUSH2 0xC6E DUP3 DUP3 DUP6 PUSH2 0xBAE JUMP JUMPDEST PUSH0 PUSH1 0x20 SWAP1 POP PUSH1 0x1F DUP4 GT PUSH1 0x1 DUP2 EQ PUSH2 0xC9F JUMPI PUSH0 DUP5 ISZERO PUSH2 0xC8D JUMPI DUP3 DUP8 ADD MLOAD SWAP1 POP JUMPDEST PUSH2 0xC97 DUP6 DUP3 PUSH2 0xC1C JUMP JUMPDEST DUP7 SSTORE POP PUSH2 0xCFE JUMP JUMPDEST PUSH1 0x1F NOT DUP5 AND PUSH2 0xCAD DUP7 PUSH2 0xA8E JUMP JUMPDEST PUSH0 JUMPDEST DUP3 DUP2 LT ISZERO PUSH2 0xCD4 JUMPI DUP5 DUP10 ADD MLOAD DUP3 SSTORE PUSH1 0x1 DUP3 ADD SWAP2 POP PUSH1 0x20 DUP6 ADD SWAP5 POP PUSH1 0x20 DUP2 ADD SWAP1 POP PUSH2 0xCAF JUMP JUMPDEST DUP7 DUP4 LT ISZERO PUSH2 0xCF1 JUMPI DUP5 DUP10 ADD MLOAD PUSH2 0xCED PUSH1 0x1F DUP10 AND DUP3 PUSH2 0xC00 JUMP JUMPDEST DUP4 SSTORE POP JUMPDEST PUSH1 0x1 PUSH1 0x2 DUP9 MUL ADD DUP9 SSTORE POP POP POP JUMPDEST POP POP POP POP POP POP JUMP INVALID LOG2 PUSH5 0x6970667358 0x22 SLT KECCAK256 DUP6 SWAP10 0xB3 DUP8 0xB4 0x4B 0x27 0xEB SWAP11 SWAPN 0xD PUSH9 0x7A2CF8551DDA44906 BYTE 0xE8 0xA9 0x2B CALLF 0x924F CODECOPY SSTORE SWAP15 0x4C PUSH5 0x736F6C6343 STOP ADDMOD 0x1E STOP CALLER "
		},
		"gasEstimates": {
			"creation": {
				"codeDepositCost": "677600",
				"executionCost": "706",
				"totalCost": "678306"
			},
			"external": {
				"addpatient(string,uint104,string)": "infinite",
				"createaccount(string,string,string,uint168)": "infinite",
				"getuseremial(string)": "infinite",
				"users(string)": "infinite"
			}
		},
		"methodIdentifiers": {
			"addpatient(string,uint104,string)": "25b9a40d",
			"createaccount(string,string,string,uint168)": "100607d4",
			"getuseremial(string)": "26b60286",
			"users(string)": "689e1c03"
		}
	},
	"abi": [
		{
			"inputs": [
				{
					"internalType": "string",
					"name": "name",
					"type": "string"
				},
				{
					"internalType": "uint104",
					"name": "age",
					"type": "uint104"
				},
				{
					"internalType": "string",
					"name": "hospitalname",
					"type": "string"
				}
			],
			"name": "addpatient",
			"outputs": [],
			"stateMutability": "nonpayable",
			"type": "function"
		},
		{
			"inputs": [
				{
					"internalType": "string",
					"name": "name",
					"type": "string"
				},
				{
					"internalType": "string",
					"name": "hospitalname",
					"type": "string"
				},
				{
					"internalType": "string",
					"name": "email",
					"type": "string"
				},
				{
					"internalType": "uint168",
					"name": "phnum",
					"type": "uint168"
				}
			],
			"name": "createaccount",
			"outputs": [],
			"stateMutability": "nonpayable",
			"type": "function"
		},
		{
			"inputs": [
				{
					"internalType": "string",
					"name": "uname",
					"type": "string"
				}
			],
			"name": "getuseremial",
			"outputs": [
				{
					"internalType": "string",
					"name": "",
					"type": "string"
				}
			],
			"stateMutability": "view",
			"type": "function"
		},
		{
			"inputs": [
				{
					"internalType": "string",
					"name": "",
					"type": "string"
				}
			],
			"name": "users",
			"outputs": [
				{
					"internalType": "string",
					"name": "name",
					"type": "string"
				},
				{
					"internalType": "string",
					"name": "emial",
					"type": "string"
				},
				{
					"internalType": "uint168",
					"name": "phnum",
					"type": "uint168"
				},
				{
					"internalType": "string",
					"name": "hospitalname",
					"type": "string"
				}
			],
			"stateMutability": "view",
			"type": "function"
		}
	]
}